:020000040100F9
:10000000680D0021CD160001A73D0001A1160001D9
:10001000A1160001A1160001A116000100000000B8
:10002000000000000000000000000000DD110001E1
:10003000A116000100000000A1160001A116000198
:100040003912000139120001391200013912000180
:100050003912000139120001391200013912000170
:100060003912000139120001391200013912000160
:100070003912000139120001391200013912000150
:100080003912000139120001391200013912000140
:100090003912000139120001391200013912000130
:1000A0003912000139120001391200013912000120
:1000B00039120001391200010000000000000000A8
:1000C0000000000000000000000000000000000030
:1000D0000000000000000000000000000000000020
:1000E0000000000000000000000000000000000010
:1000F0000000000000000000000000000000000000
:1001000000000000000000000000000000000000EF
:1001100000000000000000000000000000000000DF
:1001200000000000000000000000000000000000CF
:1001300000000000000000000000000000000000BF
:1001400000000000000000000000000000000000AF
:10015000000000000000000000000000000000009F
:10016000000000000000000000000000000000008F
:10017000000000000000000000000000000000007F
:10018000000000000000000000000000000000006F
:10019000000000000000000000000000000000005F
:1001A000000000000000000000000000000000004F
:1001B000000000000000000000000000000000003F
:1001C000000000000000000000000000000000002F
:1001D000000000000000000000000000000000001F
:1001E000000000000000000000000000000000000F
:1001F00000000000000000000000000000000000FF
:10020000DEE61E284CBBCE8F023500003C0000000D
:100210006C5400000100000000000001000000011B
:10022000FFFF02910000000000000000000000003D
:1002300000000000000000000000000030B44FF09B
:10024000000310F8014B11F8015B013A84EA050440
:1002500043EA0403F5D1A3F101034FEAD37030BCA4
:10026000704700BF4FF0000310F8012B013943EA3B
:100270000203F9D1A3F101034FEAD370704700BF25
:1002800030B411F8014B12F8015B6C4000F8014BDF
:10029000013BF6D130BC70472DE9F04F90E8F00FEC
:1002A00000F140004FF0040E59E0F0B4826BC36BD4
:1002B00004680525242687593C444FEA724787EA9B
:1002C000F24787EA92273C4442684FEAF21787EAEE
:1002D000B24787EAD2073C4440F8044B032D08BFDD
:1002E0006FF01B0687593A444FEA734787EAF34792
:1002F00087EA93273A4443684FEAF31787EAB347FC
:1003000087EAD3073A4440F8042B87593B444FEA25
:10031000744787EAF44787EA94273B4444684FEAE6
:10032000F41787EAB44787EAD4073B4440F8043B14
:10033000013DC0D1A0F13C00076A3C444FEA72473E
:1003400087EAF24787EA92273C4402684FEAF217AD
:1003500087EAB24787EAD2073C44C463F0BC4FF057
:10036000020288EA781C8CEAF84C0BEBBC1C8AEA87
:10037000090303EA080383EA0A039C4450F8043B98
:100380009C4451F8043B9C44674444EA050B0BEA47
:10039000060B04EA05034BEA030BE34484EAF42367
:1003A00083EA34530BEBB30B87EA771C8CEAF74CE8
:1003B0000AEBBC1C89EA080303EA070383EA090382
:1003C0009C4450F8043B9C4451F8043B9C446644D4
:1003D0004BEA040A0AEA050A0BEA04034AEA030A9A
:1003E000E2448BEAFB2383EA3B530AEBB30A86EA37
:1003F000761C8CEAF64C09EBBC1C88EA070303EA7E
:10040000060383EA08039C4450F8043B9C4451F8DB
:10041000043B9C4465444AEA0B0909EA04090AEAD8
:100420000B0349EA0309E1448AEAFA2383EA3A53CF
:1004300009EBB30985EA751C8CEAF54C08EBBC1C8A
:1004400087EA060303EA050383EA07039C4450F89E
:10045000043B9C4451F8043B9C44644449EA0A0828
:1004600008EA0B0809EA0A0348EA0308E04489EAB3
:10047000F92383EA395308EBB30884EA741C8CEA45
:10048000F44C07EBBC1C86EA050303EA040383EA89
:1004900006039C4450F8043B9C4451F8043B9C44A4
:1004A000E34448EA090707EA0A0708EA090347EAB2
:1004B0000307674488EAF82383EA385307EBB30756
:1004C0008BEA7B1C8CEAFB4C06EBBC1C85EA040324
:1004D00003EA0B0383EA05039C4450F8043B9C4465
:1004E00051F8043B9C44E24447EA080606EA090640
:1004F00007EA080346EA0306664487EAF72383EA25
:10050000375306EBB3068AEA7A1C8CEAFA4C05EB01
:10051000BC1C84EA0B0303EA0A0383EA04039C4439
:1005200050F8043B9C4451F8043B9C44E14446EAA7
:10053000070505EA080506EA070345EA03056544D9
:1005400086EAF62383EA365305EBB30589EA791C7C
:100550008CEAF94C04EBBC1C8BEA0A0303EA09039E
:1005600083EA0B039C4450F8043B9C4451F8043B41
:100570009C44E04445EA060404EA070405EA06034D
:1005800044EA0304644485EAF52383EA355304EB23
:10059000B304013A7FF4E5AEA0F14000BEF1010ED4
:1005A0007FF483AEA0F1400C9CE80F0000194919BC
:1005B0009219DB19ACE80F009CE80F004044494455
:1005C00052445B44ACE80F00BDE8F08F2DE9F043E6
:1005D00085B0304803F070FD30B92F4803F02EFA93
:1005E000002005B0BDE8F0834FF408414FF0807063
:1005F00003F0B6FC28B1294803F020FA01F08AFF85
:10060000EEE701F081FF054601F08CFFE8B903F049
:100610001FFD04460146284603F0DEFC10B92146C2
:100620001F4805E01B4801F099FF014618B11D481D
:1006300003F004FAE2E72946284603F0CDFC10B1A6
:1006400001F0C8FFFEE72946EAE74FF45E3116489D
:1006500003F086FC014608B11448E9E70446DFF8D8
:100660005090DFF8508001AF59F8046B98E807000C
:100670002E4487E807000C223946304603F032FD4D
:1006800000B91EB90134052CEED10026304601F028
:100690007BFDA5E7CC4100012C450001444500014C
:1006A000724500019C45000100880001BB45000126
:1006B0006843000120430001014B1B68184700BF3D
:1006C0000000002130B585B004460D4610220021FF
:1006D000684603F04CFD02238DF80230044B2A4695
:1006E00021466846019302F061FF05B030BD00BFAE
:1006F000B9060001B2F5802F2DE9F0410CD2042A91
:1007000020D83D494FF4F9723C4803F0AEFA4FF45B
:10071000F971394803F0A2FA0823D21ACC1D11440A
:1007200024F0070421F00701091B17294FEAD1061D
:100730000AD8314940F2FB12304803F096FA40F2F1
:10074000FB11E6E70423E8E7002704603146304662
:10075000A660E76003F0C0F90121421D80463046E3
:1007600003F0B1F99200D51DED082844B0423AD803
:10077000B8F1FF3F3946A2F1100204F11000B8BFF2
:100780003A4603F0F4FC2A463946204603F097F92E
:100790003B463A463946204603F068F9A6EB050881
:1007A00020463946012203F072F94246294603F0F9
:1007B00086F92B463A462946204603F057F931463A
:1007C000204603F07CF943463A463146204603F082
:1007D0004DF931462046012203F059F92946BDE87A
:1007E000F04103F085B904494FF40372034803F064
:1007F0003CFA4FF403718CE7EE4500010F4600010F
:100800002DE9F0471646028B0446100712D4022940
:1008100002F007025BD1204603F0ACF988B1013841
:10082000042800F21081DFE810F052000E0174007D
:10083000B300E00001290CBF42F0100242F0200298
:10084000228386F31188BFF36F8FBDE8F08703F032
:100850000701481F01281ED8002006292768C4E97F
:10086000000014D1394603E0608B013060830968D1
:100870000029F9D123F0070343F002012046218328
:1008800003F078F990B341F0200121832EE023F0AA
:10089000070399B2F2E7042930D123F0070399B294
:1008A0002046218303F066F910B141F02001218335
:1008B000238B03F00709914540F0CE80228BD106AF
:1008C00040F1F68022F01003238302F00702D4F8EF
:1008D0001480238BB8F1000FB9DA0021276823F0C8
:1008E0000703C4E9001143F001032383238B03F0C2
:1008F0000709914500F0E580002536E07C4940F28B
:100900001B127C4803F0B1F940F21B11784803F048
:10091000A5F942B176494FF4AB72764803F0A5F9D8
:100920004FF4AB71F2E7236843B9714940F25712B3
:10093000704803F09AF940F25711E7E723691D6800
:1009400045B96B494FF4AD726A4803F08EF94FF424
:10095000AD71DBE7174690464FF00609238B23F075
:10096000070343F006039BB22383A268002A76D1D3
:10097000002F40F0AA80002DA0D043F0080323836D
:1009800086F31188BFF36F8F20465B49A84782E04A
:10099000022A08D0564940F25D12564803F065F924
:1009A00040F25D11B2E7678B47B151494FF4AF7226
:1009B000504803F05AF94FF4AF71A7E723695D6817
:1009C00045B94B4940F261124A4803F04EF940F2F2
:1009D00061119BE7238BB84623F0070343F0040320
:1009E0009BB24FF004092383BFE7012A08D0404996
:1009F0004FF4B2723F4803F038F94FF4B27185E713
:100A0000236843B93A4940F265123A4803F02DF998
:100A100040F265117AE723699D6845B934494FF47E
:100A2000B472344803F021F94FF4B4716EE7002733
:100A3000238BB84623F0070343F005039BB24FF026
:100A40000509238391E72A4940F26B12294803F0F4
:100A50000CF940F26B1159E700273D4685E743F05A
:100A60000803238386F31188BFF36F8FA1680029E1
:100A700032D00E6881B343464A462046D1F804A0DE
:100A8000D0471EB1336831461E46F3E73346FAE7D6
:100A9000002D7FF479AF4FF02003EFF3118683F33D
:100AA0001288BFF36F8F238B23F00803238305E79E
:100AB00093067FF5C6AE22F02003238302F00702DF
:100AC000A9E6002F3FF4FAAE002543F00803238384
:100AD00086F31188BFF36F8F002FD9D03E68394657
:100AE00043464A46204603F071F83746F4E700BF14
:100AF000274600010F460001F93B000170B505468D
:100B00000E4603F053F8041E15DB4FF02003EFF3FD
:100B1000118283F31288BFF36F8F4FF6FF716B8BD7
:100B20002C8B8B4204F0070407D182F31188BFF3AA
:100B30006F8F6FF00A04204670BD022C0CD1013378
:100B40006B8382F31188BFF36F8F002322463146F7
:100B5000284603F03BF8EEE7062C11D8DFE804F056
:100B6000041E101004250400002333606B6893B941
:100B7000C5E9006604BB02212846FFF741FEDAE71B
:100B8000104911484FF4E47203F06FF84FF4E47128
:100B90000C4803F063F81E606E60EBE782F3118887
:100BA000BFF36F8F6FF00404C5E782F31188BFF3C2
:100BB0006F8F6FF08504BEE782F31188BFF36F8FEC
:100BC000B9E700BF274600010F46000108B542689B
:100BD000034602F00302032A816002D02AB10020FA
:100BE00000E0006800225A6008BD0449044845221C
:100BF00003F03BF84521014803F030F84946000175
:100C00000F460001064AD2F8AC3123F00043C2F887
:100C1000AC310022034BC3F84C21D3F84C31704760
:100C200000200141006001410122024B0020C3F875
:100C300040257047000008415023142213B51F4C73
:100C40000DF10700C4F80C351D4BC3F820214FF4FB
:100C500000621C4BC3F8BC254FF48062C3F83825F2
:100C600003F008FA184B984225D118499DF807005F
:100C700001F004FE16499DF8070001F013FE154926
:100C80009DF8070001F0FAFD21469DF8070001F0EC
:100C900009FE01209DF80730984001F0E9FD4FF46E
:100CA000002200200C4BC3F84423C3F84C01D3F8B6
:100CB0004C3102B010BD6FF00B00FAE700B00041FC
:100CC00000302041002001410000AD0B4C6101418A
:100CD000282001412C2101410060014173B5354BB1
:100CE000D3E84F3F00233449CDE90033334BD3F8E9
:100CF0000445BFF35F8FD1F80465BFF35F8FD3F86E
:100D000004259442F3D16B46224601212B4802F080
:100D1000BAFF324605460F21274801AB02F0B3FF68
:100D2000E0B1019B0DB9009302E0009A9342FAD31F
:100D3000009B22481C44013CD0F84C3524F07F44F1
:100D40009C421F4932D0FFF75DFFC0F84C451D4B58
:100D5000009A9A4218D901230B7001E0002DE7D1C7
:100D6000194AD2F8AC3143F00043C2F8AC31134B0E
:100D7000D3F84C2132B90121144A5160D3F84C31D7
:100D800003B1116001230DE0BFF35F8FD0F804358C
:100D9000E41A24F07F440E4B033C9C42DBD9002331
:100DA0000B7000230B4A137002B070BD0B78002B40
:100DB000F7D0D5E764010021001001410060014136
:100DC00062010021FEFF7F000020014100B00041D0
:100DD000FBFF7F0063010021F8B51E490023C1E835
:100DE000423F52BB1C4B1D783DB305231B4E1C4F8D
:100DF00034780134B4FBF3F303EB8303E41A03F018
:100E0000ABF8184A137823B157F82430C01A0728D2
:100E100013D9154BD3F8141141B10021C3F81411A3
:100E2000D3F8143134700CB901231370347803F003
:100E300093F847F824002846F8BD0C4A0025D2F85C
:100E4000AC3123F00043C2F8AC310122084B5A60A8
:100E5000F1E700BF6401002163010021610100216D
:100E6000C00000216001002100500041002001412C
:100E700000B0004120B1034B800143F0010318474B
:100E8000704700BF6043000101F06ABC10B54368C1
:100E90000A680C469A4207D90548452102F024FF0A
:100EA00000231846636010BD4A6801201344F9E727
:100EB000704600017FB50546C06801AA03F019F825
:100EC000044638B1024645210D4802F00DFF204688
:100ED00004B070BD01992B6A8B42F8D0E868029A81
:100EE00083689B689847064630B10246452105480D
:100EF00002F0FAFE3446EAE7019B2B62E7E700BF07
:100F000095460001BB460001F8B5816805460029F9
:100F10003CD0D0E9043601391E443144FFF7CAFF02
:100F2000041E07DA3346224645212A4802F0DCFE39
:100F30002046F8BDE86802F0E4FEAC68B4FBF0F3CC
:100F400000FB13445CB1041BE8688368DB689847C6
:100F50002F68AB6801792246F81803F008F9AB68EE
:100F6000E8682A68234481684C683146A0470446F3
:100F700020B10246334645211748D7E7EB695BB9F4
:100F80002B69AA6813442B610023AB600024CFE7D0
:100F9000135DDB4313550134AB682A689C42F7D3D9
:100FA000E86881680C683146A047044628B14521AD
:100FB00002460A4802F098FEBAE73246EB69A96891
:100FC0002868984704460028DAD00246452104489C
:100FD000F0E700BFDC4600010F4700013847000181
:100FE000534700012DE9F7430D46DDE90A86914696
:100FF0001F46044680B179B172B1009300230846C0
:10100000019302F07EFEB7FBF0F303FB107040B1DA
:101010004521194802F068FE6FF00D0003B0BDE8ED
:10102000F0836A462846154902F067FF019B002BB2
:10103000F2D008EB0602934202D245211048E9E7BC
:10104000284602F05EFEB8FBF0F303FB1080002898
:10105000F3D1C4E90097E5602061A060C4F8148072
:1010600016B9019EA6EB08060C9B0020E3614FF029
:10107000FF33A6612362D1E76C4700018D0E0001AA
:10108000A8470001014910220A60704710ED00E0F6
:1010900001B5FFF723FEBDE8014072B6494081F378
:1010A000118801B5FFF798FE002806D0BFF34F8FD7
:1010B00020BF00BF00BF00BF00BFBDE8014080F3FC
:1010C000118862B6704700BF37B505460C46C9B1F6
:1010D0008B6810480093D1E90023452102F004FEFB
:1010E000636945210093D4E903230B4802F0FCFD1A
:1010F0004521E269094802F0F7FD4521A269084847
:1011000002F0F2FD2146284603B0BDE8304001F070
:10111000E7BD00BFCE47000102480001364800018C
:101120004A48000140B2002807DB01234109034A75
:1011300000F01F00834042F82130704700E100E0DA
:10114000054B420953F82220012300F01F0003FA47
:1011500000F01040704700BF00E100E001310729B6
:1011600008B508D90D490E485C2202F07EFD5C21CD
:101170000A4802F073FD40B20028ACBF00F16040A5
:10118000084B4FEA4111C9B2ABBF00F5614000F016
:101190000F0080F80013195408BD00BF7D480001FE
:1011A0000F46000114ED00E030BFFFF7FDBF00BFA8
:1011B00008B5084B084A23F07F039360BFF34F8FB5
:1011C000BFF36F8F01F014FE01F056FE00F072FACB
:1011D00001F01AFE0000000100ED00E01EF0040F17
:1011E0000CBFEFF30880EFF30980816911F8021C4E
:1011F0000229FFD001B502F0CEFD01BD044608462C
:1012000011461A46002383F30B880A4B2025A3F5C9
:10121000806686F30B8883F3098863B64FF000037A
:1012200083F31188BFF36F8FA04785F31188BFF355
:101230006F8FFEE7680D002101B5EFF30580A0F187
:1012400010004FEAC0000449014409C99847BDE8AD
:101250000140024908470000E0410001611200011D
:10126000704700BF10B5244C4521244802F03CFDD6
:10127000A36A99013ED52248452102F035FD1E2082
:10128000A36ADA0104D51F48452102F02DFD1F2075
:10129000194CA36ADB0204D51B48452102F024FD4A
:1012A0000220A36A1C0304D51848452102F01CFD46
:1012B0002120114CA36A590304D51548452102F099
:1012C00013FD2220A36A9A0304D51248452102F097
:1012D0000BFD2320084CA36ADB0304D50E484521EF
:1012E00002F002FD2420A36A6FEA03436FEA13436E
:1012F000A36210BD1D20C3E700ED00E0B34800016C
:10130000D0480001E84800010749000136490001C2
:101310005949000183490001A249000170B5244CDC
:1013200006460D462348452102F0DEFCA36AD90497
:101330003BD52148452102F0D7FC1720A36A1A05A6
:1013400004D51E48452102F0CFFC1820184CA36A92
:101350009B0511D545211A4802F0C6FCA26BA36A71
:10136000190408D54521174802F0BEFC1EB1A36A36
:1013700023F40043A36219200D4CA36A5A0504D537
:101380001148452102F0B0FC1A20A36ADB0504D500
:101390000E48452102F0A8FC1B20054A936A43F43D
:1013A0007F43936200232B7070BD1620C6E700BFF9
:1013B00000ED00E0D2490001ED490001034A0001BF
:1013C0001B4A0001394A0001534A0001734A0001D7
:1013D00070B52A4C06460D462948452102F084FC8A
:1013E000A36AD80640D52748452102F07DFC11208C
:1013F000A36A190704D52448452102F075FC122080
:101400001E4CA36A9A0711D54521204802F06CFCB6
:10141000626BA36A1B0608D545211D4802F064FCD7
:101420001EB1A36A23F08003A3621320134CA36AA6
:10143000DE0704D51748452102F056FC1420A36AA4
:10144000D90602D4A36A9A0710D50C4B9B6ADB0617
:101450000CD51149114840F2631202F006FC40F22B
:1014600063110D4802F0FAFB1020C1E7034A936AAA
:1014700043F0FF03936200232B7070BD00ED00E08A
:10148000904A0001AB4A0001034A0001E34A00010F
:10149000004B00011B4B00013F4B00010F460001B8
:1014A000F0B56C4B0446586800258BB0C0F30803B8
:1014B00085F31188BFF36F8F02F07F46B6F17F4F3F
:1014C00007D102F00C06082E0ED14521624802F029
:1014D0000BFC62494FF48B62614802F0C6FB4FF48B
:1014E0008B615E4802F0BAFB16074CBF0C46012523
:1014F000002CEED00026DA1E8DF80760092A00F2D3
:101500009880DFE802F0058B8F76969696969693F4
:101510004521544802F0E8FB8DF807604D4EF36A10
:101520009A0705D54521504802F0DEFB002329E04B
:10153000F36A002B02DA45214C48F5E7F36A5B00B9
:1015400063D545214A4802F0CFFB7369A26943F491
:1015500080737361BFF34F8FBFF36F8F736932F87E
:10156000022C23F480737361BFF34F8FBFF36F8F2F
:101570004DF602739A4224D1452122683D4802F07B
:10158000B3FB23689DF80720CAB902AE04F1200717
:10159000324620686168083403C2BC421646F7D15F
:1015A000099A002D51D0C2F3080121B96FEA5222E5
:1015B0006FEA42220992184602A9FFF785FD0BB097
:1015C000F0BDB36ADBB233B101200DF10701FFF7C3
:1015D000FFFE0346D6E7B36A13F47F4F05D0012020
:1015E0000DF10701FFF79AFEF3E7B36AB3F5803F09
:1015F00002D3FFF737FEECE7184940F22A321848C9
:1016000002F033FB40F22A316BE7144940F22E32EC
:10161000134802F02AFB40F22E3162E700200DF160
:101620000701D4E700200DF10701DBE7452112484F
:101630007AE7124910F4F87F114A124808BF0A46A7
:10164000103B452102F050FB70E722F4FF7222F0BC
:101650000102AFE700ED00E0A74B00013F4B0001A6
:101660000F460001D74B0001F34B0001194C00015C
:101670002C4C0001504C0001714C0001794B0001D1
:101680008E4B00019A4C0001044B5A6942F0100243
:101690005A615A6942F480625A61704700ED00E075
:1016A000EFF30880EFF3098101B57246FFF7F8FE0A
:1016B00001BD00BF002320210348C21801331E2BA7
:1016C00082F80013F9D1704700E100E0002080F3B8
:1016D0001488BFF36F8F002080F30A8880F30B8893
:1016E000FFF7D2FB00200E490860BFF34F8F0D4873
:1016F00080F3088800F02CF8202080F311880A4835
:101700004FF40061401880F30988EFF31480022140
:10171000084380F31488BFF36F8FFFF749FD000083
:1017200094ED00E0680D002168010021BFF34F8FA8
:101730000549064BCA6802F4E0621343CB60BFF36D
:101740004F8F00BFFDE700BF00ED00E00400FA0589
:1017500072B6002383F313884FF0FF300C4A03F175
:1017600020010133102B42F82100F8D100234FF063
:10177000FF30074A03F160010133102B42F82100CA
:10178000F8D162B6BFF34F8FBFF36F8F704700BFC2
:1017900000E100E008B50649064821F00701C1F163
:1017A000045202F58032FEF7A5FF002008BD00BFFD
:1017B0007B0D0021680D0021402373B50B4C009375
:1017C000041B0B460D460A49A41061430646094A0C
:1017D000094802F002FB011E05DA30462B4602B032
:1017E000BDE87040184702B070BD00BFE80000219E
:1017F000B76DDBB64B3E0001B8410001C9B201290B
:1018000008B508D9084909487A2202F02EFA7A2147
:10181000054802F023FA0C22036901FB0233186C1D
:1018200000F0070008BD00BFB24C00010F460001E8
:1018300070B5C9B2012903690AD91849184840F29C
:101840005D1202F012FA40F25D11144802F006FA3D
:101850004FF02004EFF3118584F31288BFF36F8FEC
:101860000C2606FB0134246C14F0C00408D0A242FC
:1018700006D085F31188BFF36F8F4FF0FF3070BD36
:10188000012271430B441A6485F31188BFF36F8FF3
:1018900043680B445B6898470020F0E7B24C0001B6
:1018A0000F460001084B70B5C31A0D4607499B103F
:1018B0000446594340220648FFF7BAFF2B4601462B
:1018C0002046BDE870401847E8000021B76DDBB640
:1018D000B841000170B50022012104460520FFF740
:1018E0003DFC0F4801F060F80E4B984215D101F015
:1018F0006BF826690C49304602F08CF900280BDBA6
:10190000012535642469084904F11C0002F082F9BC
:10191000002801DB0020E56470BD6FF00400FBE7E8
:10192000611900010000AD0B7C43000101460C234E
:1019300000224B4370B50848C41840331844D4E91A
:101940000E56A26302F036FA2DB132462B46BDE8A0
:1019500070400248184770BDE8000021B8410001FE
:10196000012808B506D0042808D090B90E4B1B6C8E
:101970005B0717D1BDE80840FFF7D8BF0B4940F21D
:101980006E220B4802F071F940F26E21074802F016
:1019900065F9064940F27222054802F066F940F204
:1019A0007221F3E708BD00BFE8000021B24C00013E
:1019B0000F46000108B54FF02003EFF3118183F3C8
:1019C0001288BFF36F8F114A136843F00200106052
:1019D000DA0708D481F31188BFF36F8FBDE80840A0
:1019E000012001F019B80A4BD3F80C24D3F80C34B9
:1019F000DB07EFD5074802F0DDF981F31188BFF36B
:101A00006F8FBDE808400020FFF790BF380100212C
:101A1000005000412801002110B54FF02003EFF3E2
:101A2000118483F31288BFF36F8F074A136823F082
:101A30000201DB07116002D4012001F061F884F398
:101A40001188BFF36F8F10BD380100212DE9F843D5
:101A5000012206463E49D1E8EF3FC1E8E02F0028C9
:101A6000F9D19BB93B493C484B60CB608A60FFF79A
:101A700045F800280ADA39494FF40C72384802F068
:101A8000F4F84FF40C71354802F0E8F86EB3731EA9
:101A9000012B53D8012E06D1324BD3F81C3403F05E
:101AA0000303022B21D002F016FB0546F8B92E4B9A
:101AB0001B78E3B1022207462A4BC3F808234FF0F4
:101AC0000008284CDFF8A490D4F81824D4F818346F
:101AD000D20316D503F00303022B01D0012E10D13F
:101AE0003DB387F31188BFF36F8FBDE8F8834FF0E4
:101AF0002003EFF3118783F31288BFF36F8F012563
:101B0000DDE73846FFF7C4FAD4F81835DBB2012B0D
:101B1000DAD1D4F80421002AD6D0C4F80481D4F84C
:101B200004210222C4F818252022C9F88021A360CC
:101B3000CAE702220B4BC3F80423D6E7074940F259
:101B40004222074802F091F840F242219BE700BF91
:101B5000E4000021D400002104010021B24C000166
:101B60000F460001005000416501002100E100E046
:101B7000024B0B6001231360704700BF3C01002142
:101B800000487047D043000110B502F08FFA034CB3
:101B9000206002F088FA6060002010BD3C01002146
:101BA00070B50C46154602F07EFA294606462046D8
:101BB00002F05DF910B3B4FBF6F306FB134323B94F
:101BC000B5FBF6F306FB135343B12B4622464521E2
:101BD0000D4802F089F86FF0150002E0AE4201D91D
:101BE000002070BD02F05FFA064604F180742046C2
:101BF00000F0E4FFAD1B3444F9D1F1E72B46224657
:101C000045210248E5E700BF184D00013C4D0001A9
:101C1000F8B50C461946204616461D4602F027F92F
:101C200050B104F180772C4314F003040DD02B46FF
:101C30003A4645210E4803E02B46224645210D48F1
:101C400002F052F86FF01500F8BD4DB12B19032BBF
:101C5000A7EB040006D8084AD2F80034DB07FBD50E
:101C60000020F1E7331B196800F0D8FF043CEDE7D2
:101C70005E4D00013C4D00010000084170B50D466D
:101C80001946284616461C4602F0F1F840B12CB120
:101C90002246304605F1807102F05CFA002007E030
:101CA000044823462A46452102F01EF86FF015002D
:101CB00070BD00BF3C4D00010D4B1868010A0006C5
:101CC000BFF35F8F0B4BD3F80435181841F10001B7
:101CD000B3F5801F0AD2084BD3E90023904271EB81
:101CE000030303D210F1807041F10001704700BF7F
:101CF0004C01002100600141300000212DE9F74333
:101D000001F0F0FF2E4BD3F8042390070BD5D3F846
:101D1000042142B10022C3F804212A4AD3F8043135
:101D2000136801331360264AD2F80433D90327D548
:101D3000254BD3E8EF1F21F00100C3E8E40F002C8E
:101D4000F7D1CB0702D4D2F84031CBB100251C4CDF
:101D5000C4F84051D4F84031FFF7AEFF4FF02003F4
:101D6000EFF3118283F31288BFF36F8F174BD3E920
:101D70000267B042B94106D282F31188BFF36F8F78
:101D800003B0BDE8F0834FF0FF38D3E900104FF007
:101D9000FF391D60C3E902894FF48033C4F848332A
:101DA000C4F84051D4F8403182F31188BFF36F8FEB
:101DB0000029E5D0009032463B4628468847DFE7B9
:101DC000006001414C010021440100211800002164
:101DD0002DE9F74F4FF0010808FA00F814460646BF
:101DE0001D466FEA0802DFF830A1DAE8EF3F03EAA8
:101DF0000201CAE8E01F0028F7D14FF48037DFF86E
:101E00001C91B740C9F80873BFF35F8FBFF36F8FA2
:101E100008EA03030093FFF74FFFA04271EB0503AD
:101E20004BD23F4B201A65EB0101984271F1000142
:101E300056D23C4B03EB0613D3E902239D4208BF65
:101E4000944243D04FF0000B24F07F4EF446032021
:101E500006F150039B009BB203F1824303F5B033BC
:101E6000C9F84873C3F800B01A6806F5A872019261
:101E700001992CF07F4249F821206FF00202C9F845
:101E80004473D9F80415521A6244DFF89CC022F05A
:101E90007F4262451AD91A685AB1D9F80415A1EBE4
:101EA0000E0222F07F42B2F5000F0FD9C3F800B046
:101EB0001A6800EB010C0130DAE71C4BD3E8EF1F86
:101EC00041EA0801C3E8E21F002AF7D11549184882
:101ED0003301C850002301EB0612C2E902455360EA
:101EE000009BABB1DAE8EF3F43EA0803CAE8E23F00
:101EF000002AF7D1094BC3F804730C4BD3E8AF3F6A
:101F0000F340DB0742BF4FF480020A4BC3F80021C5
:101F100003B0BDE8F08F00BF48010021006001411F
:101F20000100800018000021FDFF7F004401002116
:101F3000B91F000100E100E070B54FF0FF3000254F
:101F40004FF0FF31174C184B0226C4F80833C4F881
:101F50004833164BC4F80855C3E902014FF48033E7
:101F60004FF48002C4F80433114B0121C4F8046318
:101F70001620C3F880212A46FFF7F0F81620FFF755
:101F8000D1F801230B4AA3602846236013604FF465
:101F900080720023FFF71CFF3046FFF757FD2846ED
:101FA00070BD00BF0060014103000F001800002158
:101FB00000E100E048010021F8B5144922F07F4516
:101FC000D1E90063921B140A22F0FF02921943F137
:101FD0000003C1E90023A5F50011B1F5400F0AD2B5
:101FE0000B4909684FEA112C09064E1909494CF1B1
:101FF0000007C1E9006712F5807243F10003FFF7A3
:10200000E7FE2046BDE8F84000F096BF280000211A
:102010004C0100213000002130B5024600240B495C
:102020000B4D0B6805EB0310D0F80808C0B218B9C7
:1020300004B10B60002007E00133072B4FF00104CF
:10204000F0D96FF01B000B60136030BD5001002110
:1020500000000841F7B5434D0646D5F820320C463E
:10206000B3F5006F174608D03F494048212201F0E0
:10207000FCFD21213C4801F0F1FD01A8FFF7CCFF58
:10208000002867D1D5F82022B6FBF2F302FB1363D8
:10209000002B61D1D5F82022B4FBF2F302FB1343ED
:1020A000002B59D1D5F82022D5F824325343A3422E
:1020B00052D3002C50D0019B072B07D92C497722F3
:1020C0002A4801F0D2FD77212948D4E7D5F820121B
:1020D000B6FBF1F201FB126232B1254978222348A6
:1020E00001F0C3FD7821EFE7D5F82022D5F82412BE
:1020F0004A43944206D91E4979221C4801F0B5FD95
:102100007921E1E7D5F82012B4FBF1F201FB12428C
:1021100032B117497B22154801F0A7FD7B21D3E797
:102120001B0103F1824101F50021C1F80068C1F8EB
:102130000448C1F80878D1F8002896420FD1D1F8A8
:10214000042894420BD1D1F80838DBB29F4218BF63
:102150006FF00D0003B0F0BD6FF01500FAE76FF0FF
:102160000D00F7E70000FF01A54D00010F4600013B
:10217000D14D00010348452108B501F0B5FD00200F
:10218000FFF7D4FA034E000138B5044681692948A7
:1021900001F054FC4FF0FF32274BC3F80823BFF384
:1021A0006F8F72B60023254903F120000133102BF5
:1021B00041F82020F8D100234FF0FF301F4A03F1EF
:1021C00060010133102B42F82100F8D14FF0E023D9
:1021D00000221A61D3F8042D03F5506342F0007217
:1021E0005A605A6A22F4E0225A62EFF3148292078C
:1021F00007D5EFF3148222F0020282F31488BFF3B2
:102200006F8FBFF34F8FBFF36F8FA26901219A6069
:102210002046A56900F034FA58B1002383F30B88F7
:1022200083F30A882A6882F3088883F309886B6835
:10223000984738BD254E00010050004100E100E004
:102240001FB50446074A01AB07CA83E807000C2202
:102250001946204601F046FF00280CBF204600200A
:1022600004B010BD2C43000170B505460024054E96
:1022700056F8040B2844FFF7E3FF10B90134052C8E
:10228000F6D170BDD84300012DE9F04F814687B0EB
:1022900010460E4614461D46D768D2F81080FFF748
:1022A000CFFF38B915B96E4801F0C8FB002007B060
:1022B000BDE8F08FA069484503D0002DF6D16948EC
:1022C000F2E71DB9B0420BD06748EDE73046FFF7A3
:1022D000CBFF8442EAD1226A644B9A42E6D109E0FC
:1022E000FFF7C2FF844201D06148DDE7216A5F4BFE
:1022F000994232D1E3192CBF012700270DF10A00C2
:1023000018EB060A2CBF4FF0010B4FF0000B0193A6
:1023100001F050FE0146002836D015BB554801F0AB
:102320008DFB554801F08AFBADF80A50002F41D1D2
:10233000BBF1000F3ED1B4423CD354453AD2019B8D
:102340005F1EBE4233D8BA4531D918EB0908E3699C
:1023500032D3002DAAD14948A6E7494801F06EFBC7
:10236000A4E70022ADF80A20002F9FD1BBF1000F97
:102370009CD1B4429AD3544598D2019B5F1EBE4271
:1023800094D8BA45E1D891E76169BDF80A20914235
:1023900005D2002D8AD13B4801F050FB86E737B9C2
:1023A000BBF1000F03D1B44201D35445C7D3002D74
:1023B0007FF47CAF344877E74B45CAD34345C8D256
:1023C000321DA2EB0902D358994504D9002D7FF4A0
:1023D0006DAF2E4868E79845F8D9D4F81090DFF82B
:1023E000B0A009EB060707F1050B0DF10C089AE800
:1023F000070088E807000C224146384601F072FECB
:1024000000B9FFB90137BB45F1D1002D7FF44EAFC4
:10241000204849E7002D7FF449AF1F4844E749466B
:10242000304607F1100201F0A9FD014620B1002D50
:102430007FF43CAF194891E715B9194801F0FEFA4D
:10244000012034E7FA68A3699A42E3D101F08FFDD5
:1024500001460028E3D0002D7FF428AF11487DE726
:10246000374E0001574E00018A4E0001FFFF0291D6
:10247000B74E0001074F00012E4F0001DE4F000153
:10248000E04E0001714F0001B14F00010A50000100
:10249000384300013750000168500001BB50000173
:1024A000E75000019B50000114222DE9F041144B2C
:1024B000144DD3F8B035074602FB0355284600F00B
:1024C000DBFB012803D000242046BDE8F0814FF05B
:1024D00000082C1DAE1C304600F0CEFB4045F2D962
:1024E000A01C00F0C9FB0546204600F0C5FBB84221
:1024F000EAD0023504EB450408F10108EBE700BF20
:1025000000800001B4850001014BD3F8A805704795
:10251000008000014FF00053014A1A60704700BF6D
:1025200015FCBA254FF0005318680A4B98420DD09D
:1025300003F11C53A3F58B13A3F6CC53984207D099
:10254000054B98420CBF01200220704700207047C5
:1025500003207047B6B3B4B55DCE03F130B54FF08C
:102560000055184B2A6801469A42ADF50F7D26D1D9
:102570000023CDE90133EB680EAA009305A84FF4C0
:102580000073FEF72FFD044640B1452102460E4878
:1025900001F0AAFB20460DF50F7D30BD0123D5E9E2
:1025A000011205A801F0B3FB044618B1024645210B
:1025B0000648EDE74921064801F096FBEAE76FF08F
:1025C0000D04E7E7B6B3B4B5015100012351000192
:1025D0004D5100014FF00053014A1A60704700BF8F
:1025E0005DCE03F12DE9F043214885B001F034FDC3
:1025F000002604461E4B1F4FD3F83880DFF8789032
:10260000B04503D8002005B0BDE8F083636A97E8C1
:1026100007001D6801AB83E807000C221946284615
:1026200001F060FD78B975B122692B699A420AD12F
:10263000AB69A2699A4206D8E2699A4203D96369F2
:102640006A6993430AD0256A65B10C4801F0F6F92E
:10265000404080F311884FF0040002DFE368013648
:102660001C44CDE7484601F0E9F9636A1D60F5E7CF
:1026700000020001444300018D510001645100013A
:102680002DE9F04F87B00646009198B301F0E4FCC5
:1026900000270446B36BBB424ED94FF00008DFF869
:1026A000ACA04FF000095AF8043BDFF8A4B05BF887
:1026B000045B01931D44274B93E8070003AB83E8B9
:1026C000070019460C22284601F00CFD019B00B9B9
:1026D000A5B909F10109B9F1050FE8D11E4B08F1BF
:1026E00001089845DDD3009B13B10022636A1A608C
:1026F000236A3BB3002007B0BDE8F08F2B6A174A6E
:102700009342EBD1AE42E9D0696B05F13C038842BC
:10271000E4D025691A6995420AD19A69A56995425A
:1027200006D8E569954203D962695D69AA4305D077
:10273000DA6801301344EAE70120DCE7009A0AB1C5
:10274000626A1360E36801371C44A3E75054000138
:10275000EC4300015043000101000000FFFF029123
:102760000022D30003F1FF7303F58033D3F8001385
:10277000013107D0D3F800130132D3F80433202AF3
:102780000B60EED1224BD3E94C32072B26D1023A13
:10279000032A204B28D9D3F80024D10732D41C4B6C
:1027A000D3F83021072A19D1D3F83431023B032B57
:1027B00002D8194AD35C8BB17F23184A1849C2F852
:1027C00018310023C1F8043EC1F8083EC2F8243194
:1027D000C2F82C3102F57F22C2F81031114B1A6871
:1027E000114BC3F84425704710498A5C002AD2D0A7
:1027F000D3F80024D207CED50022C3F81421C3F8A1
:102800001821C8E76FF00102C3F80024C7E700BF32
:102810000000FF0100500041C051000100200041B4
:10282000000008410080FF0100600041C451000128
:1028300030B50468ACB1B4FA84F30122C3F11F03CC
:10284000DBB29A4024EA0202D0E8EF5FA54204D14D
:10285000C0E8EC2FBCF1000FF6D1EAD102480B70B2
:1028600030BD0248FCE700BF0000AD0B0200AD0B1D
:10287000014BC3F80405704700F0004108B541B9A9
:1028800006490748442201F0F0F94421034801F0C9
:10289000E5F940F00040C1F8800008BDFB5100019F
:1028A0000F46000108B541B9064907484A2201F020
:1028B000DCF94A21034801F0D1F940F00040C1F8A9
:1028C000800008BDFB5100010F460001F7B5324BF7
:1028D000044650B1012825D030493148DC2201F0AE
:1028E000C4F9DC212D4801F0B9F90222C3F808230C
:1028F00001220646DA60C3F80401D3F8043101234B
:1029000042F21075244F8DF807306CB3012C1AD0A9
:102910002449234840F2CD3201F0A7F940F2CD31ED
:102920002048E0E70022C3F808035860C3F80021FC
:10293000D3F800310DF10706E1E70BB3012001F0F8
:1029400097FB013D1CD0D7F80C3403F48033002EE4
:10295000F3D0D7F80C2402F001020FE083B101207C
:1029600001F086FB013D0BD0D7F8183403F4803317
:10297000002EF3D0D7F8182402F0030232700BB9FE
:1029800003B0F0BD9DF807000128F9D101F070FBFC
:10299000013DBAD1F4E700BF0050004138520001B8
:1029A0000F46000175520001044B1A7922B9012229
:1029B00018601A710248704702487047540100219C
:1029C0000000AD0B0C00AD0B08B50F4B1A7952B9D6
:1029D0000E490F484FF4987201F047F94FF498717F
:1029E0000A4801F03BF91B6833B10520FEF7A8FB4C
:1029F00010B90520FEF796FB0122064BC3F81825F7
:102A0000C3F8142508BD00BF54010021385200014D
:102A10000F4600010050004138B5354C237953B9B9
:102A200034494FF4BD72344801F01FF94FF4BD71C1
:102A3000304801F013F950B101284ED02D494FF420
:102A4000DF722D4801F011F94FF4DF71F0E72B4BE5
:102A5000D3F81814D3F81824C90323D502F00303BC
:102A6000022B05D0012B02D00020FFF72FFF0123FE
:102A7000224A0220C2F8183508224FF4827300213E
:102A800003F1824303F5A04319601D68012502F19B
:102A9000824202F5A0421560226812B3174BC3F8B8
:102AA00004030FE0D3F81424D207E0D5D3F81C2494
:102AB00002F00302013A012AD6D822681AB1022292
:102AC000C3F8042338BDD3F80421002AFBD0002228
:102AD000C3F80421D3F80431F4E700224FF48073E3
:102AE000CDE71A68002AFCD019601B68EAE700BF2E
:102AF00054010021385200010F46000100500041EE
:102B000008B5094B1B7953B9084909484FF4EC72D1
:102B100001F0ABF84FF4EC71044801F09FF8BDE808
:102B20000840FFF7D3BE00BF540100213852000116
:102B30000F46000110B5164BD3F8002152B100200A
:102B4000C3F80001D3F800210122C3F80823114B78
:102B50001B6898470E4BD3F8042182B10022C3F8BA
:102B60000421D3F80421D3F81824D3F8182402211F
:102B700002F00302012A03D1C3F818159A6010BDB0
:102B8000C3F80813034B0120BDE810401B68184729
:102B9000005000415401002101460148FFF748BEA2
:102BA00004000021044AD2F80034DB07FBD50160A1
:102BB000BFF35F8F704700BF0000084108B500F108
:102BC0007F43B3F5802F04D2C0F30A0363B10E48EC
:102BD00019E00E490E4840F2071201F046F840F2A3
:102BE00007110A4801F03AF802220A4BC3F80425FB
:102BF0004FF0FF320260D3F80024D207FBD5002249
:102C00000548C3F8042508BD0A00AD0BBE520001FB
:102C10000F460001000008410000AD0BF8B50D465D
:102C20000121044601F028FA50B9104940F29512EA
:102C30000F4801F01AF840F295110C4801F00EF817
:102C400014F0030708D009494FF4CB72084801F08B
:102C50000CF84FF4CB71F0E7064E2046C6F8041589
:102C60002946FFF79FFFC6F80475F8BDBE52000164
:102C70000F46000100000841C10708B50AD50949FF
:102C800009484FF4F67200F0F0FF4FF4F671054872
:102C900000F0E4FF20F003031B6882070CBF98B22A
:102CA000180C08BDBE5200010F46000108B5084AC5
:102CB000084B93420AD908490848172200F0D5FF6B
:102CC0001721054800F0CAFF1433F2E7FCD308BD12
:102CD000E0410001B8410001FA5200010F46000135
:102CE00073B504460D464FF02003EFF3118683F3CE
:102CF0001288BFF36F8F0022042896BF164B174B24
:102D000053F82030009245210246154800F0ECFFB0
:102D10003DB1EB69C3F308031BB14521114800F035
:102D2000E3FF00224521104B104800F0DDFF29464B
:102D30002046FFF71FFA042C08D10D490D489322B5
:102D400000F093FF93210A4800F088FF86F3118872
:102D5000BFF36F8F02B070BD004400011D5300012E
:102D60002B530001585300017E530001865300018C
:102D7000A35300010F460001104B70B553F82040DB
:102D8000013053F82060A64200D870BDD4E9003568
:102D900095B153B12846984738B10028B8BF404292
:102DA000FF28A8BFFF20EB681870EA68537843F04B
:102DB000010353700834E6E79847FBE71444000129
:102DC000012208B5084B03201A70FFF7D5FF00F069
:102DD0001BF90420FFF7D0FFFDF7F8FB034A137B34
:102DE00023F00103137308BD6501002138000021A1
:102DF00008B50348034A0021121A01F068F908BD1A
:102E0000180000216801002108B50020FFF7B4FF79
:102E1000164B03F5006282F3088883F30A880025C5
:102E2000E023134C84F82230E57725766576A57685
:102E300084F82050636A43F4E023636284F82350EB
:102E4000FEF722FCFEF71EF94FF0FF33A362E362A8
:102E5000FFF72CFF0120FFF78FFF0220FFF78CFF09
:102E60002B462A4629460348FEF7C8F96801002187
:102E700000ED00E0C12D000108B50648064A0749EB
:102E8000121A01F026F9BDE80840054A054906482E
:102E900001F01FB90000002114000021545400016A
:102EA000000000005454000100000021034B1B6887
:102EB0000BB901F04FB80020704700BF5C01002142
:102EC00010B50E4B1C689C4204D1FFF7EFFF6FF06A
:102ED000004010BDFFF7EAFF002CF8D0D4E904321F
:102EE0001B1A62EBE072B3F1004F72F10001EEDAEF
:102EF000002AACBF18460020EBE700BF0800002105
:102F000030B570B10B4B5B6898420AD0036843B18F
:102F1000D3E90421D0E90445121941EB0501C3E9C5
:102F20000421D0E9003213605A600023C0E9003365
:102F300030BD00BF080000212DE9F84F4FF02003FD
:102F4000EFF3118C83F31288BFF36F8FDFF8ACA01F
:102F5000DFF8AC900024C9F80000DAF80000002582
:102F6000504508BF0020274FE046D7E90021D9F897
:102F7000003080B3D0E9046C4FEAE37EB3427EEBCD
:102F80000C0B05DAF61A6CEB0E04C0E9046422E0BF
:102F9000B21841EBE671C0E90445C7E90021FFF72B
:102FA000AFFF88F31188BFF36F8F836898474FF0A6
:102FB0002003EFF3118883F31288BFF36F8FD9F8E2
:102FC0000030DAF800009B1B5045C446C9F80030B9
:102FD000CAD1D7E9002100249A1841EBE373C7E96D
:102FE0000023C9F80040FFF76BFF214600F0B1FF56
:102FF00088F31188BFF36F8FBDE8F88F08000021B8
:103000005C010021B8000021014800F017BD00BF9D
:10301000125400013F2A2DE9F041904652D905464D
:103020000C46A2F1400626F03F064036274F0E44DC
:10303000236840341BBA2B6454F83C3C39461BBA15
:103040006B6454F8383C28461BBAAB6454F8343CE3
:103050001BBAEB6454F8303C1BBA2B6554F82C3C7B
:103060001BBA6B6554F8283C1BBAAB6554F8243C7A
:103070001BBAEB6554F8203C1BBA2B6654F81C3C79
:103080001BBA6B6654F8183C1BBAAB6654F8143C78
:103090001BBAEB6654F8103C1BBA2B6754F80C3C77
:1030A0001BBA6B6754F8083C1BBAAB6754F8043C76
:1030B0001BBAEB67FDF7F0F8B442B9D108F03F0056
:1030C000BDE8F0811046BDE8F08100BF2C4400014E
:1030D0000A4610B514681A4924BA0464546824BA1C
:1030E0004464946824BA8464D46824BAC4641469B7
:1030F00024BA0465546924BA4465946924BA846581
:10310000D46924BAC465146A24BA0466546A24BA19
:103110004466946A24BA8466D46A24BAC466146B7A
:1031200024BA0467546B24BA4467946B24BA846746
:10313000D26B12BAC267FDF7AFF8002010BD00BF16
:103140002C4400012DE9F0410027B54CB54BB2B03D
:10315000CDE90043B44BB54E0293B54B1446CDE9CF
:103160000363B44B05460593B34B3097069303F1C5
:103170007453A3F52303A3F6924331920793002AD5
:1031800040F0848080224FF03A0C01236E460DEB14
:1031900002078DF8802000204FEA9C0203F1800E88
:1031A000012A06EB0E0146F80E0024D0022A4860E0
:1031B00021D0032A88601ED0042AC8601BD0052AAB
:1031C000086118D0062A486115D0072A886112D0F4
:1031D000082AC8610FD0092A08620CD00A2A48625E
:1031E00009D00B2A886206D00C2AC86203D00E2AA6
:1031F000086308BF48631CF0030F16D02CF0030CC3
:103200006344002103F1C8026A443A2B02F8481CC7
:103210000BD003F1C9026A44392B02F8481C04D0D0
:10322000CA330DEB030202F8481C0023620F62F35D
:103230000703620D62F30F23620B62F31743620907
:10324000394662F31F633046E400CDF8BB308DF899
:10325000BF40FFF73DFFDDE90001DDE9022306BACB
:1032600014BA18BA09BADDE9042312BA69602A61EE
:1032700019BADDE9062312BA1BBA2E60AC60E86009
:103280006961AA61EB6132B0BDE8F0816E463046FB
:103290008846FFF7BFFE241A08EB0403002800F05D
:1032A000F580421E022A53D958F804202092820841
:1032B000012A00F0E6805968022A219100F0BE80C0
:1032C0009968032A229100F0E780D968042A2391A3
:1032D00000F0E7801969052A249100F0E780596918
:1032E000062A259100F0E7809969072A269100F0C7
:1032F000E780D969082A279100F0E780196A092A2E
:10330000289100F0ED80596A0A2A299100F0B180D5
:10331000996A0B2A2A9100F0F480D96A0C2A2B9121
:1033200000F00381196B0D2A2C9100F00981596B73
:103330000E2A2D9106D00F2A996B18BFDA6B2E91A9
:1033400018BF2F9220F0030782073B4400F0DE8075
:10335000197807F1C8026A4402F8481C7A1C9042A6
:103360000FD9591C0978C83202376A44B84202F8AA
:10337000481C06D99B7807F1C8020DEB020707F835
:10338000483C8021431C00F1C8026A44382B30902D
:1033900002F8481C6AD93F2B2CD80022C8336B4452
:1033A0003E2803F8482C25D000F1CA030DEB030199
:1033B0003D2801F8482C1DD000F1CB036B443C287C
:1033C00003F8482C16D000F1CC036B443B2803F8DB
:1033D000482C0FD000F1CD036B443A2803F8482C59
:1033E00008D000F1CE036B44382803F8482C01D1F3
:1033F0008DF8BF2020AF39463046FFF769FE3A28E6
:1034000003463CD8319CC3F13A02022A7FF6F9AE5A
:103410005A1C3B2AC3F13B0C88BF4FF0010CBAE6A3
:1034200067E6096A85AE67BB72F36E3C3AF54FA555
:103430007F520E518C68059BABD9831F082854D04E
:1034400008273B4419467A1C11F801CB07F1C80440
:103450006C44904204F848CC84D8802100F1C80321
:103460000DEB03023090431C02F8481C319C20AF46
:10347000C9E7282800F0888028273B44E2E7319CF0
:10348000D3E6042826D004273B44DBE7802201232F
:1034900030908DF88020E9E70C282CD00C273B4495
:1034A000D0E710283BD010273B44CBE7142841D06D
:1034B00014273B44C6E7182847D018273B44C1E7E8
:1034C0001C2849D01C273B44BCE7202850D020278B
:1034D0003B44B7E78022052330908DF88420C5E770
:1034E00024283FD024273B44ACE780220923309096
:1034F0008DF88820BAE780220D2330908DF88C203B
:10350000B4E72C283AD02C273B449BE7802100F1DC
:10351000C8026A443090431C02F8481C3BE78022F2
:10352000112330908DF89020A0E7302832D030273A
:103530003B4487E78022152330908DF8942095E74F
:1035400034282DD034273B447CE7182180221923CE
:1035500030918DF8982089E780221D2330908DF8D6
:103560009C2083E78022252330908DF8A4207DE7DE
:103570008022212330908DF8A02077E780222D2310
:1035800030908DF8AC2071E78022292330908DF89F
:10359000A8206BE78022312330908DF8B02065E7BA
:1035A0008022352330908DF8B4205FE72DE9F04F6D
:1035B00043688BB082461446019383789F0740F19D
:1035C0000981002591F80080B8F1000F00F0048116
:1035D000B8F1250F0BD04B1C0293013551464046E4
:1035E000019B98470028C0F2F5800299EAE791F81C
:1035F00001808B1CB8F1250F0293EED00023994671
:103600001F461F2F39D8A8F12002102A0AD8DFE858
:1036100002F02B0909310909092109090929092E93
:1036200009091F00A8F13002092A32D9B8F12A0F7E
:1036300035D1780654F8042B00F18180002AA7BF09
:1036400047F020079146C2F1000947F0280701E042
:1036500047F00107029A12F8018B0292B8F1000FAD
:10366000CFD132E047F0020747F00407F2E747F016
:103670000807EFE747F01007ECE77F2F18D8A8F10D
:103680003002092AD2D87E0603D50A2101FB032382
:10369000E0E70A2147F0200701FB0929DAE7B8F142
:1036A0002E0F05D1790600F1978047F04007D1E74A
:1036B000B8F16C0F32D02AD8B8F1680F35D0B8F114
:1036C0006A0F39D0B8F14C0F36D0002B48F02002E9
:1036D000B8BF27F04007A2F16501BCBF0023BFB20D
:1036E000022901D9612A2CD107344FF007089A4EDC
:1036F00024F007040834380763D506EB080B374677
:103700005F4560D1AE1BA9EB0809374454E1B8F11D
:10371000740F9FD0B8F17A0F9CD0D6E73A0648BF15
:1037200047F4007747F0800794E7FE0548BF47F469
:10373000007747F480778DE747F420778AE71346D0
:1037400088E7A8F16301122900F2CF80DFE811F0C9
:1037500013004800CD00CD00CD00CD004800CD00C5
:10376000CD00CD00CD00CD00DF00C700CD00CD00E5
:103770001B00CD00960054F8043B4FF0010807AE43
:103780008DF81C30B7E754F8046B744A002E08BF5C
:10379000164617F0400F304614BF19464FF0FF3160
:1037A00000F0B0FC8046A6E751462020019B9847D8
:1037B00000280FDB013FB845F6D34D44B946ED1B59
:1037C0009BE74F46F7E7514617F8010B019B9847D7
:1037D000002895DA4FF0FF3528460BB0BDE8F08F92
:1037E000390637D5BA0549BF073454F8040B24F01D
:1037F000070454F8080B27F010060028B6B232DA96
:10380000404246F4806607AF0A220393394600F02F
:1038100085FC7206A0EB0707039B4BD526F0010140
:10382000BB4289B240F38A80B8F1000F00F0828079
:1038300016F01002039240F083809B460E4640F241
:10384000064116EA010203921EBF00220BF1010B92
:10385000039238E0FE0554F8040BCCD5B9054CBFF3
:1038600040B200B2C7E7CED17A06CCD5002BCAD180
:1038700027F01107BEB21F469B46E0E727F010076E
:103880000A22BFB23E0646D5B80549BF073454F8F0
:10389000040B24F0070454F8080B002844D127F047
:1038A00016067906B6B242D5002B40D127F017078D
:1038B000BEB21F4616F0100203924AD0B8F1000FB4
:1038C00045D107F1010B31075CD4F20705D5D94585
:1038D00075DDA9EB0B02CB46D3195A464CE047F0F5
:1038E000100710224FF07808CCE7782A06D1B8F1FB
:1038F000580F14BF10224FF40472C3E7514625201D
:10390000019B98470028FFF665AF023566E608225E
:103910004FF00008B6E7F90554F8040BBDD5BE0515
:103920004CBFC0B280B2B8E727F00607BEB207AFFF
:1039300003936BE726F01106B6B29DE70E46B9E792
:1039400038460E461F4607F1020B0746BBE73846CE
:10395000F9E7BB4673E700BF47540001405400013C
:10396000CDE9043251462020019B98470028FFF6FC
:1039700031AF059A049B01329145F1DCA5EB0B01B7
:1039800093468D18039A32B3039351463020019B1E
:1039900098470028FFF61EAF039BB8F1000F10D127
:1039A00001355E19711B8F4227DB3E460DF11C0865
:1039B0005EBB2F44A9EB0B093D46B94436E03B46BC
:1039C0008BE70235514640460393019B98470028F8
:1039D000039BE6DAFEE640F206410E42E1D016F025
:1039E000020F05F101055146039314BF2B2020203F
:1039F00016F4806F18BF2D20E7E751463020019B59
:103A0000013598470028CDDAE4E6013E5146019B96
:103A100018F8060098470028CADADBE6514620204D
:103A2000019B013598470028FFF6D4AEA9EB0503AA
:103A3000002BF3DCD9E500BF002070470FB407B5B9
:103A400004A951F8040B0191FCF73CFE03B05DF8AA
:103A500004EB04B07047836800EBC101B3F5004F7D
:103A60002CBF51F8220031F81200704700EBC10161
:103A70008068B0F5004F2CBF41F8223021F8123099
:103A80007047012208B5FFF7E6FFD04008BD836804
:103A900000EBC101B3F5004F08D34B681AB143F0F6
:103AA00001034B60704723F00103FAE74B881AB11A
:103AB00043F001034B80704723F00103FAE7530002
:103AC0000122FFF7D3BFB0F5004F34BF0423082312
:103AD0000731C818C00870470A4608B50121FFF72A
:103AE000F2FF0132121AB2FA82F0C0F11F0008BDD3
:103AF0002DE9F0410D4686680446FFF7C2FFB6F592
:103B0000004F014601D3012832D03046FFF7E4FFD1
:103B100004EB80010E6996B90122E36882401343E9
:103B2000E36002220D612B4629462046FFF79EFFE7
:103B3000032229462046BDE8F041FFF797BF022245
:103B400031462046FFF787FF0746034629462046B1
:103B5000FFF78CFF0322334629462046FFF786FFF6
:103B600039462B462046FFF781FF02223146E1E726
:103B7000BDE8F081038B13F0070305D10368002B28
:103B80000CBF002003207047022B05D1408BB0FAF8
:103B900080F0400980007047012B05D10368002B9D
:103BA0000CBF0020052070470020704710B50C4660
:103BB00000B111B96FF0150010BD081D00F03DF8FF
:103BC0000028F9D1A368032BF6D9F3E72DE9F041DA
:103BD0000D4607461946281D90461E46FCF7F6FF7F
:103BE000044638B13346424629463846A446BDE825
:103BF000F0416047BDE8F08110B44FF02004EFF3CE
:103C0000118284F31288BFF36F8F416110BC0121D0
:103C1000FCF7F6BD38B50C46054658B151B10B68F6
:103C200043B14B6833B11C22002100F0A0FA002000
:103C30002C6138BD6FF01500FBE7034658B14268B0
:103C400002F00302012A03D0032A04D1026812B150
:103C50000020986070476FF015007047404080F377
:103C600011884FF0040002DF70470FB407B504A9B4
:103C700051F8040B0191FCF725FD03B05DF804EB4E
:103C800004B070477047F0B5D0F80473064617F0DB
:103C900002001CBFC2F1807018604FF0000518BF11
:103CA00001204FF0010C4FF4803E0CFA05F40C4259
:103CB00014D00EFA05F43C4210D005F5A87456F85D
:103CC0002440A41A34F07F4408BF4FF0807408B930
:103CD0001C6002E01868A042FAD801200135042DCA
:103CE000E3D1F0BDFCF78EBF0FB407B504A951F8BE
:103CF000040B0191FCF7E6FC03B05DF804EB04B0A3
:103D0000704708B58368DB689847006808BD2DE9EF
:103D1000F047894616469846044698B38268036978
:103D2000134482693344934230D80025D4E90170AA
:103D3000A6EB050A3F1ABA4515D2B54209D2236847
:103D40005246184409EB050100F004FAA3685344F5
:103D5000A360B8F1000F1CD0A068A8B12046BDE850
:103D6000F047FDF7D1B823683A46184409EB05013E
:103D700000F0F0F963682046A360FDF7C5F818B9B4
:103D80003D44D3E76FF00D00BDE8F0876FF00B0006
:103D9000FAE74046F8E701460068FDF795B90021CB
:103DA0000120FDF791B908B5FDF7FEF9BDE808401F
:103DB000FDF756BA4FF02003EFF3118283F3128818
:103DC000BFF36F8F036803F0C00343F00203036087
:103DD00082F31188BFF36F8F7047F8B5069F0469AF
:103DE000C9B24FF02005EFF3118685F31288BFF3B7
:103DF0006F8F0C2569430C44256C05F0070CBCF152
:103E0000010F0BD1276486F31188BFF36F8FC4E9CC
:103E10000E2343685B5898470020F8BD05F0C005A5
:103E2000AF4286F31188BFF36F8F0CBF6FF077003E
:103E30004FF0FF30F1E713B580240094FFF7CDFF7A
:103E400002B010BD6FF08500704710B41C240069EB
:103E5000CBB203FB0400002110BC10470020FEF78A
:103E6000DBBD0020FEF74CBE8022FDF7E1BC38B57B
:103E700005460C4600F014F9002D07DBA84205D9D1
:103E8000401B84428CBF0020012038BD0020FCE78D
:103E9000F7B51C460023164682682360A3600D46D2
:103EA0001369694601AA9847019B5A1E01921BB9E2
:103EB0006FF0150003B0F0BD0098A2684768216854
:103EC000676085B9B31AD0F800C0634528BF634660
:103ED00003FB07111A442160A26002689A4206D8C7
:103EE00008300090E0E76B1AB3FBF7F3EBE7002034
:103EF000E0E713460022FFF7CBBF2DE9F04700248F
:103F0000836886B0884691461B6902AA01A9984732
:103F1000A2462546029BAB4202D806B0BDE8F08718
:103F20000026019F07EBC5077B6804933A680AEBFC
:103F30000603B24202D89A460135EBE7494603949C
:103F4000059303A8C0470028E7D0049B01361C4412
:103F5000ECE770470020704708B5FDF7ADFE08BDDF
:103F60000222FEF777B8002070470020704708B59E
:103F7000FFF7F9FF08B9FFF7F8FF08BD30B589B0C2
:103F8000154601230A460146684600F00EF804462D
:103F900040B9202269462846FCF750F9002808BF9E
:103FA0006FF06404204609B030BD08B5FFF7CAF8C9
:103FB000002008BD13B5044658B101200DF10601DB
:103FC00000F043F818B9BDF806305B08238002B052
:103FD00010BD6FF01500FAE770B5054608460C46AF
:103FE000FEF742F92146024601232846BDE870400B
:103FF000FEF74AB92DE9F8430D461646FEF754FA86
:104000000446F8B1F5B10230FEF736FE00278146CE
:10401000B8460434B94507D8002406B134600020FE
:10402000A5F80080BDE8F8832046FEF725FEC343CF
:104030009BB2A21C002BF0D0984538BF984614467E
:104040000137E7E76FF01500ECE70022FFF7D2BF7A
:104050004FF000535868704703465A6B00233C30BA
:104060009A4200D17047C16801330844F8E700471D
:1040700000F01EB8FEF790BD034603F17F42B2F593
:10408000802F08460AD351B103F17E4000F500406D
:10409000B0F5607F2CBF00200120704701207047E1
:1040A0004FF4802070474FF40060704780207047C5
:1040B00008B1FCF7DFBE704740B1C368587810F014
:1040C00001001EBF1878B0FA80F04009704700F078
:1040D0004EB800F03FB8EFF30580003818BF01205C
:1040E000704770470139024410B5904201D1002059
:1040F00005E0037811F8014FA34201D0181B10BD51
:104100000130F2E70246014410B58A42134603D05B
:104110001C780132002CF8D1181A10BD930570B527
:1041200048BF22F40072044608464CBF07212721ED
:104130002646B4FBF2F502FB15432C46DBB2092BF5
:1041400084BF5B18DBB2B24203F1300300F8013BDD
:10415000EED970BD0A44431E914200D1704710B59C
:1041600011F8014B914203F8014FF9D110BD0244FF
:104170000346934200D1704703F8011BF9E70000A2
:10418000290C000100000000D5180001B841000111
:10419000391F000100000000390C00010000000080
:1041A0009517000100000000891B0001CC410001AF
:1041B000E525000100000000EF4C000188430001EC
:1041C000A043000110000021E8000021814D000102
:1041D00000000000BC4300011200002100000000AC
:1041E000000000009F3D0001000000009F3D000115
:1041F000000000009F3D0001000000009F3D000105
:10420000000000009F3D0001352B00016F400001C0
:10421000000000009F3D0001000000009F3D0001E4
:10422000000000009F3D0001000000009F3D0001D4
:10423000000000009F3D0001000000009F3D0001C4
:10424000000000009F3D0001000000009F3D0001B4
:10425000000000009F3D0001000000009F3D0001A4
:10426000000000009F3D0001000000009F3D000194
:10427000000000009F3D0001000000009F3D000184
:10428000000000009F3D0001000000009F3D000174
:1042900000000000FD1C0001000000009F3D000127
:1042A000000000009F3D0001000000009F3D000154
:1042B000000000009F3D0001000000009F3D000144
:1042C000000000009F3D0001000000009F3D000134
:1042D000A952000100000000B452000100000000DB
:1042E000C147000103000000DD450001030000009C
:1042F0000A4D000103000000194E000103000000F8
:104300009B4D0001030000000F540001030000005A
:1043100060510001030000006C4600010300000032
:10432000DEE61E284CBBCE8F02350000DEE61E28DE
:104330004CBBCE8F02350000DEE61E2883845186FA
:1043400002350100DEE61E28EAAC45B80235000061
:10435000DEE61E284CBBCE8F0235000000000000B8
:104360000338FDD870470000000000000002000084
:10437000000400000008000000100000B917000150
:10438000A518000100000000B5190001191A00016C
:10439000FE4C00015D3E0001633E0001044D000142
:1043A000453E0001693E0001373E0001000000006B
:1043B000FD17000100000000000000007D1C00014E
:1043C000111C0001A11B0001811B0001711B0001D8
:1043D00004000000FF0000000000000000020000D8
:1043E00000040000000800000010000000000000B1
:1043F000000200000004000000080000001000009F
:10440000C5530001D3530001E7530001F6530001E7
:1044100002540001804100018041000190410001EF
:1044200098410001B8410001B8410001982F8A422B
:1044300091443771CFFBC0B5A5DBB5E95BC25639F6
:10444000F111F159A4823F92D55E1CAB98AA07D80E
:10445000015B8312BE853124C37D0C55745DBE7231
:10446000FEB1DE80A706DC9B74F19BC1C1699BE4B1
:104470008647BEEFC69DC10FCCA10C246F2CE92D41
:10448000AA84744ADCA9B05CDA88F97652513E9865
:104490006DC631A8C82703B0C77F59BFF30BE0C66C
:1044A0004791A7D55163CA0667292914850AB727FA
:1044B00038211B2EFC6D2C4D130D385354730A6597
:1044C000BB0A6A762EC9C281852C7292A1E8BFA26E
:1044D0004B661AA8708B4BC2A3516CC719E892D1D6
:1044E000240699D685350EF470A06A1016C1A41959
:1044F000086C371E4C774827B5BCB034B30C1C3958
:104500004AAAD84E4FCA9C5BF36F2E68EE828F7416
:104510006F63A5781478C8840802C78CFAFFBE9030
:10452000EB6C50A4F7A3F9BEF27871C6466C6173C8
:104530006820646576696365206E6F7420726561BA
:1045400064790A004661696C656420746F2070723A
:104550006F746563742062306E20666C6173682CC2
:104560002063616E63656C20737461727475700A88
:104570000D00556E61626C6520746F2066696E6413
:104580002076616C6964206669726D77617265205E
:10459000696E736964652025700A0D004661696C57
:1045A000656420746F207472616E73666572206931
:1045B0006D6167653A2025640A0D004661696C6586
:1045C0006420746F2070726F746563742061707002
:1045D00020666C6173683A2025640A0D006362707E
:1045E00072696E74665F7061636B616765005745E1
:1045F00053545F544F504449522F7A657068797212
:104600002F6C69622F6F732F686561702E63004194
:104610005353455254494F4E204641494C20402067
:1046200025733A25640A00574553545F544F50444C
:1046300049522F7A65706879722F6C69622F6F7397
:104640002F6F6E6F66662E6300574553545F544F4D
:10465000504449522F7A65706879722F6C69622FC5
:104660006F732F6E6F746966792E6300736F6300CA
:1046700025633A204275666665722073697A652003
:10468000697320626967676572207468616E207063
:104690006167650A0025633A204572726F722025B2
:1046A00064207768696C652067657474696E67203B
:1046B0007061676520696E666F0A0025633A204560
:1046C00072726F72202564207768696C652065724C
:1046D0006173696E6720706167650A0025633A201F
:1046E00073747265616D5F666C6173685F6572613A
:1046F00073655F7061676520657272202564206F45
:1047000066667365743D30782530387A780A0025FE
:10471000633A20666C6173685F77726974652065BF
:1047200072726F72202564206F66667365743D3007
:10473000782530387A780A0025633A20666C6173F0
:10474000682072656164206661696C65643A202541
:10475000640A0025633A2063616C6C6261636B20BC
:104760006661696C65643A2025640A0025633A2015
:104770004275666665722073697A65206973206E7A
:104780006F7420616C69676E656420746F206D6959
:104790006E696D616C2077726974652D626C6F63F0
:1047A0006B2D73697A650A0025633A20496E636F41
:1047B000727265637420706172616D657465720AEE
:1047C0000053545245414D5F464C415348002563C8
:1047D0003A2072302F61313A2020307825303878F5
:1047E000202072312F61323A2020307825303878FD
:1047F000202072322F61333A2020307825303878EB
:104800000A0025633A2072332F61343A2020307831
:1048100025303878207231322F69703A2020307874
:1048200025303878207231342F6C723A202030785D
:10483000253038780A0025633A2020787073723A60
:1048400020203078253038780A0025633A204661E8
:10485000756C74696E6720696E73747275637469C0
:104860006F6E206164647265737320287231352F16
:104870007063293A203078253038780A005745533C
:10488000545F544F504449522F7A65706879722FA3
:10489000617263682F61726D2F636F72652F616142
:1048A00072636833322F6972715F6D616E61676523
:1048B0002E630025633A202A2A2A2A2A20555341AA
:1048C0004745204641554C54202A2A2A2A2A0A00C4
:1048D00025633A2020204469766973696F6E2062EF
:1048E00079207A65726F0A0025633A202020556E80
:1048F000616C69676E6564206D656D6F72792061AA
:1049000063636573730A0025633A20202053746142
:10491000636B206F766572666C6F772028636F6EAD
:10492000746578742061726561206E6F74207661A1
:104930006C6964290A0025633A2020204E6F2063A9
:104940006F70726F636573736F7220696E737472C8
:10495000756374696F6E730A0025633A20202049DD
:104960006C6C6567616C206C6F6164206F662045BC
:1049700058435F52455455524E20696E746F205013
:10498000430A0025633A202020496C6C6567616CFE
:1049900020757365206F66207468652045505352FA
:1049A0000A0025633A202020417474656D707420DC
:1049B000746F206578656375746520756E646566CF
:1049C000696E656420696E737472756374696F6E65
:1049D0000A0025633A202A2A2A2A2A2042555320EF
:1049E0004641554C54202A2A2A2A2A0A0025633A8D
:1049F000202020537461636B696E67206572726F4B
:104A0000720A0025633A202020556E737461636B2F
:104A1000696E67206572726F720A0025633A202002
:104A200020507265636973652064617461206275EA
:104A300073206572726F720A0025633A202020424B
:104A400046415220416464726573733A2030782580
:104A5000780A0025633A202020496D7072656369E9
:104A60007365206461746120627573206572726F72
:104A7000720A0025633A202020496E7374727563B0
:104A800074696F6E20627573206572726F720A00AE
:104A900025633A202A2A2A2A2A204D5055204641A9
:104AA000554C54202A2A2A2A2A0A0025633A202013
:104AB00020537461636B696E67206572726F722038
:104AC00028636F6E746578742061726561206D690A
:104AD000676874206265206E6F742076616C69640B
:104AE000290A0025633A2020204461746120416333
:104AF000636573732056696F6C6174696F6E0A0029
:104B000025633A2020204D4D464152204164647275
:104B10006573733A20307825780A0025633A20209F
:104B200020496E737472756374696F6E204163639C
:104B30006573732056696F6C6174696F6E0A0057F4
:104B40004553545F544F504449522F7A65706879E9
:104B5000722F617263682F61726D2F636F72652FA0
:104B6000616172636833322F636F727465785F6D51
:104B70002F6661756C742E6300526573657276657D
:104B80006420457863657074696F6E2028005370E7
:104B90007572696F757320696E7465727275707461
:104BA0002028495251200025633A20535053454C48
:104BB00020696E20746872656164206D6F64652081
:104BC000646F6573206E6F7420696E6469636174CD
:104BD00065205053500A0025633A202A2A2A2A2A9F
:104BE0002048415244204641554C54202A2A2A2A22
:104BF0002A0A0025633A20202042757320666175D9
:104C00006C74206F6E20766563746F7220746162BD
:104C10006C6520726561640A0025633A2020204497
:104C200065627567206576656E740A0025633A20B3
:104C300020204661756C7420657363616C617469D2
:104C40006F6E20287365652062656C6F77290A0096
:104C500025633A20415243485F455843455054200C
:104C60007769746820726561736F6E2025780A0A0F
:104C70000025633A202A2A2A2A2A20446562756779
:104C8000206D6F6E69746F722065786365707469EA
:104C90006F6E202A2A2A2A2A0A0025633A202A2A05
:104CA0002A2A2A20257320256429202A2A2A2A2A0A
:104CB0000A00574553545F544F504449522F7A6568
:104CC000706879722F647269766572732F636C6F86
:104CD000636B5F636F6E74726F6C2F636C6F636B6B
:104CE0005F636F6E74726F6C5F6E72662E630063CB
:104CF0006C6F636B40343130303530303000686673
:104D0000636C6B006C66636C6B00636C6F636B5FF2
:104D1000636F6E74726F6C0025633A20756E616C00
:104D200069676E656420616464726573733A2030EC
:104D3000782530386C783A257A750A0025633A2050
:104D4000696E76616C696420616464726573733A3C
:104D50002030782530386C783A257A750A0025633A
:104D60003A206E6F7420776F72642D616C69676E84
:104D700065643A2030782530386C783A257A750A9F
:104D800000666C6173682D636F6E74726F6C6C6516
:104D90007240343130383030303000666C617368C6
:104DA0005F6E726600574553545F544F50444952EA
:104DB0002F6E72662F6C69622F6670726F746563F6
:104DC000742F6670726F746563745F61636C2E63B9
:104DD00000574553545F544F504449522F6D6F64F0
:104DE000756C65732F68616C2F6E6F726469632FC9
:104DF0006E7266782F68616C2F6E72665F61636C8D
:104E00002E680025633A20526573657474696E6775
:104E10002073797374656D0A00666174616C5F65F7
:104E200072726F7200426F6F74696E6720283078FB
:104E30002578292E0D0A00496E76616C696420661A
:104E400069726D7761726520696E666F20666F7238
:104E50006D61742E0A0D00546865206669726D7765
:104E600061726520646F65736E27742062656C6F74
:104E70006E672061742064657374696E6174696F14
:104E80006E20616464722E0A0D0073726320616E7D
:104E90006420647374206D7573742062652065717D
:104EA00075616C20666F72206C6F63616C2063614A
:104EB0006C6C732E0A0D004669726D776172652005
:104EC000696E666F20646F65736E277420706F69FA
:104ED0006E7420746F20697473656C662E0A0D0001
:104EE000466972776D6172652068617320626565DD
:104EF0006E20696E76616C6964617465643A203015
:104F00007825782E0A0D0043616E6E6F74207265ED
:104F1000616420746865206669726D7761726520CE
:104F200076657273696F6E2E2025640A0D005765D1
:104F300020617373756D65207468697320697320CF
:104F400064756520746F20746865206669726D777A
:104F50006172652076657273696F6E206E6F742062
:104F60006265696E6720656E61626C65642E0A0D0C
:104F7000004669726D776172652076657273696F3C
:104F80006E202825752920697320736D616C6C650E
:104F900072207468616E206D6F6E6F746F6E6963DE
:104FA00020636F756E74657220282575292E0A0D91
:104FB000004669726D7761726520696E666F20695F
:104FC00073206E6F742077697468696E20736967E7
:104FD0006E656420726567696F6E2E0A0D00426F00
:104FE0006F742061646472657373206973206E6FDF
:104FF000742077697468696E207369676E656420D0
:10500000726567696F6E2E0A0D00526573657420B4
:1050100068616E646C6572206973206E6F742077AE
:10502000697468696E207369676E6564207265676C
:10503000696F6E2E0A0D00436F756C64206E6F747D
:105040002066696E642076616C6964206669726DA1
:10505000776172652076616C69646174696F6E2036
:10506000696E666F2E0A0D0056616C696461746921
:105070006F6E20696E666F20646F65736E27742093
:1050800062656C6F6E6720746F2074686973206648
:1050900069726D776172652E0A0D00626C5F6372D2
:1050A0007970746F5F696E697428292072657475F0
:1050B000726E65642025642E0A0D004669726D7754
:1050C0006172652076616C69646174696F6E2066D7
:1050D00061696C65642077697468206572726F72AB
:1050E0002025642E0A0D004669726D776172652075
:1050F000686173682076657269666965642E0A0D59
:105100000025633A2073747265616D5F666C61732C
:10511000685F696E6974206661696C65643A202510
:10512000640A0025633A2073747265616D5F666C72
:105130006173685F62756666657265645F777269E0
:105140007465206661696C3A2025640A0025633A1B
:10515000205472616E7366657220646F6E650A001A
:10516000706364004552524F523A2043616E6E6F35
:10517000742066756C66696C6C204558545F4150AC
:105180004920726571756573742E0D0A005741527E
:105190004E494E473A204F7074696F6E616C2045DE
:1051A00058545F4150492072657175657374206E63
:1051B0006F742066756C66696C6C65642E0D0A00F0
:1051C0000000000101000000574553545F544F5048
:1051D0004449522F6D6F64756C65732F68616C2F35
:1051E0006E6F726469632F6E7266782F68616C2FC0
:1051F0006E72665F647070692E6800574553545F25
:10520000544F504449522F6D6F64756C65732F680D
:10521000616C2F6E6F726469632F6E7266782F688F
:10522000656C706572732F6E7266785F67707069F7
:105230005F647070692E6300574553545F544F503C
:105240004449522F6D6F64756C65732F68616C2FC4
:105250006E6F726469632F6E7266782F64726976FE
:105260006572732F7372632F6E7266785F636C6FF3
:10527000636B2E6300574553545F544F504449525B
:105280002F6D6F64756C65732F68616C2F6E6F7214
:105290006469632F6E7266782F68616C2F6E726618
:1052A0005F636C6F636B2E68004E5246585F434CD1
:1052B0004F434B004E5246585F44505049005745AB
:1052C00053545F544F504449522F6D6F64756C6551
:1052D000732F68616C2F6E6F726469632F6E7266D4
:1052E000782F647269766572732F7372632F6E7292
:1052F00066785F6E766D632E6300574553545F5436
:105300004F504449522F7A65706879722F6B6572DD
:105310006E656C2F6465766963652E6300556E6BF0
:105320006E6F776E206572726F720025633A203E51
:105330003E3E205A455048595220464154414C2047
:105340004552524F522025643A202573206F6E201B
:105350004350552025640A0025633A204661756C48
:105360007420647572696E6720696E7465727275F7
:1053700070742068616E646C696E670A0A00756EED
:105380006B6E6F776E0025633A2043757272656E9F
:1053900074207468726561643A2025702028257332
:1053A000290A00574553545F544F504449522F7AAD
:1053B00065706879722F6B65726E656C2F666174AB
:1053C000616C2E6300435055206578636570746985
:1053D0006F6E00556E68616E646C656420696E74F2
:1053E00065727275707400537461636B206F7665BB
:1053F00072666C6F77004B65726E656C206F6F70B4
:1054000073004B65726E656C2070616E6963006F2E
:1054100073002A2A2A20426F6F74696E67206E52C9
:105420004620436F6E6E6563742053444B20763282
:105430002E352E39392D64657631202A2A2A0A0024
:10544000286E756C6C29002A666C6F61742A0000E6
:1054500000000001393A0001FFFFFFFF08000021B2
:0C546000080000210000000015E015E02D
:1085A800008800010088000101000000FFFFFFFFB4
:1085B80075EE8A988398194863FB1E59CF6C24017D
:1085C800010001000100F000FFFFFFFFFFFFFFFFB8
:1085D800FFFFFFFFFFFFFFFFFFFFFFFFFFFFFFFFA3
:1085E800FFFFFFFFFFFFFFFFFFFFFFFFFFFFFFFF93
:1085F800FFFFFFFFFFFFFFFFFFFFFFFFFFFFFFFF83
:10860800FFFFFFFFFFFFFFFFFFFFFFFFFFFFFFFF72
:10861800FFFFFFFFFFFFFFFFFFFFFFFFFFFFFFFF62
:10862800FFFFFFFFFFFFFFFFFFFFFFFFFFFFFFFF52
:10863800FFFFFFFFFFFFFFFFFFFFFFFFFFFFFFFF42
:10864800FFFFFFFFFFFFFFFFFFFFFFFFFFFFFFFF32
:10865800FFFFFFFFFFFFFFFFFFFFFFFFFFFFFFFF22
:10866800FFFFFFFFFFFFFFFFFFFFFFFFFFFFFFFF12
:10867800FFFFFFFFFFFFFFFFFFFFFFFFFFFFFFFF02
:10868800FFFFFFFFFFFFFFFFFFFFFFFFFFFFFFFFF2
:10869800FFFFFFFFFFFFFFFFFFFFFFFFFFFFFFFFE2
:1086A800FFFFFFFFFFFFFFFFFFFFFFFFFFFFFFFFD2
:1086B800FFFFFFFFFFFFFFFFFFFFFFFFFFFFFFFFC2
:1086C800FFFFFFFFFFFFFFFFFFFFFFFFFFFFFFFFB2
:1086D800FFFFFFFFFFFFFFFFFFFFFFFFFFFFFFFFA2
:1086E800FFFFFFFFFFFFFFFFFFFFFFFFFFFFFFFF92
:1086F800FFFFFFFFFFFFFFFFFFFFFFFFFFFFFFFF82
:10870800FFFFFFFFFFFFFFFFFFFFFFFFFFFFFFFF71
:10871800FFFFFFFFFFFFFFFFFFFFFFFFFFFFFFFF61
:10872800FFFFFFFFFFFFFFFFFFFFFFFFFFFFFFFF51
:10873800FFFFFFFFFFFFFFFFFFFFFFFFFFFFFFFF41
:10874800FFFFFFFFFFFFFFFFFFFFFFFFFFFFFFFF31
:10875800FFFFFFFFFFFFFFFFFFFFFFFFFFFFFFFF21
:10876800FFFFFFFFFFFFFFFFFFFFFFFFFFFFFFFF11
:10877800FFFFFFFFFFFFFFFFFFFFFFFFFFFFFFFF01
:10878800FFFFFFFFFFFFFFFFFFFFFFFFFFFFFFFFF1
:10879800FFFFFFFFFFFFFFFFFFFFFFFFFFFFFFFFE1
:0887A800FFFFFFFFFFFFFFFFD1
:10880000E00F002181970001A9C6000155970001E2
:108810005597000155970001559700010000000091
:10882000000000000000000000000000D5930001DF
:1088300055970001000000006D930001559700015D
:108840006194000161940001619400016194000150
:108850006194000161940001619400016194000140
:108860006194000161940001619400016194000130
:108870006194000161940001619400016194000120
:108880006194000161940001619400016194000110
:108890006194000161940001619400016194000100
:1088A00061940001619400016194000161940001F0
:1088B00061940001619400010000000000000000CC
:1088C00000000000000000000000000000000000A8
:1088D0000000000000000000000000000000000098
:1088E0000000000000000000000000000000000088
:1088F0000000000000000000000000000000000078
:108900000000000000000000000000000000000067
:108910000000000000000000000000000000000057
:108920000000000000000000000000000000000047
:108930000000000000000000000000000000000037
:108940000000000000000000000000000000000027
:108950000000000000000000000000000000000017
:108960000000000000000000000000000000000007
:1089700000000000000000000000000000000000F7
:1089800000000000000000000000000000000000E7
:1089900000000000000000000000000000000000D7
:1089A00000000000000000000000000000000000C7
:1089B00000000000000000000000000000000000B7
:1089C00000000000000000000000000000000000A7
:1089D0000000000000000000000000000000000097
:1089E0000000000000000000000000000000000087
:1089F0000000000000000000000000000000000077
:108A0000DEE61E284CBBCE8F023500003C00000085
:108A1000D248000001000000008800010088000129
:108A2000FFFF0291000000000000000000000000B5
:108A300000000000000000000000000053B94AB927
:108A4000002908BF00281CBF4FF0FF314FF0FF3056
:108A500000F00CB8ADF1080C6DE904CE00F008F898
:108A6000DDF804E0DDE9022304B07047704700BF81
:108A70002DE9F04786468C460846089E1546744602
:108A80001946002B40F0C1808542B2FA82F245D9E6
:108A90004AB1C2F1200300FA02FC954094402EFA3C
:108AA00003F343EA0C0C4FEA154EA8B2230CBCFBAF
:108AB000FEF80EFB18CC08FB00F943EA0C4399457D
:108AC00028D9EB1808F1FF3704D2994502D9A8F14B
:108AD00002072B44A3EB0903A4B2B3FBFEFC0EFB7D
:108AE0001C330CFB00F044EA0344A04214D92C19B7
:108AF0000CF1FF3304D2A04202D9ACF102032C44A2
:108B0000241A43EA07401EB1D44000233460736046
:108B1000BDE8F0874746DDE76346F1E792BB431BBC
:108B200001214FEA154EAFB2200CB3FBFEFC0EFB49
:108B30001C330CFB07F840EA0343984561D9EB1856
:108B40000CF1FF3004D2984502D9ACF102002B445D
:108B5000A3EB0803A4B2B3FBFEFC0EFB1C330CFB1F
:108B600007F744EA0344A7424DD92C190CF1FF330F
:108B700004D2A74202D9ACF102032C44E41B43EA1D
:108B80000040C0E7C2F120039540944020FA03F171
:108B90002EFA03F34FEA154E9040AFB20343B1FBF8
:108BA000FEFC0EFB1C10190C0CFB07F841EA0041FF
:108BB000884522D969180CF1FF3004D2884502D9C2
:108BC000ACF102002944A1EB08019BB2B1FBFEFC11
:108BD0000EFB1C110CFB07F743EA01439F420ED921
:108BE000EB180CF1FF3104D29F4202D9ACF1020123
:108BF0002B44DB1B41EA004193E76046E3E7614613
:108C0000F7E76046A4E76346B8E7834206D916B99A
:108C1000002108467CE7C6E900E0F9E7B3FA83F7EC
:108C20008FB9834201D3724508D8BEEB020460EBD2
:108C3000030301209C461EB9002169E73846FAE784
:108C4000C6E9004CF8E7C7F1200CBB400EFA07F567
:108C500022FA0CF42EFA0CF1BA401C4320FA0CF361
