:020000040000FA
:1000000000A205204143000015B600001543000082
:100010001543000015430000154300001543000080
:10002000000000000000000000000000E53F0000AC
:1000300015430000000000008D3F00001543000044
:10004000654000006540000065400000654000001C
:10005000654000006540000065400000654000000C
:1000600065400000654000006540000065400000FC
:1000700065400000654000006540000065400000EC
:1000800065400000654000006540000065400000DC
:1000900065400000654000006540000065400000CC
:1000A00065400000654000006540000065400000BC
:1000B00065400000654000006540000065400000AC
:1000C000654000006540000065400000654000009C
:1000D000654000006540000065400000654000008C
:1000E000654000006540000065400000654000007C
:1000F000654000006540000065400000654000006C
:10010000654000006540000065400000654000005B
:10011000654000006540000065400000654000004B
:10012000654000006540000065400000654000003B
:10013000654000006540000065400000654000002B
:10014000654000006540000065400000654000001B
:100150006540000053B94AB9002908BF00281CBFF8
:100160004FF0FF314FF0FF3000F00CB8ADF1080C4C
:100170006DE904CE00F008F8DDF804E0DDE90223C3
:1001800004B07047704700BF2DE9F04786468C46A3
:100190000846089E154674461946002B40F0C1805B
:1001A0008542B2FA82F245D94AB1C2F1200300FA7F
:1001B00002FC954094402EFA03F343EA0C0C4FEAFC
:1001C000154EA8B2230CBCFBFEF80EFB18CC08FBA6
:1001D00000F943EA0C43994528D9EB1808F1FF3799
:1001E00004D2994502D9A8F102072B44A3EB0903D5
:1001F000A4B2B3FBFEFC0EFB1C330CFB00F044EA84
:100200000344A04214D92C190CF1FF3304D2A042AC
:1002100002D9ACF102032C44241A43EA07401EB170
:10022000D440002334607360BDE8F0874746DDE7C3
:100230006346F1E792BB431B01214FEA154EAFB273
:10024000200CB3FBFEFC0EFB1C330CFB07F840EA52
:100250000343984561D9EB180CF1FF3004D298455F
:1002600002D9ACF102002B44A3EB0803A4B2B3FB08
:10027000FEFC0EFB1C330CFB07F744EA0344A742C9
:100280004DD92C190CF1FF3304D2A74202D9ACF19D
:1002900002032C44E41B43EA0040C0E7C2F1200300
:1002A0009540944020FA03F12EFA03F34FEA154EDD
:1002B0009040AFB20343B1FBFEFC0EFB1C10190CC7
:1002C0000CFB07F841EA0041884522D969180CF176
:1002D000FF3004D2884502D9ACF102002944A1EBD9
:1002E00008019BB2B1FBFEFC0EFB1C110CFB07F7D7
:1002F00043EA01439F420ED9EB180CF1FF3104D2BF
:100300009F4202D9ACF102012B44DB1B41EA0041C0
:1003100093E76046E3E76146F7E76046A4E7634694
:10032000B8E7834206D916B9002108467CE7C6E93A
:1003300000E0F9E7B3FA83F78FB9834201D372453E
:1003400008D8BEEB020460EB030301209C461EB9F3
:10035000002169E73846FAE7C6E9004CF8E7C7F13B
:10036000200CBB400EFA07F522FA0CF42EFA0CF121
:10037000BA401C4320FA0CF3B8404FEA1449014339
:100380001FFA84FEB3FBF9F809FB18300B0C08FBCD
:100390000EFA43EA00439A4540D9E31808F1FF30CA
:1003A00004D29A4502D9A8F102002344A3EB0A0320
:1003B00089B2B3FBF9F809FB183308FB0EFE41EADA
:1003C00003418E452CD9611808F1FF3304D28E45C4
:1003D00002D9A8F10203214443EA0040A1EB0E0137
:1003E000A0FB02984145CE46434602D306D14D4577
:1003F00004D20138B9EB020E68EB0403002EA7D03B
:10040000B5EB0E0261EB030101FA0CFC22FA07F3D3
:10041000F9404CEA0303C6E9003199E74046C5E7D5
:100420004346D9E7F0B5474B474A85B0C2F8003696
:10043000C2F80436C2F80836C2F80C36C2F81036D4
:10044000C2F81436C2F81836C2F81C3602F58052CB
:10045000C2F80036C2F80436C2F80836C2F80C36C4
:10046000C2F81036C2F81436C2F81836C2F81C3674
:1004700000F090F8354C20460DF079FD00B3256969
:10048000A6682B680D2143F400532B602046336887
:100490002F4A98472046736801A9984720B92A68CF
:1004A000019B53409A040BD54FF05023D3F80034EE
:1004B0000BB1DB0704D503F033F8264803F048FC02
:1004C00000F0CEFA054601A800F0A0FF0446284639
:1004D00000F0D6FA204B1B68A34201D00AF0C5F801
:1004E0004FF48031002005F0ABFE044600B1FEE77A
:1004F00005F084FF69469DF8080009F0E9FF009BBC
:10050000039D1D44019B1E8905F082FEAF1902F078
:1005100027F800F0C3FF01F009F800F091FF00F0A8
:10052000ABFF84F30B8884F30A88AB5983F3088804
:1005300084F31488BFF36F8FBFF36F8F7B68984786
:10054000FEE700BF3546526E0080015070E70000A4
:100550001100010008EB0000BC20002021B101299E
:1005600006D06FF015007047044B53F83000704709
:10057000024B03EBC0035868704700BF10EB00004C
:1005800004289ABF024B18566FF01500704700BF41
:100590000AF100004FF4C051014806F0BBB900BF9A
:1005A000564601207FB51C468388204E3F2B30D114
:1005B000037803F00703022B2BD1C5794DBB0D2027
:1005C00001A901F0A9FC002821DB019829468268D5
:1005D0000AF0DDFD054601980AF0AEFD003D18BFAA
:1005E00001250A2120460DF0B1FC022302A9204674
:1005F000029603930DF0A3FC294620460DF092FCD1
:100600000A2120460DF0AAFC002004B070BD01258F
:10061000E7E70A2120460DF099FC022302A92046B3
:10062000029603930DF08BFC0821E6E70FF1000022
:100630002DE9F04FDFF8E0B1F9B038A8DDE98489A1
:1006400016461C46869FDBF800500CF0DAFE0021AF
:1006500038A806F073FAB8F1000F07D0B9F1000F0F
:1006600004DD4A46414638A80CF0CFFE4FF00008A2
:1006700033897289D6F80CA013449A44C2454CD8E9
:100680000DA938A80CF005FF27B1202238460DA986
:100690000AF0F9FF00232246009331464FF6FF731C
:1006A00007A809F036FF8046002833D120460C9E6B
:1006B00009F0D9FF86422DD84FF0FF37DFF85C9163
:1006C0000DF1160305AA06A907A809F070FF002876
:1006D00020DB40F09880BDF81660102E35D1BDF8B3
:1006E0001460202E16D133462046069938AA0AF007
:1006F00024FD78B900F0B4F93246804638A90DA837
:1007000000F096F90646404600F0BAF9444B1B68E3
:10071000B34217D0DBF8005078E0839BAAEB0809BE
:10072000994528BF994641464B462046829A0AF091
:1007300004FD0028EED14A46829938A80CF065FEE7
:10074000C8449BE74FF00108BAE7012E35D1BDF848
:100750001430202BDED82046069938AA0AF0EDFC8A
:1007600007460028D6D19DF814A0BAF1200F02D96F
:100770004FF0FF37A4E7D9F800302A4E0393039BCC
:100780009F42F5DA1DA80CF03CFE00211DA806F0E2
:10079000D5F972681DA8126856F8081B0CF035FED2
:1007A00015A91DA80CF075FE524638A915A80AF027
:1007B00043FF002884D00137E1E7202E80D17B1C45
:1007C0003FF47EAFD9F80030BB42D1DDBDF8143024
:1007D000B3F5807F9ED12046069938AA0AF0ADFC79
:1007E000002897D100F03CF9FFB282463146BDF8AF
:1007F000143038AA00970DA800F016F805465046A8
:1008000000F03EF9B4E7B8F1000F83D000F030F902
:10081000284679B0BDE8F08FB820002020EB00001A
:10082000BC20002024EB00002DE9F04FDFF8F4B1EC
:10083000ADF54D7D804629A81E469DF858738A4621
:100840009146DBF800500CF097FD0422012129A805
:1008500006F0F0F8744B8CAA53F8374003EBC7034B
:100860005B6804941B6804A81C44214630230BF0E9
:10087000AAFB002840F0CC80049B8C9A13449C4235
:1008800040F0C68021462BAA04A80BF0B0FB00283C
:1008900040F0BE802EAF3A46214604A80BF0A7FBDD
:1008A0000390002840F0B4802BA80BF097FC049A2A
:1008B0002A90944240F0AC80039B01971A46009323
:1008C0002BA929A80CF015FD002840F0A18029A82B
:1008D00006F0C6F8002840F09B802BA80BF07EFCA9
:1008E0002A9029A80CF052FD864240F0918000F039
:1008F000B7F8B6F5807F0746DBF8005040F08380FC
:10090000BAF1200F7FD149468CAA29A806F0CEF86B
:100910000446002877D19DF82F33BC2B73D1DF26F6
:1009200005900DF5A87A0EA80CF06BFD00210EA81D
:1009300006F004F920220DF20F310EA80CF065FD2F
:10094000042205A90EA80CF060FD06A90EA80CF063
:10095000A0FD202EB146A8BF4FF020099DF817300A
:10096000504601334A4606A9A6EB09068DF8173012
:100970000AF089FE002ECA44D5DC54AA1046002194
:100980008CAB067813F801CB013186EA0C06DF291F
:1009900000F8016BF5D19DF8503103F07F038DF81D
:1009A000503112F8016B76BB0134BE2CF9D19DF8A1
:1009B0000E32012B27D10EA80CF023FD31460EA8D4
:1009C00006F0BCF8082219490EA80CF01EFD41469D
:1009D00020220EA80CF019FD20220DF20F210EA8E6
:1009E0000CF013FD06A90EA80CF053FD00F038F82A
:1009F000202204460DF20F3106A800F019F8054632
:100A0000204600F03DF800F033F8384600F038F8A2
:100A100029A80CF0BDFC00F02BF828460DF54D7D03
:100A2000BDE8F08FB820002024EB000012F1000098
:100A300070B5094B04461D680023934205D1074B4E
:100A40001D6800F015F8284670BDE65CC85C86425B
:100A5000F7D10133F1E700BFB8200020BC2000200F
:100A6000024B1868421C1A60704700BF80270020A4
:100A7000024A1368013B1360704700BF80270020C3
:100A8000034B1B68834201D009F0EFBD704700BFE4
:100A900080270020034637B54FF40062084693F8DC
:100AA000B84013490192620051F82250A8420ED179
:100AB000582101FB043201FB0434526A283401A995
:100AC00001F052FA08B9019B236003B030BD013236
:100AD00051F82220904208D1582101FB043201FB39
:100AE0000433126D03F15404E9E70120EDE700BF80
:100AF0002CEB000070B590F8B850104E6D0056F811
:100B000025100446FFF7C6FF98B9013556F82510A1
:100B10002046FFF7BFFF054668B9582294F8B83061
:100B200002FB0343186A0AF046FBC4F8B4002846E7
:100B300070BD0125FBE70925F9E700BF2CEB00009C
:100B40002DE9F04F624B8DB0044690F8B8000E4688
:100B50001D68FFF703FD0AA98246C0B201F0DCF967
:100B600028B1FFF785FF28460DB0BDE8F08F94F857
:100B7000B87031463846FFF7F1FC4FF02C090BA94D
:100B8000C0B209FB06F901F0C7F900285CD04FF0AC
:100B9000580B2C220BFB07F302FB063323441B6983
:100BA00013F0100865D1FFF75BFF3146079094F80A
:100BB000B80005F02BFC05460798FFF761FF454B91
:100BC0001B689D4223D1FFF74BFF94F8B8100790A4
:100BD0000A9D0991FFF744FF4FF4807307FB0B92C6
:100BE00001933D4B09990890009322442B464046BF
:100BF000CDE90388CDF80880FFF71AFD054608986F
:100C0000FFF73EFFFFF734FF0798FFF739FF2C236C
:100C10004FF0580C73430CFB07373049E219E75982
:100C20000A988F420AD1D1681289521806D2816877
:100C30008A4203D22A4A1268AA4220D0CEB10021A9
:100C400082680AF0A4FA14E00B980AF0BBFA054691
:100C50000B980AF071FA582394F8B82002FB03931A
:100C600023445A1E033312F8011FA9428FD19A421E
:100C7000F9D11C4B1D680A980AF05EFA71E794F8E6
:100C8000B820194901EBC20149688A45F3D10CFB30
:100C900002F2A1180E6A0021134423440B91198912
:100CA00004230BAA19440AF048FA0028E1D194F869
:100CB000B8300B99012B0BBF0C4AD6E901234FF03A
:100CC00082739B18914201D39942D4D90A98B6E70E
:100CD000B8200020B0200020565E01203DB8F396D9
:100CE000BC200020B42000202CEB00000088000174
:100CF0002DE9F84F884691469A460026DFF88CB0D9
:100D0000234D244C0B9B9E4201D300200FE00B9BF4
:100D100040469F1BB7F5806F28BF4FF480671B4A82
:100D20003B4606EB0A010AF008FA10B10120BDE8C3
:100D3000F88F0A993B465A46484671180AF012FA4B
:100D40000028F3D1144BC5F800463E44C5F80446CC
:100D5000C5F80846C5F80C46C5F81046C5F814464F
:100D6000C5F81846C5F81C46C3F80046C3F8044643
:100D7000C3F80846C3F80C46C3F81046C3F8144637
:100D8000C3F81846C3F81C46BCE700BF84270120FF
:100D9000008001503546526E009001502DE9F04F11
:100DA000002604460D46B046582795B0012E84F81B
:100DB000B86007D9B8F1000F00F05B8100202C2645
:100DC0005827DCE0A31993F8B91000294DD107FB8F
:100DD00006436D4A304602EB86325A626B4A02EB9A
:100DE00086321A65FFF7BAFB94F8B810C0B207FB59
:100DF0000141203101F090F801213046FFF7AEFBB0
:100E000094F8B810C0B207FB01414C3101F084F8EE
:100E10002046FFF76FFE00BB00222046114609F076
:100E200037FC834690B9204609F093FC70B10AA8BC
:100E300009F05DFC09F064FC064660BB94F8B8302C
:100E4000C3B9002120460AAA09F022FC012294F825
:100E5000B830234483F8B02007E0012294F8B8307A
:100E60009042234483F8B020D6D194F8B86001367C
:100E7000F6B29BE794F8B020042A04BF012284F85C
:100E8000B020012BDDD094F8B130042BD9D101234F
:100E900084F8B130D5E79DF82F30012B51D158227D
:100EA00094F8B830CDF838B002FB0343384AD96A19
:100EB000D86C91421DD094F8B80005F057FB831E02
:100EC000022B81461FD8FFF7CBFD01218346204628
:100ED000FFF736FE82465846FFF7D2FD2D490968D6
:100EE0008A4510D02C4A126892450AD14FF0010968
:100EF00009E0998E04230EAA19440AF01EF900286D
:100F0000D9D04FF0050994F8B830234483F8B09055
:100F100094F8B8306BB1E21892F8B020012AA4D04E
:100F2000042A0CD094F8B020042A02D1012284F8BB
:100F3000B020234493F8B030023B022B95D8B04642
:100F400093E7FFF78DFD012183462046FFF7F8FD6B
:100F500081465846FFF794FD0E4A94F8B83012685F
:100F60002344914514BF05229DF82F2083F8B0201B
:100F7000CEE7231893F8B92082B10130C0B201281E
:100F800084F8B800F5D974E084A7002084270020F5
:100F90003DB8F396BC200020B420002093F8B08028
:100FA00008F0FB08B8F1010818BF4FF001084146EE
:100FB000FFF7D4FA05A9C0B200F0AEFF002840F058
:100FC0008F80012306FB08F894F8B810059A17FBE8
:100FD00001810093214440230EA809F09AFA80462B
:100FE00000287FD100230DF1120206A90EA809F0F6
:100FF000DEFA00283DDB059840F08180BDF8123014
:101000000C2B7AD1069907AA0AF097F800287FD10D
:101010009DF81C30012B7ED8E21892F8B0207B435B
:10102000023A022A8CBF0022012206FB023323442B
:10103000197D9DF820209142D4D80AD3597D9DF87E
:1010400021209142CED804D3DA8ABDF822309A42C8
:10105000C8D294F8B8300598234493F8B020012AF8
:101060003CD0023A012A02D8012283F8B0200AF0CB
:1010700063F800264FF0FF085827012E84F8B86067
:101080004CD90023DFF8D082B44EB54F0E93012B1C
:1010900084F8B83040F24E810E9B022B01D009F04B
:1010A000E4FA94F8B930002B40F09281582606FB00
:1010B000034284F8B830106A09F010FA287194F8E5
:1010C000B83006FB03431B6A5B68AB6094F8B8302A
:1010D00003FB06462E60A14B1D6850E10422C4E7C5
:1010E0000598C4E705980AF027F8B8F1030FC0D1B6
:1010F00040F20113A4F8B030BBE74FF003080598A5
:101100000AF01AF8B8F1000FEFD194F8B80034E7FC
:101110004FF00108F3E74FF00708F0E7A21992F843
:10112000B930002B40F0C3800AA809F0E0FA92F829
:10113000B030042B8DF82F3006D8012B06D800F0E4
:10114000AD8082F8B080A9E0052BF8E707FB0643E5
:10115000194630462C31DA6C0AF05FFE0128014650
:1011600040F09C8094F8B800FFF7F8F907A9C0B2E6
:1011700000F0D2FE002800F09F804FF000094FF0F1
:10118000580B079809F0D8FF94F8B86007A90BFB33
:1011900006431B6A187800F0BFFE724B0EA903EBE2
:1011A000C6030026B246187900F0B6FE94F8B830AF
:1011B0000BFB03439B6A534519D094F8B820314682
:1011C0000BFB0242526A079802EBCA025268039371
:1011D000029209F0DCFF029A039B16444E45C0F0D0
:1011E000A680D4F8B460B9FBF6F906FB0966D4F81A
:1011F000B40009F028FA582394F8B82003FB0242FF
:10120000536A926A1968013A03EBC2030022D3F8C9
:1012100004E09C4672449042A3F10803F7D8DCF83E
:1012200000300798591A09F0B2FF00232046079AA8
:101230000E9901960093FFF75BFD78BB079805F0C8
:101240001FF958BB4FF0580994F8B800324609FB13
:101250000043196A0AF0EFFD0146F8B994F8B83076
:101260000E9809FB03431B6D5A6809F090FF94F830
:10127000B83009FB0343D3E91423013B52F8331080
:1012800002EBC30013684268C91A0E9809F07FFF89
:10129000079809F051FF0E9809F04EFF94F8B83006
:1012A000234493F8B030FF2B01D109F0DEF994F814
:1012B000B8600136F6B2E0E694F8B830079807FB5C
:1012C00003439E8E9B6B0EAA1E443146042309F0F5
:1012D00034FF00287FF451AF94F8B830BDF83820BF
:1012E00007FB0343B3F836A046F608139A42079863
:1012F00019D1BDF83A309A457FF43FAF04230EAAC6
:101300000AEB060109F019FF00287FF436AF46F614
:101310000713BDF838209A427FF42FAFBDF83A90FA
:10132000D144B1442BE7BAF1000FF0D025E70AF120
:10133000010A40E7234493F8B9208DF81C209DF85A
:101340001C2002F0FF017AB10E9B01330E9394F83A
:10135000B8300133DBB29AE6B8200020BC20002070
:10136000B42000202CEB000093F8B030012B17D0F4
:1013700020460AAA09F08CF990B1D8F80050102242
:1013800000210AA80AF08AF958260023012B84F8C4
:10139000B83025D9FFF76CFB284615B0BDE8F08FB3
:1013A000FFF75EFB002182462046FFF7C9FB81461E
:1013B0005046FFF765FB33684B45DED1D8F8002077
:1013C0009A42DAD03A689A42BED1D6E701236DE656
:1013D00094F8BA30002BF9D0022384F8B8307AE6BA
:1013E000E21892F8B9205AB906FB0343D86C09F009
:1013F000A3FE94F8B83006FB0343186A09F09CFE7C
:1014000094F8B8300133DBB2C0E700BF70B50B4EC3
:101410000446BC22002130460AF040F9FFF720FBC9
:10142000214605463046FFF7B9FC04462846FFF73B
:1014300027FBFFF71DFB204670BD00BF842B01205A
:10144000BFF36F8F72B600234FF0FF30094A03F1EC
:1014500020010133102B42F82100F8D100234FF076
:10146000FF30044A03F160010133102B42F82100E0
:10147000F8D1704700E100E0002318460649D1F892
:101480009020C2F30722934200DB7047C1F89830E6
:10149000C1F8A0000133F6E700ED00E038B5012205
:1014A0004FF0FF3400251A4B29465A60C3F84843D1
:1014B000C3F8084303F580535A60C3F84843C3F8A0
:1014C0000843A3F55043C3F800558022C3F80843EE
:1014D00010480AF0E3F8802229460F480AF0DEF8A7
:1014E0000E4B8022C3F800552946C3F808430C4828
:1014F0000AF0D4F8802229460A480AF0CFF80A4BAD
:10150000C3F808454FF05023C3F8084338BD00BF67
:1015100000400150808000508081005000900050B9
:101520008090005080910050007001504FF4EC22E8
:10153000002101480AF0B2B800A000202DE9F043D4
:10154000079D15B91560002012E00324B5FBF4F4E3
:1015500004EB4407BD4218BF0134B4F1804F09D2F7
:10156000A40001348C4200D838B96FF00B0014602D
:10157000BDE8F0834FF0FF34F7E704460021DFF8C1
:10158000B4E0B94203F1030C04F104062BD3A942E1
:10159000274623D201F1010CAC451F7828BF002358
:1015A00024494FEAA70E38BF5B7811F80EE0AC452E
:1015B00084F800E001EB131E2EBF3D239B0003F0D7
:1015C0003C034FEA071738BFCB5C07F030071EF823
:1015D0000770A3703D2367703746E3700023381A05
:1015E00010603B70AFE71CF8034C1CF8023C4FEA5C
:1015F000A4091EF8099024011CF8018C04F03004A1
:1016000006F8049C0EEB131919F804409B0006F829
:10161000034C03F03C030EEB9814E35C08F03F0826
:1016200006F8023C1EF80830344606F8013C033147
:101630006346A6E7A8F200002DE9F04300273C46E8
:101640003D46DDF81CE0DFF8288175451FD3E4BB7B
:1016500000201460BDE8F0830136764533D013F8DE
:1016600006C0BCF1200FF7D0AEEB0609B9F1010FAF
:10167000A6EB05050DD0BCF10D0F0AD103EB060951
:1016800099F80190B9F10A0F6ED1751CDDE72E466D
:10169000E3E7BCF10A0FF8D02DB9BCF13D0F05D13D
:1016A0000137022F0DD96FF01500D3E71CF0800F22
:1016B000F9D118F80C507F2DF5D03F2D01D8002F0F
:1016C000F1D10134E1E73546C1E74FF0060C04F0F3
:1016D0000706E4080CFB06F60CFB04F40736E41BD3
:1016E00004EBD60470B18C420CD8002701460326C7
:1016F0003C46DFF87CE0DFF87C801D449D4205D14C
:101700000C1AA5E76FF00B001460A3E713F8019B18
:10171000A9F10A0C5FFA8CFCBCF1160F04D848FA48
:101720000CFC1CF0010FE9D01EF809C00134BCF11B
:10173000400F08BF013E0CF03F0C042C4CEA871709
:10174000DCD17EB13C0C012E0C7002D101310024A1
:10175000D4E7022E4FEA17244C7016BF8F70023167
:101760000331F4E73446C9E7002DA2D09BE700BF60
:1017700028F20000F6FFBFFF2DE9F047058B044675
:101780002807904611D4022905F0070540F0CD80C6
:10179000204609F002FB78B10138218B042811D8CA
:1017A000DFE800F0C3106D85950001290CBF45F0FE
:1017B000100545F02005258388F31188BFF36F8F4E
:1017C000BDE8F08701F0070AAA4500F0A6800027CF
:1017D000B9463E46A368002B00F0BD8041F00801E9
:1017E000218388F31188BFF36F8FA168002900F06F
:1017F000BB800D68002900F0B78033465246204672
:10180000D1F80480C047002D76D02B6829461D46AC
:10181000F0E701F007035A1F012A1BD8002221F02C
:101820000701062B276889B2C4E9002209D13B468B
:1018300003E0628B013262831B68002BF9D141F017
:1018400002012046218309F0A8FA00287BD041F04C
:10185000200177E0042B0AD121F0070189B220464C
:10186000218309F09AFA10B141F020012183218BE4
:1018700001F0070AAA4550D00027B946AAE7236914
:1018800021F0070141F00601062DD3F800902183D5
:101890002DD1B9F1000F40D041F00801218388F328
:1018A0001188BFF36F8F20463949C84729E021F0DE
:1018B0000701236941F0040189B2042DD3F8049093
:1018C0002183E6D000274FF0040A3E4682E721F04C
:1018D0000701236941F0050189B2052DD3F808906D
:1018E0002183D6D000274FF0050A3E4672E7002735
:1018F0004FF0060A3E466DE72B4687E7B9F1000F29
:10190000D1D14FF02003EFF3118883F31288BFF396
:101910006F8F238B23F008032383258BEA062ED5B4
:1019200025F01003238305F007056669218B002E3F
:10193000BFF66FAF00232768C4E9003321F0070129
:1019400041F001012183218B4FF0000901F0070ACA
:10195000AA457FF43FAF002F9BD041F008012183BF
:1019600088F31188BFF36F8F002FC7D03D683946C9
:1019700033465246204609F03CFA2F46F4E7AB06C0
:101980007FF51AAF25F02003238305F00705FFE656
:101990001FAE00002DE9F04F82464FF000098DB0D8
:1019A0001D46531E01910393039B58785C1C252808
:1019B00019D100204FF0FF381E4644460346023638
:1019C000029031780396392955D81F2914D8002957
:1019D00000F0EF8101992520D04701993078D04758
:1019E00009F10209E0E7002800F0E3810199D047FE
:1019F00009F101090394D7E7A1F12002192AE9D8D6
:101A000001A757F822F000BF711A0000D519000095
:101A1000D5190000711A0000D5190000F11A000054
:101A2000D5190000D5190000D5190000D5190000FE
:101A30003D1B0000711A0000D5190000511B000069
:101A4000FD1A0000D51900000B1B00002B1B000025
:101A50002B1B00002B1B00002B1B00002B1B00006E
:101A60002B1B00002B1B00002B1B00002B1B00005E
:101A700008460136A5E7582900F0EB80A1F1630282
:101A8000D7B2172FA6D8172AA4D801A757F822F043
:101A9000F91C0000771B0000D5190000D5190000C3
:101AA000D5190000571B0000771B0000D519000056
:101AB000D5190000571B0000D5190000D5190000EA
:101AC000D51900002D1C0000D5190000D519000003
:101AD000CD1C0000D5190000771B0000D5190000AF
:101AE000D51900002D1C0000D5190000571B00005F
:101AF00025200199D04709F1010955E7029A4FF0D5
:101B0000000802F0FE020292B3E7002C0DDAB8F1F1
:101B1000000F0DDA029A002A00F043810A2224EA1B
:101B2000E47402FB0414303CA3E7B8F1000FF5DBCA
:101B30000A2202FB0812A2F130089AE7B8F1000F5E
:101B400055F8042B80F22F81002A80F22E81544216
:101B5000022202928DE7682903D1682B06D148231F
:101B600087E76C2902D16C2B00F02181002B7FF4D8
:101B700031AF0B467DE77A2B06D1752955F8046BFA
:101B800014D14FF0000B0CE06C2BF6D04C2BF4D1A1
:101B9000073525F00703752903F10805D3E9006B24
:101BA00006D120283BD1854F013C09E04FEAE67B76
:101BB000BBF1000FF5DA7642814F6BEB4B0B013C2A
:101BC0000DF12D03059300230493304659460A2254
:101BD0000023FEF7BFFA059BB446303203F8012D0F
:101BE0005A460593049BBCF10A0F8B4672F1000222
:101BF00003F1FF3106460491E7D2C3F1010B303304
:101C00000DEB0306B8F1000FA6F104066DDA029B96
:101C1000D9077DD4A8EB0B03A4EB0B0413E02B280E
:101C20000ABF684F684F04F1FF34C9E770290FD12C
:101C300055F8042B0023FAB96FF004034FF0050B9D
:101C4000614F624E053C029A920770D4A04666E04E
:101C500078216C2B03D1002355F8042B08E04C2B82
:101C6000F9D1073525F007031D465B6855F8082BA9
:101C7000232825D1880621D5554F023C002601F0A6
:101C80006001A1F1390B0DF12D0E02F00F010929B0
:101C900088BF594430310EF8011D102A4FEA121145
:101CA00041EA03714FEA131C73F1000306F1FF30A0
:101CB00008D2C6F1010B06F13003A1E7454FDCE77E
:101CC000414FDBE706460A466346DEE755F8046BFC
:101CD000304609F0AAFCB8F1000F834602DB40450C
:101CE000A8BFC3464FF00008374FA8EB0B03002BEB
:101CF00092DDA4EB0804A6E755F8043B4FF0010B76
:101D00008DF81830304F4FF0FF33013C06AE9AE7A4
:101D1000A046EAE7029320200199D047029BB8F140
:101D20000108F7D524EAE472013C9144A41AB846AC
:101D300006E0049302920199D047029A049B9046D0
:101D4000424612F8010B0028F3D11A46013A15D584
:101D5000002BACBFC7EB03077F425B46013B15D5A9
:101D6000BBF1000FA8BF5F4426464F44013E14D587
:101D7000002CA8BF3F1907EB080915E6049302924F
:101D800030200199D047049B029ADFE70293019922
:101D900016F8010BD047029BE0E701992020D047BD
:101DA000E4E70122D5E6904663E6144661E64C235B
:101DB0005FE648460DB0BDE8F08F00BFFBF20000C3
:101DC000F9F20000FDF20000BDF3000005F3000091
:101DD000FFF2000002F3000007B50DF107000BF061
:101DE000E9FB114B98421CD14FF480620F4B104914
:101DF000C3F8B8254FF40062C3F83C259DF80700EE
:101E00000BF0D3FB0B499DF807000BF0C9FB012039
:101E10009DF80730984005F0CBF8002003B05DF83E
:101E200004FB6FF00B00F9E70000AD0B00A00250BF
:101E30002CA0025028A10250054B03EB8000D0F8E3
:101E4000003223F0E04343F04053C0F800327047C3
:101E500000258450012208B50A4B0B49C3F8002520
:101E600002230020C1F8D036FFF7E6FF1046FFF747
:101E7000E3FFC1F80427C1F80429C1F8002B0020B2
:101E800008BD00BF0010005000400050052370B591
:101E9000144D154E2C780134B4FBF3F303EB83039C
:101EA000E41A09F087FF114A137823B156F8243059
:101EB000C01A072814D94FF05023D3F8141141B198
:101EC0000021C3F81411D3F814312C700CB901237C
:101ED00013702C7809F06EFF46F82400012070BDC5
:101EE0000020FCE7575F0120402C0120565F0120B5
:101EF00048B1054B054A1B68B3FBF2F35843044B4A
:101F000043F00103184770478C21002040420F0026
:101F100000EB000004F02EBF70B5114B0D461C689D
:101F2000DCB1104B196800238B4202DB6FF001001B
:101F300070BD224612F8106B864202D0144601335F
:101F4000F2E7E06810B96FF01200F1E70CF00FF85B
:101F50000028F8D000202C60EAE76FF00C00E7E7DB
:101F60001821002094EB000070B588B005460C469F
:101F7000C0B269461646FFF7CFFF00281BDB00986A
:101F8000C8B143682268029383680195CDE903369E
:101F90000023CDE906230593C56809F0CDF86DB19E
:101FA0002846084901AA09F076FD079808B9059B5B
:101FB000236008B070BD6FF01500FAE76FF01200F3
:101FC000F7E700BFD3B10000F0B40C4B0C4E5F6AD2
:101FD0000C4BB34203D36FF08500F0BC70475D68D3
:101FE000BD4209D31C693CB195F802C00579AC45E6
:101FF00002D12346F0BC18472433EAE7542C0120D1
:10200000A02400207C2400202DE9F04705460E4640
:102010001746124CDFF84880DFF84890444503D358
:102020006FF08500BDE8F0876268D9F824309A42E5
:1020300012D3A36983B190782979884205D13A46B1
:1020400031462846BDE8F04718475279012A03D1A6
:102050003A463146284698472434DFE77C2400205E
:10206000A0240020542C01202DE9F04105460E4605
:1020700017460A4CDFF82880444502D36FF08500EC
:1020800009E063690BB92434F6E73A46314628463D
:1020900098470028F7D1BDE8F08100BF7C240020DC
:1020A000A024002010B5044609F042FB10F1780F7F
:1020B00000D050B9204609F0AEF8044AD2F8C43036
:1020C00023EA00030020C2F8C43010BD542C0120C4
:1020D00008220021014809F0E1BA00BF0F2D0120BC
:1020E00070B50B4B0B4CA34201D3002070BD0022F6
:1020F000196A1E7F0439D5B2AE4201D82433F2E703
:10210000013211F832508542F5D10120EEE700BFCF
:102110007C240020A024002008B509480378C3F3DC
:1021200041130A3350F823303BB100F1080200F1AB
:1021300010019847C043C00F08BD1846FCE700BF18
:10214000542C012004282DE9F14F04460F46DFF8F6
:10215000949016D001282DD1DFF88C8098F8B930F2
:1021600043B300F00DFE214D4D4520D24FF0000A43
:10217000D5F820B02B7F5FFA8AF6B34204D8243515
:10218000F2E7FFF7A5FFE7E70BEBC606307909F0AA
:10219000CFFA0246307909F03EF8D8F8C430002A68
:1021A00023EA0003C8F8C4300AF1010AE2DA002386
:1021B00088F8B9300D4D4D4508D30B4B1B6A6BB1F8
:1021C0003946204601B0BDE8F04F1847EB681BB117
:1021D0003A462146284698472435ECE701B0BDE849
:1021E000F08F00BFA0240020542C01207C2400206C
:1021F00073B5C4B263060D468DF8074007D020467C
:10220000FFF76EFF78B10D4B93F8BA0058B1204636
:102210000A4E55B102F038FDF3691BB108200DF1EB
:1022200007019847012002B070BD02F055FDF36927
:10223000002BF7D009200DF10701F2E7542C012003
:1022400073B586781E4C8DF800600379427943EAB5
:102250000223ADF80230C378304603F003038DF853
:10226000043008F0D8FFD4F8C430054618420BD02B
:10227000304600F067FD3046FFF714FF0BF0F7FE25
:1022800010B9962007F0B0FC684602F0D9FC10F1B6
:10229000780F03D010B1002002B070BD9DF800008F
:1022A00002F056FD10F1780F01D00028F3D1012083
:1022B000D4F8C43084F8B9002B43C4F8C430EBE739
:1022C000542C01202DE9F047924D0446AB690E468F
:1022D0001746C3B9207800F01F00012876D00228E5
:1022E00000F0DC8000BB94F900103A6800296378A4
:1022F0002EDA062B0CD0082B25D0ABB95370012356
:102300001370022303E198470028E3D100200DE079
:102310006388190A0A1F012A8C4605D9072903D8A0
:10232000DAB26B6A1C781CB96FF01500BDE8F08753
:102330005D78654503D1824200F0E480013023449A
:10234000F0E71B78E3E095F8BA3013700123DEE084
:10235000052B11D0092BE7D163886E6A002B32D18F
:10236000FFF7B6FE638885F8BA30EB69002BCDD055
:10237000032069499847C9E7A07802F04FFC00287C
:10238000C4D0D1E77378042B10D0052B11D0022BC9
:1023900004D177796388BB4208BF012033781E449B
:1023A0003378002BEED10028BED0D9E796F8038011
:1023B000F4E76388BB42F1D1B8F1000FEED13046AB
:1023C000FFF73EFFEAE7FF27B846E9E795F8BA309E
:1023D000D7F800C0002BA7D06F6AA2883B4694F8BC
:1023E00004E0187800289FD05978022904D193F886
:1023F0000480F04500F292800344F2E78CF800304C
:102400008CF80130316081E71F4493E00B2B8BD1B6
:1024100000264FF0FF08B246C14606E07B78042B49
:102420000FD0052B21D03B781F443B78002BF5D1F2
:10243000EB6913B1514607209847002E7FF466AF31
:1024400072E797F80280A38897F803909845EAD13D
:1024500063889945E7D1B8F1070F1CD805EB08034D
:10246000BA46012683F8BB90DDE7A3884345DAD15D
:10247000A3784B450AD0BE78304600F063FC304666
:10248000FFF710FEB0FA80F67609CCE73846FFF782
:10249000D7FE0646C7E7BA460026C4E794F90020EF
:1024A0006378002A18DA002B7FF43EAF24793F6866
:1024B00063060AD02046FFF713FE00283FF434AF2E
:1024C00095F8BA30002B3FF42FAF3946204602F082
:1024D00023FC00237B7014E7012B08D0032B7FF42F
:1024E00023AF6388002B7FF41FAF012103E06188D5
:1024F00000297FF419AFA088FFF77AFE00287FF447
:1025000005AF11E702293B607FF41BAF5B883360A6
:10251000FCE600BF542C01200E2D012094F9000090
:1025200063780028BFF672AF002B3FF467AF0A2B29
:102530007FF4FAAE3B78002B3FF4F6AE79780429AD
:102540007FF462AFB9788A427FF45EAF072A8EBF0C
:102550000023521992F8BB308CF80030F6E600BF29
:1025600070B5164D95F8B830FBB102F037FB002876
:1025700022DB00F005FC0024D5F8C430E6B2E340CD
:10258000DA0714D4D5F8C43004F11002D340DB07C5
:1025900005D546F08000FFF785FD00280CDB0134EF
:1025A000102CE9D1002385F8B830002004E0304633
:1025B000FFF778FD0028E5DA70BD00BF542C01203C
:1025C00013B5164C237DF3B9E26801AB8020A168F6
:1025D000019208F02FFE019AA3681344A360E368F8
:1025E0009B1AE3606BB962B12369E2889A4208DD05
:1025F00094F8C82093FBF2F102FB11330BB90123CD
:10260000237502B010BD002380201A461946237599
:1026100002B0BDE8104002F0C5BB00BF542C012041
:10262000002330B585B002460D460193002858D1ED
:10263000002935D108220B460DEB020109F091F873
:10264000002804DA802002F01FFB05B030BD2A4CC0
:10265000029AC4E903552260039ABDF80E30626005
:1026600004F13802A2609DF908202575002A0ADBD2
:10267000802B04D9802002F007FB0020E3E713B190
:10268000C4E90333E1E7FFF747FD0028DAD0E28829
:1026900023699A42D4BFE260E360FFF791FFD4E779
:1026A000154C01ABD4E90215002D04DC09F059F8F2
:1026B0000028CADAC6E72A4609F053F80028D9DB11
:1026C000019AA3681344A360E3689B1AE360002B9C
:1026D000BBD104F13803A360FFF71EFD0028DCD155
:1026E000B0E78028B1D1044BDA68002AD5D11B7D30
:1026F000002BD2D1A9E700BF542C0120054B064A7C
:1027000058629A62054A0020DA62054A1A63054A4D
:102710009A617047542C0120C5220000C91F000097
:10272000692000000920000010B5084B93F8B8405C
:1027300034B900F0E3F830B1FFF7E0FF204610BDF8
:102740006FF07700FBE74FF0FF30F8E7542C0120E3
:102750002DE9F341414D04466F6A4FF0FF324FF0CF
:10276000FF333F4806F0ACFD95F8B860002E6ED1FF
:102770003C482C62E86102F02FFC02F0FDF9041ED7
:1027800049DB00F021FB041E45DB7B78012B61D186
:10279000FB79002B5ED0684685F8C830ADF8023072
:1027A0008DF804608DF8006002F04AFA041E32DBF6
:1027B000802768468DF8007002F042FA041E2ADB7A
:1027C0003046294902F0F4FB041E24DB3846264932
:1027D00002F0EEFB041E1EDB244CDFF8948044451F
:1027E00020D3002002F0B4FA041E14DBD5F8C43064
:1027F000802043F00103C5F8C43002F0A9FA041E9A
:1028000009DBD5F8C430002443F48033C5F8C43064
:10281000012385F8B830124806F0CCFD204602B0FE
:10282000BDE8F0810026276A227FF3B29A4201D8E0
:102830002434D4E707EBC30257F83310107902F0C1
:10284000B7FB01360028EFD04FF0FF34E3E76FF01D
:102850007704E0E76FF01504DDE700BF542C01209A
:102860007423002045210000212600007C24002044
:10287000A024002030B51F4B8BB005AA03F1100532
:10288000144618685968083303C4AB422246F7D18E
:102890001B7810222370002101A808F0FFFE1222ED
:1028A0000021154808F0FAFE102101A809F043F9AB
:1028B00000281BDD0828B8BF082001AB09381A180A
:1028C00000200D4912F8013F0AAC04EB131403F089
:1028D0000F0328336B4414F8144C13F8143C0130E4
:1028E00008280C704B7001F10201EBD102480BB0CB
:1028F00030BD00BF1AF30000585F01202DE9F04FF2
:102900004FF0000B6E4C87B000264FF0011AB04616
:102910003546B14623782BB96A4B02349C42F3D139
:10292000674832E06378052B1BD8DFE803F08E039D
:10293000C68E1D3B402304A88DF810B0ADF81230B0
:102940008DF814B008F0DCFE40B1082304A8ADF8FF
:10295000123008F0D5FE08B1ADF812B0BDF8123053
:10296000E37123781C44D5E7E378002BF9D1A378F1
:1029700073B108F101085FFA88F8F2E76A689442D7
:1029800009D024359D42F9D3002007B0BDE8F08F6F
:102990004D4D4E4BF6E7AB68002BEAD04146204642
:1029A0009847E6E7002DEFD000222B7F9A42EBD22A
:1029B000296AA07801EBC2010B79984201D001325B
:1029C000F3E70127E078FBB200F003008DF8140074
:1029D000207994F805C040EA0C20ADF8120094F973
:1029E0000200002826DA4FF0010C07F110000CFA63
:1029F00000F010EA0A0F24D143F080008DF8100097
:102A000004A8CDE90213019208F07AFEDDE9012164
:102A1000039BB0B99DF8102012F0800FA2700A71CC
:102A20004FF001021DBF1033DBB29A40BA404AEAB0
:102A3000020A96E70120B84010EA0A0F01D11846B1
:102A4000DCE70137102FBDD1B9E7032E1DD1FFF709
:102A500011FF074668B108F0E8FD019048B11C4835
:102A600008F0E3FD019A824203D13946A01C08F028
:102A70000AFE6FF002012378091BE21804EB5303EE
:102A8000D14213D50136F6B26BE7002EF1D1B9F180
:102A9000000F3FF479AFA4EB090389F80230C3F3C8
:102AA000072389F8033089F80480EBE702F801BCBA
:102AB00013F8010902F8020DE2E7A14651E700BF51
:102AC00098230020792400207C240020A0240020CA
:102AD0001AF30000094B00211A4610B51C788442F5
:102AE00004D15C6814B102EB811010BD01310429DE
:102AF00003F14003F2D10020F7E700BF202D0120B1
:102B00002DE9F34150F8283C0446103310F82C6CA2
:102B100010D1036950F8202C990739D5EAB913F080
:102B2000040304D11A461946304608F083FB0023FB
:102B300044F8283C54F8283C10330BD054E907756E
:102B400054F8148C0BF093FA00284CD021462C48F2
:102B50000BF086FB02B0BDE8F08150F8241C01ABFD
:102B6000304608F067FB10B16FF01503E0E7019AFB
:102B700054F8243C134444F8243C54F8203C9B1A59
:102B800044F8203C54F81C3C134444F81C3CD1E766
:102B900050F8241C01AB304602F080F90028E3D144
:102BA000019D54F8243C2B4444F8243C54F8203C28
:102BB0005B1B44F8203C54F81C3C2B4444F81C3C60
:102BC000002DB4D0304602F00DFAB5FBF0F303FB54
:102BD0001055002DABD154F8203C002BA7D0304627
:102BE00002F0A4F9A6E744F8180CA4F1100006F0CE
:102BF00051FC002DAED0424639463046A847A9E7E1
:102C0000A02400204B1E012B73B506460D460FD89D
:102C1000FFF760FF044668B9012D09D101AB01221D
:102C200030460DF1030102F039F9019B002BF5D17B
:102C300002B070BD0BF01BFA04F12C0108B1012D9C
:102C400005D1084602B0BDE87040FFF759BF034800
:102C500002B0BDE870400BF003BB00BFA024002011
:102C60002DE9F74F064615469846019108F028FBD6
:102C7000044600285CD14FF02003EFF3118A83F360
:102C80001288BFF36F8FDFF8B0B0002200235846E0
:102C900006F024FC70B9DFF8A490A70109EB8414B6
:102CA000636813F1100F14D10193584606F0F2FB3C
:102CB000019B06E00134042C0BF1400BE5D16FF0D1
:102CC0000B038AF31188BFF36F8F184603B0BDE87A
:102CD000F08F019B2061C4E902350C9B3046636193
:102CE0000D9B09F80760A3616FF00F03C4F83C80E7
:102CF000636002F077F958B1304602F073F9B5FB22
:102D0000F0F303FB10551DB1E36B43F00403E363E1
:102D100018F0020F07D007F12C01094849440BF0C5
:102D20009FFA0023CDE7304602F000F90346C8E7DA
:102D30006FF00F03C9E700BF3C2D0120202D0120BB
:102D4000A024002010B54FF02003EFF3118483F38B
:102D50001288BFF36F8FFFF7BDFE50B14368103389
:102D600007D16FF08B0300F12C01436003480BF097
:102D700077FA84F31188BFF36F8F10BDA024002071
:102D800070B504250E4C4FF02003EFF3118683F34A
:102D90001288BFF36F8F6368103307D16FF08B0316
:102DA0000848636004F12C010BF05AFA86F311888D
:102DB000BFF36F8F013D04F14004E4D170BD00BF4B
:102DC000202D0120A024002070B50025094C0A4EBA
:102DD000314620460BF027FA0122A4F110001146DB
:102DE00001350BF0E3F9042D04F14004F0D100208B
:102DF00070BD00BF4C2D0120012B000070B50446B2
:102E00000E4601791248154608F037FAE8B194F9F0
:102E100000206378002A11DB202B04D0222B09D05C
:102E20006FF0850005E007222968103808F02BFCB8
:102E3000002070BD638800F8093CF9E7212BEFD131
:102E40000723103828603360F2E76FF01200F0E7D4
:102E5000202E0120014608B5034808F01BFA10B1E6
:102E6000012300F8073C08BD202E01200123016941
:102E700081F84B300B6833B191F849301BB10248EF
:102E800008310BF0EDB97047A0240020012301693F
:102E900081F84A300B6833B191F848301BB10248D1
:102EA00008310BF0DDB97047A02400200021034653
:102EB0000C4AA0F84810106883F89C10C3F89400DE
:102EC00090889279A3F8980083F89A2083F89B1051
:102ED0004022A3F89E1083F8A01003F14C0008F0E4
:102EE000DDBB00BFF8EA000038B5056995F89E0023
:102EF00088B195F89F307BB985F84830D5F89000B7
:102F000008F097F8044600220023044805F1180150
:102F100006F034FC204638BD0020FCE7A024002049
:102F200013B504698DF8071094F89E30A3B194F896
:102F30009F308BB90DF107010122D4F8900084F87D
:102F4000483008F076F8014640B1212200230C48B1
:102F500004F1180106F012FC02B010BD0122D4F8F1
:102F6000900008F0B6F80028F6D00122D4F89000BE
:102F70000DF1070108F05DF80028E6D1ECE700BF8D
:102F8000A0240020F0B5D0F88C3005465B6885B0F1
:102F90001B6A1F7D384608F093F90646E0B94FF4E6
:102FA0008062A86F03A908F063F80446A0B1830605
:102FB000A5F1180385F830600193084B08BF00F1B4
:102FC000FF3403990093224602233846FFF748FE58
:102FD0002146A86F08F068F805B0F0BDE12F0000A9
:102FE000012310B582F84830136814463BB192F8BB
:102FF0004A3023B10A4802F108010BF031F9D4F844
:1030000090309A681B699A4208D004F11801002296
:10301000BDE810400023024806F0B0BB10BD00BF61
:10302000A0240020002310B50469C4F8A8300C4B7C
:10303000C4F8A400596804F1A80269B9C3E90022E0
:1030400004F1080007490BF0EEF804F118000649F6
:103050000BF017F9002010BD0A605A60F0E700BFBE
:10306000202E0120EBB20000852F000030B54FF478
:1030700000334268056942F2A10085B0CDE9010341
:10308000002385F89D30106AADF80C100A220079F3
:1030900001A908F0CFF8054C95F89D3023B901201F
:1030A0000AF060FF013CF7D105B030BDA1860100F8
:1030B00073B5144602F14C060A1E05461FDD314663
:1030C000D4F88C0007F0B5FF012384F84930236859
:1030D0003BB194F84B3023B10E4804F108010BF0DA
:1030E000BFF8D4F88C104B684A699A1ACB699B1ABE
:1030F0003F2B04D8012384F8A03002B070BD064BEA
:10310000402200933146012328460194FFF7A8FD91
:10311000F3E700BFA0240020B130000038B50D4611
:1031200001461E4808F09EF8044680B3024652F855
:10313000A439691E5B68052929D8DFE801F0202839
:103140000320252914F8061C31B91B6A187BFFF7E8
:10315000AFFF012304F8063C14F85C3CBBB9012323
:1031600004F85C3C54F8A43C8BB114F85A3C73B19D
:10317000A4F19C010A48BDE838400BF071B8104634
:10318000BDE83840FFF792BE012304F8053C38BD86
:1031900014F8053C002BFAD00023F6E7202E01207E
:1031A000A024002037B50024084D4FF0FF334FF422
:1031B000806228460649009406F0A8FA0549284688
:1031C0000AF05BFF204603B030BD00BFA024002002
:1031D000C068052060F30000014807F02DB800BF6B
:1031E00088EC000038B5044618B90F4B0F485B68EF
:1031F00098476168B1F5683F10D0B1F5680F0DD000
:103200000B4DA9420AD011F46861206807D001462D
:1032100008480AF006FF00232360656038BD1422C9
:1032200008F03CFAF9E700BF2022002069F3000013
:103230002C5F5CA92833012008B560B34368B3F55F
:10324000683F0ED0B3F5680F18D0144A934220D0CF
:1032500000684FF0FF324FF0FF3306F031F858B1FD
:1032600015E001220368D3E8EF1F002903D1C3E86A
:10327000E02F0028F7D10AD1002008BD0368084AD2
:103280001B7803F5807352F82330002BF4D00548E7
:10329000F3E70548F1E76FF4E040EEE72C5F5CA947
:1032A00000000350E98FFFFFEA8FFFFF08B520B34E
:1032B0004368B3F5683F09D0B3F5680F13D0114ADE
:1032C00093421DD0006806F075F814E000220368F0
:1032D000D3E8EF1F012903D1C3E8E02F0028F7D17D
:1032E00009D0094808BD00210368084A1B7803F586
:1032F000807342F823100020F4E76FF4E040F1E718
:103300000348EFE72C5F5CA9E98FFFFF0000035043
:10331000EA8FFFFF10B5044618B91D4B1D485B68C6
:1033200098476368B3F5683F2FD0B3F5680F2CD08A
:10333000194A934219D1236803BB4FF0FF324FF073
:10334000FF332146154805F0D5FE08B923681BB99F
:103350000F4B13485B68984714220021206808F03F
:103360009DF94FF46863636008E0B3F5683F0DD8DA
:103370003A2B03D040F6BA629342DED120680AF0BD
:1033800095FE636843F03A03636010BD054AF3E7B6
:103390002022002069F300002C5F5CA92833012063
:1033A0008FF300003A00003A08B506494023142282
:1033B00005480AF028FEBDE808400449044806F024
:1033C000ADBF00BF282E01202833012090EC000063
:1033D000A4EC0000F7B5224E306883685B6C03B143
:1033E0009847306883685B6B002B31D11D4C1E4DB4
:1033F000306883689B69002B2DD001220DF10701F5
:103400009847012827D1236843B92B681BB3696803
:103410001A688B422A6008BF6A602360134A9DF8CD
:10342000070011887F2904D823684F1C0B4417809C
:1034300018720A28DCD100202368118818605960AE
:103440000B494D684DB9C1E9003310802060CEE7CB
:1034500098470028CAD103B0F0BD2B604B60F4E759
:103460009C3701204433012054330120544601206D
:103470004C33012010B5044B044618688368E1B250
:103480005B689847204610BD9C370120F8B505467B
:10349000164608464FF02003EFF3118783F3128896
:1034A000BFF36F8F1B490B684BB11B4C62689A428C
:1034B00005D000221A60626862B9C4E90033174A75
:1034C000136853B987F31188BFF36F8F18460B60E9
:1034D0003360F8BD13606360F1E7D2F804C01C6884
:1034E0006345146008BF546087F31188BFF36F8F82
:1034F0005C680B60A042D8BF00F1FF3403F1080103
:103500002246284608F0BFF80023601C2B550123F3
:10351000DEE700BF48330120543301204C33012043
:10352000002337B51C462349234AC1E90033C2E9C9
:103530000033224A4868146088B9C1E90022013387
:10354000082B02F18802F5D11D4D1E4828600AF0B3
:103550000EFD38B94FF0FF34204603B030BD026095
:103560004A60ECE70020FFF7F3F804460028F1D1A9
:103570002868836823B19B6C13B12246124998478F
:10358000286883685B6B0BB1984748B128688368EB
:103590009B69002BFAD001220DF107019847F4E74F
:1035A00000220A4B28681A8083689B6A002BD3D0BC
:1035B0009847D1E7543301204C3301205C3301207C
:1035C0009C37012098E70000D533000054460120C5
:1035D00041F204432DE9F043ADF54F7DADF80830DD
:1035E00040F606130025ADF80C30DFF81091444B7F
:1035F000D9F800101B68434E4D70A3EB06080B78FA
:1036000028465A1C62F302030B7098FA98F34B8019
:103610008B8808225BBA8B8007F0DFF83146424680
:10362000ADF8100007F0D9F802271FFA88F440BA65
:1036300004F10A035BBA0222ADF810000DF1120189
:1036400006A8ADF8123008F01EF80822D9F80010CC
:103650000DF11A00ADF8127008F015F8BDF812005F
:1036600006AB083080B231464246ADF8120018442D
:1036700008F009F8BDF812303A461C44A0B22C46B6
:1036800006ABADF8120004A9184407F0FCFFBDF822
:10369000123040F2C9113B449BB2ADF81230009396
:1036A00005AA06AB5BA8FDF749FF059B164E174F11
:1036B000ADF81230BDF81230A34203DC0DF54F7D9A
:1036C000BDE8F083336802215B68A4B903A898477A
:1036D000BDF8125033682D1B7C2DA8BF7C255BAA3A
:1036E000101929465B6898473368012138465B68A2
:1036F0002C449847DEE702A8E9E700BFE83701203D
:10370000B83701206A5F0120EC370120BCF30000CC
:10371000F0B50C68164F85B002380D46C4F58061CF
:103720000090144B381903AA0131FDF785FF0446B8
:10373000D0B92B68039A1344022B2B6011D93E8811
:10374000023B76BAB6B29E420BD13246B91C07F0A4
:1037500044F830B9022E04D92B689A1E2A60FC5412
:103760000124204605B0F0BD4FF0FF34F9E700BF5B
:10377000B3600120B664012007B5CDE900016946B8
:1037800002480AF0DCFB03B05DF804FBB837012007
:103790002DE9F04F4FF0FF37C7B00B4601210397DB
:1037A000049705970027024600912EA80421CDE931
:1037B00006770AF023F9402239461EA807F06EFF6B
:1037C0008E4B03211A93052304221B938C4B04ACCC
:1037D000CDE91C348B4B8C481F938C4B03AE21934B
:1037E00008AB22938A4B05AD24938A4BCDE929017E
:1037F000CDE92635CDE92B36259107AB1AA92EA8A0
:10380000209207F0ABFE10B303240A2182480AF08D
:103810009DFB02218148FFF7AFFF21467E480AF059
:1038200077FB44B903217848FFF7A6FF7C4B7A4821
:1038300019680AF077FB0A2177480AF08FFBFFF737
:10384000C7FE069807F078FC47B0BDE8F08F3368F4
:10385000DDE908875A1CD7D0B8F1000FD4D0DFF8C3
:10386000C49133B92268B2F1FF3F18BF1346C9F8BB
:103870000030D9F80000FCF783FE06A9C0B2FEF7BD
:103880004BFB04460028BFD13368654E002B4BD15B
:10389000DDF818A030605046DAF808B006F0D8FE1F
:1038A000614A0146504606F01BFE08B10124ACE710
:1038B0002B685B45A8D85D4A14605D4A1360326886
:1038C0005A4D3A4429680698013A07F028FE002824
:1038D000286099DB069807F06EFCB7FBF0F303FB5A
:1038E0001070DFF84CA13368C5B27D1B1F44DAF8B5
:1038F00000309F4238BF00205FFA80FB069807F037
:103900005AFC012806D9069807F055FC013818EA38
:10391000000F52D12B4642463168069807F022FC30
:1039200000287FF471AF2CE0326893427FF46DAFD2
:103930003F4A3B4412689342C1D965E7AF420698BB
:1039400088BFEFB207F03EFC402201460AA807F00C
:10395000A5FE3A4641460AA807F095FE3B46316867
:1039600006980AAA07F0FEFB08B104464DE7336843
:10397000B8443B443360ED1B069807F01CFCA8429A
:10398000DCD9BBF1000F1AD13368DAF800205B44B0
:103990002B44934233607FF438AF234B06981A6868
:1039A000114607F0BCFD002880DBDAF800200699FC
:1039B000D9F8000008F045FAD7E74027DCE7069879
:1039C00007F000FC082201460AA807F067FE5A46E5
:1039D00008EB05010AA807F056FE069F3168384635
:1039E00005EB010807F0E7FB414603460AAA384603
:1039F00007F0B8FB00287FF407AFC5E7BEF300006F
:103A000063DC0000C4F30000CDF300006DDC0000B7
:103A1000C9F3000069DC0000B83701200FF1000095
:103A2000B0370120B4370120A8370120A437012086
:103A3000A037012038B505460A4C0A2120460AF075
:103A400085FA02210848FFF797FE294620460AF02A
:103A50005FFA20460A210AF081FABDE83840FFF7F4
:103A6000B7BD00BFB83701200FF10000002307B534
:103A700002210093044A4FF4A47304480AF070FA38
:103A800003B05DF804FB00BF6A5F0120B837012076
:103A90002DE9F04707290446B0B040F20A810378C7
:103AA00013F0050F40F005814388A1F108055BBACA
:103AB0009BB2AB42C0F0FD80984B00F10807186044
:103AC00083885BBA8380FFF7D1FFA688012E40F080
:103AD000FA80E37943B1012B00F0EE80082030B08A
:103AE000BDE8F047FFF7A6BF247814F00704F5D12E
:103AF00031468B480AF02AFA06218A48FFF73CFE35
:103B0000052187480AF01EFADFF81C82DFF81C92B4
:103B10000026874F00E0012631462046D8F80050A5
:103B2000FCF71CFD08A9C0B2FEF7F6F98246002892
:103B30003AD13146204610AA08F040F9012805D1B3
:103B400020235146089810AA07F0F7FA109B4B451E
:103B500022D1FCF785FF31468246204602F056FC12
:103B600005465046FCF78CFF724B1B689D4213D1F3
:103B7000FCF776FF40230021019320AB8246CDE97C
:103B8000031108460291009310AA089BFCF750FD10
:103B900005465046FCF774FF3B68DDF820A0AB42B9
:103BA00008D0504607F0C8FA002EB4D0002C76D1C9
:103BB0003446ADE700235246009310A94FF6FF7339
:103BC0000AA806F0A6FC00284ED04FF0FF35089852
:103BD00007F0B2FA142152480AF0B8F90521564804
:103BE000FFF7CAFD21464E480AF09CF904215348CC
:103BF000FFF7C2FD31464A480AF094F95DB9042145
:103C00004F48FFF7B9FD18AB0A93202344480AA98F
:103C10000B930AF091F907214A48FFF7ADFDBDF873
:103C20005630402101939DF85530474A009320A813
:103C30009DF8543000F0FEFB169B4BB1421E3E2A0D
:103C400006D820ADC0F14001404A284400F0F2FB04
:103C500020A807F0EAFC014620A8FFF78DFD1421FB
:103C60002F480AF07BF99FE70DF11E0307AA09A967
:103C70000AA806F09CFC0028A7D1BDF81E30102B26
:103C8000F2D1BDF81C30202B9FD15046099918AABB
:103C900007F053FA051E18BF01256D4297E705216D
:103CA0001F480AF057F901211D480AF057F9FFF79C
:103CB0008FFC30B0BDE8F0872946384630B0BDE80B
:103CC000F047FFF765BDE6B9E379012B05D0052B79
:103CD00005D0002B7FF402AFEBE73046FFE630461D
:103CE00008F0B6F8012801D10A20F8E63046FFF7BF
:103CF000A1FE4FF40050002105F05CFF012007F009
:103D000008FA2A4639462046054BFCF74BFC0028AA
:103D1000CFD130B0BDE8F047FFF75ABCE8370120FB
:103D2000B8370120D1F30000B82000203DB8F39649
:103D3000BC200020B0200020BEF30000D8F300001B
:103D4000DDF30000E2F30000EAF30000F6F3000008
:103D500001232DE9F34100250646DFF8C080304CF1
:103D600088F800302F4B304F0095186098F80030DD
:103D700013B902B0BDE8F0812C4BC5F58061C3F8E2
:103D80000046C3F80446C3F80846C3F80C46C3F817
:103D90001046C3F81446C3F81846C3F81C4603F58A
:103DA0008053C3F80046C3F80446C3F80846C3F876
:103DB0000C46C3F81046C3F81446C3F81846C3F8B7
:103DC0001C46336801AA0131781998470028019BE5
:103DD00001DC002BCAD005442BB940F201439D42BF
:103DE000C4D10025C2E73B78062B09D17B78092B8B
:103DF0000BD1002300936946A81EFFF789FC04E05D
:103E0000042B02D17B78142BF5D00128E9D100993D
:103E100007480239FFF73CFEE3E700BFB26001202C
:103E20003546526EEC370120B46401200080015009
:103E3000B5600120014910220A60704710ED00E0D2
:103E400072B6404080F31188BFF36F8F01B5FEF763
:103E50001DF8002802D0BFF34F8F30BFBDE80140EE
:103E600062B6BFF36F8F704772B6494081F3118815
:103E700001B5FEF70BF8002802D0BFF34F8F20BF2B
:103E8000BDE8014080F3118862B6704740B2002857
:103E900007DB01234109034A00F01F00834042F879
:103EA0002130704700E100E040B200280CDB012225
:103EB0000649430900F01F008240203341F82320C7
:103EC000BFF34F8FBFF36F8F704700BF00E100E07B
:103ED000054B420953F82220012300F01F0003FA8A
:103EE00000F01040704700BF00E100E040B2002841
:103EF00001F10101ACBF00F16040064B4FEA4111F6
:103F0000C9B2ABBF00F5614000F00F0080F80013AC
:103F10001954704714ED00E030BFFFF7FDBF00BF3C
:103F20000B4A08B50B4B22F07F029A60BFF34F8F0C
:103F3000BFF36F8FD3F8882022F47002C3F8882073
:103F400005F012F805F0E2FE00F0EEF905F056F883
:103F50000000000000ED00E0094A0A499368096882
:103F60001867596708494B6843F080534B6000233A
:103F700083F31188BFF36F8F9368586F704700BF4A
:103F80005044012018F0000000ED00E013498A6859
:103F90004FF030001044EFF3098C80E8F01F202030
:103FA00080F31288BFF36F8F0D4F4FF000664A69A0
:103FB0008A603E60106F0023136780F3118802F15E
:103FC000300090E8F01F8CF3098802F1000004B57E
:103FD00007F027FBBDE80440704700005044012073
:103FE00004ED00E01EF0040F0CBFEFF30880EFF3C8
:103FF0000980816911F8021C0229FFD001B507F080
:1040000001FB01BD42F8203C009B0B4942F81C3CDF
:10401000019B21F0010142F8183C029B42F8081C68
:1040200042F8143C4FF0807342F8043C0023203ADD
:1040300002650367704700BF03A80000084B986043
:10404000036E83F30B88104681F30988002163B661
:1040500081F31188BFF36F8F0022002306F0D1FB9C
:104060005044012001B5EFF30580A0F110004FEAA4
:10407000C0000449014409C99847BDE8014002490C
:104080000847000010E800008D400000044B9968CC
:104090005869884203D003494FF080520A60704744
:1040A0005044012004ED00E0154B9A6A12F0007FA5
:1040B0009A6A14BF1E201D2012F0807F9A6A18BFD2
:1040C0001F2012F4801F9A6A18BF022012F4002FDA
:1040D0009A6A18BF212012F4802F9A6A18BF2220F2
:1040E00012F4003F9A6A18BF232012F4803F9A6AA4
:1040F00018BF24206FEA02426FEA12429A627047A8
:1041000000ED00E010B5184B0246986A9C6A10F466
:10411000805F14BF1720162014F4006F9C6A18BF2C
:104120001820A40508D5986A000404D51AB19A6A23
:1041300022F400429A6219200B4B9A6A12F4806FA3
:104140009A6A18BF1A20D2050CD49B6A13F4005F38
:1041500018BF1C20044A936A43F47F4393620023F0
:104160000B7010BD1B20F5E700ED00E010B51C4BF7
:104170000246986A9C6A10F0100F14BF112010209C
:1041800014F0080F9C6A18BF1220A40709D5586BB9
:10419000986A000604D51AB19A6A22F080029A62DF
:1041A00013200F4B9A6A12F0010F9A6A18BF14205D
:1041B00012F0200F9A6A18BF1520D40658BF9B6AC8
:1041C000074B9A6A920642BF5A6A22F400525A6218
:1041D0009A6A42F0FF029A6200230B7010BD00BF82
:1041E00000ED00E070B5444B06465B6800258AB0E0
:1041F000C3F3080385F31188BFF36F8F02F07F408C
:10420000B0F17F4F11D102F00C0008280DD010073B
:104210004CBF0E4601250022033B8DF80720032BDF
:1042200005D8DFE803F01E5C60592E46F3E7002452
:104230009DF807309BB92022314602A807F023FAE7
:10424000099B002D53D0C3F3080222B96FEA532310
:104250006FEA43230993204602A907F0D1F90AB077
:1042600070BD254BDA6A9107E1D4DA6A002ADEDBF9
:10427000DA6A5200DBD55A69B16942F480725A6138
:10428000BFF34F8FBFF36F8F5A6931F8021C22F4CE
:1042900080725A61BFF34F8FBFF36F8F4DF602727A
:1042A000914209D09A6AD2B242B101200DF10701C0
:1042B000FFF75CFF0446BBE73468B9E79A6A12F47B
:1042C0007F4F05D001200DF10701FFF71BFFF1E73C
:1042D0009B6AB3F5803FAAD3FFF7E6FEEAE700202A
:1042E0000DF10701E4E700200DF10701EDE723F4EC
:1042F000FF7323F00103ADE700ED00E0044B5A69C2
:1043000042F010025A615A6942F480625A61704761
:1043100000ED00E0EFF30880EFF3098101B572468C
:10432000FFF760FF01BD00BF002320210348C21832
:104330000133452B82F80013F9D1704700E100E00A
:10434000002080F31488BFF36F8F002080F30A8869
:1043500080F30B88FDF7DEFD00200E490860BFF3F7
:104360004F8F0D4880F3088800F02CF8202080F350
:1043700011880A484FF40061401880F30988EFF370
:1043800014800221084380F31488BFF36F8FFFF776
:10439000C7FD000094ED00E000A20520C0700520DC
:1043A000BFF34F8F0549064BCA6802F4E06213431E
:1043B000CB60BFF34F8F00BFFDE700BF00ED00E013
:1043C0000400FA0572B6002383F313884FF0FF3020
:1043D0000C4A03F120010133102B42F82100F8D1DF
:1043E00000234FF0FF30074A03F160010133102B27
:1043F00042F82100F8D162B6BFF34F8FBFF36F8F41
:10440000704700BF00E100E0084B9B6883420BD17E
:10441000EFF3058343B1064B5A6842F080525A606D
:104420005A6A22F400425A6205F0FEBB5044012051
:1044300000ED00E00CB410B586B009B90DF10B0029
:104440000024CDE9040109AB089A009404A90548A9
:104450000393FDF79FFA049B1C7006B0BDE8104063
:1044600002B07047AFB600000146014809F093BEA4
:10447000882300200149024809F0F2BE18380120C3
:1044800038250020020600F07F0312D5082B05D145
:10449000010700F00F0306D50E48704710F0780FA3
:1044A00012D100F00F034C2000EB43100A4B1844CC
:1044B0007047082B05D1020700F00F0306D5074807
:1044C000704710F0780FF6D000207047044800EBDA
:1044D000431070473C390120F03701205C3A01203D
:1044E0005C39012000220023014804F09FBF00BF77
:1044F0008823002013B5002201213720FFF7F6FCA6
:104500003720FFF7C3FC124803F08CFF114B984291
:104510001AD10024104803F011F9104804F052FC9D
:104520004FF0FF334FF480620D490E48009405F0C0
:10453000EDF80D490B4809F0A0FD0C480C4909F0B5
:1045400072FE204602B010BD6FF00400FAE700BF13
:10455000814700000000AD0B18F40000B4EC00002F
:10456000C06C0520382500200DF40000183801200B
:104570009D480000002310B50B49D1E8EF2F012A18
:1045800003D1C1E8E03F0028F7D10CD151F8044C29
:104590001439204606F0E1FC783004D12046BDE80D
:1045A000104006F0B5BC10BD1038012038B500240D
:1045B00064F07F00C0B2FFF765FF013407F086F8B2
:1045C000082CF5D100240E4DE0B2FFF75BFF036924
:1045D00003B90561013407F079F8082C05F14005AD
:1045E000F2D1084807F072F8074BD3F87C2212B9D1
:1045F000064AC3F87C22064807F068F8002038BD58
:10460000803E01203C390120F0370120803A012012
:104610005C3A012010B5054CFFF764FF20B14168FA
:10462000204609F0FEFCF7E710BD00BF082300207C
:1046300007B5002300220E4801A904F05BFD90B1EC
:10464000FFF7E8FF00220023094801A904F052FD0A
:1046500038B90423019840600374FFF705FFFFF7A2
:1046600009FF002001E00198406003B05DF804FB01
:104670000823002010B50446FFF7DAFF60B10022DE
:1046800004720274FFF7F0FE044B93F824301BB160
:10469000BDE81040FFF7EEBE10BD00BFF0370120AF
:1046A000012807B50FD002280ED048B900220023F8
:1046B0000848CDE9002345F69A12002305F0F0FCE6
:1046C00003B05DF804FB002003B05DF804EBFFF7D6
:1046D000D1BF00BF98220020F8B58778064638463B
:1046E000FFF7D0FE3B060446F57812D5002D43D1E6
:1046F000FFF79EFF034600283ED00122A5770274F3
:10470000032202739C60FFF7AFFEBDE8F840FFF79D
:10471000B1BE4DB1012D2FD1FFF78AFF034658B32B
:10472000657705740573EDE7FFF782FF20B3B27874
:10473000124B12F0800F02F0080111D041B1D3F8F2
:10474000A836E36001230374022384600373DAE76D
:10475000142102F00F0201FB0233D3F80836F0E710
:1047600011B1D3F8A837ECE7142102F00F0201FBD6
:104770000233D3F80837E4E7F8BD00BF0060035008
:10478000F0B5064689B01422002103A806F086FF82
:104790003378013B052B21D8DFE803F07A031414AA
:1047A0006A16032300248DF81430FFF741FF0346F7
:1047B000A0B100F108020474DDE9050182E80300FC
:1047C00018461DE00423EDE7B7783846FFF75AFE98
:1047D000837A044623B1013B022B43D909B0F0BDD3
:1047E0003B06F57813D5002DF8D1FFF721FF0346DE
:1047F0000028F3D00122A5770274032202739C6083
:10480000FFF732FE09B0BDE8F040FFF733BE55B107
:10481000012DE3D1FFF70CFF03460028DED06577BA
:1048200005740573EBE7FFF703FF07460028D5D0B3
:104830000123037402238460037304F10C01B07834
:1048400009F05BF8134AE168B2F88C328B4206D962
:104850005B1AA2F88C3204F037F83846D0E7A2F899
:104860008C52FAE7304609B0BDE8F040FFF734BF9C
:1048700001A804F003F89DF80530052B04D19DF83C
:10488000043013F0600FA9D0034B012405938CE78B
:1048900002248AE7F03701205C3901202DE9F0433A
:1048A0008046A54CDFF8949285B0FFF71BFE0646C4
:1048B00010B905B0BDE8F08394F82530327C3BB9DF
:1048C000002A00F0888071689C4809F0AAFBECE798
:1048D000042A44D8DFE812F07F000500FE0014012E
:1048E0003E01337BB568032B39D8DFE803F0023F84
:1048F0005C616F6908220021384606F0CFFE904BBC
:104900009048D3F880243A70D3F884247A70D3F88E
:104910008824D3F88C1442EA01227A80D3F89024B8
:10492000D3F8941442EA0122BA80D3F89824D3F839
:104930009C34394642EA03230822FB80EA6006F0F1
:10494000A2FE2B680021687A984797F90030002B67
:1049500008DBFB8833B1A4F88C3203F0B5FF48467E
:104960007168B2E70023A4F88C32F8E76B7F002B64
:10497000F5D02B7F002BF2D000274FF0FF326F775E
:104980004FF0FF3370482F7706F0B3FE6B6901A933
:1049900001936B68CDE90237687A03F085FD6A48B8
:1049A00006F0A9FEDBE701212B68687A9847D6E775
:1049B000AB7A6BB9EB7F5BB963484FF0FF324FF0D6
:1049C000FF3306F096FE03F0B3FF5F4806F093FE58
:1049D00002212B68E9E7327A042AC0D8DFE802F026
:1049E00055031F636F0003F0E7FC05460028B6D1AE
:1049F00003F088FC01235549D1E8EF2F002A03D1A9
:104A0000C1E8E03F0028F7D1A9D141F8085C41F89E
:104A1000105CE0691439636106F022FA9FE7002513
:104A200065F07F00C0B2FFF72DFD037A13B1407A25
:104A300004F044F90135082DF2D194F854311BB13A
:104A400094F8550104F03AF90025E8B2FFF71AFD91
:104A5000037A13B1407A04F031F90135082DF4D10D
:104A600094F874321BB194F8750204F027F9002011
:104A700003F084FC012384F825302368002B3FF4E5
:104A80006EAF00210220984769E7002584F8255081
:104A900004F0BAF8FFF76EFD2368002B3FF45FAF18
:104AA00029460420EFE7002B3FF459AF03F08EFCBA
:104AB0002368002B3FF453AF00210520E3E7226871
:104AC000002A3FF44CAF002B3FF449AF00210620F1
:104AD000904744E708F110054FF0FF334FF0FF32E5
:104AE000284606F006FEFFF761FD284606F003FEA5
:104AF00058F8283C002B3FF432AF00210120C2E7D8
:104B000094F874327BB1012584F8895284F8885274
:104B1000FFF78EFD38B10E4A057405738260FFF70A
:104B2000A3FCFFF7A7FC58F8283C002B3FF417AF75
:104B300000210A20A7E700BFF0370120082300204A
:104B400000600350F437012028380120103801207C
:104B50005C3A012004F01EF904F056F803F0C8FB9B
:104B6000FFF758FDFFF722FD04F00CF9014803F0B0
:104B700059FCF4E68147000038B5154D95F82440FE
:104B800024BB05F1380009F091FA022000F040FB47
:104B900022460121E8613620FFF7A8F904F0F2F877
:104BA000FFF704FD044610B9012385F82430094BB2
:104BB0001B680BB1FFF75EFC074BD3F80034DB0733
:104BC00002D50020FFF76CFD204638BD0024FBE72E
:104BD000F0370120882300200070035010B54FF0FB
:104BE000FF324FF0FF330B4806F083FDFFF712FD55
:104BF00003F0E2FB08B104F007F80024FFF7BAFC69
:104C000004F0C8F8044880F82440383006F073FDFA
:104C1000204610BD28380120F0370120074B93F8BB
:104C200024203AB193F82530002B14BF00206FF0F8
:104C3000120070476FF01200704700BFF03701207C
:104C400038B5104B044693F82430C3B10578284694
:104C5000FFF718FC10B96FF0150038BD45722379C5
:104C60008372638843602078618810F0080F02D156
:104C70004B1E0B42EFD108F03BFE0020EDE76FF03A
:104C80001200EAE7F037012038B5124B054693F8D9
:104C90002420CAB193F82530B3B1FFF7F3FB0446E3
:104CA000A8B1837A012B12D007D9023B012B07D977
:104CB00000206369E060A36138BD03F041FEF7E7BF
:104CC000284603F0ADFDF3E76FF01200F4E76FF054
:104CD0001500F1E7F037012038B50E4B054693F883
:104CE000242082B193F825306BB1FFF7CBFB68B17C
:104CF00015F008040AD1284603F0B4FD284604F054
:104D000031F8204638BD6FF01200FBE76FF0150058
:104D1000F8E700BFF037012038B50C4B054693F893
:104D200024200C4662B193F825304BB1FFF7AAFB63
:104D300048B144B1284603F07BFD2070002038BD07
:104D40006FF01200FBE76FF01500F8E7F037012075
:104D500070B5134E044696F82430C3B1FFF792FBAA
:104D60000546B8B1230705D4204603F07BFD204655
:104D700003F0F8FF2B7A83B901232B7296F82530C4
:104D80000BB9002070BD204603F098FFF9E76FF0E3
:104D90001200F7E76FF01500F4E76FF07700F1E726
:104DA000F03701202DE9F043DFF8E4801E4698F843
:104DB000243007468946154685B0002B61D098F807
:104DC0002530002B5DD003065ED5FFF75BFB044664
:104DD000002859D0037A002B56D04FF0FF334FF004
:104DE000FF3208F1380006F084FCA37F4BB108F1D4
:104DF000380006F080FC6FF00A04204605B0BDE8DC
:104E0000F083A37AC5B13BB301234FF00008A37729
:104E1000384601A9CDE90195CDF80C8003F044FB9B
:104E20001C4B984229D084F81E801EBB6FF00404EE
:104E3000194806F060FCE0E7E27F02B1E577002B5D
:104E4000E2D103F085FDB842DED003F071FD1248D7
:104E500006F051FC0024D0E7B8F80A30AB42F0D994
:104E60006268B5FBF2F302FB1353002BE9D1012377
:104E7000E377E6E7C6F80080D8E706B1356000249E
:104E8000D6E76FF01204B8E76FF01504B5E700BF7E
:104E9000F03701200000AD0B283801202DE9F0414A
:104EA0001D46204B174693F824200E46002A33D087
:104EB00093F8253083B3030631D401B97FBBFFF7E4
:104EC000E1FA044658B3037A4BB34FF0FF334FF087
:104ED000FF32154806F00DFCE368B8469F4228BF34
:104EE000984646B93FB905B12B600F4806F003FC60
:104EF0000020BDE8F08142463046A16906F0C3FBC0
:104F0000A3694344A361E368A3EB0803E360002DB6
:104F1000EBD0C5F80080E8E76FF01200E9E76FF02A
:104F20001500E6E7F03701202838012070B51E4D46
:104F3000034695F8242082B395F825206AB31B0612
:104F40002ED4FFF79FFA044650B3037A43B34FF0D1
:104F5000FF334FF0FF3205F1380006F0CAFBE3687B
:104F6000B3B9012663692677A361637F83B1FFF735
:104F70005FFB30B905F1380006F0BDFB6FF00B00A8
:104F800070BD067484600673FFF76EFAFFF772FA5D
:104F9000064806F0B0FB0020F2E76FF01200EFE7E2
:104FA0006FF01500ECE700BFF03701202838012032
:104FB00010B5084B0C4693F824302BB1FFF762FA7A
:104FC00028B10460002010BD6FF01200FBE76FF005
:104FD0001500F8E7F0370120014B1860704700BF5B
:104FE000F037012008B5074B93F8243023B1FFF7C1
:104FF00049FA20B1406808BD6FF01200FBE76FF07E
:105000001500F8E7F0370120084B70B5C31A0D46BC
:1050100007499B10044659434022064806F0CCFB42
:105020002B4601462046BDE87040184794400120B9
:10503000B76DDBB65CE70000402373B50B4C009303
:10504000041B0B460D460A49A41061430646094A53
:10505000094806F0DEFB011E05DA30462B4602B099
:10506000BDE87040184702B070BD00BF94400120F9
:10507000B76DDBB67FB800005CE700002DE9F843B0
:105080000022012106460520FEF730FF114801F0FD
:1050900095FF114B984219D101F0A0FF00244FF069
:1050A0001C090C27DFF834803569414609FB0450A0
:1050B00005F0C3FE002807DB012307FB04551C4451
:1050C000042CAB67F0D10020BDE8F8836FF004003A
:1050D000FAE700BF155100000000AD0BBCEC00006A
:1050E00001460C2300224B4370B50848C41878339E
:1050F0001844D4E91C56226706F04BFB2DB132460A
:105100002B46BDE870400248184770BD944001200E
:105110005CE70000062812D8DFE800F0040F111148
:10512000110D0B00064B986F10F0070007D1FFF729
:10513000D7BF0220FBE70320F9E70120F7E770471C
:105140009440012008B54FF02003EFF3118183F361
:105150001288BFF36F8F124A136843F00200106089
:10516000DA0708D481F31188BFF36F8FBDE80840D8
:10517000012001F04FBF4FF05023D3F80C24D3F897
:105180000C34DB07EED5074806F003FB81F31188EA
:10519000BFF36F8FBDE808400020FFF7A1BF00BF3D
:1051A000344101200C4101201FB500220123CDE92B
:1051B00002236B46084ACDF800D0CDF804D006F0A3
:1051C00057FB002805DB4FF480420023684604F0BB
:1051D00085F905B05DF804FBB5B8000010B54FF0D7
:1051E0002003EFF3118483F31288BFF36F8F074A14
:1051F000136823F00201DB07116002D4012008F0DC
:105200008CFA84F31188BFF36F8F10BD34410120F5
:10521000C3B21C20014A03FB0020704794400120C8
:105220002DE9F041012207463749D1E8EF3FC1E8B7
:10523000E02F0028F9D133B9344935484B60CB60B1
:105240008A6005F00DFE7B1E012B2BD8012F07D1A4
:105250004FF05023D3F81C3403F00303022B21D06A
:1052600008F005FF0546F8B92A4B1B78E3B14FF06B
:10527000502302220646C3F808234FF05024DFF8DB
:105280009880D4F81824D4F81834D20316D503F033
:105290000303022B01D0012F10D175B386F31188BF
:1052A000BFF36F8FBDE8F0814FF02003EFF311865D
:1052B00083F31288BFF36F8F0125DEE7C5B1304657
:1052C000FEF7D2FDD4F81835DBB2012BD9D1D4F8D2
:1052D0000421002AD5D00022C4F80421D4F80421E6
:1052E0000222C4F818252022C8F88021A360C8E74C
:1052F0000021212004F05EFCE4E74FF0502302225D
:10530000C3F80423CEE700BF904001208040012075
:10531000B0400120BD68052000E100E000F17440CC
:1053200000F5A6000A289ABF024B33F910006FF06F
:105330000F007047C0F00000024B0B6001231360A8
:10534000704700BF7CED00000048704704ED00008E
:10535000054B994206D14FF0FF324FF0FF3320301A
:1053600004F0BCB8704700BF0000AD0B38B505694C
:10537000044695F84030FBB9284606F0A4FA00220E
:10538000002305F1300004F0A9F8AB6B4BB90B4DCD
:1053900002F01CFDA84209D102F03AFD0022084BA0
:1053A0001A702069BDE8384006F0A5BA002140F225
:1053B000676004F0FFFBEBE738BD00BF0000AD0BFA
:1053C000B5680120F8B50669054696F84040D4B99D
:1053D000304606F078FA0D4F06F1300004F05AF826
:1053E0003B785BB932460A49686802F07BFCFFF7FC
:1053F00095FFB0FA80F304465B093B70286906F01C
:105400007AFA2046F8BD0024FBE700BFB56801200A
:10541000BBB800002DE9F84F0D1E06469046D0F8A7
:10542000049069DBD9F82C30AA189A4264D8C5F3E5
:105430000B02B8F1000F5FD0C8F30B0313435BD12D
:10544000FFF7C0FF044660BB306906F04EFA214604
:10545000304606F096FA044600BB306906F033FA8F
:10546000DFF89CA0D9F82C30434520D108F0DDF9B5
:10547000C346074639463069FFF76AFF57452BD1C7
:10548000B8EB0B085D44EDD1306906F034FA012128
:10549000304606F076FA002C08BF0446306903F067
:1054A000F9FF3046FFF762FF2046BDE8F88FB8F5F8
:1054B000803F09D3ABB2A3B92946012002F0E4FC36
:1054C0004FF4803B0746D5E7B8F5805F09D20D4918
:1054D0003069FFF73DFF0B4F3846FFF71FFF0446CB
:1054E000D2E7C5F30B000028F1D1294602F0CCFC2D
:1054F0004FF4805B0746BDE76FF01504D4E700BFAB
:105500000000AD0B0400AD0BF0B5436887B05D6BD8
:1055100004460021284603AA06F023FB002866DB88
:10552000039B2A681979186800F088FB00285EDB65
:105530004FF050270125002201212B20FEF7D6FC39
:105540006668226930463D49C7F8B85502F0CAFB83
:105550000223C7F8B835FFF7E1FE002847DB002239
:10556000AB23204603A9CDE9032205928DF80C3028
:1055700006F0CCF900283ADB232008F0F3FC737F17
:10558000023BAB4205D9357F033D012D8CBF002581
:105590000125204606F00AFA002828DBC2B2C0F333
:1055A0008010854201AD24D12046FFF7DFFE03269F
:1055B0000023CDE9026304939F232046CDF804D055
:1055C0008DF80C300595FFF7FDFE024678BB2046AE
:1055D00003A906F09BF905462046FFF7C7FE4DBB21
:1055E000606832466946303006F026F810BB07B0D6
:1055F000F0BD002382F04002ADF800308DF80020AD
:105600000122204603A9CDE90223CDF804D0059359
:105610008DF80C20049506F079F90028E7D1204692
:1056200006F0C4F90028E2DBC307F8D4BCE7204643
:10563000FFF79CFE6FF01200D9E700BFBBB8000077
:105640002DE9FF4705460F461E469046002A00F00A
:105650008480002B00F08180042B01D99A077CD133
:10566000BB077AD1002F6A6877DBD26ABB199342F5
:1056700073D82846FFF7A6FE0446002862D12869A1
:1056800006F033F92146284606F07BF904462869DE
:1056900006F019F9002C43D1032E1CD83A460421F8
:1056A000684608F0BFF8044601462869FFF750FE37
:1056B0002B4B9C4234D132464146684605F0E3FF0D
:1056C0003A460421684608F0AAF8044601462869CB
:1056D000FFF73EFE24E008F06043B3F1005F02D123
:1056E00018F0030F35D0DFF878A0102EB14628BF90
:1056F0004FF0100941464A46684605F0C4FF3A4655
:105700004946684608F08BF8044601462869FFF7C9
:105710001FFE544504D1B6EB0906C8444F44E4D1FA
:10572000286906F0E8F80121284606F02AF906461D
:10573000286903F0AFFE002C14BF20463046FFF767
:10574000EDFD04462846FFF711FE204604B0BDE8F3
:10575000F0873A4631464046B5E76FF01504F4E766
:105760000000AD0B2DE9F04F074688461C46164653
:1057700085B0002A00F09980002B00F09480002969
:105780004268C0F29280D26ACB18934200F28D80B8
:10579000FFF718FE054600287ED1C8F1000505F088
:1057A0000305386906F08FF8A54228BF25467342E5
:1057B00003F0030306F0030958BFC3F10009C9F160
:1057C000000909F00309A14528BFA146631BA4EB0A
:1057D000090424F0030423F0030AA245C8BFA2462B
:1057E00003F0030BC8BFA3EB040BBAF1000F18D0F2
:1057F00006EB090308EB050251461846019308F031
:1058000011F8044601463869FFF7A2FD284A944280
:105810003BD14D4505D0019B52461946701905F004
:105820001BFFBDB1C5F104090421A8EB090202A8C0
:1058300007F0F8FF044601463869FFF789FD1C4B65
:105840009C4222D109F108032A4630460DEB0301A0
:1058500005F019FFBBF1000F16D0082108EB050277
:1058600052440DEB010007F0DDFF044601463869A4
:10587000FFF76EFD0E4B9C4207D10AEB05005A461E
:1058800002A9304405F0FFFE094C386906F033F8F0
:105890002046FFF743FD05463846FFF767FD2846DB
:1058A00005B0BDE8F08F1D46F9E76FF01505F6E786
:1058B0000000AD0B024B0B6001231360704700BF6B
:1058C00084ED0000004870478CED00002DE9F7439F
:1058D0001C460B44B3F5802F0D4617462CD80029E3
:1058E0002ADB41EA040616F0030625D10422FF2133
:1058F0000DEB020005F0D2FEDFF8448008EB05094D
:10590000A64209D33A4608EB05033C44A2420CD117
:10591000002003B0BDE8F083042209EB06010DEB83
:10592000020005F089FE0436EAE7197812F8010B47
:10593000014003F8011BE9E76FF01500E9E700BF3C
:10594000B6680120104608B51A460B44B3F5802FFF
:1059500007D8002905DB044B194405F094FE00200C
:1059600008BD6FF01500FBE7B66801208B18B3F592
:10597000802F70B51BD8002919DB42EA0106C6F357
:105980000B06A6B90B4C21F47F6121F00F01150B1A
:105990000C44AE4201D1002070BD20464FF480522D
:1059A000FF2105F07BFE013604F58054F1E76FF02E
:1059B0001500F1E7B668012008B54FF48022FF21F9
:1059C000024805F06BFE002008BD00BFB66801204C
:1059D0004FF4802301480B60704700BFB668012078
:1059E000024B0B6001231360704700BF3841012058
:1059F00000487047BCED000010B501220648114672
:105A000008F0D4FB07F0FEFE044C206007F0F7FE20
:105A10006060002010BD00BF4041012038410120DE
:105A200070B50C46154607F0EAFE294606462046A4
:105A300005F0D7FF08B3B4FBF6F306FB1343E3B955
:105A4000B5FBF6F306FB1353BBB9AE4201D90020F8
:105A500070BD4FF0FF324FF0FF33094803F03EFDB9
:105A600007F0CDFE0646204601F0F8FDAD1B34449C
:105A7000F9D1034803F00EFDE9E76FF01500E7E701
:105A8000404101202DE9F0410D46194628461646B1
:105A90001C4605F0A6FFC8B314B90020BDE8F0818C
:105AA0004FF0FF324FF0FF331A4803F017FD15F0A7
:105AB00003070CD0C7F10407A74228BF2746314689
:105AC00028463A4601F0F8FD3D443E44E41B0027D9
:105AD00024F00308B84507EB050012D16FF003026C
