:020000021000EC
:10C00000C8D50020B9FB01009F9B02008DFB0100F9
:10C010008DFB01008DFB01008DFB01008DFB0100FC
:10C0200000000000000000000000000055F40100C6
:10C030008DFB010000000000E5F301008DFB010015
:10C04000E5F40100E5F40100E5F40100E5F4010088
:10C05000E5F40100E5F40100E5F40100E5F4010078
:10C06000E5F40100E5F40100E5F40100E5F4010068
:10C07000E5F40100E5F40100E5F40100E5F4010058
:10C08000E5F40100E5F40100E5F40100E5F4010048
:10C09000E5F40100E5F40100E5F40100E5F4010038
:10C0A000E5F40100E5F40100E5F40100E5F4010028
:10C0B000E5F40100E5F40100E5F40100E5F4010018
:10C0C000E5F40100E5F40100E5F40100E5F4010008
:10C0D000E5F40100E5F40100E5F40100E5F40100F8
:10C0E000E5F40100E5F40100E5F40100E5F40100E8
:10C0F000E5F40100E5F40100E5F40100E5F40100D8
:10C10000E5F40100E5F40100E5F40100E5F40100C7
:10C11000E5F40100E5F40100E5F40100E5F40100B7
:10C12000E5F40100E5F40100E5F40100E5F40100A7
:10C13000E5F40100E5F40100E5F40100E5F4010097
:10C14000E5F40100E5F40100E5F40100E5F4010087
:04C15000E5F4010011
:04C15400FFFFFFFFEB
:10C158007BB972B90029BEBF00204FF0004106E04C
:10C1680008BF00281CBF6FF000414FF0FF3000F0FF
:10C1780057B8ADF1080C6DE904CE002909DB002B96
:10C188001ADB00F04FF8DDF804E0DDE9022304B023
:10C198007047404261EB4101002B1BDB00F042F885
:10C1A800DDF804E0DDE9022304B0404261EB41011F
:10C1B800524263EB43037047524263EB430300F080
:10C1C80031F8DDF804E0DDE9022304B0404261EB18
:10C1D80041017047524263EB430300F023F8DDF856
:10C1E80004E0DDE9022304B0524263EB43037047E5
:10C1F80053B94AB9002908BF00281CBF4FF0FF31C6
:10C208004FF0FF3000F00CB8ADF1080C6DE904CE2A
:10C2180000F008F8DDF804E0DDE9022304B0704717
:10C22800704700BF2DE9F04786468C460846089EB1
:10C23800154674461946002B40F0C1808542B2FA73
:10C2480082F245D94AB1C2F1200300FA02FC9540B6
:10C2580094402EFA03F343EA0C0C4FEA154EA8B2A9
:10C26800230CBCFBFEF80EFB18CC08FB00F943EAD4
:10C278000C43994528D9EB1808F1FF3704D29945A2
:10C2880002D9A8F102072B44A3EB0903A4B2B3FB1C
:10C29800FEFC0EFB1C330CFB00F044EA0344A042F6
:10C2A80014D92C190CF1FF3304D2A04202D9ACF1F5
:10C2B80002032C44241A43EA07401EB1D440002349
:10C2C80034607360BDE8F0874746DDE76346F1E711
:10C2D80092BB431B01214FEA154EAFB2200CB3FBB2
:10C2E800FEFC0EFB1C330CFB07F840EA03439845A1
:10C2F80061D9EB180CF1FF3004D2984502D9ACF1A2
:10C3080002002B44A3EB0803A4B2B3FBFEFC0EFB14
:10C318001C330CFB07F744EA0344A7424DD92C19F8
:10C328000CF1FF3304D2A74202D9ACF102032C442A
:10C33800E41B43EA0040C0E7C2F120039540944063
:10C3480020FA03F12EFA03F34FEA154E9040AFB2EC
:10C358000343B1FBFEFC0EFB1C10190C0CFB07F889
:10C3680041EA0041884522D969180CF1FF3004D20E
:10C37800884502D9ACF102002944A1EB08019BB21F
:10C38800B1FBFEFC0EFB1C110CFB07F743EA014353
:10C398009F420ED9EB180CF1FF3104D29F4202D90B
:10C3A800ACF102012B44DB1B41EA004193E76046F4
:10C3B800E3E76146F7E76046A4E76346B8E78342E8
:10C3C80006D916B9002108467CE7C6E900E0F9E776
:10C3D800B3FA83F78FB9834201D3724508D8BEEB0D
:10C3E800020460EB030301209C461EB9002169E7A3
:10C3F8003846FAE7C6E9004CF8E7C7F1200CBB401D
:10C408000EFA07F522FA0CF42EFA0CF1BA401C4386
:10C4180020FA0CF3B8404FEA144901431FFA84FE8E
:10C42800B3FBF9F809FB18300B0C08FB0EFA43EACA
:10C4380000439A4540D9E31808F1FF3004D29A45E1
:10C4480002D9A8F102002344A3EB0A0389B2B3FB83
:10C45800F9F809FB183308FB0EFE41EA03418E4543
:10C468002CD9611808F1FF3304D28E4502D9A8F1FE
:10C478000203214443EA0040A1EB0E01A0FB02980D
:10C488004145CE46434602D306D14D4504D2013834
:10C49800B9EB020E68EB0403002EA7D0B5EB0E0231
:10C4A80061EB030101FA0CFC22FA07F3F9404CEAAC
:10C4B8000303C6E9003199E74046C5E74346D9E793
:10C4C800034613F8012B002AFBD1181A01387047CC
:10C4D800022A70B504460D46184611D8DAB1022D65
:10C4E80019886DD8B1F5006F6AD2022A4FF002039D
:10C4F80014BF232220226068BDE870400DF042BEC0
:10C50800052A04D003291CD96FF085005AE00223BC
:10C5180025220188EFE70329F6D84FF47A711D88A0
:10C528005B6893FBF1F39BB255EA0301ECD0284911
:10C53800088885423AD22046BDE87040D1B20DF055
:10C548004CBE072AE0D15B6805682248D917C5FBAD
:10C558000031012B71F100021CDB00F56E1000F6B2
:10C568005D70181841F1000117A3D3E90023FFF704
:10C57800EFFD80B2022815D9042815D90828C3D898
:10C588000222154B2046BDE8704003EB82039978E0
:10C598000DF004BE1148181861F100010AA3D3E98F
:10C5A8000023E4E70022ECE70122EAE702D1488809
:10C5B8009842C0D20132062A01F10401B8D1A3E79A
:10C5C8006FF0150070BD00BF3AA395000000000091
:10C5D80016C3020040420F000AC30200632EB5FFD3
:10C5E80010B403460A46034881680C691946234675
:10C5F80010BC1847CCB6020030B520498FB020488F
:10C608000CF000FA1F4C20460EF08AFA28B91E4892
:10C618000FB0BDE830400CF0F5B9214622681B4840
:10C628000CF0F0F91A4D00214FF400400AF080FC9C
:10C63800A3683A21DB682046984706A90D20FFF732
:10C64800CFFF08A90E20FFF7CBFF0AA91020FFF79C
:10C65800C7FF0CA91D20FFF7C3FF0D9B28460493B5
:10C668000C9B069903930B9B02930A9B0193099BCE
:10C678000093DDE907230CF0C5F9D4E752C30200A3
:10C688006AC30200CCB6020088C30200A3C302003A
:10C69800B9C302002DE9F04F91B0009302F00403F2
:10C6A8000293C2F3C2030133840705460E46DDF840
:10C6B80068900392059340F0BB81041D30B10729AF
:10C6C80009D86FF01B0011B0BDE8F08F01F0070624
:10C6D800341DC6F10806009B4FF000084FF0040A0D
:10C6E800591E4FF0FF3347460193C3465346CDF8D2
:10C6F80010800DB1009A22600598002800F3E880A8
:10C708009848009A824203D397488242C0F0E0805A
:10C71800039AA4EB050E92074FEA9E0000F10381ED
:10C728000F2F00F2B180002D00F0058107F14002C3
:10C738000DEB020C019A0CF8200C0CF8102C049844
:10C7480001300490E7E07A285DD84B280ED84728B6
:10C7580059D829282DD8252852D054D820287AD01D
:10C768002338D0F1000B4BEB000B74E04C382E282B
:10C7780049D8DFE800F070484848484848484848E1
:10C7880048484B484848484848484859484B4B59F6
:10C798005959704B6D487048184B184848827F4B60
:10C7A80048484B487F0000204FF0000B4FF0040A28
:10C7B80038E001222A38C0B202FA00F010EA0E0F5F
:10C7C80049D110F0625C2FD110EA020B43D06046C9
:10C7D800013C5444B4FBFAF40AFB04F4002D61D084
:10C7E800A3EB050CA4446645FFF46BAF002868D1A1
:10C7F800042B47D159F8043B2360042304342AE06E
:10C80800019A013A01924FF0000B24E011F8010C53
:10C818006C2834D1002011F8023C83466C2BC5D11A
:10C828004FF0080A5346D3E709F1070929F0070929
:10C83800073424F00704F9E802AB35B10698204420
:10C84800B0423FF63EAFC4E900AB4FF0000B0834EE
:10C858004FF0080A534611F8010F002878D0BBF1B1
:10C86800000F7FF470AF2528F5D14FF0010B019B25
:10C87800013301934FF0040AECE7584694E700208F
:10C888008346A5E7082B02D06FF015001BE709F1D6
:10C89800070929F00709F9E80223C4E90023082356
:10C8A8000834D8E768B9042B02D109F10409A4E7D0
:10C8B800082BE9D109F1070929F0070909F1080945
:10C8C800EDE7059A013A059259F8042B009210E712
:10C8D800039A900720D54FF0010CA4EB050E4FEA00
:10C8E8009E00BEF5007FCFD20F2FCDD8F5B107F14E
:10C8F80040020DEB020E019AC0B20EF8200C0EF8A1
:10C90800102CBCF1000F3FF41AAF60F07F000EF856
:10C91800200C08F101080137C5F108024FF6DA7E4C
:10C928000434069297E74FF0000CDAE7BCF1000FE9
:10C9380001D00136EFE7029802360028EBD10098C3
:10C94800CDE90631FFF7BCFDDDE906310644E2E733
:10C95800631BB3F5806F97D245B9A6F10804E018B8
:10C96800B1E600BFD8B40200F4D80200029A9B08CE
:10C9780028602B709DF81030C2B1EB7085F80280EA
:10C98800B8F1000F05D0002208A8C5F1010C9742A4
:10C998000ED14FF0000AC5F101030DF120090193F2
:10C9A8000DF1300B574512D1601B8CE66B70E5E733
:10C9B80010F8013B190608D504EB0C0E764503F078
:10C9C8007F03FFF47EAE04F8013B0132DFE7B8F1E4
:10C9D800000F03D099F90020002A17DB029BD3B17E
:10C9E8001AF80B2004F8012B0022019B9818204408
:10C9F8008642FFF466AE99F80000009904F8010B2E
:10CA0800204603920EF03CFD039A14440AF1010AF1
:10CA180009F10109C6E799F8002055F8223000937A
:10CA2800029B009845F82230FFF74AFD421CDCE7DC
:10CA38006FF00D0047E600BF2DE9F04F95B000AF4D
:10CA4800BB61BB6F0446C3F3C0038A4690F802B0CB
:10CA58007A623B6141B9457800780BEB800020444D
:10CA6800554517D8A0EB040AE3787B61BBF1000FAA
:10CA780002D0BB6FD80716D47B6953BB7B6A1BB146
:10CA880051462046BA699847554628465437BD4608
:10CA9800BDE8F08F461C3046FFF712FD01303044E8
:10CAA8000AF1010ADCE7237862683B629B00FB60BD
:10CAB8003B6AFA6104EB83097B6A002B40F0FF8034
:10CAC800C8460026554609EB0B0AD04551D1D94432
:10CAD80013E0BB6F9907D1D5237899463B629B0039
:10CAE800FB60636804EB8909FB617B6A002B7AD1E0
:10CAF8005546BBF1000F4FD15E46BB6F13F0050FD3
:10CB08000CBF4FF0020B4FF0010B7B6909EB430A96
:10CB1800BB6F03F002037B62D145B6D019F8021B44
:10CB280019F8013C54F82380AB4B984502D3AB4B22
:10CB3800984538D33B69002B42D0F8690BF03BFF8E
:10CB480000283DD0E8468AB06A46A54B5361FB6988
:10CB5800C2E906314FF400731384A24B42F8103F28
:10CB680000234FF41251A04800F038FE023DC5469C
:10CB7800D2E718F8013B54F82300FFF7A1FCFB6F3C
:10CB880001303BB1D7F880309E423EBFFB6F23F89F
:10CB980016000136054498E7BB6F13F004061CBF66
:10CBA8007E6AD944A9E73B6923B1F8690BF003FF12
:10CBB8000028C7D1BB6FDA0705D4A5EB0B05ABE797
:10CBC8007B6A002BA8D04046FFF77AFCFB6F43B185
:10CBD800D7F880309E423FBFFA6F431C22F81630C8
:10CBE8000136054498E7BBF1000F6ED0BB6F13F018
:10CBF80004066DD0D846002607F140005A4649463B
:10CC08000EF03EFC7B69D9445B007B607B6909EBD5
:10CC18004303BB60BB6F03F002033B60BB684B453B
:10CC280058D1B96F6378B86F890748BF002106EB00
:10CC3800030258BF4FEA5801C507D2B200F19A80E3
:10CC480010F0040F14BF40460020FB616270A07012
:10CC5800E1702046BA69F9687B6A9847051EFFF6B5
:10CC680014AF3B6A41462370FB69BA6963707B69FC
:10CC780084F802B0E37007F140007B6A9847B0F18E
:10CC88000008C0F2A480FB68AAEB0B01C91A7B68F4
:10CC98004846C91ABA697B6A98470028C0F2998041
:10CCA8004FF0000BA84408EB000507F1300AB34524
:10CCB80062D30021BA6908467B6A9847E5E65E4672
:10CCC8004FF0000807F1300098E75E46D84699E72C
:10CCD800B04697E719F8021B3F4B19F8015C54F866
:10CCE8002500984202D33D4B98421DD33B6923B19E
:10CCF800F8690BF060FE002890D13B68FBB908F199
:10CD0800280307F1280208F1010003EB020C07F1E0
:10CD1800500308F1020853FA80F00CF8101C5FFA6F
:10CD280088F800F8105C79E73B692BB1F8690BF0DB
:10CD380042FE00287FF472AFBB6FDB0709D506F10E
:10CD4800280307F12802711C9E1806F8205CCEB251
:10CD580064E7BB6F58077FF561AF08F1280307F157
:10CD6800280208F1010103EB020808F8105C5FFAD9
:10CD780081F853E7002068E71BF80A3054F823903D
:10CD880087F82F30FB6FFBB133F81B800121BA699C
:10CD98007B6A07F12F00984700281ADB0544B8F191
:10CDA800000F06D14846FFF78BFB00F101081FFA78
:10CDB80088F841464846BA697B6A9847002808DBE4
:10CDC80005440BF1010B72E7D7F87C80DEE7454696
:10CDD8005BE6054659E600BFD8B40200F4D8020065
:10CDE800ECC30200040000016CB90200014B18609A
:10CDF800704700BFB0A0002080B505460E46174614
:10CE080098460AF0C9F803460EF058FB0446DFF8C6
:10CE18001890424649F8003039463046A84754F839
:10CE2800090002F03FFF00BF080000002DE9F047AD
:10CE3800058B04462807904611D4022905F00705FA
:10CE480040F0CD8020460CF0B2F878B10138218B43
:10CE5800042811D8DFE800F0C3106D85950001297A
:10CE68000CBF45F0100545F02005258388F311888F
:10CE7800BFF36F8FBDE8F08701F0070AAA4500F0FD
:10CE8800A6800027B9463E46A368002B00F0BD8067
:10CE980041F00801218388F31188BFF36F8FA168DF
:10CEA800002900F0BB800D68002900F0B7803346E8
:10CEB80052462046D1F80480C047002D76D02B6812
:10CEC80029461D46F0E701F007035A1F012A1BD81F
:10CED800002221F00701062B276889B2C4E9002245
:10CEE80009D13B4603E0628B013262831B68002B49
:10CEF800F9D141F00201204621830CF058F80028AE
:10CF08007BD041F0200177E0042B0AD121F0070102
:10CF180089B2204621830CF04AF810B141F0200173
:10CF28002183218B01F0070AAA4550D00027B94672
:10CF3800AAE7236921F0070141F00601062DD3F87D
:10CF4800009021832DD1B9F1000F40D041F00801A4
:10CF5800218388F31188BFF36F8F20463949C8476A
:10CF680029E021F00701236941F0040189B2042D69
:10CF7800D3F804902183E6D000274FF0040A3E46F8
:10CF880082E721F00701236941F0050189B2052DE7
:10CF9800D3F808902183D6D000274FF0050A3E46E3
:10CFA80072E700274FF0060A3E466DE72B4687E7F3
:10CFB800B9F1000FD1D14FF02003EFF3118883F3BB
:10CFC8001288BFF36F8F238B23F008032383258BED
:10CFD800EA062ED525F01003238305F007056669B8
:10CFE800218B002EBFF66FAF00232768C4E90033FA
:10CFF80021F0070141F001012183218B4FF0000945
:10D0080001F0070AAA457FF43FAF002F9BD041F0FB
:10D018000801218388F31188BFF36F8F002FC7D0D1
:10D028003D6839463346524620460BF0ECFF2F4602
:10D03800F4E7AB067FF51AAF25F02003238305F04C
:10D048000705FFE63B90020007B50DF107000DF05C
:10D058001BFB114B98421CD14FF480620F4B1049B7
:10D06800C3F8B8254FF40062C3F83C259DF80700C3
:10D078000DF0FDFA0B499DF807000DF0F3FA0120B9
:10D088009DF80730984006F0D5FA002003B05DF807
:10D0980004FB6FF00B00F9E70000AD0B00A00240A5
:10D0A8002CA0024028A10240052370B5144D154E4E
:10D0B8002C780134B4FBF3F303EB8303E41A0DF08B
:10D0C80094FA114A137823B156F82430C01A072865
:10D0D80013D90E4BD3F8141141B10021C3F8141120
:10D0E800D3F814312C700CB9012313702C780DF07F
:10D0F8007CFA46F82400012070BD0020FCE700BF40
:10D1080047BD002000AD002046BD00200050004073
:10D1180048B1054B054A1B68B3FBF2F35843044B6F
:10D1280043F001031847704718A2002040420F003F
:10D1380040BA020070B5049CC4F30726304605F0D7
:10D1480095FFE5B2014628460DF096FA0022012027
:10D15800074BA40B04F0FC041A51A84006F070FA1F
:10D16800304606F037F92846BDE8704006F00EBC98
:10D1780080A00240F0B583B000AF381D06F000FC77
:10D18800284B98424BD106F007F9041E13DA387978
:10D1980006F0FCFB6D4688B06A46234BC2E90534AD
:10D1A800032342F8103F00234FF4C2511F4800F0F8
:10D1B80015FBAD462FE040F607031D4D7C71AE68A8
:10D1C800FB8074687B6814B96FF05704E2E70821A4
:10D1D8002846184AA047041EDCDB3369002BF3D02D
:10D1E8000122082128469847041ED3DB01203B79F9
:10D1F800984006F01FFA78793D79FE790DF0E0F94C
:10D20800014628460DF033FA0B4BB60045F00045B1
:10D218009D51002CBED120460C37BD46F0BD6FF0A5
:10D228001204B7E70000AD0BA4C40200DCB9020089
:10D238002CB6020045D2010080A102402DE9F3413D
:10D24800144683681B690BB100229847C4F307266C
:10D25800304605F013FF054630460DF0B1F94FF0A2
:10D268000008E7B2014638460DF00AFA104B220EC4
:10D27800920043F80280304605F0F8FE0D4A4FEA66
:10D28800943C0CF0FC0C47F0004342F80C3001468B
:10D2980038460DF0E7F9084B05F1320200933046A5
:10D2A8004346019452000DF094F902B0BDE8F081B4
:10D2B80080A1024080A002403DD101000DF0CEB90E
:10D2C8002DE9F047044607464FF00109DFF8508082
:10D2D80014B93846BDE8F08794FAA4F5B5FA85F58F
:10D2E80009FA05F32E0108EB05156FEA030A24EA8B
:10D2F80003042B7B002BEBD058F806301B694BB985
:10D308004644736804222846196807EA0A0700F0A9
:10D3180051FADDE7284698470028D9D1F0E700BF41
:10D3280014BA020030B5002289B00F490F480DF039
:10D33800D1FE4FF4003200230024CDE906230E234A
:10D348000B4DCDE903344FF440722846CDE9014432
:10D35800084B0949009408F0F5FF084928460DF0E4
:10D3680030FC204609B030BD89D3010098A90020BF
:10D3780010A5002061D6010088BD0020D5C4020098
:10D38800014809F051B900BF0CA400202DE9F0476D
:10D3980080461F480F460CF071FA0646002830D028
:10D3A80000252846BDE8F087237B73B12368DB6836
:10D3B8000BB12046984723681B69D3B963680422D8
:10D3C8002046196800F0F6F9013610344C45EBD3C5
:10D3D800B8F1000FE5D0002DE2D02846FFF770FF26
:10D3E8000546002FF7D000214FF4A47009F0A0FDE6
:10D3F800F1E7204698470028E0D00AFA06F31D43D3
:10D40800E2E705464FF0010A024CDFF80C90DDE731
:10D4180024AD002014BA020024BA0200014B53F8CC
:10D4280020007047ECBC020008B5034608462BB143
:10D43800044A136000F074FC002008BD6FF015006A
:10D44800FBE700BFB4A0002010B5044C237813B943
:10D45800034809F0E9F80123237010BD48BD0020F6
:10D468000CA4002010B5044606480CF007FA3CB19D
:10D47800054BD3E8EF1F0139C3E8E21F002AF8D1B2
:10D4880010BD00BF1CAD002020AD002000200146CB
:10D49800034BD3E8EF0FC3E8E21F002AF9D1704726
:10D4A8001CAD002070B5FFF7F1FF0546074C084E8C
:10D4B800B44200D370BD63685B792BB123685B68A5
:10D4C80013B12946204698471034F1E714BA0200F0
:10D4D80024BA020010B5044C044920460CF01FF889
:10D4E800034B1C6010BD00BF50A30020D8BC020035
:10D4F80014AD002008B50023074A4FF4004113700B
:10D50800064A07481360074A1360FFF78DFFBDE816
:10D518000840FFF7DFBF00BF49BD00201CAD002059
:10D528008198020020AD0020014600220023014816
:10D538000CF016B850A3002001480CF0AFB800BF9B
:10D5480050A30020024B014618680CF0F9B800BF40
:10D5580014AD002001480CF02FB900BF50A30020E3
:10D5680070B5264B1878002847D0FFF7E5FF054629
:10D5780070B1234BD3E8EF1F0139C3E8E21F002A3B
:10D58800F8D1204C204EB4422DD32846FFF7DAFFBD
:10D598001E4B1F4C1B68002B19DD0DF054FD4FF47A
:10D5A8007A72A0FB020302FB0131C30B43EA414339
:10D5B800D4E900209B1A40F2E9324FEAD13161EBFD
:10D5C8000001934271F1000101D3FFF76BFFD4E929
:10D5D800003213F57A7342F10002C4E90032BDE863
:10D5E8007040FFF7B7BF63685B7923B123682946AA
:10D5F80020461B6898471034C5E770BD48BD002019
:10D6080020AD002014BA020024BA02001CAD00208C
:10D6180090A9002070B50D4D297861B90120FFF758
:10D62800B5FE0B4C0B4EB44206D3FFF799FF00280A
:10D63800FBD101232B7070BD63685B791BB1236834
:10D6480020469B6898471034EDE700BF49BD00208D
:10D6580014BA020024BA020000212DE9F047084656
:10D66800FFF794FE044658B340F267684FF000098C
:10D678000DF024FF1B4B1C4A1B58136033B11B4B86
:10D688001B68092B02DD1A4808F0CEFF0025194F48
:10D69800DFF85CA044B12046FFF712FE044618B933
:10D6A8004FF0FF384FF0FF39FFF75AFF064628B909
:10D6B800B5B942464B46504608F0DAFF3546E9E729
:10D6C8004FF0FF384FF0FF39D2E72B689B691BB149
:10D6D80000222846114698471035BD42F5D3E8E7A1
:10D6E800054DFAE70800000018AD002020AD002025
:10D6F8000CA4002024BA020014BA020013B518487A
:10D708000CF0BCF8174B1B787BB14FF02003EFF3FC
:10D71800118483F31288BFF36F8FFFF721FF84F31F
:10D728001188BFF36F8F02B010BD0F4B1B68002B21
:10D73800F9D050B9002200230C48CDE900234FF45A
:10D748000042002309F06CFEEDE70928EBD10748F9
:10D758000DF0CCFC064802B0BDE8104008F064BFEC
:10D7680020AD002049BD002018AD002098A9002058
:10D778000CA4002010B5064B04461B6898472146A8
:10D78800A06004480BF06AFFBDE81040FFF7B6BF81
:10D79800B4A0002050A30020044A054B9B1AB1EB0B
:10D7A800D30F34BF52F83100002070471CB9020073
:10D7B80014BA0200084B10B4C31A44681B11013391
:10D7C800237143689A7101224368196043685A714A
:10D7D80010BCFFF739BE00BF14BA02002DE9F04FA4
:10D7E8008FB0C1F34A2804AF0D469146B8607B60FC
:10D7F8000C0DB8F1000F63D000264FF0040B4FF06A
:10D808000A0A07F11403C7F80C80C7E907667E62A5
:10D818000193CDF808B0CDF800A007F11C033246FB
:10D828004846F968FFF708F9B0F5006F03461CD3BE
:10D838006C468AB0D9F8041004AB26481A46C3E9E6
:10D84800050140F2FF71D9614FF400711984224B30
:10D8580042F8103F4FF4125133462048FFF7BEFFFD
:10D86800A5462C37BD46BDE8F08FC0F30A0804F181
:10D878001700184420F0070080083B60FFF754FEAB
:10D8880068F35325044690B13B6800F11001C7E9DD
:10D89800083607F11403F961CDE900A3CDF808B003
:10D8A80048460F4AF96807F11C03FFF7C5F868F303
:10D8B80053252A4620467B68B9680CF011F8D0E752
:10D8C80004F1170020F007008008FFF72DFE04463A
:10D8D800EDE700BFEAC402000400000194B90200A9
:10D8E800BD9802002DE9F04F87B00446DDE9105AD3
:10D8F800DDE912690F4693469846A6B310213346D0
:10D9080052460020CDF80090CDF81490FEF7C2FEE4
:10D91800014605F117000844144B04F007040BF006
:10D92800070BE40020F0070003EA412344EA8B14C4
:10D9380080081C430391FFF7F7FD44EA05540546A8
:10D9480040B13EB1334652460399CDF800901030AD
:10D95800FEF7A0FE434622463946284607B0BDE8F2
:10D96800F04F0BF0BDBF3146D3E700BF00FE0F00FC
:10D978000EB403B503AB53F8042B014604480193D6
:10D9880002F078FB02B05DF804EB03B0704700BF0B
:10D998004F990200CA0605D48B064CBF02490349B9
:10D9A800FFF7E6BF704700BF2AC5020029C502007D
:10D9B8002DE9F04F89B09A46DDE914739DF84CB013
:10D9C8000593169B04460D46179E06920493BBF1D9
:10D9D800000F00F0858006F0080307930BF068FF3E
:10D9E80006F002090246002849D020468549FFF77B
:10D9F800BFFF8046B9F1000F08D016F0440F40D1A0
:10DA08002A4620468049FFF7B3FF804406F0010309
:10DA180053B17E4B204653F82B207D4B7D49002A7D
:10DA280008BF1A46FFF7A4FF06F00803002B54D0DE
:10DA3800794B204653F82B207849FFF799FF054684
:10DA4800069B2BB11A4620467549FFF791FF0544FE
:10DA5800BAF1000F05D0524620467249FFF788FFF9
:10DA680005444544002F49D1049B002B4FD1F307AF
:10DA780000F1C18031462046FFF78CFFB5E08046B3
:10DA8800B8E7694B18680028BFD0684B4FF47A791B
:10DA98001B684FF46161B5FBF3F5B5FBF0F300FBD0
:10DAA800135509FB05F5B3FBF1F2B5FBF0FE4FF09A
:10DAB8003C0C01FB123100FB1E55B1FBFCF309FBCA
:10DAC80005F5B5FBF0F50CFB131120460091CDE9E7
:10DAD80001E55749FFF74CFF97E706F00805AFE760
:10DAE800BAF1010F06D1002F65D1049B002B7CD021
:10DAF80000250CE0002FF8D04E485DE04E483B462C
:10DB080022464E490AF026FF049B002B69D0DFF815
:10DB18003081DFF83091049F3146102F204628BF0E
:10DB280010274FF0000AFFF735FF554546DC059BE7
:10DB3800494620461A78FFF71BFF4FF0010A1AF0F2
:10DB4800070F03D141462046FFF712FF57453CD93E
:10DB5800059B4946204613F80A20FFF709FF0AF1FA
:10DB6800010ABAF1100FEAD14FF0000A20463649EF
:10DB7800FFF7FEFE5246059B20469A5C334B995CA4
:10DB880011F0970F08BF2E223149FFF7F1FE0AF175
:10DB9800010ABAF1100F1DD01AF0070F03D1414640
:10DBA8002046FFF7E5FE57455246E4D84146204651
:10DBB800FFF7DEFEEBE720485D46A0E7414620463A
:10DBC800FFF7D6FE0AF1010AAFE720462149FFF721
:10DBD800CFFEC4E7059B3B440593049BDB1B0493E2
:10DBE80099D1BBF1000F7FF442AF204609B0BDE8E0
:10DBF800F04F0BF09BBE2046054A0649FFF7B8FEDA
:10DC080038E700BF31C5020035C50200FCBC020080
:10DC18002CC50200E9CF020010BD02005AC502005F
:10DC280060C5020064C502002CAD002028AD0020AC
:10DC38003EC502007D9902004F9902007D00020056
:10DC480071C5020069C5020073C50200E6D702006B
:10DC580075C502006FC502002DE9F0410F884B68B9
:10DC680005460C4690468E6886B0C7F382175BB1AE
:10DC7800144A9B1A43F3CF01002920DB2078C0F314
:10DC8800C200FFF789FD0346214651F8102B608832
:10DC9800C2F34A22002A01EB020408BF0021002235
:10DCA800C0F30B10CDE90408CDE90214284631462B
:10DCB80001970092FFF77CFE06B0BDE8F0810023D3
:10DCC800E2E700BF1CB9020042F20F7373B58B4242
:10DCD80028BF0B4605680446052168460D4A09F029
:10DCE80021FC0646636828460B225B680A490BF04C
:10DCF80010FE63683246694628465B680BF009FEE9
:10DD080063681B2228465B6804490BF002FE02B0D8
:10DD180070BD00BFA6D2020094C5020078C50200FB
:10DD280000210123064A904206D8064A01B9012378
:10DD38001360054B18607047012140085B00F2E74B
:10DD480040420F0028AD00202CAD0020014B0020E0
:10DD58001960704744AD00200122024B02481A7036
:10DD68000BF0E4BD4BBD002040BD02000148FFF7A9
:10DD7800ABBF00BF40BD020010B5064B0C4618688B
:10DD8800FFF74CFB2146BDE8104003460F2202482E
:10DD9800184700BF44AD002040BD0200F8B50D464D
:10DDA8000446064F4618B44201D12846F8BD14F877
:10DDB800011BBB6801485B689847F4E718B6020086
:10DDC800F0B40C4B0C4E5F6A0C4BB34203D36FF0AC
:10DDD8008500F0BC70475D68BD4209D31C693CB141
:10DDE80095F802C00579AC4502D12346F0BC184726
:10DDF8002433EAE748AD002010A50020ECA4002059
:10DE08002DE9F04705460E461746124CDFF84880C4
:10DE1800DFF84890444503D36FF08500BDE8F087EC
:10DE28006268D9F824309A4212D3A36983B19078F2
:10DE38002979884205D13A4631462846BDE8F04757
:10DE480018475279012A03D13A463146284698475D
:10DE58002434DFE7ECA4002010A5002048AD002002
:10DE68002DE9F04105460E4617460A4CDFF8288092
:10DE7800444502D36FF0850009E063690BB9243487
:10DE8800F6E73A463146284698470028F7D1BDE8D4
:10DE9800F08100BFECA4002010A500200022024B56
:10DEA8001A605A60704700BF03AE002070B50B4B74
:10DEB8000B4CA34201D3002070BD0022196A1E7FBB
:10DEC8000439D5B2AE4201D82433F2E7013211F851
:10DED80032508542F5D10120EEE700BFECA40020C6
:10DEE80010A5002008B509480378C3F341130A3385
:10DEF80050F823303BB100F1080200F110019847B7
:10DF0800C043C00F08BD1846FCE700BF48AD00205D
:10DF18007FB5084B05930223049300234FF48251E5
:10DF2800054804AAFFF75AFC4FF0FF3007B05DF828
:10DF380004FB00BFDAC50200FCB9020073B5C4B225
:10DF480063060D468DF8074007D02046FFF7AEFF61
:10DF580078B10D4B93F8BA0058B120460A4E55B126
:10DF680002F000FEF3691BB108200DF10701984784
:10DF7800012002B070BD02F02FFEF369002BF7D02C
:10DF880009200DF10701F2E748AD002080B500AF88
:10DF980088B06A46074BC2E90530032342F8103FB0
:10DFA80000234FF4C2510448FFF718FC0020BD4677
:10DFB80080BD00BFFFC50200FCB9020004282DE99E
:10DFC800F74F04460F46DFF8989015D001282FD157
:10DFD800DFF8908098F8B93053B300F0DDFE224D99
:10DFE8004D4522D24FF0000A2A6A2B7F5FFA8AF643
:10DFF800B34204D82435F3E7FFF750FFE8E702EB14
:10E00800C606307901920BF027FE834630790BF073
:10E01800C0FCD8F8C430BBF1000F23EA0003019A12
:10E02800C8F8C4300AF1010ADFDA002388F8B930E9
:10E038000D4D4D4508D30B4B1B6A6BB13946204635
:10E0480003B0BDE8F04F1847EB681BB13A462146CC
:10E05800284698472435ECE703B0BDE8F08F00BFA9
:10E0680010A5002048AD0020ECA40020F8B500AFB2
:10E0780005460BF0F1FD10F1780F044613D090B16E
:10E088006E4688B06A460E4BC2E90535032342F84E
:10E09800103F00234FF4C2510A48FFF79FFBB546D3
:10E0A8002046BD46F8BD28460BF073FC064A0024FE
:10E0B800D2F8C43023EA0003C2F8C430F0E700BF46
:10E0C8001AC60200FCB9020048AD0020F0B583B0C2
:10E0D8000446807800AF387023796279274D43EA87
:10E0E80002237B80E37803F003033B710BF051FCC0
:10E0F800D5F8C430064618420CD0A478204600F063
:10E108002DFE2046FFF7B2FF0CF055FD10B9962002
:10E1180008F028FF384602F0F1FC10F1780F0346AA
:10E12800387814D09BB16C4688B06A46144BC2E963
:10E138000530032342F8103F124800234FF4C25120
:10E14800FFF74CFB0020A5460C37BD46F0BD02F09A
:10E158007FFD10F1780F08D038B16C4688B06A4658
:10E168003B780949C2E90513E3E70120D5F8C43033
:10E1780085F8B9003343C5F8C430E5E748AD002059
:10E188003CC60200FCB9020060C602002DE9F04757
:10E19800924D0446AB690E461746C3B9207800F085
:10E1A8001F00012876D0022800F0DC8000BB94F91B
:10E1B80000103A68002963782EDA062B0CD0082B59
:10E1C80025D0ABB9537001231370022303E198479C
:10E1D8000028E3D100200DE06388190A0A1F012AEC
:10E1E8008C4605D9072903D8DAB26B6A1C781CB9A2
:10E1F8006FF01500BDE8F0875D78654503D1824270
:10E2080000F0E48001302344F0E71B78E3E095F860
:10E21800BA3013700123DEE0052B11D0092BE7D1AA
:10E2280063886E6A002B32D1FFF738FE638885F861
:10E23800BA30EB69002BCDD0032069499847C9E76C
:10E24800A07802F017FC0028C4D0D1E77378042B1B
:10E2580010D0052B11D0022B04D177796388BB42EB
:10E2680008BF012033781E443378002BEED10028F4
:10E27800BED0D9E796F80380F4E76388BB42F1D1B2
:10E28800B8F1000FEED13046FFF720FFEAE7FF278D
:10E29800B846E9E795F8BA30D7F800C0002BA7D000
:10E2A8006F6AA2883B4694F804E0187800289FD04B
:10E2B8005978022904D193F80480F04500F292803D
:10E2C8000344F2E78CF800308CF80130316081E7C4
:10E2D8001F4493E00B2B8BD100264FF0FF08B2466A
:10E2E800C14606E07B78042B0FD0052B21D03B7864
:10E2F8001F443B78002BF5D1EB6913B15146072039
:10E308009847002E7FF466AF72E797F80280A388DB
:10E3180097F803909845EAD163889945E7D1B8F111
:10E32800070F1CD805EB0803BA46012683F8BB90F3
:10E33800DDE7A3884345DAD1A3784B450AD0BE78F8
:10E34800304600F00BFD3046FFF790FEB0FA80F63D
:10E358007609CCE73846FFF7B9FE0646C7E7BA465E
:10E368000026C4E794F900206378002A18DA002B05
:10E378007FF43EAF24793F6863060AD02046FFF752
:10E3880095FD00283FF434AF95F8BA30002B3FF4E0
:10E398002FAF3946204602F03FFC00237B7014E77C
:10E3A800012B08D0032B7FF423AF6388002B7FF465
:10E3B8001FAF012103E0618800297FF419AFA0880D
:10E3C800FFF7BCFD00287FF405AF11E702293B6089
:10E3D8007FF41BAF5B883360FCE600BF48AD0020CC
:10E3E80002AE002094F9000063780028BFF672AFEF
:10E3F800002B3FF467AF0A2B7FF4FAAE3B78002B73
:10E408003FF4F6AE797804297FF462AFB9788A428E
:10E418007FF45EAF072A8EBF0023521992F8BB30F3
:10E428008CF80030F6E600BF13B5164C237DF3B91F
:10E43800E26801AB8020A16801920BF0B9FA019A59
:10E44800A3681344A360E3689B1AE3606BB962B1E5
:10E458002369E2889A4208DD94F8C82093FBF2F118
:10E4680002FB11330BB90123237502B010BD002341
:10E4780080201A461946237502B0BDE8104002F004
:10E4880011BC00BF48AD0020002370B58AB00D460E
:10E4980006460193002868D1002940D108220B467E
:10E4A8000DEB02010BF0F1FB002804DA802002F0EA
:10E4B80059FB0AB070BD324C029AC4E90355226078
:10E4C800039ABDF80E30626004F13802A2609DF92B
:10E4D80008202575002A15DB802B0FD9294B0993B5
:10E4E800022308934FF482512B46274808AAFFF7C6
:10E4F80075F9802002F036FB2846D8E713B1C4E945
:10E508000333D6E7FFF7EEFC0028CFD0E288236973
:10E518009A42D4BFE260E360FFF786FFC9E7184C70
:10E5280001ABD4E90212002A05DC02460BF0ADFB70
:10E538000028BEDABAE70BF0A8FB002804DA80202E
:10E5480002F010FB3046B2E7019AA3681344A360B7
:10E55800E3689B1AE360002BABD104F13803A36096
:10E56800FFF7C0FC0028D7D1A0E78028A1D1044B31
:10E57800DA68002AD0D11B7D002BCDD199E700BFE6
:10E5880048AD002081C60200FCB90200054B064ACE
:10E5980058629A62054A0020DA62054A1A63054AF7
:10E5A8009A61704748AD002095E10100C9DD01007E
:10E5B80069DE010009DE01002DE9F041464D0446FF
:10E5C8006F6A86B04FF0FF324FF0FF33434807F0D1
:10E5D80041FF95F8B860002E7BD141482C62E86174
:10E5E80002F0D4FC02F014FA041E15DB00F0F8FB6C
:10E5F800041E11DB7B78012B01D1FB799BB9394BC8
:10E608000593022304936FF0150400234FF48251FD
:10E61800354804AAFFF7E2F8304807F095FF20468E
:10E6280006B0BDE8F081684685F8C830ADF802301C
:10E638008DF804608DF8006002F060FA041EEBDBD0
:10E64800802768468DF8007002F058FA041EE3DB54
:10E658003046264902F086FC041EDDDB3846234995
:10E6680002F080FC041ED7DB214CDFF8888044458B
:10E678001AD3002002F0ECFA041ECDDBD5F8C43022
:10E68800802043F00103C5F8C43002F0E1FA041E0B
:10E69800C2DBD5F8C430002443F48033C5F8C43055
:10E6A800012385F8B830B7E70026276A227FF3B23E
:10E6B8009A4201D82434DAE707EBC30257F833103B
:10E6C800107902F04FFC01360028EFD04FF0FF34EC
:10E6D800A2E76FF077049FE748AD0020F8A3002079
:10E6E800C5DF01009AC60200FCB9020091E40100EE
:10E6F800ECA4002010A5002010B50A4B93F8B840F0
:10E708006CB900F055F818B9BDE81040FFF700BC27
:10E71800FFF73CFF2046BDE81040FFF74DBF6FF004
:10E72800770010BD48AD002030B51F4B8BB005AA4F
:10E7380003F11005144618685968083303C4AB423E
:10E748002246F7D11B7810222370002101A80CF073
:10E75800A4FE1222002115480CF09FFE102101A8EA
:10E7680002F022FF00281BDD0828B8BF082001ABF3
:10E7780009381A1800200D4912F8013F0AAC04EBB9
:10E78800131403F00F0328336B4414F8144C13F8D4
:10E79800143C013008280C704B7001F10201EBD1D8
:10E7A80002480BB030BD00BFD4C602004CBD0020EB
:10E7B8002DE9F04F4FF0000B8BB08D4C00AF0026C9
:10E7C8004FF0011AB1463546B046237843B9894B14
:10E7D80002349C42F3D186482C37BD46BDE8F08F01
:10E7E8006378052B1DD8DFE813F0B8000600000198
:10E7F800B8001F005700402387F810B07B8287F8C5
:10E8080014B007F1100002F047F940B1082307F1EE
:10E8180010007B8202F040F908B1A7F812B07B8A99
:10E82800E37123781C44D0E7E378002BF9D1A3786F
:10E838004BB309F101095FFA89F9F2E76B689C4269
:10E8480023D024356C4B9D42F8D36D4688B06A4678
:10E858006A4BC2E90534032342F8103F00234FF402
:10E86800C2516748FEF7BAFFAD46664B7B6202238A
:10E878003B62634800234FF4825107F12002FEF700
:10E88800ADFF0020A8E7604DDCE7AB68002BD0D0D7
:10E89800494620469847CCE7002D5CD15B4B7B620C
:10E8A80002233B6200234FF48251554807F12002AE
:10E8B800FEF794FFD9E72B6AA27803EBC103FB604C
:10E8C8001B799A4205D001312B7F9942F3D3504BE3
:10E8D800E5E70123E078DAB200F003003875207923
:10E8E80094F805C040EA0C20788294F902000028C8
:10E8F80026DA4FF0010C03F110000CFA00F010EAD0
:10E908000A0F24D142F08000387407F11000C7E9DB
:10E918000032B96002F0C0F8D7E901213B68B0B90C
:10E92800397CF86811F0800FA17001714FF0010176
:10E938001DBF1032D2B2914099404AEA010A70E7ED
:10E948000120984010EA0A0F01D11046DCE7013394
:10E95800102BBFD1B7E70021B6E7032E2CD1FFF764
:10E96800E3FEF86088B1FDF7ABFD70B11028FB68D5
:10E9780017D0284B7B6202233B6200234FF482515D
:10E988001F4807F12002FEF729FF6FF002012378E4
:10E99800091BE21804EB5303D14214D50136F6B231
:10E9A8003FE71846A31C00F1100250F8041B9042E0
:10E9B80043F8041BF9D1E8E7002EE6D1B8F1000FBF
:10E9C80008D1154B6BE702F801BC13F8010902F8EE
:10E9D800020DE1E7A4EB080388F80230C3F307232C
:10E9E80088F8033088F80490D8E7A04619E700BFF4
:10E9F8002CA40020EBA4002010A50020E5C60200EE
:10EA0800F4B90200CBC70200ECA4002005C702003D
:10EA180046C7020063C70200AEC70200094B0021C7
:10EA28001A4610B51C78844204D15C6814B102EB14
:10EA3800811010BD0131042903F14003F2D10020F7
:10EA4800F7E700BF14AE00202DE9F04383B050F87B
:10EA5800283C0446103310F82C5C00AF11D1036930
:10EA680050F8202C13F002064BD0F2B913F004032F
:10EA780004D11A46194628460AF09AFF002344F89A
:10EA8800283C54F8283C10330BD054E9078654F836
:10EA9800149C0CF090F800286FD021463D480CF0EB
:10EAA80085F90C37BD46BDE8F08350F8241C3B1DA2
:10EAB80028460AF07DFF98B16E4688B06A46364B04
:10EAC800D561C2E90530042342F8103F00234FF412
:10EAD80001513248FEF782FEB5466FF01503CEE7C6
:10EAE8007A6854F8243C134444F8243C54F8203CF5
:10EAF8009B1A44F8203C54F81C3C134444F81C3C32
:10EB0800BFE750F8241C3B1D284602F06DF988B178
:10EB1800E84688B06A46204BD561C2E9053004232F
:10EB280042F8103F4FF4015133461C48FEF756FE99
:10EB3800C546D2E77E6854F8243C334444F8243C64
:10EB480054F8203C9B1B44F8203C54F81C3C3344AC
:10EB580044F81C3C002E91D0284602F01DFAB6FB62
:10EB6800F0F303FB1066002E88D154F8203C002BEC
:10EB780084D0284602F09EF983E744F8180CA4F1E3
:10EB8800100007F051FD002E8BD04A46414628461A
:10EB9800B04786E7D0A90020F9C702000CBA0200E6
:10EBA80070B54B1E012B06460D4688B018D8FFF7E6
:10EBB80035FF0446B0B9012D12D101AB0122304610
:10EBC80002A902F011F9019B002BF6D10F4A079216
:10EBD800022206924FF482510D4806AAFEF7FEFD66
:10EBE80008B070BD0BF0E7FF04F12C0108B1012D4E
:10EBF80005D1084608B0BDE87040FFF725BF0548B5
:10EC080008B0BDE870400CF0D1B800BF16C80200CB
:10EC18000CBA0200D0A900202DE9F04F8BB000AF4C
:10EC280005461646B960FB600AF008FF002840F068
:10EC380086804FF02003EFF3118283F31288BFF32D
:10EC48006F8F8146DFF8FCA07A60002300225046CF
:10EC580007F00EFD0346E8B9DFF8ECB04FEA891873
:10EC68000BEB8919D9F8044014F1100F31D16E4615
:10EC780088B06A463549C2E90515032142F8101FD4
:10EC88004FF4C2513248FEF7A9FDB546504607F089
:10EC9800CBFC14E009F10109B9F1040F0AF1400AAB
:10ECA800D3D12C4B7B6202233B626FF00B04002311
:10ECB8004FF48251264807F12002FEF78FFD7B684A
:10ECC80083F31188BFF36F8F20462C37BD46BDE80C
:10ECD800F08F3B6DBA68C9F81430FB68C9F81000AA
:10ECE800C9F83C307B6D2846C9F818306FF00F031F
:10ECF800C9E902260BF80850C9F8043002F04CF9AB
:10ED080068B1284602F048F9B6FBF0F303FB106639
:10ED18002EB1D9F83C3043F00403C9F83C30FB6805
:10ED28009B0707D508F12C010B4859440CF03EF815
:10ED38000024C4E7284602F0BDF80446BFE76FF098
:10ED48000F04C1E730AE002014AE00204BC802000B
:10ED58000CBA020030C80200D0A9002010B54FF04C
:10ED68002003EFF3118483F31288BFF36F8FFFF74B
:10ED780055FE50B14368103307D16FF08B0300F193
:10ED88002C01436003480CF011F884F31188BFF399
:10ED98006F8F10BDD0A9002070B504250E4C4FF020
:10EDA8002003EFF3118683F31288BFF36F8F636834
:10EDB800103307D16FF08B030848636004F12C010E
:10EDC8000BF0F4FF86F31188BFF36F8F013D04F158
:10EDD8004004E4D170BD00BF14AE0020D0A90020CB
:10EDE80070B50025094C0A4E314620460BF0C1FF8C
:10EDF8000122A4F11000114601350BF07DFF042D0E
:10EE080004F14004F0D1002070BD00BF40AE0020E6
:10EE180051EA0100014608B503480AF0F9FD10B1AE
:10EE2800012300F8073C08BD14AF00200123016945
:10EE380081F84B300B6833B191F849301BB1024867
:10EE480008310BF0B3BF7047D0A900200123016936
:10EE580081F84A300B6833B191F848301BB1024849
:10EE680008310BF0A3BF7047D0A9002038B5056959
:10EE780095F89E0088B195F89F307BB985F84830A1
:10EE8800D5F890000AF0DFF9044600220023044870
:10EE980005F1180107F060FD204638BD0020FCE7A9
:10EEA800D0A9002013B504698DF8071094F89E3096
:10EEB800A3B194F89F308BB90DF107010122D4F862
:10EEC800900084F848300AF0BEF9014640B121228A
:10EED80000230C4804F1180107F03EFD02B010BDF4
:10EEE8000122D4F890000AF0FEF90028F6D0012299
:10EEF800D4F890000DF107010AF0A5F90028E6D131
:10EF0800ECE700BFD0A90020F0B5D0F88C3005465A
:10EF18005B6885B01B6A1F7D38460AF08FFD064680
:10EF2800E0B94FF48062A86F03A90AF0ABF9044670
:10EF3800A0B18306A5F1180385F830600193084B4A
:10EF480008BF00F1FF340399009322460223384694
:10EF5800FFF762FE2146A86F0AF0B0F905B0F0BDD0
:10EF68000DF0010070B504460E46017915481546A6
:10EF78000AF041FD10B394F900206378002A16DBEB
:10EF8800202B04D0222B0ED06FF085000AE02B68CE
:10EF98001A6840F8102C9A8820F80C2C9B7900F8F5
:10EFA8000A3C002070BD638800F8093CF9E7212B72
:10EFB800EAD10723103828603360F2E76FF01200B7
:10EFC800F0E700BF14AF0020002103460C4AA0F868
:10EFD8004810106883F89C10C3F8940090889279C0
:10EFE800A3F8980083F89A2083F89B104022A3F88E
:10EFF8009E1083F8A01003F14C000CF04EBA00BF2D
:10F0080030BA0200012310B582F84830136814465C
:10F018003BB192F84A3023B10A4802F108010BF0DB
:10F02800C5FED4F890309A681B699A4208D004F15A
:10F0380018010022BDE810400023024807F08CBCEC
:10F0480010BD00BFD0A90020002310B50469C4F882
:10F05800A8300C4BC4F8A400596804F1A80269B997
:10F06800C3E9002204F1080007490BF082FE04F10D
:10F07800180006490BF0ABFE002010BD0A605A606C
:10F08800F0E700BF14AF00206F9A020011EF0100F3
:10F0980073B5144602F14C060A1E05461FDD3146BB
:10F0A800D4F88C000AF0CFF8012384F8493023689B
:10F0B8003BB194F84B3023B10E4804F108010BF032
:10F0C80075FED4F88C104B684A699A1ACB699B1A5A
:10F0D8003F2B04D8012384F8A03002B070BD064B42
:10F0E800402200933146012328460194FFF794FDFE
:10F0F800F3E700BFD0A9002099F0010038B50D460C
:10F1080001461E480AF06CFC044680B3024652F8D9
:10F11800A439691E5B68052929D8DFE801F0202891
:10F128000320252914F8061C31B91B6A187BFFF740
:10F13800AFFF012304F8063C14F85C3CBBB901237B
:10F1480004F85C3C54F8A43C8BB114F85A3C73B1F5
:10F15800A4F19C010A48BDE838400BF027BE1046D0
:10F16800BDE83840FFF730BF012304F8053C38BD3F
:10F1780014F8053C002BFAD00023F6E714AF002062
:10F18800D0A9002037B50024084D4FF0FF334FF4C5
:10F19800806228460649009407F0A6FB05492846E0
:10F1A8000BF00FFD204603B030BD00BFD0A90020F2
:10F1B80088C000209AC80200014910220A607047DE
:10F1C80010ED00E072B6404080F31188BFF36F8FF6
:10F1D80001B5FDF769FF002802D0BFF34F8F30BF9C
:10F1E800BDE8014062B6BFF36F8F704772B6494001
:10F1F80081F3118801B5FDF757FF002802D0BFF34E
:10F208004F8F20BFBDE8014080F3118862B6704778
:10F218002DE9F04781460C4600AF00294CD0D1E9D2
:10F2280000126E468AB0A3686D464FF0050AA846DC
:10F238002548C5E90723C5E9050148F810AF0023AB
:10F2480042464FF421512148FEF7C8FAD4E9031287
:10F25800B5466369AD461E48C5E90723C5E90501FA
:10F26800C5F810A0002342464FF421511748FEF775
:10F27800B5FAB54688B0E3696D464FF0030AA8466B
:10F28800144AC5E9052348F810AF002342464FF455
:10F29800C2510E48FEF7A2FAB546A369AD460E4A1A
:10F2A800C5F810A0C5E90523002342464FF4C25112
:10F2B8000648FEF793FAB5462146484606F04AFE48
:10F2C800BD46BDE8F08700BFA3C80200BCB9020074
:10F2D800D2C8020001C9020010C9020040B20028C9
:10F2E80007DB01234109034A00F01F00834042F86D
:10F2F8002130704700E100E040B200280CDB012219
:10F308000649430900F01F008240203341F82320BA
:10F31800BFF34F8FBFF36F8F704700BF00E100E06E
:10F32800054B420953F82220012300F01F0003FA7D
:10F3380000F01040704700BF00E100E040B2002834
:10F3480001F10101ACBF00F16040064B4FEA4111E9
:10F35800C9B2ABBF00F5614000F00F0080F80013A0
:10F368001954704714ED00E030BFFFF7FDBF00BF30
:10F378000B4A08B50B4B22F07F029A60BFF34F8F00
:10F38800BFF36F8FD3F8882022F47002C3F8882067
:10F3980006F0A0FE07F078FE00F0FEFB06F0E4FEA3
:10F3A80000C0010000ED00E0094A0A4993680968B5
:10F3B8005867996708494B6843F080534B600023AE
:10F3C80083F31188BFF36F8F9368986F704700BFFE
:10F3D80004BD00202CC2020000ED00E018498A6834
:10F3E80082F87DE04FF030001044EFF3098C80E89C
:10F3F800F01F202080F31288BFF36F8F114F4FF05A
:10F4080000664A698A603E604FF0700414192068EB
:10F418000D4C206092F97DE0506F0023536780F314
:10F42800118802F1300090E8F01F8CF3098802F18E
:10F43800000004B50AF0B6FBBDE8044070470000C0
:10F4480004BD002004ED00E01CAF00201EF0040FF6
:10F458000CBFEFF30880EFF30980816911F8021CF3
:10F468000229FFD001B50AF08EFB01BD42F8203C0D
:10F47800009B0C4942F81C3C019B21F0010142F819
:10F48800183C029B42F8081C42F8143C4FF0807369
:10F4980042F8043C002343674FF43C43203A02659A
:10F4A800C367704701CE01000A4B046F98600A4B8E
:10F4B8001C60036E83F30B88104681F309880021D2
:10F4C80063B681F31188BFF36F8F00220023FDF725
:10F4D80093FC00BF04BD00201CAF002001B5EFF372
:10F4E8000580A0F110004FEAC0000449014409C991
:10F4F8009847BDE80140024908470000F4B60200F9
:10F5080069F50100114B124A2DE9F041D518013D6A
:10F51800B5FBF3F5DFF83C805D430F4B074608EB7E
:10F528000304013CB4FBF3F403FB04540E1B304604
:10F538000A490BF0A5FF701942460021083E0BF05E
:10F54800ACFF3E6704F10800BDE8F081010000004F
:10F5580000000000040000000400000024BA0200BB
:10F56800044B99685869884203D003494FF0805288
:10F578000A60704704BD002004ED00E02DE9F04169
:10F5880086B006460D4600AF0224444B4FF4825124
:10F598007B6143483C6107F110020AF007FB414BCD
:10F5A8009B6ADB0678D5404B3D484FF48251C7E94A
:10F5B800044307F110020AF0F9FA1120394B9B6A4B
:10F5C8001C070BD5394B36487B6102234FF4825117
:10F5D8003B6107F110020AF0E9FA1220314CA36AE4
:10F5E800990723D5E846324B07F110027B610223C5
:10F5F8004FF482513B612A480AF0D8FA636BA26A39
:10F60800120612D588B06A462A492548C2E9051368
:10F6180003234FF4C25142F8103F0AF0C7FAC54617
:10F628001EB1A36A23F08003A36213201D4B9B6ABB
:10F63800DE070BD5204B1A487B6102234FF4825119
:10F648003B6107F110020AF0B1FA1420154B9B6ACE
:10F658009C060BD5194B12487B6102234FF482514B
:10F668003B6107F110020AF0A1FA15200D4B18377B
:10F678009A6AD10658BF9A6A9A6A920642BF5A6A2B
:10F6880022F400525A629A6A42F0FF029A620023F8
:10F698002B70BD46BDE8F08110208FE73EC90200FF
:10F6A800BCB9020000ED00E054C9020087C902009D
:10F6B8009AC90200B2C90200C8C90200E7C902001B
:10F6C8002DE9F04186B006460D4600AF0224474BAF
:10F6D8004FF482517B6146483C6107F110020AF001
:10F6E80065FA444B9B6AD9046DD5434B40484FF4A7
:10F6F8008251C7E9044307F110020AF057FA1720AC
:10F708003C4B9B6A1A050BD53C4B39487B6102235D
:10F718004FF482513B6107F110020AF047FA1820B2
:10F72800344CA36A9B0523D5E846354B30487B61AA
:10F73800022307F110023B614FF482510AF036FAB6
:10F74800A36BA26A100412D588B06A462D492848CE
:10F75800C2E9051303234FF4C25142F8103F0AF0DF
:10F7680025FAC5461EB1A36A23F40043A3621920F3
:10F77800204B9B6A59050BD5234B1D487B610223FF
:10F788004FF482513B6107F110020AF00FFA1A2078
:10F79800184B9A6AD20518D51C4B15487B61022371
:10F7A8004FF482513B6107F110020AF0FFF91B2068
:10F7B800104A1837936A43F47F43936200232B70EF
:10F7C800BD46BDE8F08116209AE79B6A9B04EFD5F9
:10F7D8000F4B07487B6102234FF482513B6107F1CD
:10F7E80010020AF0E3F91C20E2E700BF16CA020083
:10F7F800BCB9020000ED00E02CCA020087C9020073
:10F808003DCA020056CA02006BCA020086CA02003C
:10F81800E7C9020010B586B002243E4B4FF482516E
:10F828003D4804AA059304940AF0C0F93B4B9B6A2F
:10F8380099016CD53A4B38484FF4825104AACDE966
:10F8480004430AF0B3F91E20344B9B6ADA010AD547
:10F85800344B3148059302234FF4825104AA049390
:10F868000AF0A4F91F202D4B9B6ADB020AD502245B
:10F878002D4B29484FF4825104AA059304940AF0A9
:10F8880095F92046254B9B6A1C030AD5274B22482D
:10F89800059302234FF4825104AA04930AF086F9CF
:10F8A80021201E4B9B6A59030AD5214B1A48059300
:10F8B80002234FF4825104AA04930AF077F9222014
:10F8C800164B9B6A9A030AD51A4B134805930223D1
:10F8D8004FF4825104AA04930AF068F923200F4BCD
:10F8E8009B6ADB030AD5144B0B48059302234FF49C
:10F8F800825104AA04930AF059F92420074A936A0A
:10F908006FEA03436FEA1343936206B010BD1D20EC
:10F918009AE700BF9ECA0200BCB9020000ED00E0F1
:10F92800B6CA0200C9CA0200E3CA02000DCB02002F
:10F938002BCB020050CB02006ACB02002DE9F04726
:10F948008AB07D4B0446D3F804908A4616460025B3
:10F9580000AFC9F3080885F31188BFF36F8F02F071
:10F968007F43B3F17F4F25D1D30723D4500603D467
:10F9780011070FD401250FE0704B4FF48251FB6142
:10F9880002236F48BB6107F118020AF00FF916F05D
:10F99800040600D0544600250023FB71A8F1030398
:10F9A800092B00F2A880DFE803F0079B9E97A6A624
:10F9B800A6A6A6A12C46EFE7E9464FF00208614B40
:10F9C80007F11802FB614FF482515D48C7F81880AF
:10F9D8000AF0ECF80023584EFB71F36A9A070BD52E
:10F9E800594BC7E906834FF48251554807F118026D
:10F9F8000AF0DCF8002338E0F36A002B01DA534BF5
:10FA0800EFE7F36A5B00F5D5514B07F11802C7E938
:10FA180006834FF482514A480AF0C8F87369A2690C
:10FA280043F480737361BFF34F8FBFF36F8F7369B4
:10FA380032F8022C23F480737361BFF34F8FBFF346
:10FA48006F8F4DF602739A4231D188B023686A46A7
:10FA580040493B48C2E9051303234FF4C25142F819
:10FA6800103F0AF0A3F8CD462368FA79DAB907F10E
:10FA7800080604F1200C324620686168083403C285
:10FA880064451646F7D17A6A002D50D0C2F30801B2
:10FA980021B96FEA52226FEA42227A62184607F1C8
:10FAA8000801FFF7B5FB2837BD46BDE8F087B36A04
:10FAB800DBB223B10120F91DFFF760FD0EE0B36A48
:10FAC80013F47F4F04D00120F91DFFF7F9FD05E07D
:10FAD800B36AB3F5803F8DD3FFF79CFE0346C4E7B6
:10FAE8000020F91DE8E70020F91DEEE71A4BFB613D
:10FAF8000223BB6177E7194A6E4619F4F87F8AB08A
:10FB0800174B18BF13466A4616490D48C2E9051334
:10FB1800A8F11003D3614FF400731384124B4FF410
:10FB2800115142F8103F0AF041F8B54662E722F455
:10FB3800FF7222F00102B0E700ED00E0C3CB020043
:10FB4800BCB90200E6CB0200FDCB02001ECC0200CD
:10FB58002CCC02004BCC020067CC0200AACB0200DE
:10FB680095CB02008BCC020004000001044B5A69BB
:10FB780042F010025A615A6942F480625A61704731
:10FB880000ED00E0EFF30880EFF3098101B572465C
:10FB9800FFF7D4FE01BD00BF002320210348C2188F
:10FBA8000133452B82F80013F9D1704700E100E0DA
:10FBB800002080F31488BFF36F8F002080F30A8839
:10FBC80080F30B88FDF77AFB00200E490860BFF32D
:10FBD8004F8F0D4880F3088800F03EF8202080F30E
:10FBE80011880A484FF40061401880F30988EFF340
:10FBF80014800221084380F31488BFF36F8FFFF746
:10FC0800B7FB000094ED00E0C8D5002088C80020AC
:10FC1800BFF34F8F0549064BCA6802F4E0621343ED
:10FC2800CB60BFF34F8F00BFFDE700BF00ED00E0E2
:10FC38000400FA05002318460649D1F89020C2F3BB
:10FC48000722934200DB7047C1F89830C1F8A00042
:10FC58000133F6E700ED00E010B572B6002484F336
:10FC68001388FFF7E7FF23464FF0FF300C4A03F1F4
:10FC780020010133102B42F82100F8D100234FF066
:10FC8800FF30074A03F160010133102B42F82100CD
:10FC9800F8D162B6BFF34F8FBFF36F8F10BD00BFAF
:10FCA80000E100E0084B9B6883420BD1EFF305832A
:10FCB80043B1064B5A6842F080525A605A6A22F49D
:10FCC80000425A6207F06EB904BD002000ED00E062
:10FCD8001FB5094C094A23460121094800F02AF9B1
:10FCE80000230393074B0121E41A01A8019302940E
:10FCF80000F02AF904B010BD0000072000A0002081
:10FD08009CBD020010A5002010B50C7A0B6804F009
:10FD18001F0223F01F031A43CB68640923F01F0353
:10FD2800054943EA440343F00103C1F89800C1F8C8
:10FD38009C20C1F8A03010BD00ED00E080B500AFF8
:10FD480088B06A46074BC2E90530032342F8103FE2
:10FD580000234FF4C2510448FDF740FD6FF0150031
:10FD6800BD4680BDA2CC0200B4B902002DE9F04F17
:10FD7800144606464FF0000987B05F4D00AF796022
:10FD88007B68994535DAD6F80480B8F1000F54D06D
:10FD9800B8F11F0F1BD918F01F0F18D1D6F800B0F3
:10FDA8001BF01F0F13D1584609F005FF824608EBD8
:10FDB8000B00013809F0FFFE82451FD06FF0150ACD
:10FDC8006C4688B06A464D49C2E9051A05E06C469A
:10FDD80088B06A464A4BC2E90539032342F8103F06
:10FDE80000234FF4C2514748FDF7F8FCA5466FF0D1
:10FDF800150420461C37BD46BDE8F08F1AF1160FD2
:10FE0800DED05445DCDDC5F898A0D5F89C00C5F8CF
:10FE180098A0D5F8A02020F01F0042F01F08D6E9CE
:10FE280000211144904201F1FF3B1ED1D84508D171
:10FE380031465FFA8AF009F0C7FE09F101090C366C
:10FE48009EE7C5F898A0D5F89C3021F01F0103F073
:10FE58001F030B433146C5F89C30E0B209F0B4FEED
:10FE680010F1160FC3D0441CE7E7013AD845E0B2B9
:10FE780022F01F02C5F898A008D1D5F8A030314665
:10FE880003F01F031343C5F8A030E7E7D5F8A01027
:10FE980001F01F010A43C5F8A020314609F094FE7D
:10FEA80010F1160FA3D0C5F898A0D5F89C203B7C7C
:10FEB80008F1FF3862F304033B74D5F8A0303A7CAC
:10FEC8005B0863F347123A74D6E900321344BB6007
:10FED80023F01F03441C4344A3EB0B03E0B223F0BD
:10FEE8001F0307287B6102D9FFF728FFB8E707F14E
:10FEF8000801FFF709FFB6E700ED00E0EBCC0200D0
:10FF0800C8CC0200B4B902000522044BC3F89420FF
:10FF1800BFF34F8FBFF36F8F704700BF00ED00E056
:10FF2800BFF35F8F0022024BC3F89420704700BFD5
:10FF380000ED00E010B5034C2278FFF717FF2070A2
:10FF480010BD00BF5EBD00202DE9F74F294D8A4640
:10FF580006464FF00008AB46274FD0451BDAD6F8C7
:10FF68000490B9F1000F3FD031680846019109F0BB
:10FF780022FE0199044609EB0100013809F01BFE35
:10FF880084424FF014021D4B08D002FB08F36FF0B7
:10FF980015024BF8032003B0BDE8F08F14F1160FDB
:10FFA8002C60F8D01978A142F5DD02FB08B0C7F83B
:10FFB8009840C7F89840D7F89C4000F10801007BAA
:10FFC80064F304000871D7F8A0000C79400860F3C6
:10FFD80047140C71D7F89C1021F01F016960D7F8FD
:10FFE800A01021F01F01296108F1010814350C3611
:08FFF800B3E700BF20AF0020B9
:020000022000DC
:1000000000ED00E05EBD002038B50E4D2C68082CD8
:1000100015D80020FFF788FF0B4B0C4AC3F8C0200F
:10002000844205D10A4B00201C70FFF771FF38BDD8
:10003000696801EB0011FFF76BFE0130F0E74FF04C
:10004000FF30F4E7A8BD020000ED00E0AAFF440085
:100050005EBD002008B5024B1B689847002008BD14
:1000600034AF0020034B044A1860937843F0020336
:100070009370704734AF002010A10020F0B587B016
:1000800007460E4614460021102268461D460BF016
:1000900008FA02238DF80230054B2A4621466846AD
:1000A000CDE90476019307F007FB07B0F0BD00BF70
:1000B000119C020008B5044808F0A8FC404080F3F9
:1000C00011884FF0020002DF0ECD020008B506498C
:1000D000064821F00701C1F1005202F5E02208F0C4
:1000E000F7FE002008BD00BF5BE40020C8D9002057
:1000F000F8B54220002106F01FFF144BD3F8302141
:10010000D3F83431072A1CD1023B032B02D8104A02
:10011000D35CB3B1012600244FF050270D4D0520CC
:10012000C7F81866C5F814460AF09EFA3046C5F8B6
:1001300014660AF099FAC5F81446C7F81846002064
:10014000F8BD0022034BC3F81426F8E700F007209F
:100150003BCD020000500040014601480AF0C5BDF9
:100160001CA40020014902480AF024BE60AF002010
:1001700070AA0020020600F07F0312D5082B05D1DB
:10018000010700F00F0306D50E48704710F0780FF6
:1001900012D100F00F034C2000EB43100A4B18441F
:1001A0007047082B05D1020700F00F0306D507485A
:1001B000704710F0780FF6D000207047044800EB2D
:1001C0004310704784B0002038AF0020A4B1002055
:1001D000A4B0002000220023014806F0F5B900BFBA
:1001E0001CA4002013B5002201213720FFF7AAF834
:1001F0003720FFF777F8124805F028F9114B98429D
:100200001AD10024104804F023F8104805F0EAFD44
:100210004FF0FF334FF480620D490E48009406F012
:1002200067FB0D490B480AF0D0FC0C480C490AF05A
:10023000A4FD204602B010BD6FF00400FAE700BF35
:10024000050502000000AD0B64CF0200D0BD020026
:1002500088C4002070AA002053CD020060AF0020A7
:1002600075060200002310B50B49D1E8EF2F012AD3
:1002700003D1C1E8E03F0028F7D10CD151F8044C7C
:100280001439204608F077FF783004D12046BDE8C5
:10029000104008F04BBF10BD58AF002038B5002407
:1002A00064F07F00C0B2FFF765FF013409F0BBFCCA
:1002B000082CF5D100240E4DE0B2FFF75BFF036977
:1002C00003B90561013409F0AEFC082C05F14005C5
:1002D000F2D1084809F0A7FC074BD3F87C2212B9E9
:1002E000064AC3F87C22064809F09DFC002038BD70
:1002F000C8B5002084B0002038AF0020C8B100206D
:10030000A4B1002010B5054CFFF764FF20B141688F
:1003100020460AF02EFCF7E710BD00BFC8A300205E
:1003200010B588B000220023174801A905F0A2FFEC
:1003300030B30224154B4FF48251154806AA079397
:10034000069409F083FCFFF7DDFF002200230E482E
:1003500001A905F08FFF50B10E4B4FF482510C48AC
:1003600006AACDE9064309F071FC00200AE0042347
:10037000019840600374FFF7EFFEFFF7F3FEF4E728
:100380000198406008B010BDC8A300205ECD0200F7
:1003900004BA02007CCD020010B50446FFF7C0FF8E
:1003A00060B1002204720274FFF7D6FE044B93F88A
:1003B00024301BB1BDE81040FFF7D4BE10BD00BF14
:1003C00038AF002090B5012883B002AF1FD00228BB
:1003D0001ED060B9002200230F48CDE9002345F666
:1003E0009A12002307F020F80437BD4690BD6C46F2
:1003F00088B002AA094B4FF4C251C2E90530032369
:10040000074842F8103F09F021FCA546ECE7002020
:10041000FFF7C2FFE8E700BF90A3002098CD0200DD
:1004200004BA02002DE9F04190F80280064600AFC0
:100430004046FFF79FFE18F0800F0546F47825D060
:100440009CB1032C1FD06D4688B06A462A4BC2F877
:100450001C80C2E9053404234FF40151274842F8B7
:10046000103F09F0F3FBAD460DE0FFF759FF0346DF
:1004700048B10122AC770274032202739D60FFF73A
:100480006BFEFFF76FFEBD46BDE8F08154B1012C55
:10049000D9D1FFF745FF03460028F4D06C770474E8
:1004A0000473EBE7FFF73CFF0028ECD0B278144B65
:1004B00012F0800F02F0080111D041B1D3F8A83634
:1004C000EB6001230374022385600373D7E71421D3
:1004D00002F00F0201FB0233D3F80836F0E711B146
:1004E000D3F8A837ECE7142102F00F0201FB023326
:1004F000D3F80837E4E700BFB3CD020004BA020026
:10050000006003402DE9F041064688B000AF142298
:10051000002107F10C000AF0C4FF3378013B052BE2
:1005200021D8DFE803F09B0313138D150323002468
:100530003B75FFF7F5FE0346A8B100F1080204740D
:10054000D7E9050182E80300184634E00423EEE70A
:1005500096F802804046FFF70DFE837A054633B1D8
:10056000013B022B68D92037BD46BDE8F08118F069
:10057000800FF47824D09CB1032CF4D06D4688B061
:100580006A46374BC2F81C80C2E9053404234FF495
:100590000151344842F8103F09F058FBAD46E2E7FC
:1005A000FFF7BEFE03460028DDD00122AC770274BF
:1005B000032202739D60FFF7CFFDFFF7D3FDD2E763
:1005C00054B1012CDAD1FFF7ABFE03460028CAD0A4
:1005D0006C7704740473EDE7FFF7A2FE044600286D
:1005E000C1D001230374022385600373B07805F141
:1005F0000C010AF05AFA70B16E4688B06A461A4B7E
:100600004FF4C251C2E905300323164842F8103FA7
:1006100009F01CFBB546154AE968B2F88C328B42EA
:1006200006D95B1AA2F88C3205F05EF92046C2E7C3
:100630000023A2F88C32F9E73046FFF7F3FE92E789
:10064000381D05F02FF97B79052B03D13B7913F089
:10065000600F88D0064B01247B616AE7022468E7BB
:10066000B3CD020004BA0200DFCD020038AF002093
:10067000A4B000202DE9F047814686B0AD4CDFF8EC
:10068000B8A200AFFFF7A6FD804618B91837BD46DF
:10069000BDE8F08794F8252098F8103042B9002B77
:1006A00000F0B280D8F80410A3480AF062FAE9E733
:1006B000042B00F29581DFE813F0A7000500260166
:1006C0005101780119F8043C8BB9D8F808306D460F
:1006D00088B05B7A6A4699499948C2E905130323B1
:1006E0004FF4C25142F8103F09F0B0FAAD4698F805
:1006F0000C30D8F80850032B37D8DFE803F0023E5F
:100700006D7200226E698F4B32607260D3F8801474
:100710003170D3F884147170D3F88814D3F88C0432
:1007200041EA00217180D3F89014D3F8940441EA8F
:100730000021B180D3F89814D3F89C3441EA032304
:10074000F3800823EB60306871687F4B03C3114668
:100750002B68687A984796F90030002B09DBF388FC
:100760003BB1A4F88C3205F0BFF85046D8F804101D
:100770009BE70023A4F88C32F7E76B7F002BF4D0C3
:100780002B7F002BF1D000264FF0FF324FF0FF33CC
:100790006E486E772E7709F05CFA6B6939463B60DC
:1007A0006B68C7E90136687A04F092FE684B98429C
:1007B0000ED06D4688B06A46664B4FF4C251C2E90E
:1007C000053003235E4842F8103F09F03FFAAD467A
:1007D0005E4809F040FAC8E701212B68687A98471B
:1007E000C3E7AB7A6BB9EB7F5BB958484FF0FF3288
:1007F0004FF0FF3309F02DFA05F0AAF8534809F03D
:100800002AFA02212B68E9E798F80830042BACD8C3
:10081000DFE803F055031F636F0004F0E1FD0546B8
:100820000028A2D104F082FD01234B49D1E8EF2F2B
:10083000002A03D1C1E8E03F0028F7D195D141F863
:10084000085C41F8105CE0691439636108F016FC3B
:100850008BE7002565F07F00C0B2FFF78BFC037AC1
:1008600013B1407A05F03AFA0135082DF2D194F827
:1008700054311BB194F8550105F030FA0025E8B267
:10088000FFF778FC037A13B1407A05F027FA0135B7
:10089000082DF4D194F874321BB194F8750205F068
:1008A0001DFA002004F07EFD012384F82530236822
:1008B000002B3FF45AAF00210220984755E700254E
:1008C00084F8255005F0B0F9FFF7CCFC2368002B25
:1008D0003FF44BAF29460420EFE7002A3FF445AF31
:1008E00004F088FD2368002B3FF43FAF0021052072
:1008F000E3E72368002B3FF438AF002A3FF435AF1D
:1009000000210620D9E709F110054FF0FF334FF021
:10091000FF32284609F09DF9FFF7C0FC284609F090
:100920009AF959F8283C002B3FF41FAF0021012011
:10093000C3E700BF38AF0020C8A30020FFCD0200EE
:1009400004BA0200006003403CAF002070AF0020FA
:100950000000AD0B25CE020058AF002094F8743291
:1009600093B1012584F8895284F88852FFF7D8FCA6
:1009700090B9234B4FF482517B61022321483B61A4
:1009800007F1100209F062F959F8283C002B3FF4F6
:10099000ECAE00210A2090E71B4A057405738260C3
:1009A000FFF7DAFBFFF7DEFBEEE7184B4FF482515F
:1009B0007B61022307F110023B61124809F046F9FE
:1009C00005F0F8F905F030F904F0A6FCFFF79AFC01
:1009D000FFF764FC05F0E6F90D4804F037FDC4E6C6
:1009E0006D4688B06A460B490648C2E905130323E1
:1009F0004FF4C25142F8103F09F028F9AD46B4E671
:100A00004BCE020004BA0200A4B100205FCE020067
:100A10000505020076CE020038B5154D95F8244044
:100A200024BB05F138000AF0EBF8022000F0CEFB01
:100A300022460121E8613620FEF784FC05F0B2F978
:100A4000FFF72CFC044610B9012385F82430094B2C
:100A50001B680BB1FFF786FB074BD3F80034DB07AD
:100A600002D50020FFF7AEFC204638BD0024FBE78E
:100A700038AF00201CA4002000700340074B93F8FF
:100A800024203AB193F82530002B14BF00206FF0DA
:100A9000120070476FF01200704700BF38AF00209F
:100AA0007FB5034602781B7902F00F007BB958B17D
:100AB000104B059302234FF48251049304AA0E486D
:100AC00009F0C4F84FF0FF3007B05DF804FB0828C8
:100AD00001D90A4BEDE7012B09D1130707D4084BC5
:100AE0004FF484510593022304AA0493E7E70020FE
:100AF000EAE700BF8ECE020004BA0200ADCE0200CB
:100B0000CCCE020030B5164B044693F8243087B0A3
:100B10001BB305782846FFF72DFBB0B1457223794A
:100B20008372638843602078618810F0080F10D1C9
:100B30004B1E0B420DD00B4B4FF4825105930223F9
:100B4000094804AA049309F081F86FF0150007B072
:100B500030BD09F0A5FF0020F9E76FF01200F6E7BD
:100B600038AF0020E2CE020004BA020030B5194BC3
:100B7000054693F8242087B042B393F825302BB371
:100B8000FFF7F8FA044618B96FF0150007B030BD4A
:100B9000837A012B0FD007D9023B012B07D9002004
:100BA0006369E060A361F1E704F0DAFEF7E7284645
:100BB00004F04AFEF3E7084B4FF4825105930223F9
:100BC000064804AA049309F041F8DDE76FF012002B
:100BD000DCE700BF38AF00200ACF020004BA0200F1
:100BE00038B50E4B054693F8242082B193F8253092
:100BF0006BB1FFF7BFFA68B115F008040AD12846B7
:100C000004F044FE284605F0BDF8204638BD6FF0DC
:100C10001200FBE76FF01500F8E700BF38AF0020C7
:100C200038B50C4B054693F824200C4662B193F876
:100C300025304BB1FFF79EFA48B144B1284604F085
:100C40000BFE2070002038BD6FF01200FBE76FF044
:100C50001500F8E738AF002070B5134E044696F83B
:100C60002430C3B1FFF786FA0546B8B1230705D48F
:100C7000204604F00BFE204605F084F82B7A83B959
:100C800001232B7296F825300BB9002070BD204649
:100C900005F024F8F9E76FF01200F7E76FF01500A0
:100CA000F4E76FF07700F1E738AF00202DE9F04767
:100CB00084B0DFF824911E4699F8243080468A4695
:100CC000154600AF002B00F0838099F82530002BEB
:100CD0007ED010F0800F14D0FFF74CFA044680B19C
:100CE000037AABB96C4688B06A463C4B4FF4C251AC
:100CF000C2E9053803233A4842F8103F08F0A6FF3E
:100D0000A5466FF0150420461037BD46BDE8F087B4
:100D10004FF0FF334FF0FF3209F1380008F099FF30
:100D2000A37F33B109F1380008F095FF6FF00A0492
:100D3000E9E7A37A55B3002B38D001234FF000091F
:100D4000A3774046391DC7E901A5C7F80C9004F008
:100D5000BFFB244B984237D084F81E900EB1C6F8E2
:100D600000906C4688B06A461F4B4FF4C251C2E9EE
:100D7000053003231A4842F8103F08F067FFA546E4
:100D80006FF00404194808F066FFBCE7E27F02B187
:100D9000E577002BD1D104F0EBFD8045CDD004F0F8
:100DA000D7FD124808F057FF0024ACE7B9F80A3025
:100DB0009D42F0D26268B5FBF2F302FB1353002BA5
:100DC000E9D10123E377E6E706B135600024D9E7EE
:100DD0006FF0120497E700BF38AF00202CCF02005D
:100DE00004BA02000000AD0B4BCF020070AF002030
:100DF0002DE9F8431D462D4B904693F8242081465B
:100E00000E4600AF002A4DD093F82530002B49D074
:100E100010F0800F19D111B9B8F1000F15D1484663
:100E2000FFF7A8F9044680B1037A8BB96C4688B005
:100E30006A461F4B4FF4C251C2E9053903231D48CE
:100E400042F8103F08F002FFA5466FF0150015E0CC
:100E50004FF0FF334FF0FF32174808F0FAFEE36817
:100E6000C146984528BF99465EB9B8F1000F08D130
:100E700005B12B60104808F0EEFE0020BD46BDE82D
:100E8000F8834A463046A1690AF0FEFAA3694B444A
:100E9000A361E368A3EB0903E360002DEAD0C5F882
:100EA0000090E7E76FF01200E8E700BF38AF0020DE
:100EB0002CCF020004BA020070AF0020F8B5274D15
:100EC000064695F8243000AF002B44D095F8253025
:100ED000002B40D0030614D4FFF74CF9044680B130
:100EE000037A93B96C4688B06A461D4B4FF4C251E1
:100EF000C2E9053603231B4842F8103F08F0A6FE5E
:100F0000A5466FF01500BD46F8BD4FF0FF334FF01A
:100F1000FF3205F1380008F09CFEE368B3B9012602
:100F200063692677A361637F83B1FFF7F9F930B96D
:100F300005F1380008F08FFE6FF00B00E3E7067450
:100F400084600673FFF708F9FFF70CF9064808F00C
:100F500082FE0020D7E76FF01200D4E738AF002000
:100F60002CCF020004BA020070AF002010B5084B6D
:100F70000C4693F824302BB1FFF7FCF828B104603D
:100F8000002010BD6FF01200FBE76FF01500F8E7CE
:100F900038AF0020014B1860704700BF38AF002009
:100FA00008B5074B93F8243023B1FFF7E3F820B1DD
:100FB000406808BD6FF01200FBE76FF01500F8E71E
:100FC00038AF0020084B70B5C31A0D4607499B1077
:100FD000044659434022064808F086FE2B46014647
:100FE0002046BDE870401847DCB70020B76DDBB67F
:100FF000C8B50200402373B50B4C0093041B0B468D
:101000000D460A49A41061430646094A094808F0FA
:1010100097FE011E05DA30462B4602B0BDE870404F
:10102000184702B070BD00BFDCB70020B76DDBB65B
:10103000AB9D0200C8B502002DE9F8430022012152
:1010400006460520FEF77EF9114802F0AFFB114B72
:10105000984219D102F0BAFB00244FF01C090C276A
:10106000DFF834803569414609FB045007F0F3FF8F
:10107000002807DB012307FB04551C44042CAB6745
:10108000F0D10020BDE8F8836FF00400FAE700BF5C
:10109000D11002000000AD0BD8BD020001460C23A8
:1010A00000224B4370B50848C41878331844D4E97B
:1010B0001C56226708F005FE2DB132462B46BDE8CE
:1010C00070400248184770BDDCB70020C8B5020068
:1010D000062812D8DFE800F0040F1111110D0B00E3
:1010E000064B986F10F0070007D1FFF7D7BF02201B
:1010F000FBE70320F9E70120F7E77047DCB70020A2
:1011000008B54FF02003EFF3118183F31288BFF38A
:101110006F8F114A136843F002001060DA0708D499
:1011200081F31188BFF36F8FBDE80840012002F002
:1011300069BB0A4BD3F80C24D3F80C34DB07EFD58A
:10114000074808F0BEFD81F31188BFF36F8FBDE83B
:1011500008400020FFF7A2BF7CB8002000500040EC
:1011600054B800201FB500220123CDE902236B46AD
:10117000084ACDF800D0CDF804D008F00FFE0028C2
:1011800005DB4FF480420023684605F075FA05B090
:101190005DF804FBE19D020010B54FF02003EFF372
:1011A000118483F31288BFF36F8F074A136823F00B
:1011B0000201DB07116002D4012009F06BFA84F30D
:1011C0001188BFF36F8F10BD7CB80020C3B21C2004
:1011D000014A03FB00207047DCB700202DE9F041F5
:1011E000012207463549D1E8EF3FC1E8E02F00284A
:1011F000F9D133B9324933484B60CB608A6007F08C
:101200003DFF7B1E012B28D8012F06D12E4BD3F892
:101210001C3403F00303022B1FD009F0D0FC054659
:10122000E8B92A4B1B78D3B102220646264BC3F8F5
:101230000823254CDFF89880D4F81824D4F8183403
:10124000D20316D503F00303022B01D0012F10D1D6
:1012500075B386F31188BFF36F8FBDE8F0814FF04F
:101260002003EFF3118683F31288BFF36F8F0125FC
:10127000DFE7C5B13046FDF7BDFFD4F81835DBB266
:10128000012BD9D1D4F80421002AD5D00022C4F8EA
:101290000421D4F804210222C4F818252022C8F819
:1012A0008021A360C8E70021212005F045FEE4E786
:1012B0000222054BC3F80423CFE700BFD8B70020B4
:1012C000C8B70020F8B700200050004086BD0020BD
:1012D00000E100E008B5074809F026FC38B10648EF
:1012E000FEF7C0FE0448FBF785FD002008BD6FF047
:1012F0001200FBE718B60200FD1202000A2838B5FA
:101300000446074D04D1AB680D2128465B68984719
:10131000AB6803485B68E1B29847204638BD00BF20
:1013200018B6020030B5406801F01F04057BB2F525
:10133000001F85B044EA451405D1204609F036FA6D
:10134000002005B030BD0025B2F5800FCDE9025573
:1013500014D1B3F1007F0CBF042305238DF80830AE
:1013600000232046194602AA02F018FD224B98429B
:101370003CD10121204602F0B1FEE1E7B3F1C06F9C
:1013800027D0B3F1007F14BF012302238DF808306A
:10139000836823FA01F111F00101E1D1B2F1A07FDC
:1013A000DED104F01F03620903F1800313D0012A88
:1013B0001FD1124A52F82330DB07D1D40DF10705B3
:1013C0002946204602F020FE0D4B984205D0039599
:1013D000C6E70323DAE70B4AECE7284602F078FE7B
:1013E000054B9842F3D06FF00B00AAE76FF01500A1
:1013F000A7E751F82330FFDE0000AD0B0028844042
:101400000400AD0B0025844010B502F051FE0446E7
:1014100068B902F011FE084B98420AD121460748EC
:1014200002F0ECFD224605212F20FDF78BFF002066
:1014300010BD6FF00400FBE70000AD0B411402008B
:101440004209034670B502D0012A17D070BD0D4E77
:10145000326951680029F9D0012503F01F030C6897
:101460009D400029F2D08A682A4002D030464B685D
:1014700098472CB1236821461C46F2E7024EE7E765
:101480002346F8E7F0B50200DCB502002DE9FF4184
:10149000476801F01F053B7B144645EA43150E469D
:1014A00028460DF1070102F0AFFD14F4403F8046DD
:1014B0000DD1284609F078F93C4B984503D19DF8A9
:1014C000070002F0FFFD002004B0BDE8F08100231A
:1014D0002846194602AACDE9023302F05FFC334BDD
:1014E000984214D1804503D19DF8070002F0EAFD2F
:1014F000A3034CD540F206332340B3F5837F1AD0C3
:101500000DD8062B18D005D8B3B1022B32D06FF00E
:101510001500D9E7B3F5807FF9D101230CE040F243
:101520000222934228D0B3F5407F27D0B3F5007F45
:10153000EDD1022300E007238DF8083084F48033D6
:10154000C3F30043E0068DF809304CBF0323C4F316
:10155000401321038DF80A3012D501237A68B34075
:1015600093600022284602A902F0CEFC0F4B98425D
:10157000A9D0CCE70423DFE70523DDE70323DBE77E
:10158000620341BF01237A68B340D360E9E7E30611
:101590004FF000034CBF0324C4F340141A462846FE
:1015A00002A98DF8084002F0F9FBDFE70000AD0B5F
:1015B000082230B50C4685B005460B490DEB0200FC
:1015C00008F032F9082C28BF0824039B22461BBAD6
:1015D0000093029B69461BBA2846019309F054FF09
:1015E000204605B030BD00BF0402FF00F8B54468D6
:1015F00000AFE369054606699847206A08F057FC82
:1016000000281FDB33462046124A04F1080103F08C
:10161000F1F9114B984217D06C4688B02B686A4696
:101620000E49C2E905134FF4007393830C4B42F843
:10163000103F0C4800234FF4E251FCF7D3F86FF051
:101640000400A546BD46F8BD204603F02FFA002051
:10165000F8E700BFA51602000000AD0BCCCF0200DA
:10166000030000018CB9020070B54468236820466D
:10167000D3F80855D3F80C6503F028FA314628460C
:1016800004F002FC0546206A08F011FC204603F035
:101690000DFA034B9D4214BF6FF00F00002070BD88
:1016A0000000AD0B0378012B08D0022B08D04BB9FA
:1016B000054B0B6201F1100004F0BABF034BF8E7D1
:1016C000034BF6E7034BF4E70000AD0B0100AE0B54
:1016D0000200AE0B0100AD0B7FB511F001034268B3
:1016E00022D1C1F3420102290CD003290ED00129D5
:1016F00010D113684FF0CC720020C3F8242507B036
:101700005DF804FB13684FF0C862F5E713684FF00B
:101710007F62F1E7064A0592022204924FF4825159
:10172000044804AAFCF75EF86FF01500E7E700BF75
:10173000ECCF02008CB902002DE9F04F8DB01D46B0
:10174000436800AFD0F810903B611B8BFA60804675
:101750000C461422002107F11C00D9F824A07B615B
:1017600009F09FFE7D774FF0FF324FF0FF33484680
:1017700004F082FF09F11003BB6000260022002361
:1017800009F1100004F078FF3546FB689E4201D352
:10179000002440E0207A020700F1BF80FB6806F1D8
:1017A000010B9B4521680AD2830708D4237D80EA78
:1017B000030202F0010203F004031A4307D025B923
:1017C00001F06043B3F1005F3BD0002300E0012350
:1017D0006268D7F814E005EB020CF44523D96C4697
:1017E0008CB0D8F800106B46DA617A694C48C3E9CE
:1017F000082140F203521A851A46C3E90505494BF0
:1018000042F8103F00234FF451514748FBF7EAFFDD
:10181000A5466FF01B04484604F00AFF2046343703
:10182000BD46BDE8F08FC00705D40AEB05007B601C
:1018300009F02AFE7B6862682A4495B2002B58D1D1
:10184000DDB900252368BB626368227A3B6202F03F
:10185000010382F00202C2F340023869520107F12B
:101860001C013B7703F050F9304B984209D00B3301
:10187000984221D16FF00F04CDE72B46C7F828A07E
:10188000E3E700234FF48042B86804F0F5FE034616
:10189000A8B16C4688B06A46254BC2E905360323D9
:1018A00042F8103F204800234FF4C251FBF79AFF43
:1018B0004046A546FFF7D8FE6FF00404ABE7D9F821
:1018C00020101A4A914210D06C4688B06A461948D6
:1018D000D661C2E90501042142F8101F4FF40151FD
:1018E0001148FBF77FFFA546E6E7237ADB0703D421
:1018F00000255E460C3448E7BB6A9A45F8D1264677
:1019000006E0A91A8DB2F0681AFA81F109F0BCFD5F
:1019100072680C3E9542F4D2EAE76FF085047AE7EC
:10192000FECF0200060000018CB902000000AD0BE2
:10193000C9D00200F3D0020010B504460269A8B075
:10194000C2F880002549002002F01AFC0022012183
:101950002A20FDF7F7FC64688422002107A809F01B
:10196000A0FD6368B3F5803F0AD31D4B05930223A6
:10197000049300234FF484511A4804AAFBF732FF62
:101980002368B3F5803F0AD3174B059302230493D2
:1019900000234FF48451134804AAFBF723FF0023CC
:1019A0000120279307AA61680432D940C90744BFC0
:1019B00000FA03F142F8041C2168D940C90748BF66
:1019C00000FA03F103F1010348BFD163102BEAD100
:1019D00007A802F0EDFB002028B010BDE11A0200BC
:1019E0002FD10200ACB902005BD1020030B50F2943
:1019F0000C46056987B042D843681B68CB40DB07BB
:101A00003DD5D5F88430CB4003F001031AB913BBA0
:101A10006FF0770031E0002BFAD155F821304BB947
:101A2000184A0592022204924FF48451164804AADF
:101A3000FBF7D8FED5F8843013B92A20FDF752FC05
:101A40000122D5F88430A2401343C5F88430E0B2B7
:101A500002F0CEFB0AE0C8B202F0D2FB0122D5F8B8
:101A60008430A24023EA0203C5F88430D5F88430DC
:101A700013B92A20FDF744FC002007B030BD6FF0F9
:101A80001500FAE787D10200ACB9020030B505466F
:101A90000C4687B052B1104B0593022304930023E8
:101AA0004FF484510D4804AAFBF79CFE0F2C0FD86D
:101AB0006B685B68E340DB070AD501230020A400C4
:101AC000E4B204F1804404F52834236007B030BD4B
