:020000021000EC
:10020000F82B0020590901002D0A0100393E010098
:10021000533E01006D3E0100A13E0100873E0100FA
:100220000000000000000000000000004924010060
:100230002D0A010000000000F52301002D0A010035
:100240002D0A01002D0A0100000000004D280100C8
:10025000000000002D0A0100000000000000000066
:100260002D0A01002D0A01002D0A01002D0A0100AE
:100270002D0A01002D0A01002D0A01002D0A01009E
:100280002D0A01002D0A01000000000000000000FE
:100290002D0A01002D0A01000000000000000000EE
:1002A0002D0A01002D0A01002D0A01002D0A01006E
:1002B0002D0A01002D0A01002D0A01002D0A01005E
:1002C0002D0A01002D0A01002D0A01002D0A01004E
:1002D0002D0A0100000000002D0A010000000000AE
:1002E0002D0A0100000000002D0A01002D0A010066
:1002F000000000002D0A0100000000002D0A01008E
:100300000000000000000000000000002D0A0100B5
:100310002D0A0100000000002D0A01002D0A010035
:10032000000000002D0A0100000000000000000095
:1003300000000000000000000000000000000000BD
:1003400000000000000000000000000000000000AD
:040350002D0A010071
:10035400407C0100203E00204A000000A03C010037
:10036400402C002000000000A03C0100202C0020B4
:040374000000000085
:10037800603F0020C7060000402C002078040000E1
:10038800202C002008000000002C0020080000009D
:1003980000015F5F00000000FE0F0000DD24010087
:1003A8000004000000000000000000000000000041
:1003B8000000000000000000804000200000000055
:1003C80001015F5F030100001F01000081040100BB
:1003D800000800000000000001000000010000000B
:1003E800000000000000000088300020000000002D
:1003F800700000007470010080000000000F000011
:1004080001000000410501000100000001015F5FDB
:10041800040100001F010000490801000005000058
:1004280000000000000000000100000000000000C3
:100438000000000088380020000000007F700100E4
:10044800400000000507000001000000350701001A
:04045800010000009F
:1004600038B50025054C29462046D4F80024C4F8A8
:10047000045403F07BFDC4F8005438BD402C002028
:1004800008B500F015F940B900F03CF900F048F962
:1004900018B9BDE8084003F08BBF08BD13B511467D
:1004A0000022CDE9002242680346302A04683ED18A
:1004B00094F82C20022A18D01AB900F01BF902B0C7
:1004C00010BD1E482468D0F80404013ACDE900406C
:1004D000072A2FD8DFE802F004090D12171C212685
:1004E0006A46184600F003F9E9E7184600F0EDF80F
:1004F000E5E76A46184600F0EBF8E0E76A4618467A
:1005000000F0E0F8DBE76A46184600F0E4F8D6E7CA
:100510006A46184600F0E2F8D1E76A46184600F04D
:10052000E0F8CCE76A46184600F0DEF8C7E76FF05F
:100530008000C4E76FF08500C1E700BF402C0020B9
:100540002DE9F04F056804469FB0002D40F0AA80C9
:100550002022294602A803F009FD12AF20222946D5
:100560000AA803F003FD30222946384603F0FEFCBA
:10057000A26904F118039846B2B10426A26A04F1F4
:100580002803EAB10425EEB96FF0830630461FB0A8
:10059000BDE8F08F002EF1D053F8041D3246013E25
:1005A0000029F7D01646E9E70326F5E7002DEAD043
:1005B00053F8041D2A46013D0029F7D01546E2E70D
:1005C0000325F5E730233A460021606803F018FD63
:1005D0003028D9D14FF00109CDE90270334F0DF128
:1005E000080A04F10C0B4E45D7F800141CD10DF18C
:1005F00028094B46002008EB850EC64533D108B1CB
:10060000C7F80014A3683146C7F804340AAA2B4679
:1006100002A8FFF743FF00270646BD4209F108097B
:1006200038D1FFF71DFFB1E75BF8043FC1F58062E9
:10063000D81C20F00300904204D9FFF711FF6FF09F
:100640008C06A3E70844CA19C7F800044946606845
:10065000019203F0D5FC019ACAF80C0009F10109D6
:100660004AF8082FBFE758F804CFC1F5806A0CF1AB
:10067000030222F00302524503F1080305D878185B
:1006800043E9020C11440120B7E70028D5D0C7F890
:100690000014D2E7394659E90223606803F0BAFC36
:1006A0000137BAE76FF0850670E700BF402C0020E5
:1006B00008B528220021024803F058FC002008BD9C
:1006C000483000206FF0850070476FF0850070475C
:1006D0006FF0850070476FF0850070476FF0850000
:1006E00070476FF0850070476FF0850070476FF0BE
:1006F00085007047D1E9000103F03ABEC0E900214E
:100700007047000010B5044C0F222046034903F047
:1007100008FC204610BD00BF713000202C090100EC
:1007200008B50121024803F0BDFD002008BD00BF4F
:1007300070300020F0B503680546B3F57D7FA7B0A3
:1007400007D040F2F532934207D06FF0850027B012
:10075000F0BD01F003FD0020F9E700243C22214612
:1007600007A8CDE90244CDE90444069403F0FEFB5A
:100770003C22214617A8169403F0F8FBAA690194BD
:1007800005F1180302B30426AA6A05F128033AB357
:100790000424731E012B52D8012C50D804230021AD
:1007A00068680DEB030203F02BFC04281AD06FF0ED
:1007B0008000CCE7002EE7D053F8041D3246013EFE
:1007C0000029F7D01646DFE70326F5E7002CE0D036
:1007D00053F8041D2246013C0029F7D01446D8E7FF
:1007E0000324F5E7022E16D12E69402E29D806AF34
:1007F00033463A460121686803F002FC8642D6D1AE
:10080000CDE9027602A944B92246019801F0B8FC6C
:10081000044620469BE70021F5E7EB69402BC6D84C
:1008200016AACDE90423019804AA01F0A9FCDDE988
:10083000042304460021686803F0ECFBE9E701208B
:1008400085E76FF0890082E7002070472DE9F04FBF
:1008500000259BB004A8049503F0F6FB4FF01808A0
:100860000646DFF8C090304FB54201D1002024E0A9
:1008700008FB05FA049B03EB0A02116949454FD1B5
:100880000021946808A853F80A20FFF737FF2022B8
:10089000002112A803F06AFB0DF10E02049B0192E5
:1008A00007AA53440092D3F814B0202106AB05AA3E
:1008B0000AA8D84720B16FF092001BB0BDE8F08FB6
:1008C0004FF6F8714FF6FF72099B1593069B8B420A
:1008D00088BF1346ADF84A30079B089A1793BDF8B6
:1008E0000E30ADF84830049B53441B69139313F04A
:1008F000FF0308BF1A4648235C4304F124000DEBB4
:1009000003013C4414923844202203F00AFB2046A1
:10091000059A0AA903F005FB059B23620123636482
:100920000135A1E701010080883D00206D6265640A
:1009300020544C5320332E332E3000000000000092
:0809400070340000010000000A
:1009500001F0A8BC0000000008B572B6002383F3C4
:100960001488BFF36F8F83F30A8883F30B88BFF378
:100970005F8F254B5A6A22F480325A62D3F8942052
:1009800022F00102C3F89420BFF34F8FBFF36F8FA3
:100990001E4A9A6000F056F81D4B83F309881D4BE0
:1009A00083F30A8883F30B881B4B15A1D1E900015F
:1009B000C3E9000100F0C0F8184B19498B4212D36B
:1009C0000020184B18498B4218D303F0F5F918682A
:1009D00050F82240586840F822400132986882421C
:1009E000F5D30C33EAE70022F8E71C6844F822004C
:1009F00001325C68A242F8D30833E4E70022F8E74A
:100A0000A5EDF5FEA5EDF5FE00ED00E0000201000C
:100A1000F82B002000240020F82B002054030100B4
:100A20007803010078030100980301007046EFF39A
:100A30000881EFF30982052300F066F9FFF788FFCC
:100A4000FEE7000038B572B6002383F3138883F302
:100A500011884FF0FF30274A03F120010133102B9A
:100A600042F82100F8D100234FF0FF34214A03F16E
:100A700060010133102B42F82140F8D101220025FA
:100A80001D4B29465A60C3F84843C3F8084303F591
:100A900080535A60C3F84843C3F80843A3F5504352
:100AA000C3F800558022C3F80843144803F05EFAE7
:100AB00029468022124803F059FA124B2946C3F8FE
:100AC00000558022C3F808430F4803F04FFA8022F4
:100AD00029460E4803F04AFA0D4BC3F808454FF07B
:100AE0005023C3F8084362B6BFF34F8FBFF36F8F35
:100AF00038BD00BF00E100E00040015080800050A0
:100B000080810050009000508090005080910050F3
:100B1000007001504FF47F03D3F83021D3F8343103
:100B2000072A05D1023B032B02D8024AD05C70474A
:100B300000207047D03A0100694A08B5D2F8D03099
:100B400043F00203C2F8D030FFF7E4FF58B1654B21
:100B5000D3F8202A3AB90D21C3F8201A0121C3F88D
:100B60001C19C3F81C290022D30003F57F03D3F816
:100B70000013013107D0D3F800130132D3F8043346
:100B8000202A0B60F0D1FFF7C5FF002840F0A080BD
:100B9000FFF7C0FF40B1544B544AC3F830254FF023
:100BA00050230122C3F858254FF47F03D3F8302196
:100BB000D3F83431072A09D1023B032B06D84C4A1B
:100BC000D35C1BB100224B4BC3F84C25FFF7A2FFAF
:100BD00050B14FF05023D3F80024D10742BF002278
:100BE000C3F81421C3F818214FF47F03D3F8302140
:100BF000D3F83431072A09D14FF05023D3F8002419
:100C0000D20744BF6FF00102C3F80024FFF782FF50
:100C100018B16522334BC3F80C274FF47F03D3F888
:100C20003021D3F83431072A16D1324BD3F820348F
:100C3000002B11DA4FF050230322C3F818250122AC
:100C40009A60D3F80421002AFBD00022C3F80421C3
:100C50000122DA60C3F818254FF47F03D3F830215E
:100C6000D3F83431072A23D1023B032B02D8224A7E
:100C7000D35CEBB17E221B4B1B49C3F80C27C3F896
:100C80003C297F231D4AC2F818310023C1F8043ED5
:100C9000C1F8083E01F54821C1F81031C2F82431ED
:100CA000C2F82C3102F5FF1202F58052C2F8A032D0
:100CB0000B4AD2F88C3043F44063C2F88C30104AAF
:100CC000104B1168C3F84415D269C3F84C2508BD10
:100CD0002922044BC3F80C270322C3F83C2757E70B
:100CE00000ED00E000400050009003504400EFBED3
:100CF000CC3A010000200350C83A01000020005007
:100D00000080FF000060005070B50E461D46114681
:100D1000EFF303832B4CC4E900062363C0F3801375
:100D200000F00C000C28A2602ED10BB9EFF38981E2
:100D300020222548E16003F0F4F8244A936A6363B3
:100D4000D16AA163906BE06303F400402064506BB0
:100D5000606403F08000A0649362D162D2F8E43052
:100D60001B48E364D2F8E810216503F04001616597
:100D70000E21C2F8E43000F03BF8052D1FD8DFE863
:100D800005F0090F1215181B13B9EFF38881CFE78F
:100D90003146CDE70E210F48BDE8704000F028B87D
:100DA0000C210D48F8E712210C48F5E70B210C48FF
:100DB000F2E70D210B48EFE715210B48ECE70A217C
:100DC0000A48E9E7804400209044002000ED00E05C
:100DD000D43A0100E23A0100F03A0100FC3A010085
:100DE0000E3B0100193B0100263B01003B3B01008B
:100DF00000F000B837B5084C6369984748B9E56A10
:100E0000A847C307FCD4236A019303B0BDE8304070
:100E10001847002003B030BD483B010010B5094C15
:100E20000020A3689847236902209847A46A4FF4DA
:100E3000E1310120A0472346BDE8104001211520E3
:100E4000184700BF483B0100064B82B018680023DA
:100E500082B262F30F03000C60F31F43184602B026
:100E6000704700BF903B0100012070476FF0030006
:100E70007047002382B00193019802B070476FF071
:100E800003007047002382B00193019802B07047BD
:100E9000022814BF6FF0030000207047014B18694F
:100EA000704700BF283E0020014B5869704700BFC3
:100EB000283E002010B5044C204600F033FF0020EF
:100EC00084F8240010BD00BF283E002038B50C4D2A
:100ED0000C4695F8243013B94FF0FF3038BD0A4660
:100EE0000146284600F0A2FF064B984205D00B3B76
:100EF0009842F1D100206C61F0E76FF00100EDE75E
:100F0000283E00200B00AD0BF0B51B4E054696F8B1
:100F100024300C4691B01BB94FF0FF3011B0F0BD3A
:100F200000F06043B3F1005F21D100230A4601467F
:100F3000304600F00BFC114B98421AD00B3B984204
:100F4000EAD1346111E0A71B402F28BF4027A9191F
:100F50003A46684602F0E5FF39466846FFF7D4FF97
:100F60000028DBD14036B442EDD80020D6E7002679
:100F7000F9E76FF00100D1E7283E00200B00AD0B30
:100F8000FFF7C2BFC3B2012B30B540F0A2804DF6CF
:100F9000C023994276D028D8B1F5615F75D011D8B9
:100FA000B1F5965F73D008D8B1F5966F71D0B1F5F1
:100FB000166F71D06FF0070063E0B1F5165FF9D1DD
:100FC0004B4B33E047F61223994268D007D8B1F56E
:100FD000964F67D0B1F5E14FECD1464B26E0B1F525
:100FE000164FE7D14FF41D0320E0434B99425BD0ED
:100FF00011D8B1F5E13F5AD007D8B1F5614F59D0BA
:10100000B1F5963FD6D13D4B10E0B1F5613FD1D15E
:101010004FF06C730AE0B1F5612F4ED0384B994216
:101020004ED0B1F5E12FC5D14FF0E86310F4E06F79
:1010300052D110F4404403D0B4F5804F4FD1102466
:10104000304900F44052B2F5805F8D8B3BD0B2F551
:10105000005F3BD0002A45D110F4403003D0B0F5FA
:10106000403F42D101204A7622432A430876024378
:1010700000200B628C768D830968C1F82435C1F895
:101080006C2530BD4FF46503D0E71F4BCEE71F4BF7
:10109000CCE74FF49E23C9E74FF41D23C6E74FF476
:1010A0000003C3E71A4BC1E74FF08063BEE74FF080
:1010B000EB73BBE74FF46B03B8E74FF07063B5E732
:1010C0004FF08053B2E700250E22C5E74FF480753C
:1010D000FAE76FF00300D4E76FF00800D1E76FF094
:1010E0000A00CEE76FF00900CBE76FF00B00C8E70E
:1010F0000050270000C0750090D0030000903A0116
:1011000040420F00283E002000F03A0000B01300DB
:1011100000A04E0030B501EB8202914200D130BDFB
:1011200051F8044B04F07F037F2B4FEA144408BFAF
:101130004FF0FF33032CF0D8DFE804F00204060878
:101140000360EAE74360E8E78360E6E7C360E4E75B
:1011500010B58EB02822002104A802F007FF4FF03E
:10116000FF33CDE90033CDE902334FF0EB7368462E
:101170000A930723104C8DF83530D4E90212FFF79B
:10118000C9FF01460022204600F036FA0B4B984278
:101190000ED1DDE90B0100230A9AA061226201222F
:1011A0001846C4E90433A18384F824200EB010BD8E
:1011B0006FF00100FAE700BF283E00200000AD0BF1
:1011C000036803F01F025B09026004D0012B03488F
:1011D00018BF002070470248704700BF00288450A5
:1011E000002584500346D0F8580130B931B9D3F8FE
:1011F0002001003818BF012070470120704730B52A
:1012000004460D4685B010220021684602F0AEFE6D
:10121000D4E9001368468DF80050984705B030BDFA
:101220007FB504460E46154600211022684602F09E
:101230009DFE012368468DF80030CDE90165D4E9B3
:101240000013984704B070BD10B5044600F028FEA6
:10125000D4F8583133B1D4F8043313F4800308BF01
:10126000C4F80035BDE8104000F022BE30B5154688
:10127000D0F8002285B022F02002C0F80022114AE6
:101280000C46C0F80823FFF7DFFF002104F14C03F0
:10129000A1602161D3E8EF0F20F47F0020F47040BB
:1012A000C3E8E20F002AF5D11022684602F05EFE84
:1012B000042368468DF800300195D4E9001398475F
:1012C00005B030BD10020A00044B054A1B68B3FB91
:1012D000F2F35843034B43F001031847243E002028
:1012E00040420F00A03B010070B50D4604460522A8
:1012F000AA21D0F83C65A86902F038FE0522AB6946
:10130000C4F83435C4F838250022C4F81021D4F8C4
:1013100010110121E162D4F810110029FBD0C4F8AA
:101320004C21D4F84C11C4F81021D4F81021D4F871
:101330003C259642EA6109D15A1E043312F8011F76
:10134000AA2903D19A42F9D10023EB6170BD0000B4
:1013500007B5019001A8FFF733FF019B00EB830065
:10136000D0F80022034B1340C0F8003203B05DF800
:1013700004FB00BFF0F0FCFFD0F8583133B1CB6C68
:10138000C3F30032DB0458BFC0F8002570470000EB
:1013900007B5019001A8FFF713FF019B00EB830045
:1013A000D0F80022044B134043F00303C0F800328E
:1013B00003B05DF804FB00BFF0F0FCFF07B501903F
:1013C00001A8FFF7FDFE019B00EB8300D0F800228F
:1013D000044B134043F00203C0F8003203B05DF841
:1013E00004FB00BFF0F0FCFF70B5CE6C0D4606F0BC
:1013F00001010446FFF7F6FE38B94FF4800346F0CA
:101400000406EE64C4F8043370BDD5E90A365AB157
:10141000296CEA6B761A964228BF16461944324662
:10142000A86B02F07EFDAB6B4FF0FF326A641BB11C
:10143000C4F84435C4F848650023C4F82031D4F812
:101440002021C4F85831D4F85821C4F85031D4F8C8
:1014500050310823C4F800354FF48003C4F8043336
:101460000123A360D0E700002DE9F3470C4694F870
:101470003330054690F804800968002B36D150239C
:101480005A4F03FB0873DE6C46F00072DA644A1CA4
:101490000AD001A80191FFF793FE0123019A93401E
:1014A00083600846FFF774FF6068431C01D0FFF7B4
:1014B0004FFF94F82C30012B18D1502303FB0873F5
:1014C000E06846F02066421CDE6401D0FFF740FF72
:1014D000A668731C0AD001A80196FFF771FE0123CC
:1014E000019A934083603046FFF752FF94F83270C0
:1014F0003FB950223D4B02FB0833DA6C42F0807258
:10150000DA6494F82C6094F82D0094F82E90228ED2
:101510002B68D4F828A0324340EA09000243D4F8EB
:101520000CC0D4E9018EC3F824A5C3F86C254FB9CB
:10153000012EC3F80C15C3F8148504BFC3F808E5E1
:10154000C3F810C5D3F8682503F26457012A08BF11
:10155000DA60D3F86425012A0FD1082149F6404604
:10156000C3F800155A603B68A3BB2B68D3F88024EE
:10157000C3F880240022C3F8002500212B6894F8CA
:101580003520C3F81011D3F81001C3F82011D3F897
:101590002001C3F82411D3F82401C3F84411D3F86F
:1015A0004401C3F85811D3F8581143F307335201DB
:1015B000002BD2B214DB0E49C81880F80023012298
:1015C000580903F01F0302FA03F341F8203002B078
:1015D000BDE8F0870120FFF777FE013EC3D1C4E7E5
:1015E000044903F00F03CA54F1E700BFD8440020B8
:1015F00000E100E014ED00E02DE9F347144650222D
:1016000007794D4D02FB07FA05EB0A090E4699F8DA
:1016100048108046002940F08180484602F0A6FC30
:101620003369B26945F80A307369C9F8383002B1D4
:10163000013A502303FB0753DA63326A042A81BF5D
:10164000F2699A610022DA6196F8343033B150239E
:1016500003FB0753DA6C42F00102DA64502303FB08
:10166000075501236C6085F84830D8F80050D5F84C
:101670004C21FAB931464046FFF7F6FE0822002316
:10168000D8F800508DF80730C5F800250DF1070295
:10169000C5F84425C5F8483501230A27AB60EB603F
:1016A000D5F85831002B3BD10120FFF70DFE013F4B
:1016B000F6D120E008226427C5F800256B60D5F834
:1016C0004431E3B9D5F82431CBB90A20FFF7FCFD4A
:1016D000013FF4D10023C5F84C31D5F84C21C5F8B1
:1016E0001031D5F81021C5F84431D5F84421C5F89A
:1016F0000035002FBED1114802B0BDE8F0870127A8
:10170000E8E796F834400E4B84F001042402D8F840
:10171000002023430B48C2F80433EDE70A48EBE707
:101720000023C5F82031D5F82021C5F80035002C5C
:10173000E7D12346EBE700BFD84400200100AD0B02
:1017400010020A000000AD0B0500AD0B2DE9F04FB3
:101750004FF0500B90F804A081460D4616460BFB47
:101760000AFB85B0002A00F0EF807A4FD0F80080A5
:1017700007EB0B04626862B1990700F0C08013F0B8
:10178000020304D0A36B002B00F0AA800123009376
:1017900000E000924FF0500808FB0A7ADAF84C306B
:1017A000DA0600F19D80AB19029305F060430393C4
:1017B00028E00123019334E0A260019300F078FB5C
:1017C00008FB0672D16C019B01F0010120460193D8
:1017D000FFF708FD8446019BD4F84C05D4F8442556
:1017E000BCF1000F6ED19342F0D008FB06760029C1
:1017F0007BD000F055FB31462046FFF7BDFD4DE0A4
:1018000000F056FB99F80460D9F8004008FB067315
:101810009A6B002ACDD1039BB3F1005F40F0968014
:10182000019200F03DFB08FB0672D16C204601F0EE
:101830000101FFF7D7FC0028E2D0516C2B460029AC
:10184000BCBFD4F84C155164019A42B108FB067232
:101850002878D2E90E13C854D2E90E32134423B1CA
:101860000122C4F84435C4F848250022C4F82021D8
:10187000D4F82011C4F85821D4F85811C4F85021D4
:10188000D4F8502108220099C4F80025012200292B
:1018900092D04FF48003C4F80433A26000F008FB38
:1018A000DAF8043023BBDAF84C301B0720D52A4B7A
:1018B0005B44D3E8EF1F21F00801C3E8E21F002AD0
:1018C0000ED0F6E7934208FB067690D100288ED121
:1018D00000F0E6FA31462046FFF74EFD00F0E8FA48
:1018E0001E4C204605B0BDE8F08F0123E36080E781
:1018F000029B01359D427FF458AF194CF1E705F08A
:101900006043B3F1005F17D0A36B0BB300F0C8FACC
:10191000E36A1BB1134C00F0CBFAE2E70122E36C5F
:10192000C4E90A5643F00203E364404607EB0B01A7
:10193000FFF75AFD0A4CEEE700F0B2FAE26A002A1D
:10194000E8D1C4E90A56F0E7074CCAE7074CC8E7F4
:10195000074CC6E7D8440020244500200800AD0B02
:101960000000AD0B0B00AD0B0600AD0B0400AD0B82
:101970000A00AD0B2DE9F843502590F80480254B63
:1019800005FB08F50468EA18D2E8EF6F46F0080690
:10199000C2E8E06F0028F7D1012219B9E2601E48C1
:1019A000BDE8F8831D49D4F80473C4F80813E26055
:1019B0005959A3F14C0601F0010949462046FFF7A9
:1019C00011FC0028FAD000F06BFAB9F1000F1CD11D
:1019D000D4F820314BB10123E360D4F85831002B07
:1019E000FBD020467119FFF7C7FC00F061FA002315
:1019F000C4F82031D4F82021502202FB086607F4F5
:101A00008077C4F80473F362C9E7D4F85831002B27
:101A1000E7D1EAE7244500200000AD0B00014000BB
:101A200050222DE9F04107793A4E7A43046802F1D9
:101A30004C053544D5E8EF3F43F48050C5E8EC0F42
:101A4000BCF1000FF6D1DB0460D4480703D5B3180E
:101A50009B69002B5CD0304BC4F808330823C4F8D2
:101A600000350023C4F81031D4F81001C4F84C310B
:101A7000D4F84C01C4F844310803D4F844318B0342
:101A800003F4804300F400504903034301F4004190
:101A90000B43D5E8EF1F1943C5E8E01F0028F8D134
:101AA0004FF0500808FB0768D8F80830BBB9D8F8E1
:101AB000043063B9D5E8EF3F23F47F0323F4704388
:101AC000C5E8E23F002AF5D11448BDE8F0810321C2
:101AD000B018FFF794FBD8F80830002BEAD0502359
:101AE00003FB0763DB6CDB0401D40D48EDE7D4F89E
:101AF0004C310BB901232360502303FB07635B6860
:101B0000002BF2D0044BC4F80433EEE70548DCE7C1
:101B10000548DAE7D844002010020A000200AD0BA5
:101B20000000AD0B0B00AD0B0800AD0B2DE9F0472D
:101B300088460568444BD5F80413164611EA030994
:101B400090F804A008F0604238D0B2F1005FC5F808
:101B5000083373D150233D4F03FB0A739A6892BB3D
:101B6000502404FB0A74E269C4E90286002A3CD0CE
:101B7000964232D200273246A1694046C4E9027734
:101B800002F0CFF9E269A069921B8119E26102F0CB
:101B900092F9636863B1414632462046FFF740FB45
:101BA000E36C990404D53A4621462846FFF75EFBCC
:101BB0002748B9F1000F42D1BDE8F087B2F1005FCC
:101BC000C8D02448F8E75B680BBBD5F81021F2B108
:101BD000C5F81031D5F81031C2E74046A16902F0CE
:101BE000A0F9E36963620023E361502303FB0A73F6
:101BF000586ADA689968DB6C121A0144C5F8341522
:101C0000C5F83825DA04D3D501232B60D0E750235B
:101C100003FB0A773B697BB9FB6CC5F834855B0431
:101C2000C7E90486C5F83865C2D5D5F8003243F057
:101C30002003C5F80032BBE70748BAE70548024B66
:101C4000C5F80433B8E700BF10020A00D8440020EA
:101C50000000AD0B0A00AD0B0B00AD0BF8B5502327
:101C600007792C4D046803FB0753DB6CD4F80002A2
:101C7000DE044CD509B983063ED4D4F8003223F0F3
:101C80002003C4F800324FF484235021794301F13A
:101C90004C062E44D6E8EF0F1843C6E8EC0FBCF113
:101CA000000FF7D112B96B185B686BBB1A4BC4F805
:101CB000083301236360D4F84431002BFBD0502358
:101CC00003FB0753DA6C12F4004218D1DA612046A4
:101CD000FFF7BAFA502303FB07550023AB602B61D3
:101CE000D6E8EF3F23F47F0323F47043C6E8E23FD6
:101CF000002AF5D10948F8BD4FF48033C5E72046E6
:101D00002944FFF7F1FAE2E701236360F2E70448B0
:101D1000F1E700BFD844002010020A000000AD0B1C
:101D20000500AD0B2DE9F04103682E4A0579C3F893
:101D3000082343F30733002B04460DDB01215A0926
:101D400003F01F03994002F12003274A42F82310B1
:101D5000BFF34F8FBFF36F8F012220461146FFF76D
:101D60007DFF01212046FFF705FE236822795024DC
:101D70001E49D3F80C0504FB0212D46CD3F8148569
:101D8000E201D3F80865D3F8107509D54FF0FF329A
:101D9000C3F80C25C3F81425C3F80825C3F810258B
:101DA000A20115D5431C01D0FFF708FBB8F1FF3F96
:101DB00002D04046FFF702FB200109D57A1C02D071
:101DC0003846FFF7FBFA731C02D03046FFF7F6FAED
:101DD0005023002203FB0513DA6483F848205A607D
:101DE000BDE8F08110034A0000E100E0D844002083
:101DF00010B550240279094B04FB02335B684BB9E0
:101E00000368D3F810213AB111B1D3F83C350B6017
:101E1000034810BD0348FCE70348FAE7D844002014
:101E20000000AD0B0800AD0B0B00AD0BF7B5054680
:101E30001646FFF77BFE164B0446984222D103213B
:101E400028462F79FFF7ECFD124B984201D0A042B3
:101E50001BD15022104B02FB07335B6893B90C4C2B
:101E6000284601A9FFF7C4FFA042F9D1019BB34264
:101E700007D301222846114603B0BDE8F040FFF722
:101E8000EDBE064C204603B0F0BD0446FAE700BFA5
:101E90000000AD0B0B00AD0BD84400200800AD0BCB
:101EA00072B6024A13680133136070472845002058
:101EB000034A1368013B136003B962B6704700BF61
:101EC00028450020003A18BF0122003918BF01211F
:101ED00003688900074841EA4201186359605A685B
:101EE00042F001025A60BFF34F8FBFF36F8F0020A3
:101EF000704700BF04AAFF004B6830B513F01F0500
:101F00002DD102680C681068C0F30720844226D2E5
:101F10005068556094600C7C23F01F0304F00104AA
:101F20001C438B7CDB0003F018031C434B7C5B00E1
:101F300003F006032343D3608B68013B23F01F04A7
:101F4000CB685B0003F00E03234343F001031361EE
:101F50005060BFF34F8FBFF36F8F284630BD012015
:101F6000FCE7036800205A68C9B258609960D860DD
:101F700018615A60704770B50546002403681E68F2
:101F8000C6F30726B44201D1002070BD2146284681
:101F9000FFF7E7FF0134F5E70722024BC3F80423FC
:101FA000704700BF003000500022074BC3F80021EB
:101FB000D3F80011C3F80421D3F80411C3F80821A1
:101FC000D3F80831704700BF0030005000231720BD
:101FD0000F49042B03F1010201D81346F9E703F579
:101FE000C073402A41F823001346F2D10023172082
:101FF0000749012B03F1010201D81346F9E703F564
:10200000E073402A41F823001346F2D1704700BF25
:102010000030005010B59DF80840800B43EA0423BF
:10202000064C890B43EA0213884200D910BDC2B2A4
:1020300002F5C07244F822300130F5E7003000505C
:1020400010B59DF8084000F1604043EA042301F117
:102050006041074C400B490B43EA0213884200D908
:1020600010BDC2B202F5E07244F822300130F5E74B
:1020700000300050C0F30D03C3F58043B3FA83F37F
:10208000C3F11B03064AC0F38730DBB240F4807013
:1020900043F48073C2F80005C2F80435704700BFEE
:1020A0000030005080037047800300F57F503F30C0
:1020B0007047002070473F2070474FF480407047C2
:1020C00000F57F40C03040037047000043030148E3
:1020D00018447047FF1FF81F402070477F2070474B
:1020E0004FF4005070470000054BC0F30730090261
:1020F00041F0300100F5007043F82010704700BF38
:1021000000300050044BC0F30730090200F50070A6
:1021100043F82010704700BF0030005008B501F0B0
:10212000EDFA68B902F0E0F958B9074AD36823F02C
:1021300008031B041B0C43F0BF6343F40033D3605C
:1021400008BD45F22350FBE700ED00E0002070479A
:10215000002070470020704770470000BFF34F8F8A
:102160000549064BCA6802F4E0621343CB60BFF333
:102170004F8F00BFFDE700BF00ED00E00400FA054F
:102180000346084611461BB1012B03D003207047BC
:1021900000F014B800F042B8BFF34F8F0549064B6A
:1021A000CA6802F4E0621343CB60BFF34F8F00BFF5
:1021B000FDE700BF00ED00E00400FA05F8B5436854
:1021C0000C2B26D14B68042B23D14FF0FF3304682E
:1021D0000E6821683360E1B1A268D2B10623012004
:1021E00000F0D4F9A8B961680B4BD3E9005CA942AF
:1021F0000AD3A26865448F18AF4205D8206801F061
:1022000090FE00203060F8BD0130052803F108037E
:10221000EBD10220F7E700BFA83B0100436870B58F
:102220000C2B32D14B68042B2FD14FF0FF330668B3
:102230000C683068236050BB7268550903D0012DCB
:102240001CD14FF6FF7302F01F02D340D90719D5F6
:10225000B168072916D88B23CB40DB0712D57DB197
:10226000012D16D10D4B03EB8203D3F8002222F08F
:10227000E04242EA0172C3F800220023236070BDED
:10228000074BF0E74FF0FF33F8E70220F7E70320B2
:10229000F5E70023803253F82230FFDE0028845017
:1022A00000258450FFF778BF08B5154B83F30A88E3
:1022B000144800F08DFA58B9FFF730FF40B9FFF726
:1022C00045FF28B9FFF744FF28B1FFF743FF20B1CE
:1022D000FFF7E8FF09E0FFF73FFF00F0FDF83521C9
:1022E0000948FEF785FD00F079FC21210748FEF73B
:1022F0007FFD00F0DDF800F049F8002008BD00BFC8
:10230000002400202C450020D03B0100053C0100AA
:10231000F8B501F00C030C2B0CBF154605464A0618
:102320000C4601F008061AD58B0658BF2835AB6954
:1023300013F8027CB6FA86F35B09B3EBD71F01D022
:10234000FFF7B0FF402F19D0412F0DD100F0C4FD91
:10235000044601460B4800F061FC2046F8BDFFF73B
:10236000A1FF0EB9FFF79EFF20210748FEF740FDB1
:102370006FF08300286000F012FFEEE7284600F0BF
:1023800033FCEAE7F82B0020263C010041DF7047D0
:1023900070B572B6BFF36F8F1446EFF30B855FF025
:1023A000000C002A1FBF8CF30B886C46954683F304
:1023B0000B880F4A0123136062B6BFF36F8F0E467E
:1023C00000F0D6FD72B6BFF36F8F314600F0E6FD28
:1023D0005FF0000C002C1EBF8CF30B88A54685F324
:1023E0000B88034C0025256062B6BFF36F8F70BD6C
:1023F00030450020402010EA0E0023D001B501F046
:102400006FF8BDE8044088421CD072B6BFF36F8FEE
:10241000EFF309821EF020031CBF22E9F00F083AF7
:1024200080E80440B1E804401EF020031CBF0832DD
:10243000B2E8F00F0B6882F3098883F30B8862B669
:10244000BFF36F8F70470000EFF308807146EFF322
:102450000982EFF30B830CB406B4FFF759FF8646ED
:1024600006BC0CBC00F0080001F00801401A01DCB9
:1024700012DB70470CB41EF020031CBF2DE9F00FD7
:10248000BDF1080D094C254626462746A046A14623
:10249000A246A34630B4704730BC1EF020031CBFD8
:1024A0001DF1080DBDE8F00F06BC7047A5EDF5FE67
:1024B000084BDA6882F07F4282F47F0242F4804265
:1024C000DA6000221A765A76DA76DA77602283F8B2
:1024D0002220704700ED00E070470000009A0A4B90
:1024E0009A420FD101229043014602460346044618
:1024F0000546064607468046814682468346844610
:1025000086460447FEE70000A5EDF5FE2DE9F04103
:10251000044618B943F6DA30BDE8F0810029F9D055
:1025200000254FF018088368104EC3F3802343F052
:1025300002030B6000F13007236AAB4201D8002090
:10254000EAE7A369E26907EB830308FB02330C2285
:102550006A4399188968090706D59B58B342D9D1AF
:10256000306808B100F036FB0135E5E7543E002045
:10257000EFF3148381F00201C1F3400161F3000322
:1025800083F31488BFF36F8F002070472DE9F0416B
:102590000E461546002A4AD0C4074BD480F00204E8
:1025A000C4F34004A40003F00602062A4AD144F012
:1025B000010422462946304604F0B2FCB8BB46E886
:1025C00000F205EB0608100E120208F1FF3747E88B
:1025D00000F34FEA136166D51B0264D5884262D0CE
:1025E00046E800F547E800F7FFF763FD2D0E85424A
:1025F0004FEA176734D3FFF75EFD874230D828468D
:10260000FFF752FD2246C6F101010144304604F0B5
:1026100087FC002847D00135AF4218D83846FFF76D
:1026200041FD2246A8EB000104F07AFCD8B300205B
:10263000BDE8F081EFF39484A40004F0040444F0B6
:102640001204B0E7990731D544F00804B1E72846F1
:10265000FFF728FD0646FFF730FD22460146D5E785
:10266000FFF73AFD85421ED3FFF738FD87421AD89F
:102670002846FFF72BFD2246C6F1010101443046F2
:1026800004F04EFC78B10135AF4203D83846FFF76D
:1026900017FDC6E72846FFF713FD0646FFF720FDA6
:1026A00022460146EBE76FF07F00C1E74CF2DA20EB
:1026B000BEE70000F0B53B4C87B03B48FFF75BFC42
:1026C000236801255A1C0193384B2260DA681B6984
:1026D0004FF4407603930023334801A902920495F6
:1026E000ADF814608DF81630FFF706FC18B143F60C
:1026F000DA3007B0F0BD23688DF816005A1C01933C
:102700002B4B294802932B4B01A9CDE903352260BD
:10271000ADF81460FFF7F0FB0028E8D123688DF8CE
:1027200016005A1C0193244B1F480293234B01A906
:10273000CDE903352260ADF81460FFF7DDFB00281A
:10274000D5D1022740F2011623688DF816005A1CD5
:1027500001931B4B144802931A4B01A92260039367
:102760000497ADF81460FFF7C7FB0028BFD12368BA
:102770008DF816005A1C0193134B0B480293134B10
:1027800001A92260CDE90337ADF81460FFF7B4FB6F
:1027900004460028ABD12A4629460348FFF792FB9E
:1027A0002046A6E734450020503E0020683C01004A
:1027B000A03C0100607201004009010040090100D5
:1027C000202C0020402C0020002C0020202C002059
:1027D00010B5044600F0AAF800F0B8F810B143F6BE
:1027E000DA3010BD00F0DEF80028F8D1FFF762FF04
:1027F0000028F4D102232360F3E7884206D0830740
:1028000006D581F00200C0F34000704700207047F9
:102810000120704708B520210948FEF7E9FA094B65
:10282000D3F80021D3F80821D3F80431FFF7BCFB1B
:102830000822054BC3F88021BDE80840FFF732BDF0
:10284000463C01000030005000E100E07046EFF32C
:102850000881EFF309820523FEF756FAFFF7DAFF46
:10286000FEE70000054B03EB8000D0F8003223F0B8
:10287000E04343F04053C0F80032704700258450D5
:102880000020034BD8765A6A42F470225A6270478D
:1028900000ED00E00349044BCA68002092B21343E4
:1028A000CB60704700ED00E00800FA05074A084BCE
:1028B00011680020C3F84415D269C3F84C250222E0
:1028C000C3F84025C3F84825704700BF0080FF00CB
:1028D0000060005000224FF0FF300D4B02F1A001CC
:1028E0000132102A43F82100F8D1D3F880220020C9
:1028F00022F00802C3F88022D3F88022D3F8802285
:1029000022F48072C3F88022D3F88032704700BF6F
:1029100000E100E008B5FFF73FFB0822024BC3F8D7
:1029200080211A60002008BD00E100E0064BD3F8CA
:10293000D02022F00102C3F8D020D3F8D02042F0FA
:102940000202C3F8D020704700ED00E037B5012542
:10295000104CFFF73BFBD4E901010723002200954F
:10296000FFF758FB072300220B490C480095FFF79F
:1029700067FB2169E0680139FFF77CFB0723002230
:102980004FF4702006490095FFF744FB002003B088
:1029900030BD00BF683C0100FFFF072000A0002001
:1029A000FFFF0F0010B500214FF0A040FFF7AAFB7A
:1029B00000215F48FFF7A6FB00214FF05020FFF7F2
:1029C000A1FB00215B48FFF79DFB00215A48FFF760
:1029D00099FB00215948FFF795FB00215848FFF764
:1029E00091FB00215748FFF78DFB00215648FFF768
:1029F00089FB00215548FFF785FB00215448FFF76C
:102A000081FB00215348FFF77DFB00215248FFF76F
:102A100079FB00215148FFF775FB00215048FFF773
:102A200071FB00214F48FFF76DFB00214E48FFF777
:102A300069FB00214D48FFF765FB00214C48FFF77B
:102A400061FB00214B48FFF75DFB00214A48FFF77F
:102A500059FB00214948FFF755FB00214848FFF783
:102A600051FB00214748FFF74DFB00214648FFF787
:102A700049FB00214548FFF745FB00214448FFF78B
:102A800041FB00214348FFF73DFB00214248FFF78F
:102A900039FB00214148FFF735FB00214048FFF793
:102AA00031FB00213F48FFF72DFB00213E48FFF797
:102AB00029FB00213D48FFF725FB00213C48FFF79B
:102AC00021FB00213B48FFF71DFB00213A48FFF79F
:102AD00019FB00213948FFF715FB00213848FFF7A3
:102AE00011FB00213748FFF70DFB00213648FFF7A7
:102AF00009FB01240021354A0846C2F88014C2F8B7
:102B00008444C2F8C014C2F8C444C2F8C814C2F85D
:102B1000CC44FFF7A7FE2046FFF7A4FE2C4B084647
:102B2000C3F800454FF48073C2F8403410BD00BFB5
:102B3000004000500090005000B0005000C0005015
:102B400000A0005000E0005000F0005000000150D4
:102B50000010015000400150005001500070015021
:102B6000008001500090015000A0015000B00150C1
:102B700000C0015000D0015000E0015000F00150B1
:102B8000000002500010025000200250003002509D
:102B900000400250006002500080025000A002502D
:102BA00000B0025000D0025000000350003003502B
:102BB0000040035000600350007003500090035029
:102BC0000025845000288450001008500030005028
:102BD000001000500121FFF787BA00000122014BCD
:102BE0001A6070473845002010B50446094B228909
:102BF0001B6861685868062350F8140CFFF7C6FC80
:102C000028B9054B1B68012B01D100F021F90323E2
:102C1000236010BD104A00203845002004460D46B0
:102C2000A5462847036923B119604FF0EE3343618D
:102C3000704703689962704704484FF08051016003
:102C4000BFF34F8FBFF36F8F7047000004ED00E0BC
:102C50002DE9F84304461E460068114B9046A268D1
:102C6000A0F1080540E90233503890420F4601D2E6
:102C7000FFF718FBA5F1480948220021484601F05A
:102C800075F94FF0807345F8043C6FF0020345E995
:102C9000036745F8208CC4E90093BDE8F88300BFC2
:102CA000A5EDF5FE836883F30B880368283383F36F
:102CB0000988406870470000054A1368013303F033
:102CC00007031360034A0133801A03EBC000704707
:102CD0003C4500204045002018B1024B013803EB71
:102CE000D00070474045002010B5064800F066FC53
:102CF000044628B18022002101F038F90023236026
:102D0000204610BD40450020014608B5044800F0AB
:102D100066FC00280CBF6FF0FC00002008BD00BF5F
:102D200040450020014610B5EFF3108472B6034809
:102D300000F04FFC84F3108810BD00BF4045002018
:102D4000F0B50346EFF3108672B60024426C00F132
:102D50004405204662B940B10568012CEA6F026063
:102D6000284602BF5A698A435A6186F31088F0BD2B
:102D700097683F687F698F4204BF2846013402F19B
:102D80007C05D26FE6E7000030B5094C0246616869
:102D90000023084640B105686D68954205D11BB116
:102DA000826860609A60816030BD03468068F1E7A8
:102DB000EC49002003689A68DB6812F4806F05D143
:102DC0008B422CBF00206FF0FA0070478B420CBF83
:102DD00000206FF0FA00704738B504462AB10B683E
:102DE0009B68DB0515D5002038BD0C4B1B685D6862
:102DF0001C2D01D1FFF756FA002255F81C3C9969A9
:102E00002C338A4203D053F8040FA04204D19142DC
:102E1000E9D16FF0FC00E7E70132F2E7104A002049
:102E2000F8B504461E460F46154600212C220C30EC
:102E300001F09CF8054BA7601B685B68C4E903655B
:102E40001C3B6360069B6361F8BD00BF104A002015
:102E5000064B1B685B681C2B04D053F81C3C0BB161
:102E6000586870474FF0FF30704700BF104A00208D
:102E700010B5FFF731FF0446FFF746FF50B9FFF7E3
:102E8000E7FFA3685B681B685B68834218BF002488
:102E9000204610BD0024FBE7064B10B51B685C689C
:102EA0001C2C01D1FFF7FEF954F81C3C9868C0F3C4
:102EB000802010BD104A002038B5054648B100F00A
:102EC0000DFCB5EBD07F044601D0FFF7EBF92046AF
:102ED00038BDFFF7BDFFF4E72DE9F041082380225C
:102EE00040F22C41154800F03BFB0023144E154FD7
:102EF00073607B6000F0F6FBDFF84C80304600F03A
:102F000083F80446A8B139468023424600F0E4F82D
:102F10000546204600F042F9206804F10801FFF759
:102F2000F5FA08B1FFF7BEF92946204600F004FA89
:102F3000E4E7BDE8F04100F06FBA00BF4045002073
:102F4000FC490020EC4900206C490020002330B5EA
:102F500000F12802C0F1040452F8041B21B1816F72
:102F600054F8125019444D600833202BF4D130BD71
:102F7000084B094A1B6810B55B68044619615A6121
:102F8000D1E90223D1E90001A047044600F007F986
:102F9000204610BD104A0020EDEEEEEE10B5094CB3
:102FA00023685B685A69084B9A4208BF086000F0C2
:102FB00031FB2368834203D0BDE81040FFF73CBEDD
:102FC00010BD00BF104A0020EDEEEEEE70B50546D4
:102FD0000C46EFF30583C3F308030BB1FFF762F967
:102FE000084B1A689368A34202D2D168A14206D264
:102FF000126821462846BDE87040FFF7C9B9002392
:103000001A46F6E7F8490020F8B5054608B9FFF773
:1030100049F92C4E346814F1290F50D82A4B1968FD
:1030200004F128038B424AD2D4E9063206200C333D
:1030300000FB0233226A02EB42021344626A02EB93
:10304000820213449B00E31801D2994201D2FFF798
:1030500029F923681D4A1B0C1B04934201D0FFF77A
:1030600021F92388B3F5817F01D3FFF71BF963684A
:10307000002B01DAFFF716F9154A176807F14C0320
:103080001360144A1268934201D9FFF70BF9D4E98F
:10309000063206210C3301FB0233226A3C6002EB4C
:1030A00042021344626A02EB82021344326802EB6A
:1030B00083026B683260BB646F603846F8BD0027DE
:1030C000FBE700BF643E00208C3C010000005F5F16
:1030D000603E0020883C01002DE9F04F85B0884615
:1030E00091460746029300B109B9FFF7DBF8D7F81C
:1030F00000A0DAF818100AF1300303EB8103019302
:10310000DAF81C40234B1D6854B10C2101FB045418
:103110001C60214B1B689C4201D9FFF7C3F82C4669
:1031200000262546B346DAF81C305B4500D91CB9A9
:10313000304605B0BDE8F08F1822019B02FB0B3131
:103140000023AB604B69C5E900171E438B689A05E5
:1031500016D5B9F1000F02D0029A802A03D003934A
:10316000FFF7A0F8039B13F0E00FD9B202D159F892
:1031700021301BB10391FFF795F8039949F82150CD
:10318000D8F804300BF1010BAB60C8F804500C35D3
:10319000C9E700BF5C3E0020843C010070478230DC
:1031A000012808B506D8FFF777FE18B9BDE8084032
:1031B000FFF778B808BD0020704700000C4B70B5D1
:1031C0001B6804465D680E4655F8103C1C3D1BB15B
:1031D000034201D1FFF766F8002E05DA21462846A2
:1031E000BDE8704000F03AB96869204070BD00BF8A
:1031F000104A002070B50E46044610B1431E03422B
:1032000001D0FFF74FF8134B2C221B6831465D6845
:10321000062355F8140C1C3DFFF7B8F908B1FFF769
:1032200041F86B690BB9FFF73DF86B69234201D197
:10323000FFF738F821462846FFF782FD38B100F144
:103240000C012C22304600F06CFE002070BD6FF0A7
:103250008B00FBE7104A0020F8B506460D46FFF745
:1032600007FE044608B9FFF71DF8A7680FB9FFF776
:1032700019F8E368991C20D05A1C21D1A5B315F187
:10328000820F13D102232360EFF3108672B6294612
:10329000204600F01CF9054686F310882368022BAF
:1032A00024D12046FFF73EFD2846F8BD15F1830FD7
:1032B000EAD0FEF7F7FF0025E6E702232360FAE7EE
:1032C000002BF6DB2046FFF741FE3B689B689B0521
:1032D00001D50223236015F1810FD5D16369002B3D
:1032E000D2DBFEF7DFFFCFE73546F4E700232360AC
:1032F000DAE7FEF751BF30B5436844781C3BEFF383
:10330000108572B618695A6902400FD0022A08BFA8
:103310005A694FF0050002BF22F002025A611A6C8E
:103320000A6000221A6185F3108830BD00280CBFA6
:1033300020460220F7E70000C36802680B432DE92E
:10334000F041C36004460020936A11696064194427
:1033500007332062E06221F00701906823F0070341
:10336000C4E90931284B10F40076236314BF0C2301
:10337000D369264D04BF9B000C33073323F00703AA
:10338000CB1A9769D168E3615D60002519609D6083
:1033900066B902F1300505EB87054FF0180ED769C5
:1033A000324603F10C0C97421CD19F60A3610023AD
:1033B00084F8340000F4406004F11C02B0F5406F62
:1033C00084F83530E386A26314D0114D9E4218BFB5
:1033D0000D46294604F134006FF00102BDE8F041CA
:1033E00000F04CB90EFB0258D8F8108001324CF8AE
:1033F000048BD8E7074B064D1A60002E18BF0D4608
:1034000000F0A4F90346E4E7EDEEEEEE947001005F
:1034100061440100F849002038B50C480C4D00F01B
:10342000F3F80C4B0C4A28461A6000F049F92B6857
:1034300004465B6853F8141C53F81C0CFFF798F80B
:1034400008B1FEF72FFF204638BD00BFF73201005C
:10345000104A0020F4490020002C002038B50D4609
:10346000044608B9FEF71EFFEFF3108372B66069D9
:10347000284008BF256183F3108838BD38B50D4654
:10348000044608B9FEF70EFFEFF3108272B66369C7
:103490002B43636182F31088002038BD10B50C46C1
:1034A00091B188B103687BB1406868B15969436CD8
:1034B000E3674464FFF7E2FF02216068FFF7CEFF95
:1034C00001230020236010BD6FF08000FBE708B5EA
:1034D000406801640221FFF7D1FF002008BD000011
:1034E0002DE9F84300F096F81A4F04463B68A0F126
:1034F00034065D68184B29461B68012B21D000B3A8
:10350000A5F11C08B0451CD0EFF30982AB68283345
:10351000934201D9FEF7C6FEEFF3108972B6B16887
:10352000D8F80800FFF769F938B1B16854F8340CDD
:10353000FFF71EF808B1FEF7B5FE61683C6089F33D
:103540001088064B1B6813B1B26902B11A60284695
:10355000BDE8F883104A002030450020F4490020DF
:103560002DE9F8430D4617461E46044618B313B31B
:1035700002F1040903FB09F808F10C038B421AD18C
:103580000A46002100F0F2FC002004F10C031A4668
:10359000014601318E42106002EB090C104608D141
:1035A0000020A8EB09084344C4E90037A560BDE842
:1035B000F8836246EDE76FF0F800F8E7034638B1AC
:1035C000006828B102681A60002340F8043B704785
:1035D000704702680B1F41F8042C0360704700F12C
:1035E0000C0399420DD3C91A83688B4209D94368E9
:1035F0000433B1FBF3F203FB1210031F584258418E
:103600007047002070470000014B1860704700BFF2
:10361000044A00200D4B37B51C6800230C4D019364
:103620006CB120462B6801A99847C0B2052860708C
:1036300008D101996068FFF7F5FA0123637020460D
:1036400003B030BD0128FAD0A468E9E7084A002099
:10365000044A0020C9B20129064B417005D11A68FD
:103660002AB101781278914201D3034A1068186098
:10367000704700BF084A00200C4A0020F8B50F4EE2
:103680000446306815461A4618B1237807789F42D9
:103690000BD3A060346060682B46FFF7D9FA204650
:1036A000BDE8F8400121FFF7D5BF0646806810B19C
:1036B00007789F42F9D3A060B460ECE70C4A002081
:1036C00038B50546FFF7A6FF0446FFF7B5FA05B182
:1036D0002C606068BDE83840FFF7E4BA4FF0FF3077
:1036E0007047000008B500F025F8034B986000F023
:1036F00027F880F3888808BD00ED02E008B5FFF7E1
:10370000BFF810B143F6DA3008BDFFF7C3F8002860
:10371000F8D1FFF7CBF80028F4D162B6FDF77EFBB5
:10372000FFF7D8F80028EDD1FFF7F4F80028EBD028
:10373000E8E70000014B1868704700BF683C0100D3
:10374000014B1B6818687047683C0100014B1B68FF
:1037500058687047683C01002DE9F04F0E4699B05B
:10376000049304469146FFF797FB794B07461B6885
:10377000C6F307255B68A3F11C08F3B20393331467
:10378000059304D56FF0800019B0BDE8F08F039B5E
:10379000EB18042BF6D8002CF4D0FFF78DFB630058
:1037A0000690EFD56B4B04F01F0253F82260002EF9
:1037B000E8D033683A4631465868FFF70DFB0028D9
:1037C00040F0BF803046C4F30721FFF7F3FA00282A
:1037D000D8D1EFF3108772B6FFF786FA044687F365
:1037E0001088002800F0B080FFF766FA4FEAC50A9B
:1037F0000790022352464946D8F80800FEF7C6FE55
:103800000028BFD1039B0499DB000293029A062390
:10381000D8F80800FEF7BAFE07460028B2D12022E9
:1038200000210DEB020000F0A1FB2022002110A8D6
:1038300000F09CFB5246494608A800F072FB0DF1CF
:10384000200A029A049910A800F06BFBD3464FF0AF
:103850000009A9452ED1002208AB013295424CD86F
:103860000DF14009CB46039B9F4249D1069B204660
:10387000079A00933146059BFFF7D2FA224604EBE4
:10388000850504F114031435C4F10800AB420AF1B4
:10389000080A43D10025029B04F1240123449A42E3
:1038A00009F1080943D1049B21463046A367FFF77D
:1038B000F5FD69E7DBF8042002235BF8081BD8F864
:1038C0000800FEF763FE00287FF45CAF09F10109F0
:1038D000BFE7D1F80890C868D3F800C048448445D1
:1038E00004D258688444E145FFF44CAF0EF1010E58
:1038F0000831AE45EDD10833AFE719469646F8E7F3
:10390000DBF8042006235BF8081BD8F80800FEF754
:103910003DFE00287FF436AF0137A4E75AF8041CB7
:1039200043F8041F5AF8081C40F81310AEE759F882
:10393000040C41F8040F59F8080CC2E916050832C6
:10394000ADE76FF081001FE76FF082001CE700BF5A
:10395000104A00206C49002040F20110704770B5F9
:103960000546FFF799FA06462846FFF70DFA044682
:1039700008B9002070BD014632462846FFF72CFAF0
:103980000028F6D12368D868F4E700002DE9F04755
:1039900099461C4B0E461B689046D3F804A0FFF7CF
:1039A00067FA044608B9FEF77DFCE368002B01DAEC
:1039B000FEF778FC032E01D9FEF774FC04EB8607B2
:1039C000BD69DDB106234A4641465AF8140CFEF79C
:1039D000DDFD08B1FEF766FCBB694D46994528BF81
:1039E0001D4604EBC6042A464046A16B00F099FA36
:1039F000A36B2B44A363BB695B1BBB612846BDE87B
:103A0000F08700BF104A002070B50E461546FFF73C
:103A10002FFA044608B9FEF745FCE368002B01DAEB
:103A2000FEF740FC032E01D9FEF73CFC04EB8601B7
:103A3000886958B185422A4628BF024604EBC6046D
:103A4000A36B801A1344A3638861104670BD000005
:103A50002DE9F8431D461B4B0F461B6890465B68DB
:103A6000A3F11C09FFF704FA044608B9FEF71AFC93
:103A7000E368002B01DAFEF715FC032F01D9FEF7EE
:103A800011FC04EBC70604EB8704A36AF26D9B1AD2
:103A9000AB4201D2FEF706FC02232A464146D9F882
:103AA0000800FEF773FD08B1FEF7FCFBD6E916032C
:103AB0002A461844414600F034FAF36D2B44F3656E
:103AC000BDE8F883104A0020000000010101000059
:103AD00001000000464154414C204552524F523A99
:103AE00020005365637572654661756C740D0A003C
:103AF000486172644661756C740D0A004D656D4DC8
:103B0000616E616765206661756C740D0A004275AF
:103B1000734661756C740D0A005573616765466183
:103B2000756C740D0A00506C6174666F726D20457F
:103B30007863657074696F6E0D0A00556E6B6E6FF9
:103B4000776E0D0A00000000490E0100690E0100A9
:103B500051110100B50E0100910E0100810F01000D
:103B6000CD0E01006D0E01009D0E0100A90E010099
:103B7000850F0100730E01007F0E0100850E01000C
:103B80000C0000000B0001000A0002000900030005
:103B9000030202020000000000000000000000001C
:103BA0000338FDD87047000000000100000200004B
:103BB0000002FF002C0000005004FF001000000075
:103BC0003001FF0008000000200CFF00040000008E
:103BD0001B5B313B33346D5B536563205468726506
:103BE00061645D2053656375726520696D61676509
:103BF00020696E697469616C697A696E67211B5B03
:103C0000306D0D0A001B5B313B33346D426F6F74B6
:103C1000696E672054462D4D2076312E382E301B8C
:103C20005B306D0D0A00556E6B6E6F776E205356CC
:103C300043206E756D62657220726571756573746F
:103C40006564210D0A00506C6174666F726D2045C9
:103C50007863657074696F6E3A20535055204661E1
:103C6000756C740D0A00000000C0010000C0010066
:103C7000FFFF0E00007C01000080010000000F002B
:103C8000FFFF0F005C400020444000205C04010066
:103CA000009A1F4B9A4208D110B500F07FF900F03E
:103CB000BDF806BC96460C4674470FDFFEE7009A37
:103CC000174B9A4208D110B500F078F900F0AEF821
:103CD00006BC96460C4674470FDFFEE70CB4029A0A
:103CE0000F4B9A4209D10CBC10B500F06FF900F0EF
:103CF0009DF806BC96460C4674470FDFFEE7009A17
:103D0000074B9A4202D10749086874470FDFFEE764
:103D1000009A034B9A4200D174470FDFFEE7000080
:103D2000A5EDF5FE203E00200348044B834202D05F
:103D3000034B03B118477047483F0020483F00201D
:103D4000000000000548064B1B1AD90F01EBA30128
:103D5000491002D0034B03B118477047483F002079
:103D6000483F00200000000010B5064C237843B9FE
:103D7000FFF7DAFF044B13B10448AFF300800123CF
:103D8000237010BD5C400020000000005072010054
:103D900008B5044B1BB104490448AFF30080BDE8EB
:103DA0000840CFE700000000604000205072010092
:103DB000A3F5803A704700BF174B002B08BF134B89
:103DC0009D46FFF7F5FF00218B460F461348144A26
:103DD000121A00F0CBF80E4B002B00D098470D4B79
:103DE000002B00D098470020002104000D000D4852
:103DF000002802D00C48AFF3008003F009F920003E
:103E00002900FEF751FA03F0EFF800BF00000800A8
:103E10000000000000000000F82B0020603F0020A0
:103E20007C5A00200000000000000000002383F303
:103E300000887047FEF736BA7046EFF30881EFF35B
:103E400009820123FCF760FFFFF7F4FFFEE7FEF7AE
:103E500029BA7046EFF30881EFF309820223FCF7D9
:103E600053FFFFF7F4FFFEE7FEF71CBA7046EFF3CF
:103E70000881EFF309820323FCF746FFFFF7F4FF05
:103E8000FEE7FEF70FBA7046EFF30881EFF3098201
:103E90000023FCF739FFFFF7F4FFFEE7FEF702BA55
:103EA0007046EFF30881EFF309820423FCF72CFF3F
:103EB000FFF7F4FFFEE7814270B40546144602D3D3
:103EC00070BC00F02EB8821821443CB141EA0203D4
:103ED00013F003030FD1E018032812D86FF003008A
:103EE000A3084343002019441A442344984210D1A4
:103EF000284670BC704711F8013D013C02F8013DB5
:103F0000E3E7581850F8046C981840F8046C043B28
:103F1000E1E70C1A14F8016C141A04F8016C013072
:103F2000E4E770B504463AB141EA040313F0030331
:103F30000CD1D518032D0FD822F003031C441944CB
:103F4000002302F0030293420CD170BD11F8013B33
:103F5000013A04F8013BE6E7CD1A2E68E51A2E6017
:103F6000043BE6E75D5CE5540133ECE70346F0B55E
:103F7000C9B252B9940803EB84041344A34211D18B
:103F8000F0BD03F8011B013AF3E79C07F9D14FF0AC
:103F9000013514464D43D618032CEBD9371B3D6031
:103FA000043CF9E704F8011BE8E70000024B1B683A
:103FB0005B689B68184700BF002C0020024B1B6801
:103FC0005B685B68184700BF002C002010B4034CEE
:103FD000246864682468A44610BC6047002C002054
:103FE000024B1B685B68DB68184700BF002C002091
:103FF000024B1B685B681B69184700BF002C002040
:1040000010B4034C246864686469A44610BC60471B
:10401000002C002010B4034C24686468E469A446B2
:1040200010BC6047002C0020024B1B685B681B6AB9
:10403000184700BF002C0020024B1B685B685B6ABE
:10404000184700BF002C00200020704701680E4A6E
:104050000346914215D1C169A2F11022A2F1EF12DB
:1040600091420ED18268012A0BD8C26812B101694F
:104070008A4206D0586928B19B691B1A5842584198
:1040800070470120704700BF55AA00FF0D4B70B567
:104090009E68A6B13046FFF7D9FF044678B9F368A9
:1040A0006BB935690DB9204670BD2846FFF7CEFFC4
:1040B00028B9EB68B34202D12E462D69F2E70124FC
:1040C000F1E700BF144A00202DE9F041394E346871
:1040D000F368D4B1B468C4B1002861D000295FD0BE
:1040E00001FB00F5B5FBF0F0884259D1291D57D8E6
:1040F000AA070DD025F0030204321C4603E06168D4
:1041000091424FD2A469002CF9D12046BDE8F0813C
:104110002A46F2E7891A232904F12007D4E9050C7D
:104120001AD80123A360A0B1C0F818C0A36903B1D5
:1041300058610023C4E905333369DB0702D5FFF773
:10414000A5FFA0BB2A46002138463C46FFF70EFFDC
:10415000DBE7C6F80CC0E9E702F1200804EB08032E
:104160002039C3E9011E2169DFF84CE0DC601961E8
:1041700044F808E0AEF1102EAEF1EF1EC3F81CE0DB
:1041800001B1CB60C3E9050C40B18361996901B10C
:104190004B6101212361C4E90121CAE7F360F5E71E
:1041A0000024B2E7D4F808E0BEF1000FB2D001203D
:1041B00002F01AFF144A002055AA00FFF8B5054680
:1041C00000283AD0364E3368002B36D0B268002A29
:1041D00033D0834203D872681344984202D301203B
:1041E00002F002FFA0F120042046FFF72FFF002875
:1041F000F5D155F8183C012BF1D145F8180C55E9CB
:104200000570DFB1BB68CBB955F81C2C7B68203238
:1042100013447B60386100B1C76020220021204632
:10422000FFF7A4FE386908B183682BB333699B0795
:1042300003D5FFF72BFF0028D1D1F8BD40B3836829
:1042400033BB426863681344203363600369D4E975
:104250000521236192B9B9B9426981696261A1619D
:10426000A2B19461A26902B1546103B1DC60202261
:104270000021FFF77BFED9E73C46E2E79161A169A7
:104280000029E9D04A61E7E7F160F8E7F460E9E77F
:10429000F36845F8083C03B15C61F460C6E700BF11
:1042A000144A002038B50D46142200210446124855
:1042B000FFF75CFE1149124800F030F8232D1AD99F
:1042C00014F003031FBF043DED18C3F10403E41809
:1042D0002A4600212046FFF749FE074B094AC3E959
:1042E00000459C602260A2F11022203DA2F1EF1255
:1042F0006560E261DC6038BD144A0020BD41010008
:10430000C940010055AA00FF002070477047000017
:10431000014B1B68184700BF683E0020024B186025
:10432000024B0020196070476C3E0020683E002060
:1043300010B50446406A10B1A16A00F053F9606AF2
:10434000FFF7E6FF0020C4E9090010BD38B50446B8
:10435000FFF7EEFF236A2C22012B0CBF05466FF0FE
:10436000960500212046FFF701FE284638BD0000D3
:10437000054B0A461978C90703D50146181D00F0F8
:104380005CB86FF088007047284A002010B5074CD1
:1043900000F038F8204600F061F8201F082100F0F6
:1043A00021F9BDE8104000F045B800BF2C4A0020BC
:1043B00038B50D4D2B78DB0710D4281D00F03BF8E5
:1043C000044670B900F012F8044650B900F030F815
:1043D000044630B92B7843F001032B7000242046AB
:1043E00038BDFFF7D3FFFAE7284A0020044A00202F
:1043F00092F8803543F0010382F88035704700BFA2
:10440000304A0020F8B5094C2025264601272046D1
:104410002762FFF79BFF013D04F12C04F7D196F8CA
:10442000803565F3000386F88035F8BD304A0020FA
:10443000FCF70CBA70470020704713B5002001ABA1
:10444000144600F0A3F830B9019BA34218BF6FF0E7
:10445000930002B010BD6FF09200FAE700207047A1
:104460002DE9F04F01251F4B8DB0D3F80090D9F8FE
:104470000820D9F800309540013D1BB1984708B19C
:10448000FFF7DAFD4FF0010A4FF000412846FFF731
:10449000A7FD0026044609F10C07002CF4D0D9F83A
:1044A0000830B34202D8FFF7C7FDEDE70AFA06F875
:1044B00014EA080F12D03B680BB9FFF7BDFD01A944
:1044C0004046FFF795FD3B6801A8DDF808B0984726
:1044D00001465846FFF7A8FD24EA080401360437D0
:1044E000DBE700BF002C002010B50C4C236813B193
:1044F0000B4B1B682BB900F07DFD30B90122084B36
:104500001A6001232360002010BD0138072801D95B
:10451000044810BD044B53F8200010BDB84F0020D4
:10452000B44F0020FE8FFFFFC0700100144B2DE937
:10453000F043002814BF04461C46124F236883B082
:10454000BB4219D016460D4620464FF4E07104F1E7
:10455000040900F047F804F58E78484600F02AFC7C
:10456000404600F04DFA2B464A4640460649009622
:1045700000F05CFA08B92760002003B0BDE8F083C2
:10458000BC4F0020A5BCC95A394E010070B50D4C76
:104590001D46002814BF064626460B4B306882B0E5
:1045A00098420DD106F58E700026334600961446CB
:1045B00000F08CFA002818BF34462C6002B070BDA1
:1045C0000248FBE7BC4F0020A5BCC95AE88FFFFF9B
:1045D00038B131B1002201440346013081421A70E2
:1045E000FAD1704738B131B100220144034601309D
:1045F00088421A70FAD170472DE9F04FB2F5C07FAA
:10460000BDB000F2DA800C46DFF8B4911546002107
:104610004FF4D07282460DF17C084846FFF7A6FCA5
:10462000404601F0F7F930232146002409F118062D
:104630002A4689F8173030466BBAA9F81230A9F823
:104640001040FFF76EFC8022234672550DF12B01BE
:1046500001F8013F0133202BFAD14FF4807240461C
:104660000BA901F0EDF98346002840F0A38005F185
:10467000190313AD2F4607AE0293CDF80CA0019697
:104680000495102200210198FFF770FCDFF834A197
:10469000DDF808B005970A9B5AF8044C089F099A60
:1046A00007995AF8100C5AF80C6C5AF8085C5C40E0
:1046B000019B7E40554081EA00071A460121404691
:1046C000CDE90776CDE9095401F0DCF9BBF1100F13
:1046D00094BFABEB0B0BABF1100B0AF1100A0028E7
:1046E00047D1BBF1000FD6D1059F10223846019962
:1046F000FFF717FC99F8033010370133474589F865
:104700000330BED1049D4FF4807229464046DDF847
:104710000CA0019E01F094F9834678BB54460AF13F
:1047200030071BAB1A460121404601F0ABF9834626
:1047300020BB102220461BA91444FFF7F2FBA7421E
:10474000EFD1404601F076F94FF4D0711C48FFF7E5
:1047500049FF28463021FFF745FF0BA82021FFF72E
:1047600041FF30461021FFF73DFF58463DB0BDE800
:10477000F08F8346DDF80CA0019E049D404601F0B9
:1047800059F94FF4D0710E48FFF72CFF284630211D
:10479000FFF728FF20210BA8FFF724FF1021304648
:1047A000FFF720FF30215046FFF71CFF58463DB071
:1047B000BDE8F08F13AD07AEE0E76FF0370BF5E71C
:1047C0007C5100208C5100202DE9F0418CB0044632
:1047D0000D463022002168466F46FFF7C7FB04F103
:1047E0002006E27B0132D2B2E273002A4DD1A27BD5
:1047F0000132D2B2A273002A47D1637B0133DBB20C
:104800006373002B41D1237B0133DBB22373002B75
:104810003BD1E37A0133DBB2E372002B35D1A37ACB
:104820000133DBB2A372002B2FD1637A0133DBB2E9
:10483000637253BB237A0133DBB223722BBBE37960
:104840000133DBB2E37103BBA3790133DBB2A371A4
:10485000DBB963790133DBB26371B3B92379013317
:10486000DBB223718BB9E3780133DBB2E37063B958
:10487000A3780133DBB2A3703BB963780133DBB2B9
:10488000637013B92378013323703B46224601211C
:10489000304601F0F7F88046002841D110370CABC4
:1048A0009F429ED1029AAB680399534002933046CF
:1048B000EE68D5F820804E40039604992E69D5F80D
:1048C00028C04E4004966E6905990B9F4E40059690
:1048D0000699AE69009B4E400696EE6907994FF423
:1048E00080724E400796089ED5F824E088EA0608B4
:1048F000099E8EEA060E0A9E8CEA0601EE6A7E404A
:104900002F687B4000936B68019D6B400193CDE95C
:10491000088ECDE90A16694601F092F8804638B152
:1049200068463021FFF75EFE40460CB0BDE8F081DE
:104930001022204608A9FFF7F4FAF1E72DE9F84321
:104940001D468369B3F5C07F52D81646C3F5C072C1
:10495000AA424DD3C5F5C072D31AB34248D3044618
:10496000DFF898904FF4C0720F4648460021FFF7D9
:10497000FDFA4946D4F89430A269D4F898009847D3
:10498000002838D1D4F818803DB1D4E925302A4622
:1049900009EB0801984770BBA84407B1C6B917498D
:1049A00042460846FFF728FE054638B14FF4C0716D
:1049B0001248FFF717FE2846BDE8F88320460F4946
:1049C000FFF702FF05460028F0D101232361EDE740
:1049D0003946324609EB0800FFF7A3FA0749B0440D
:1049E00042460846FFF708FE05460028DED1E5E707
:1049F0006FF03705DFE76FF03305DCE71C5300206D
:104A000010B5A42200210446FFF7B0FA4FF0FF31A1
:104A10004FF6F072044B2161E26104F19C001B68C7
:104A2000BDE81040184700BF903E00202DE9F04738
:104A3000054688B00F461646002120226846984653
:104A4000FFF794FA1F4B05F19C0948461B689847ED
:104A5000044618B1204608B0BDE8F08705F1200AE9
:104A6000504600F0D7FFAA69C5E92576F2B92023A0
:104A70002E69AB61002E22DB694650464FF48072EE
:104A800000F0DEFF044630B9334641462846109A0E
:104A9000FFF754FF04460C4B48461B689847002814
:104AA00018BF0446204608B0BDE8F0872E69002EE6
:104AB000E2DA2F2A96BF013226465608DCE7102696
:104AC000DAE700BF8C3E0020883E00202DE9F04F41
:104AD000B2F5806F91B01A9F00F2E380B7F5807F46
:104AE00000F2DC80044615460E463022002104A860
:104AF0009846FFF73BFA6C4B04F19C0948461B684B
:104B000098478346002840F092802269E3699A42E0
:104B100000F391806369002B40F08D80002F40F0FE
:104B2000A980DFF888A16F46002D00F098806F46BD
:104B300004F120080EE0102DAB4628BF4FF0100BFB
:104B4000304639465A46FFF7ECF9B5EB0B055E44A3
:104B500000F08580E37B0133DBB2E373002B4DD1A2
:104B6000A37B0133DBB2A373002B47D1637B0133FB
:104B7000DBB26373002B41D1237B0133DBB22373A0
:104B8000002B3BD1E37A0133DBB2E372002B35D14A
:104B9000A37A0133DBB2A372002B2FD1637A0133E6
:104BA000DBB2637253BB237A0133DBB223722BBBBC
:104BB000E3790133DBB2E37103BBA3790133DBB2E9
:104BC000A371DBB963790133DBB26371B3B92379C4
:104BD0000133DBB223718BB9E3780133DBB2E370CD
:104BE00063B9A3780133DBB2A3703BB963780133B7
:104BF000DBB2637013B92378013323703B4622463E
:104C00000121404600F03EFF8346002893D0DAF8A9
:104C10000030484698470346302104A8002B18BFAF
:104C20009B46FFF7DFFC10213846FFF7DBFC5846B8
:104C300011B0BDE8F08F3A46414600232046FFF709
:104C40007DFEDFF868A000283FF46DAF4846DAF833
:104C500000309847834600283FF465AFE7E72046D9
:104C600004A9FFF7B1FD83460028D0D123690133A1
:104C70002361CCE73A46414604A8FFF7BDFC8346D2
:104C800018B16F46DFF824A0C1E7204604A9FFF75A
:104C90009BFD834600283FF444AFF2E76FF0370BEB
:104CA000C5E76FF0350BC2E78C3E0020883E002040
:104CB0002DE9F043202B1D460646884691468BB0D1
:104CC00026D8DBB202AF8DF80480B04658F8041B3A
:104CD0008DF8053021B9404600F016FF044640B972
:104CE000012302224046336001A900F021FF04465F
:104CF00038B138462021FFF775FC20460BB0BDE8DF
:104D0000F0832A464946404600F012FF0446F0E789
:104D100002AF1946104600233A4601F08FF80446C8
:104D20000028E6D12023B9461D46CCE72DE9F04105
:104D3000D0F8F830A6B0002BD8BF02AE31DD054662
:104D40000027D0F80C4102AEA4F101089022D5F85A
:104D5000FC403146D0F8000101AB0197B8FA88F861
:104D6000A0474FEA5818044620B9019B53B9B8F13F
:104D7000000F16D030469021FFF734FC204626B0B5
:104D8000BDE8F081014632462846FFF791FF58B949
:104D9000D5F80431019A1344C5F80431B8F1000F75
:104DA000E8D16FF03C04E5E70446204626B0BDE8B4
:104DB000F08100BF70B500250446142204F5887602
:104DC0002946C0F8F850FC30FFF7D0F808222946F1
:104DD0003046FFF7CBF8144B30461B689847204607
:104DE00040F8045B00F076FE104B30461B68984795
:104DF000C8B9D4F8F830AB420FDC03EB830204EB04
:104E000082022021C2F800010120C2E942100849B3
:104E10000133C2F8FC10C4F8F830064B3046BDE848
:104E200070401B68184770BD903E00208C3E0020EB
:104E300011590100883E00202DE9F047202A88B052
:104E40007AD83F4B00F5887904461B6848461746D8
:104E5000884698470546F8B940F20116D4F8F8306C
:104E6000002B65D02046FFF761FF054638B9D4F81E
:104E7000F830002B14DC013EF2D16FF03B056E469A
:104E800020213046FFF7AEFB2E4B48461B68984763
:104E9000002818BF6FF01D05284608B0BDE8F08750
:104EA000D4E94132934203D3D4F80C21012A02D031
:104EB000013ED7D1E1E71F2BFAD96E4601462022E9
:104EC000304604F1040AFFF751F83146504600F02D
:104ED00059FE05460028D3D1504600F00FFE50463B
:104EE00000F0F8FD2946504600F00EFE0546002869
:104EF000C6D150462022314600F01AFE0546002851
:104F0000BED1034632462021304600F097FF0546C9
:104F10000028B5D1D4F8F8303A46002BC8BF00239A
:104F200040463146C8BFC4F80431FEF7FAFFA7E790
:104F30006FF03F056E46A3E76FF03B05ACE700BF9F
:104F40008C3E0020883E0020002130B58DB0282204
:104F500002A80191FFF70AF802A800F097FF0446A3
:104F600010B120460DB030BD1B4D4FF0FF31286809
:104F700000F034F960BB194BD3F8340E10F0010087
:104F800017D100F05BF9F8B9154A02A901A800F0A1
:104F9000B1FC0446012000F051F988B9286800F0FE
:104FA00025F90028DDD00F4800F0AEF920460DB0FD
:104FB00030BD2868052400F019F90028D1D0F2E7A7
:104FC000094800F0A1F9E9E7084800F09DF9DBE79E
:104FD000074800F099F9CEE7743E00200060845045
:104FE0009C5400203871010018710100F870010014
:104FF000E070010030B583B000F036F878B900F009
:1050000055F890B9144BC3F80C0AFFF79DFF0446FE
:10501000F8B9124D2B6863B1204603B030BD0324AC
:1050200000F072F8204603B030BD0424204603B0DF
:1050300030BD02460146FFF779FA50B968220849A7
:1050400001ABFFF7A3FA20B92046064B2B6003B053
:1050500030BD0524E0E700BF00508450BC5600205E
:10506000C05600205AEA5A5A00207047430504D51A
:105070004FF0FF32034BC3F80821024BC3F8080A74
:10508000704700BF00508450014BC3F8040A7047BA
:105090000050845008B100F071B84FF475007047AB
:1050A00008B100F04FB84FF47500704710B51148C3
:1050B00000F080F800B110BD0F4800F07BF8002828
:1050C000F9D10E4C204600F075F80028F3D10C4BB6
:1050D0000C481C6000F06EF801460028EBD100F08F
:1050E0002DF8044608B1204610BD00F089F820468E
:1050F000FAE700BF843E0020803E00207C3E002076
:10510000743E0020783E002008B5084800F05CF8A6
:10511000074800F059F8074800F056F8064800F034
:1051200053F8BDE8084000F00BB800BF843E0020F3
:10513000803E00207C3E0020783E0020002070470A
:10514000704700BF10B402460B4C01E0134207D178
:10515000D4F8003A13F48070F8D0012042F4807241
:1051600029B1054BD3F804410C60C3F80841024B48
:10517000C3F8082A10BC7047005084500246084902
:1051800001E01A4207D1D1F8003A13F48070F8D048
:10519000012042F48072024BC3F8082A704700BF16
:1051A00000508450FEF787BEFEF7E0BE0A4600219D
:1051B000FEF7DCBE08B5034B02681B681068984711
:1051C000002008BDB03E002008B5034B02685B68B4
:1051D00010689847002008BDB03E0020024B0268CE
:1051E0009B681068184700BFB03E002008B5034B0D
:1051F0000268DB6810689847002008BDB03E0020B8
:1052000070B5094C094D2069AB68984718B1084B37
:1052100008485B6898470021074AEB6811602069DD
:10522000BDE87040184700BF9C3E0020B03E002003
:10523000943E00205071010028570020F8B51A4D07
:105240001A4E0446B26828699047E8B9184F3B687F
:105250004CB1A3B1012B19D0013B3B602869F36825
:1052600098470020F8BD43B90121124AC2F8001541
:105270001149D1F81029002AFBD101333B60F368B2
:10528000286998470020F8BD0C48F8BD0A4AD2F8B2
:105290001039002BFBD1074A6FF07E40C2F8003571
:1052A000FFF7F2FE3B68D7E79C3E0020B03E0020AF
:1052B000285700200040845000508450E98FFFFFA1
:1052C000014B1B68184700BFB03E0020014B9B6894
:1052D000184700BFB03E0020014BDB68184700BFF5
:1052E000B03E0020BFF34F8F0549064BCA6802F459
:1052F000E0621343CB60BFF34F8F00BFFDE700BFF9
:1053000000ED00E00400FA0530B44FF0FE32002555
:105310000B4B0C4C0C494968C3F80024C3F8042417
:10532000C3F80824C3F80C24C3F81024C3F81424C9
:10533000C3F81824C3F81C24C4F8005530BC08472F
:105340000050845000408450943E002010B5044624
:1053500050B1636813F0685F05D0064A934202D0EB
:1053600000236260236010BD034B04485B689847CC
:10537000EFE700BF2C5F5CA9943E00207071010034
:10538000C8B143680D4A934213D013F0685F0ED042
:10539000012350E8002F194640E8001C9CF0000F44
:1053A000F7D1012AF5D0BFF35F8F00207047044882
:1053B0007047044870476FF4E04070472C5F5CA969
:1053C000E98FFFFFEA8FFFFF034680B1426809497A
:1053D0008A420AD012F0685F05D0BFF35F8F0022C7
:1053E00010461A60704704487047044870476FF4CD
:1053F000E04070472C5F5CA9E98FFFFFEA8FFFFF59
:1054000010B5044620B10023034A2360626010BD3A
:105410000248FFF779FFF6E73A00003A9871010079
:105420002DE9F041002873D00C46002970D01D46AC
:10543000002B6DD007461AB1012200232A600360B9
:105440002B68002B5FD02946204600F0D9FD80460E
:1054500000285AD12146286800F0B8FD804600286F
:1054600053D12868082867D0042867D0A0F102002B
:10547000B0FA80F040090121314EC6F8C411C6F8D7
:105480004011C6F8C411636AC6F83031D6F830212D
:105490009342F6D10023C6F82C314FF0FF33C6F803
:1054A00008316FF01B03C6F80031C6F80C01D6F8BE
:1054B000040A40F48060FFF7E7FD0A23C6F838319C
:1054C000069B012B29D023691E4AA2FB03231B093B
:1054D000626A404602FB03F303EB4303184ADB0313
:1054E0009B09C2F8D8310123C2F82C313B682A68E5
:1054F00023F07F4343EA02633B602A6843EA0223C6
:105500003B60BDE8F081DFF840804046BDE8F081B7
:10551000DFF838804046BDE8F0814FF47F03D3F8D0
:105520000C2C013206D0D3F80C3C064AA2FB032314
:105530001B09CDE71623CBE703209CE702209AE75F
:1055400000508450ABAAAAAA310CF100350CF1002E
:1055500058B34B1EB3F5047F27D230B54FF0000E81
:10556000CD00744671464B0901F01F0C50F82330F2
:10557000BCF11F0F23FA0CF306D003F0010319B995
:1055800001211C468E46EEE79C4201F1010106D046
:105590001C464FF0010EA942E5D1002030BD0EF1AE
:1055A000010E9645F7D1024830BD0148704700BF53
:1055B000360CF100C0B32DE9F0434C1EB4F5047F66
:1055C0001DD2E3B1DAB100252E46A8462C46CF0005
:1055D00003F1FF394FEA541C04F01F0E50F82C1051
:1055E000BEF11F0F21FA0EFC0CD00CF0010C4CB9CF
:1055F0000126E04634463546ECE7964216D90C487B
:10560000BDE8F083AB420BD0C44508BF0136A945C5
:10561000F3D001350134BC42DCD10020BDE8F08379
:105620000125E0462E46F5E7014870471D46F1E7A3
:10563000370CF1002DE9F04F8FB08246DDE91946B5
:105640000D46002E6ED1096904911C600023189943
:105650000B60002A00F02881994B6A6AD3F8381150
:10566000D3F830319A4269D10A2967D19AF80330C8
:10567000069304F1080305930423049A0393914BC2
:105680008F4CA3FB023B4FEA9B0B0BEB4B0BA2EBAC
:105690004B0B189B049E1E60002E00F0E580002737
:1056A00000F0BEFC0797BAF1000F00F0D0804FF079
:1056B0000109DDF81480002D00F0C980069B002B45
:1056C0003ED0284606A900F09BFC00283AD07E4B2D
:1056D000984220D0069B082B00F0E08000225B005F
:1056E0000693294606AB50460092FFF799FE774B8A
:1056F000984200F0CF8070B9DAF80020130A03F462
:105700007F03134323F07F43CAF80030039B013B20
:105710000393BED10020039000F082FC03980FB0E9
:10572000BDE8F08F4FF47F01D1F80C0C01300CBFB5
:105730004FF40471D1F80C1C049186E76448EAE741
:105740006248C4E72946069800F040FC0028BED114
:10575000069B082B00F0A480042B00F0A380A3F18B
:105760000203B3FA83F35B09C4F8C491C4F840910F
:10577000C4F8C4916A6AC4F83021D4F830118A425E
:10578000F6D10022C4F82C214FF0FF32C4F80821D2
:105790006FF01B02C4F80021C4F80C31D4F8040ADD
:1057A00040F48060FFF770FC0A23C4F838312B699D
:1057B000444AA2FB0313696A1B0901FB03F303EBD1
:1057C0004303DB039B09C4F8D831C4F82C91069835
:1057D000DAF8003023F07F41030243EA00630B4311
:1057E000CAF8003007A800F0E1FB079B354A03F038
:1057F0001A0303437FF46EAFA2FB0632D4F81431D0
:10580000B7EB920F0893D4F818310993D4F81C31F0
:105810000A93D4F820310B93D4F824310C93D4F8A4
:1058200028310D9302D1BBF1000F12D1404618224E
:1058300008A9183EFFF7B6FC08F1180801379EB119
:1058400000F0EEFB00230793002D7FF437AF2148D3
:105850003DE740465A4608A9A6EB0B06FFF7A2FC17
:10586000D8440137002EEBD1049F059E6A69394662
:105870003046FFF76DFEAA6940B94FF480633946A0
:105880003046FFF797FE00283FF444AF0023189AF4
:1058900013601CE72B6A002B3FF43DAF0E483AE73C
:1058A000032361E702235FE7012229465046009661
:1058B00006ABFFF7B5FD00283FF4DBAE2BE700BFDA
:1058C00000508450ABAAAAAA020CF100310CF100DE
:1058D000300CF100350CF100320CF10010B4DDE9B0
:1058E000013401940024DDF80CC0CDE902C410BCE1
:1058F000FFF7A0BE30B51546012487B005AB009375
:105900000022CDE9015404ABFFF794FE07B030BD8F
:10591000F0B587B0002967D01E46002B64D014462E
:10592000002A61D0324F0D4638684FF0FF31FFF743
:1059300055FC00283DD12F4BD3F8340E10F0010058
:1059400015D04FF0FF354FF408712B48FEF740FE9D
:1059500004212A48FEF73CFE29482821FEF738FE9C
:105960003868FFF743FC40BB284607B0F0BDFFF79F
:1059700065FC002834D1224800F088FA70B91E4A2C
:105980000346029205AA019204AA039000921C49C0
:1059900002461A48FFF7A2FF0346A0B14FF0FF35B9
:1059A0000120FFF74BFC0028CDD01648FFF7ACFCD8
:1059B000C9E71548FFF7A8FCBDE71448FFF7A4FCAA
:1059C000284607B0F0BD28461D46059B22469C424E
:1059D00028BF1A46049932600831FFF7E3FBDFE77E
:1059E0000B48FFF791FCC6E74FF0FF35BCE700BF5F
:1059F000743E002000608450685700203C5700200F
:105A00004057002018710100E0700100BC710100D6
:105A1000F870010010B5044630B100220123626520
:105A2000A265E365236610BD0148FFF76DFCF4E74E
:105A3000D471010018B174220021FFF7B5BB704783
:105A4000C8B1D9B108B50023C02A836380F83C30BF
:105A50000FD0B2F5807F04D0802A03D06FF01F00F2
:105A600008BD02230363D2081030FFF79BFB002020
:105A700008BD0123F6E76FF0210070476FF01F00AB
:105A8000704700BF70B5044686B0F8B11046EAB161
:105A9000E3B101291AD8A26B16D0012A16D110251C
:105AA00000210DEB0506019602AA616329460095C7
:105AB00000F0C8FA50B92B463246204602A900F041
:105AC00073FD18B906B070BD002AE8D06FF0210050
:105AD000F8E700BF10B5044628B12046BDE81040E5
:105AE000F421FFF763BB0448FFF70EFC2046BDE836
:105AF0001040F421FFF75ABBE871010010B1F42106
:105B0000FEF766BD704700BF08B521B1012908D076
:105B10006FF0360008BD012100F058F80028F7D1D9
:105B200008BD022100F052F80028F9D0F0E700BFCC
:105B300030B505468818B0F5801F0B461446A1B055
:105B400001D8802A0CD9B3F5801F17D922461946EF
:105B5000284600F07DF8044684B9204621B030BDC7
:105B60006846FFF71FFB22466946284600F070F89A
:105B7000802104466846FFF719FBEDE76FF0360415
:105B8000EBE700BF70B5E8B10E46D9B1044600F0AE
:105B900031F80546B0B92368012B0BD0022B01D098
:105BA000284670BD1C22304604F10801FFF7FAFABE
:105BB000284670BD2022304604F10801FFF7F2FAB2
:105BC000284670BD6FF03605EAE700BF78B138B5FA
:105BD0000D46F0210446FFF7E9FA402320462560F0
:105BE000E36500F061FA003818BF012038BD0120DC
:105BF000704700BFF0B5056EA5B0044604AEE5B928
:105C000000230127019330466760294602AA0093CA
:105C100000F018FA10B1012025B0F0BD2A46204648
:105C200002A900F069FA0028F5D1204600F06CFBCB
:105C30000028F0D1206625B0F0BD802D2A463046E0
:105C400028BF802204F16401FFF7ACFA256ED7E784
:105C5000002800F0AE802DE9F04F1446A5B0002AD0
:105C60003DD00F46002949D0B2F5803F0546006E71
:105C700020D34FF6FF7805F1640AEB6D1A1AB2FBD8
:105C8000F3F103FB1122002A65D18342B9464FF696
:105C9000FF7672D0B6FBF3FB03FB0BFBBBF1000FEF
:105CA00030D1002E45D1A4F57F44FF3CB4F5803FB0
:105CB0004744E2D2EA6D161AB6FBF2F302FB136612
:105CC000A64228BF2646002E75D1824200F08D8064
:105CD000B4FBF2F602FB06F62EB9002C79D10020B7
:105CE00025B0BDE8F08F002331463846CDE90033BA
