:020000040100F9
:10880000E00F002181970001A9C6000155970001E2
:108810005597000155970001559700010000000091
:10882000000000000000000000000000D5930001DF
:1088300055970001000000006D930001559700015D
:108840006194000161940001619400016194000150
:108850006194000161940001619400016194000140
:108860006194000161940001619400016194000130
:108870006194000161940001619400016194000120
:108880006194000161940001619400016194000110
:108890006194000161940001619400016194000100
:1088A00061940001619400016194000161940001F0
:1088B00061940001619400010000000000000000CC
:1088C00000000000000000000000000000000000A8
:1088D0000000000000000000000000000000000098
:1088E0000000000000000000000000000000000088
:1088F0000000000000000000000000000000000078
:108900000000000000000000000000000000000067
:108910000000000000000000000000000000000057
:108920000000000000000000000000000000000047
:108930000000000000000000000000000000000037
:108940000000000000000000000000000000000027
:108950000000000000000000000000000000000017
:108960000000000000000000000000000000000007
:1089700000000000000000000000000000000000F7
:1089800000000000000000000000000000000000E7
:1089900000000000000000000000000000000000D7
:1089A00000000000000000000000000000000000C7
:1089B00000000000000000000000000000000000B7
:1089C00000000000000000000000000000000000A7
:1089D0000000000000000000000000000000000097
:1089E0000000000000000000000000000000000087
:1089F0000000000000000000000000000000000077
:108A0000DEE61E284CBBCE8F023500003C00000085
:108A1000D248000001000000008800010088000129
:108A2000FFFF0291000000000000000000000000B5
:0C8A30000000000000000000000000003A
:108A3C0053B94AB9002908BF00281CBF4FF0FF31B9
:108A4C004FF0FF3000F00CB8ADF1080C6DE904CE1E
:108A5C0000F008F8DDF804E0DDE9022304B070470B
:108A6C00704700BF2DE9F04786468C460846089EA5
:108A7C00154674461946002B40F0C1808542B2FA67
:108A8C0082F245D94AB1C2F1200300FA02FC9540AA
:108A9C0094402EFA03F343EA0C0C4FEA154EA8B29D
:108AAC00230CBCFBFEF80EFB18CC08FB00F943EAC8
:108ABC000C43994528D9EB1808F1FF3704D2994596
:108ACC0002D9A8F102072B44A3EB0903A4B2B3FB10
:108ADC00FEFC0EFB1C330CFB00F044EA0344A042EA
:108AEC0014D92C190CF1FF3304D2A04202D9ACF1E9
:108AFC0002032C44241A43EA07401EB1D44000233D
:108B0C0034607360BDE8F0874746DDE76346F1E704
:108B1C0092BB431B01214FEA154EAFB2200CB3FBA5
:108B2C00FEFC0EFB1C330CFB07F840EA0343984594
:108B3C0061D9EB180CF1FF3004D2984502D9ACF195
:108B4C0002002B44A3EB0803A4B2B3FBFEFC0EFB08
:108B5C001C330CFB07F744EA0344A7424DD92C19EC
:108B6C000CF1FF3304D2A74202D9ACF102032C441E
:108B7C00E41B43EA0040C0E7C2F120039540944057
:108B8C0020FA03F12EFA03F34FEA154E9040AFB2E0
:108B9C000343B1FBFEFC0EFB1C10190C0CFB07F87D
:108BAC0041EA0041884522D969180CF1FF3004D202
:108BBC00884502D9ACF102002944A1EB08019BB213
:108BCC00B1FBFEFC0EFB1C110CFB07F743EA014347
:108BDC009F420ED9EB180CF1FF3104D29F4202D9FF
:108BEC00ACF102012B44DB1B41EA004193E76046E8
:108BFC00E3E76146F7E76046A4E76346B8E78342DC
:108C0C0006D916B9002108467CE7C6E900E0F9E769
:108C1C00B3FA83F78FB9834201D3724508D8BEEB00
:108C2C00020460EB030301209C461EB9002169E796
:108C3C003846FAE7C6E9004CF8E7C7F1200CBB4010
:108C4C000EFA07F522FA0CF42EFA0CF1BA401C437A
:108C5C0020FA0CF3B8404FEA144901431FFA84FE82
:108C6C00B3FBF9F809FB18300B0C08FB0EFA43EABE
:108C7C0000439A4540D9E31808F1FF3004D29A45D5
:108C8C0002D9A8F102002344A3EB0A0389B2B3FB77
:108C9C00F9F809FB183308FB0EFE41EA03418E4537
:108CAC002CD9611808F1FF3304D28E4502D9A8F1F2
:108CBC000203214443EA0040A1EB0E01A0FB029801
:108CCC004145CE46434602D306D14D4504D2013828
:108CDC00B9EB020E68EB0403002EA7D0B5EB0E0225
:108CEC0061EB030101FA0CFC22FA07F3F9404CEAA0
:108CFC000303C6E9003199E74046C5E74346D9E787
:108D0C00014B1B68184700BF0000002130B585B02F
:108D1C0004460D4610220021684603F077FF02231B
:108D2C008DF80230044B2A4621466846019303F025
:108D3C0069F805B030BD00BF0D8D000180B505464A
:108D4C000E461746984602F097FE034603F066FF60
:108D5C000446DFF81890424649F800303946304650
:108D6C00A84754F8090000F07FFD00BF0800000080
:108D7C002DE9F047058B04462807904611D40229AB
:108D8C0005F0070540F0CD80204603F072FB78B16A
:108D9C000138218B042811D8DFE800F0C3106D8551
:108DAC00950001290CBF45F0100545F020052583E1
:108DBC0088F31188BFF36F8FBDE8F08701F0070AC5
:108DCC00AA4500F0A6800027B9463E46A368002BB2
:108DDC0000F0BD8041F00801218388F31188BFF3B6
:108DEC006F8FA168002900F0BB800D68002900F08E
:108DFC00B780334652462046D1F80480C047002D38
:108E0C0076D02B6829461D46F0E701F007035A1F60
:108E1C00012A1BD8002221F00701062B276889B2F2
:108E2C00C4E9002209D13B4603E0628B0132628324
:108E3C001B68002BF9D141F002012046218303F07D
:108E4C0018FB00287BD041F0200177E0042B0AD1DD
:108E5C0021F0070189B22046218303F00AFB10B1EF
:108E6C0041F020012183218B01F0070AAA4550D043
:108E7C000027B946AAE7236921F0070141F0060152
:108E8C00062DD3F8009021832DD1B9F1000F40D0DD
:108E9C0041F00801218388F31188BFF36F8F2046BE
:108EAC003949C84729E021F00701236941F0040141
:108EBC0089B2042DD3F804902183E6D000274FF01B
:108ECC00040A3E4682E721F00701236941F00501BF
:108EDC0089B2052DD3F808902183D6D000274FF006
:108EEC00050A3E4672E700274FF0060A3E466DE73C
:108EFC002B4687E7B9F1000FD1D14FF02003EFF3E8
:108F0C00118883F31288BFF36F8F238B23F0080330
:108F1C002383258BEA062ED525F01003238305F039
:108F2C0007056669218B002EBFF66FAF00232768FB
:108F3C00C4E9003321F0070141F001012183218BA9
:108F4C004FF0000901F0070AAA457FF43FAF002F4C
:108F5C009BD041F00801218388F31188BFF36F8FF8
:108F6C00002FC7D03D68394633465246204603F0A1
:108F7C00ACFA2F46F4E7AB067FF51AAF25F02003C9
:108F8C00238305F00705FFE603C50001064AD2F866
:108F9C00AC3123F00043C2F8AC310022034BC3F8D0
:108FAC004C21D3F84C317047002001410060014145
:108FBC000122024B0020C3F84025704700000841F5
:108FCC005023142213B51F4C0DF10700C4F80C35B7
:108FDC001D4BC3F820214FF400621C4BC3F8BC2579
:108FEC004FF48062C3F8382503F093FC184B984279
:108FFC0025D118499DF8070003F081FC16499DF80E
:10900C00070003F081FC15499DF8070003F077FC7D
:10901C0021469DF8070003F077FC01209DF80730EE
:10902C00984001F07BFB4FF4002200200C4BC3F85E
:10903C004423C3F84C01D3F84C3102B010BD6FF08F
:10904C000B00FAE700B00041003020410020014144
:10905C000000AD0B4C610141282001412C21014144
:10906C000060014173B5354BD3E84F3F00233449C1
:10907C00CDE90033334BD3F80445BFF35F8FD1F800
:10908C000465BFF35F8FD3F804259442F3D16B468C
:10909C00224601212B4803F0C6FA324605460F2121
:1090AC00274801AB03F0BFFAE0B1019B0DB9009367
:1090BC0002E0009A9342FAD3009B22481C44013CE4
:1090CC00D0F84C3524F07F449C421F4932D0FFF736
:1090DC005DFFC0F84C451D4B009A9A4218D90123EC
:1090EC000B7001E0002DE7D1194AD2F8AC3143F0F6
:1090FC000043C2F8AC31134BD3F84C2132B90121E7
:10910C00144A5160D3F84C3103B1116001230DE0C6
:10911C00BFF35F8FD0F80435E41A24F07F440E4B74
:10912C00033C9C42DBD900230B7000230B4A1370C9
:10913C0002B070BD0B78002BF7D0D5E7D802002118
:10914C000010014100600141D6020021FEFF7F00AA
:10915C000020014100B00041FBFF7F00D70200213D
:10916C00F8B51E490023C1E8423F52BB1C4B1D7889
:10917C003DB305231B4E1C4F34780134B4FBF3F381
:10918C0003EB8303E41A03F0A4FB184A137823B10E
:10919C0057F82430C01A072813D9154BD3F81411DB
:1091AC0041B10021C3F81411D3F8143134700CB947
:1091BC0001231370347803F08CFB47F82400284605
:1091CC00F8BD0C4A0025D2F8AC3123F00043C2F8AC
:1091DC00AC310122084B5A60F1E700BFD8020021E4
:1091EC00D7020021D5020021E0010021D402002188
:1091FC00005000410020014100B0004120B1034B60
:10920C00800143F001031847704700BF10CE0001E6
:10921C0001F0E0B9014910220A60704710ED00E03E
:10922C0001B5FFF71FFFBDE8014072B6404080F367
:10923C001188BFF36F8F01B5FFF792FF002806D09E
:10924C00BFF34F8F30BF00BF00BF00BF00BFBDE8F2
:10925C00014062B6BFF36F8F704700BF01B5FFF7D7
:10926C0001FFBDE8014072B6494081F3118801B598
:10927C00FFF776FF002806D0BFF34F8F20BF00BF4B
:10928C0000BF00BF00BFBDE8014080F3118862B68B
:10929C00704700BF40B2002807DB01234109034A95
:1092AC0000F01F00834042F82130704700E100E0DD
:1092BC00054B420953F82220012300F01F0003FA4A
:1092CC0000F01040704700BF00E100E040B2002801
:1092DC0001F10101ACBF00F16040064B4FEA4111B6
:1092EC00C9B2ABBF00F5614000F00F0080F800136D
:1092FC001954704714ED00E030BFFFF7FDBF00BFFD
:10930C0008B5084B084A23F07F039360BFF34F8FD7
:10931C00BFF36F8F01F07CFF02F014FC00F01EFA1B
:10932C0001F0C0FF0088000100ED00E0094A0A4985
:10933C00936809685867996708494B6843F08053EC
:10934C004B60002383F31188BFF36F8F9368986F82
:10935C00704700BFA4020021C8CE000100ED00E060
:10936C0016498A684FF030001044EFF3098C80E8FE
:10937C00F01F202080F31288BFF36F8F104F4FF037
:10938C0000664A698A603E604FF0700414192068C8
:10939C000C4C2060506F0023536780F3118802F14E
:1093AC00300090E8F01F8CF3098802F1000004B53E
:1093BC0003F07BF9BDE8044070470000A4020021D3
:1093CC0004ED00E0F40100211EF0040F0CBFEFF3DC
:1093DC000880EFF30980816911F8021C0229FFD083
:1093EC0001B503F053F901BD42F8203C009B0B4939
:1093FC0042F81C3C019B21F0010142F8183C029BF5
:10940C0042F8081C42F8143C4FF0807342F8043CBC
:10941C000023203A02654367704700BF498D000165
:10942C000A4B046F98600A4B1C60036E83F30B8825
:10943C00104681F30988002163B681F31188BFF3CC
:10944C006F8F00220023FFF779FC00BFA4020021DC
:10945C00F401002101B5EFF30580A0F110004FEAF3
:10946C00C0000449014409C99847BDE801400249BC
:10947C0008470000B8CC0001E5940001114B124ADA
:10948C002DE9F041D518013DB5FBF3F5DFF83C8033
:10949C005D430F4B074608EB0304013CB4FBF3F4AC
:1094AC0003FB04540E1B30460A4903F0A2FB70194F
:1094BC0042460021083E03F0A9FB3E6704F1080078
:1094CC00BDE8F08101000000000000000400000075
:1094DC0004000000F0CD0001044B996858698842E3
:1094EC0003D003494FF080520A607047A402002158
:1094FC0004ED00E0154B9A6A12F0007F9A6A14BFD3
:10950C001E201D2012F0807F9A6A18BF1F2012F4B3
:10951C00801F9A6A18BF022012F4002F9A6A18BF93
:10952C00212012F4802F9A6A18BF222012F4003FD7
:10953C009A6A18BF232012F4803F9A6A18BF24201D
:10954C006FEA02426FEA12429A62704700ED00E045
:10955C0010B5164B9A6A9C6A12F4805F14BF1722DE
:10956C00162214F4006F9C6A18BF1822A40509D5A2
:10957C009A6B9A6A120404D518B19A6A22F40042C2
:10958C009A621922094B986A10F4806F986A18BF76
:10959C001A2210F4807F986A40F47F4098624FF052
:1095AC0000030CBF10461B200B7010BD00ED00E03B
:1095BC0010B5154B0246986A9C6A10F0100F14BF38
:1095CC001120102014F0080F9C6A18BF1220A40759
:1095DC0009D5586B986A000604D51AB19A6A22F01C
:1095EC0080029A621320084B9A6A12F0010F9A6A51
:1095FC0018BF1420D20658BF9A6A9A6A42F0FF022A
:10960C009A6200230B7010BD00ED00E0F0B5474BE3
:10961C0004465B6800258BB0C3F3080385F31188FF
:10962C00BFF36F8F02F07F40B0F17F4F11D102F08A
:10963C000C0008280DD010074CBF0C460125002249
:10964C00033B8DF80720032B05D8DFE803F02462D9
:10965C00665F2C46F3E700239DF80720CAB902AEDB
:10966C0004F12007324620686168083403C2BC420A
:10967C001646F7D1099A002D53D0C2F3080121B92F
:10968C006FEA52226FEA42220992184602A902F0AE
:10969C00FBFF0BB0F0BD254BDA6A9107DBD4DA6A1D
:1096AC00002AD8DBDA6A5200D5D55A69A16942F48E
:1096BC0080725A61BFF34F8FBFF36F8F5A6931F8C5
:1096CC00021C22F480725A61BFF34F8FBFF36F8F6D
:1096DC004DF60272914209D09A6AD2B242B101207F
:1096EC000DF10701FFF764FF0346B5E72368B3E705
:1096FC009A6A12F47F4F05D001200DF10701FFF794
:10970C0027FFF1E79B6AB3F5803FA4D3FFF7F2FE86
:10971C00EAE700200DF10701E4E700200DF1070155
:10972C00EDE722F4FF7222F00102ADE700ED00E05C
:10973C00044B5A6942F010025A615A6942F4806231
:10974C005A61704700ED00E0EFF30880EFF30981F8
:10975C0001B57246FFF75AFF01BD00BF002320215F
:10976C000348C21801331E2B82F80013F9D170473D
:10977C0000E100E0002080F31488BFF36F8F00201D
:10978C0080F30A8880F30B88FFF742FD00200E4916
:10979C000860BFF34F8F0D4880F3088800F03EF847
:1097AC00202080F311880A484FF40061401880F3A0
:1097BC000988EFF314800221084380F31488BFF367
:1097CC006F8FFFF79DFD000094ED00E0E00F00218E
:1097DC00E0020021BFF34F8F0549064BCA6802F423
:1097EC00E0621343CB60BFF34F8F00BFFDE700BFB8
:1097FC0000ED00E00400FA05002318460649D1F8F4
:10980C009020C2F30722934200DB7047C1F89830D6
:10981C00C1F8A0000133F6E700ED00E010B572B618
:10982C00002484F31388FFF7E7FF23464FF0FF3043
:10983C000C4A03F120010133102B42F82100F8D11E
:10984C0000234FF0FF30074A03F160010133102B66
:10985C0042F82100F8D162B6BFF34F8FBFF36F8F80
:10986C0010BD00BF00E100E0084B9B6883420BD1A8
:10987C00EFF3058343B1064B5A6842F080525A60AD
:10988C005A6A22F400425A6202F0FCB8A402002187
:10989C0000ED00E01FB5094C094A23460121094897
:1098AC0000F0EAF800230393074B0121E41A01A806
:1098BC000193029400F0EAF804B010BD00000121FD
:1098CC000000002118CE0001A000002110B50C7A78
:1098DC000B6804F01F0223F01F031A43CB686409C2
:1098EC0023F01F03054943EA440343F00103C1F885
:1098FC009800C1F89C20C1F8A03010BD00ED00E02C
:10990C002DE9F04F0F46144606464FF000084E4D19
:10991C0085B0B84580F29480D6F80490B9F1000F68
:10992C0036D0B9F11F0F40F2898019F01F0F40F0AB
:10993C008580D6F800A01AF01F0F7FD1504602F098
:10994C00B8FE834609EB0A00013802F0B2FE8345EB
:10995C0074D11BF1160F71D05C456FDDC5F898B052
:10996C00D5F89C10C5F898B0D5F8A03021F01F019F
:10997C0043F01F0AD6E900321A44994202F1FF392A
:10998C001ED1CA4508D131465FFA8BF002F09AFE1F
:10999C0008F101080C36BCE73146C5F898B0D5F88B
:1099AC009C3022F01F0203F01F031343C5F89C30B8
:1099BC00E0B202F087FE10F1160F3FD0441CE7E72F
:1099CC00C5F898B0D5F8A020013B23F01F0302F096
:1099DC001F021343CA453146E0B2C5F8A030E8D0A7
:1099EC0002F070FE10F1160F28D0C5F898B0D5F81B
:1099FC009C209DF808300AF1FF3A62F304038DF8BD
:109A0C000830D5F8A0309DF808205B0863F34712A6
:109A1C008DF80820D6E900321344009323F01F037D
:109A2C00411C5344A3EB0903C8B223F01F030728BE
:109A3C00039303D86946FFF749FFBFE76FF015049E
:109A4C00204605B0BDE8F08F00ED00E00522044B88
:109A5C00C3F89420BFF34F8FBFF36F8F704700BFD5
:109A6C0000ED00E0BFF35F8F0022024BC3F894209F
:109A7C00704700BF00ED00E010B5034C2278FFF7F3
:109A8C003FFF207010BD00BFD90200212DE9F74F18
:109A9C00294D8A4606464FF00008AB46274FD04565
:109AAC001BDAD6F80490B9F1000F3FD031680846A4
:109ABC00019102F0FEFD0199044609EB0100013809
:109ACC0002F0F7FD84424FF014021D4B08D002FB4C
:109ADC0008F36FF015024BF8032003B0BDE8F08FCC
:109AEC0014F1160F2C60F8D01978A142F5DD02FBA9
:109AFC0008B0C7F89840C7F89840D7F89C4000F1D8
:109B0C000801007B64F304000871D7F8A0000C79FD
:109B1C00400860F347140C71D7F89C1021F01F011A
:109B2C006960D7F8A01021F01F01296108F1010824
:109B3C0014350C36B3E700BFF801002100ED00E04E
:109B4C00D902002138B50E4D2C68082C15D80020F0
:109B5C00FFF788FF0B4B0C4AC3F8C020844205D199
:109B6C000A4B00201C70FFF771FF38BD696801EBD0
:109B7C000011FFF7ABFE0130F0E74FF0FF30F4E7D8
:109B8C0024CE000100ED00E0AAFF4400D902002120
:109B9C0008B50649064821F00701C1F1045202F547
:109BAC00803202F00EFC002008BD00BFF30F002134
:109BBC00E00F0021084B70B5C31A0D4607499B10E6
:109BCC00044659434022064802F0B5FD2B46014697
:109BDC002046BDE87040184720020021B76DDBB667
:109BEC007CCC0001402373B50B4C0093041B0B463B
:109BFC000D460A49A41061430646094A094802F079
:109C0C00C7FD011E05DA30462B4602B0BDE8704098
:109C1C00184702B070BD00BF20020021B76DDBB643
:109C2C0009C800017CCC000170B50022012104465A
:109C3C000520FFF74BFB0F4800F0CEFD0E4B984272
:109C4C0015D100F0D9FD26690C49304602F061FCB3
:109C5C0000280BDB012535642469084904F11C003C
:109C6C0002F057FC002801DB0020E56470BD6FF0AA
:109C7C000400FBE7C19C00010000AD0B4CCE0001C1
:109C8C0001460C2300224B4370B50848C4184033DE
:109C9C001844D4E90E56A26302F03AFD2DB13246B7
:109CAC002B46BDE870400248184770BD20020021C9
:109CBC007CCC000110B1012804D07047034B1B6C05
:109CCC005B0701D1FFF7DCBF704700BF200200210A
:109CDC0008B54FF02003EFF3118183F31288BFF323
:109CEC006F8F114A136843F002001060DA0708D432
:109CFC0081F31188BFF36F8FBDE80840012000F09D
:109D0C0091BD0A4BD3F80C24D3F80C34DB07EFD5F8
:109D1C00074802F0FDFC81F31188BFF36F8FBDE89B
:109D2C0008400020FFF7ACBF70020021005000413A
:109D3C00600200211FB500220123CDE902236B46EE
:109D4C00084ACDF800D0CDF804D002F050FD002820
:109D5C0005DB4FF480420023684601F0CFFB05B0D1
:109D6C005DF804FB27C8000110B54FF02003EFF39A
:109D7C00118483F31288BFF36F8F074A136823F0A3
:109D8C000201DB07116002D4012002F0C4FD84F350
:109D9C001188BFF36F8F10BD700200212DE9F041C7
:109DAC00012207463549D1E8EF3FC1E8E02F0028F2
:109DBC00F9D133B9324933484B60CB608A6002F039
:109DCC00BBFB7B1E012B28D8012F06D12E4BD3F8C1
:109DDC001C3403F00303022B1FD002F002FE0546D5
:109DEC00E8B92A4B1B78D3B102220646264BC3F89E
:109DFC000823254CDFF89880D4F81824D4F81834AC
:109E0C00D20316D503F00303022B01D0012F10D17E
:109E1C0075B386F31188BFF36F8FBDE8F0814FF0F7
:109E2C002003EFF3118683F31288BFF36F8F0125A4
:109E3C00DFE7C5B13046FFF711FAD4F81835DBB2BD
:109E4C00012BD9D1D4F80421002AD5D00022C4F892
:109E5C000421D4F804210222C4F818252022C8F8C1
:109E6C008021A360C8E70021212001F0EBFDE4E78D
:109E7C000222054BC3F80423CFE700BF1C020021CC
:109E8C000C0200213C02002100500041DA020021AA
:109E9C0000E100E030B5406801F01F04057BB2F52D
:109EAC00001F85B044EA451405D1204602F08FFD11
:109EBC00002005B030BD0025B2F5800FCDE902556C
:109ECC0014D1B3F1007F0CBF042305238DF80830A7
:109EDC0000232046194602AA00F07AFE224B984233
:109EEC003CD10121204601F011F8E1E7B3F1C06F3C
:109EFC0027D0B3F1007F14BF012302238DF8083063
:109F0C00836823FA01F111F00101E1D1B2F1A07FD4
:109F1C00DED104F01F03620903F1800313D0012A80
:109F2C001FD1124A52F82330DB07D1D40DF10705AB
:109F3C002946204600F082FF0D4B984205D0039530
:109F4C00C6E70323DAE70B4AECE7284600F0D8FF14
:109F5C00054B9842F3D06FF00B00AAE76FF0150099
:109F6C00A7E751F82330FFDE0000AD0B00088C4151
:109F7C000400AD0B00058C4110B500F0B1FF044698
:109F8C0068B900F073FF084B98420AD12146074884
:109F9C0000F04EFF224605210A20FFF797F900201A
:109FAC0010BD6FF00400FBE70000AD0BBD9F00017E
:109FBC004209034670B502D0012A17D070BD0D4E70
:109FCC00326951680029F9D0012503F01F030C6890
:109FDC009D400029F2D08A682A4002D030464B6856
:109FEC0098472CB1236821461C46F2E7024EE7E75E
:109FFC002346F8E7A4CC000190CC00012DE9FF41E9
:10A00C00476801F01F053B7B144645EA43150E4695
:10A01C0028460DF1070100F011FF14F4403F804673
:10A02C000DD1284602F0D1FC3C4B984503D19DF84C
:10A03C00070000F05FFF002004B0BDE8F0810023B2
:10A04C002846194602AACDE9023300F0C1FD334B74
:10A05C00984214D1804503D19DF8070000F04AFFC7
:10A06C00A3034CD540F206332340B3F5837F1AD0BB
:10A07C000DD8062B18D005D8B3B1022B32D06FF007
:10A08C001500D9E7B3F5807FF9D101230CE040F23C
:10A09C000222934228D0B3F5407F27D0B3F5007F3E
:10A0AC00EDD1022300E007238DF8083084F48033CF
:10A0BC00C3F30043E0068DF809304CBF0323C4F30F
:10A0CC00401321038DF80A3012D501237A68B3406E
:10A0DC0093600022284602A900F02EFE0F4B9842F6
:10A0EC00A9D0CCE70423DFE70523DDE70323DBE777
:10A0FC00620341BF01237A68B340D360E9E7E3060A
:10A10C004FF000034CBF0324C4F340141A462846F6
:10A11C0002A98DF8084000F05BFDDFE70000AD0BF5
:10A12C000123834070B5DC430B4AD2E8EF1F01EAF0
:10A13C000405C2E8E65F002EF7D14FF4803282406E
:10A14C000648C0F80823BFF35F8FBFF36F8F0B4235
:10A15C0014BF0120002070BD90020021006001415D
:10A16C0070B40E4922F07F46D1E90034D01AC318DE
:10A17C0044F10004C1E90034A6F50013B3F5400F17
:10A18C0009D2074B1B681A0A1B069C19054B42F196
:10A19C000005C3E9004570BC01F0AABDB000002168
:10A1AC0094020021B8000021D9B101230D4A83404B
:10A1BC00D2E8EFCF4CEA030CC2E8E1CF0029F7D18B
:10A1CC004FF48033084A8340C2F80433074BD3E87A
:10A1DC00AF3FC340DB0742BF4FF48002044BC3F8D0
:10A1EC000021704790020021006001418C02002187
:10A1FC0000E100E00D4B1868010A0006BFF35F8F09
:10A20C000B4BD3F80435181841F10001B3F5801F3E
:10A21C000AD2084BD3E90023904271EB030303D21B
:10A22C0010F1807041F10001704700BF94020021D1
:10A23C0000600141B80000212DE9F04F85B01646B1
:10A24C001F4604469DF840A0FFF76AFF0190FFF7F8
:10A25C00D1FFB04271EB070352D23B4B301A67EB84
:10A26C000101984271F100014DD2384B03EB0413FC
:10A27C00D3E902239F4208BF964258D04FF480384E
:10A28C00334908FA04F8204626F07F4BC1F848837E
:10A29C0002F013FB4FF00309584604F15005AD00D2
:10A2AC00ADB205F1824504F5A87305F5B0350293FE
:10A2BC00029A20F07F4341F82230C1F84483D1F850
:10A2CC000435244AC01A033820F07F4090422ED91E
:10A2DC00286868B1D1F80435A3EB0B0020F07F405F
:10A2EC00B0F5000F039322D9204602F0E6FA039B47
:10A2FC00BAF1000F07D109EB030009F10109D7E707
:10A30C00BAF1000F09D06FF0150520460199FFF73F
:10A31C004BFF284605B0BDE8F08F01230E4AA34041
:10A32C00D2E8EF0F1843C2E8E10F0029F8D1074932
:10A33C000E982301C8500F9B01EB04120025C2E9B3
:10A34C0002675360E1E700BF01008000A00000211C
:10A35C0000600141FDFF7F008C0200217FB50025CC
:10A36C004FF0FF304FF0FF31194C1A4B0226C4F856
:10A37C000833C4F84833184BC4F80855C3E9020134
:10A38C004FF480334FF48002C4F80433134B012193
:10A39C00C4F804631620C3F880212A46FEF796FF02
:10A3AC001620FEF777FF01230D4AA360236013608C
:10A3BC000C4B0D4A009328460023CDE90155FFF7BD
:10A3CC003BFF3046FFF7EAFC284604B070BD00BFE7
:10A3DC000060014103000F00A000002100E100E03B
:10A3EC00900200216DA10001FFFF7F002DE9F743D2
:10A3FC0002F048F92E4BD3F8042390070BD5D3F871
:10A40C00042142B10022C3F804212A4AD3F80431B2
:10A41C00136801331360264AD2F80433D90327D5C5
:10A42C00254BD3E8EF1F21F00100C3E8E40F002C0B
:10A43C00F7D1CB0702D4D2F84031CBB100251C4C5C
:10A44C00C4F84051D4F84031FFF7D4FE4FF020034C
:10A45C00EFF3118283F31288BFF36F8F174BD3E99D
:10A46C000267B042B94106D282F31188BFF36F8FF5
:10A47C0003B0BDE8F0834FF0FF38D3E900104FF084
:10A48C00FF391D60C3E902894FF48033C4F84833A7
:10A49C00C4F84051D4F8403182F31188BFF36F8F68
:10A4AC000029E5D0009032463B4628468847DFE736
:10A4BC0000600141940200218C020021A0000021C7
:10A4CC001FB5431C22D0012822DD124A124B9042A8
:10A4DC00D4BF04461C46FFF78DFE104B0E49D3E942
:10A4EC000023801AB0F5000F28BF002404448C42CE
:10A4FC0028BF0C4600200A49A218CDE901000091A2
:10A50C0043F10003FFF798FE04B010BD024CE2E7E4
:10A51C000124E0E7FEFF7F00FFFF7F00B000002179
:10A52C006DA1000108B5FFF765FE024B1B68C01A50
:10A53C0008BD00BFB00000212DE9F043214885B0D3
:10A54C0002F0CFF9002604461E4B1F4FD3F838807B
:10A55C00DFF87890B04503D8002005B0BDE8F08353
:10A56C00636A97E807001D6801AB83E807000C22BB
:10A57C001946284602F005FB78B975B122692B699A
:10A58C009A420AD1AB69A2699A4206D8E2699A4208
:10A59C0003D963696A6993430AD0256A65B10C488B
:10A5AC0001F07AFE404080F311884FF0040002DF86
:10A5BC00E36801361C44CDE7484601F06DFE636A42
:10A5CC001D60F5E7008A0001F0CD00017ACF000193
:10A5DC0051CF00010022D30003F1FF7303F5803348
:10A5EC00D3F80013013107D0D3F800130132D3F89C
:10A5FC000433202A0B60EED1224BD3E94C32072BCB
:10A60C0026D1023A032A204B28D9D3F80024D107AB
:10A61C0032D41C4BD3F83021072A19D1D3F834315A
:10A62C00023B032B02D8194AD35C8BB17F23184A07
:10A63C001849C2F818310023C1F8043EC1F8083E8D
:10A64C00C2F82431C2F82C3102F57F22C2F8103145
:10A65C00114B1A68114BC3F84425704710498A5C9A
:10A66C00002AD2D0D3F80024D207CED50022C3F8CA
:10A67C001421C3F81821C8E76FF00102C3F80024B5
:10A68C00C7E700BF0000FF0100500041ADCF000143
:10A69C0000200041000008410080FF0100600041E3
:10A6AC00B1CF000130B50468ACB1B4FA84F3012227
:10A6BC00C3F11F03DBB29A4024EA0202D0E8EF5F39
:10A6CC00A54204D1C0E8EC2FBCF1000FF6D1EAD1C1
:10A6DC0002480B7030BD0248FCE700BF0000AD0B18
:10A6EC000200AD0B10B50368CB40DB0710D401237F
:10A6FC008B40026843EA0201D0E8EF4F944204D148
:10A70C00C0E8EC1FBCF1000FF6D1F2D1014810BD2E
:10A71C000148FCE70000AD0B0400AD0B014BC3F886
:10A72C000405704700F00041F7B5044618B1012844
:10A73C0022D003B0F0BD0222264B0646C3F80823F4
:10A74C000122DA60C3F80401D3F80431012342F288
:10A75C001075204F8DF80730D4B1012CE9D1D7F802
:10A76C000C3403F4803386BB002BE2D0012002F0C2
:10A77C00C4F8013DF3D1DCE70022164B0DF10706BE
:10A78C00C3F808035860C3F80021D3F80031DDE7A3
:10A79C00D7F8183403F480333EB9002BC9D001200C
:10A7AC0002F0ABF8013DF3D1C3E7D7F8182402F05F
:10A7BC0003023270002BBCD09DF807000128B8D1E1
:10A7CC0002F09BF8013DC7D1B3E7D7F80C2402F097
:10A7DC000102EEE700500041044B1A7922B9012224
:10A7EC0018601A710248704702487047980200219D
:10A7FC000000AD0B0C00AD0B08B5084B1B6833B15A
:10A80C000520FEF755FD10B90520FEF743FD01228A
:10A81C00034BC3F81825C3F8142508BD9802002172
:10A82C000050004110B510B1012848D010BD294B83
:10A83C00D3F81814D3F81824C90324D502F0030351
:10A84C00022B05D0012B02D00020FFF76DFF012356
:10A85C00204A0220C2F8183508224FF482730021D6
:10A86C0003F1824303F5A04319601C68012402F133
:10A87C00824202F5A0421460174A12681AB3154BB3
:10A88C00C3F80403D2E7D3F81424D207DFD5D3F8E6
:10A89C001C2402F00302013A012AD5D80E4A126890
:10A8AC001AB10222C3F80423C0E7D3F80421002A0A
:10A8BC00FBD00022C3F80421D3F80431B6E7002200
:10A8CC004FF48073CBE71A68002AFCD019601B6820
:10A8DC00ACE700BF005000419802002110B5164BA8
:10A8EC00D3F8002152B10020C3F80001D3F80021A5
:10A8FC000122C3F80823114B1B6898470E4BD3F861
:10A90C00042182B10022C3F80421D3F80421D3F826
:10A91C001824D3F81824022102F00302012A03D1CF
:10A92C00C3F818159A6010BDC3F80813034B012027
:10A93C00BDE810401B6818470050004198020021E8
:10A94C0001460148FFF7AEBE04000021036803F086
:10A95C001F025B09026004D0012B034818BF0020C2
:10A96C0070470248704700BF00088C4100058C41BD
:10A97C00034A4309D35C00F01F001844C0B270476F
:10A98C00CACF000170B50546FFF7F2FF0C4C08303A
:10A99C0034F810300E46DA0508D5C3F3432304EB24
:10A9AC00C302284654F8333052689847A3682BB139
:10A9BC0031462846E268BDE87040184770BD00BFBC
:10A9CC000800002110B5FFF7D3FF124A083032F807
:10A9DC001030D9051CD5C3F3432123F4F85322F8C6
:10A9EC001030002002F10E0434F8023F13F4807F83
:10A9FC0003D0C3F3432399420AD001303028F3D15A
:10AA0C00002342F831300448BDE81040FFF76ABE1D
:10AA1C0010BD00BF080000218000002108B5FFF721
:10AA2C00A7FF034B083033F81000400B08BD00BFE4
:10AA3C000800002108B5FFF79BFF034B083033F8E3
:10AA4C001000C0F3401008BD08000021034611F0AF
:10AA5C00010010B5CCB20BD1A207C4F340000DD548
:10AA6C00074A106A58601062003818BF012005E0D0
:10AA7C0004490A6A1A600A62002AEDD010BD00BFB0
:10AA8C0000088C4100058C41F0B5054600200126DC
:10AA9C00044607468C420BD1114BD3F87C2132B1C2
:10AAAC000022C3F87C21D3F87C3140F00040F0BD8B
:10AABC00E3B29B0003F580729B0806FA03F31D4278
:10AACC000BD002F1824202F52042D2F800C0BCF158
:10AADC00000F02D01760126818430134DAE700BF88
:10AAEC0000A0004108B5FFF743FF044B083033F8D2
:10AAFC00100080F00200C0F3400008BD08000021E7
:10AB0C0010B50446FFF796FFB8B12046FFF7EAFFF1
:10AB1C0098B12046FFF782FF01230B4A8340800047
:10AB2C0000F18240C2F8083300F52040D0F810350F
:10AB3C0023F00303C0F8103510BD2046BDE81040CB
:10AB4C00002101F033BF00BF00A0004173B50446E3
:10AB5C00FFF70EFF1A4E00F1080536F81530DB072B
:10AB6C002BD52046FFF7CCFF2046FFF763FF60B1E3
:10AB7C002046FFF753FF0022830003F1824303F5C5
:10AB8C002043C3F81025C3F810252046FFF71AFF01
:10AB9C00002301A826F815300194FFF7D7FE019B7E
:10ABAC0000EB8300D0F80022064B134043F0020365
:10ABBC00C0F80032044802B070BD0448FBE700BF87
:10ABCC0008000021F0F0FCFF0000AD0B0400AD0B01
:10ABDC002DE9F04385B0054690461E46FFF7C8FEAA
:10ABEC00044609B3504F00F1080937F8193098079B
:10ABFC0003D52846FFF71EFF28BB00232846CDE9C6
:10AC0C0000338DF80E308DF80F300DF10F020B461E
:10AC1C000DF10E0101F081FE37F8193023F002031B
:10AC2C0043F0010327F81930B8F1000F2DD03E4F37
:10AC3C0004F1080C37F81C3098F800009907D8F884
:10AC4C00042002D5CAB1394821E023F02003DB04EB
:10AC5C00DB0C27F81C3082B10328F4D8D8F8042078
:10AC6C0092F800E04FEA8E0202F1824202F5204295
:10AC7C0080B9C2F81005C2F8100537F81C3023F063
:10AC8C001C0343EA800327F81C301EBB284805B080
:10AC9C00BDE8F083D2F8101543EA4E3321F00301DE
:10ACAC00C2F81015D2F8101543F0200321F44F31DF
:10ACBC0021F44071C2F810152902D2F8108501F464
:10ACCC007C5141EA004141EA0801C2F8101527F80D
:10ACDC001C30D2E72846D6E90076FFF773FE002F2A
:10ACEC00D4D0114DD5E90023974203D19E4201D116
:10ACFC00002209E00F480DF10F01FFF7D3FC0C4BBC
:10AD0C009842C4D19DF80F2005EBC20308345E6055
:10AD1C0035F8143045F8327043EA422343F480731B
:10AD2C0025F81430B2E700BF080000210400AD0B79
:10AD3C000000AD0B800000212DE9FF410446904638
:10AD4C00FFF716FE054629B32046FFF7CBFE18B1D8
:10AD5C002046FFF76FFE20BB324E05F1080736F890
:10AD6C00173013F01C0F02D04B78012B19D0012394
:10AD7C008DF80F3000234A1CCDE9001320468B1CA4
:10AD8C000DF10F0101F0C9FD36F8173043F0030344
:10AD9C0026F81730B8F1000F42D02046FFF7A2FE7C
:10ADAC0018B1214804B0BDE8F08198F800201D4F7F
:10ADBC00910001F1824101F52041C1F81005C1F863
:10ADCC00100505F1080037F8105025F02005ED04AA
:10ADDC00ED0C27F8105098F801600EB3D1F810352F
:10ADEC0098F802C023F4991323F4F853C1F81035E2
:10ADFC0036042302D1F810E503F47C5306F44036F4
:10AE0C0033434FEA0C5443EA0E0304F4801445EA2E
:10AE1C004235234345F02005C1F8103527F8105072
:10AE2C000248BFE7080000210400AD0B0000AD0B89
:10AE3C00014BC3E9020170470800002110B504461C
:10AE4C00FFF7F8FD50B12046FFF792FD044B083098
:10AE5C0033F8103003485B0B0B7010BD0248FCE755
:10AE6C00080000210000AD0B0400AD0B38B5184DE7
:10AE7C0095F8804054BB2146602205F1100001F08A
:10AE8C00C5FE2146286F884212D10023114C0A209E
:10AE9C00C4F87C31D4F87C31FEF7FCF94FF0004358
:10AEAC00C4F8043301230C4885F88030AB6738BDF7
:10AEBC00CAB2920002F580737C2A01BF03F182436F
:10AECC0003F520431C601B680131DCE70348EEE707
:10AEDC000800002100A000410000AD0B0500AD0BE7
:10AEEC00034B93F88000003818BF0120704700BF57
:10AEFC000800002101460148FFF7F4BB7C0000214B
:10AF0C0001460148FFF7CEBB7C00002113B5044677
:10AF1C00FFF790FD00B32046FFF7E4FDE0B12046BB
:10AF2C00FFF77CFD0024830003F1824202F52142ED
:10AF3C0003F18243146003F520431268D3F8102503
:10AF4C0042F00102C3F8102521B10123134A8340BA
:10AF5C00C2F8043302B010BD2046FFF709FD104BB8
:10AF6C00083033F81030C3F38203042B11D0052BB7
:10AF7C0011D001A80194FFF7E9FC019B0169D940AC
:10AF8C0001F001010231204602B0BDE8104001F091
:10AF9C000DBD0321F7E70221F5E700BF00A000413A
:10AFAC00080000212DE9F04F684BDFF8A481D3F89D
:10AFBC000403D8F87010C0B289B040F00040FFF71D
:10AFCC0063FD051E2FDAC24600235AF87C1F06A823
:10AFDC00CDE90633FFF73AFD4FF0000B5D4B0DF159
:10AFEC0018090193019A12F8013B0192DA081AF838
:10AFFC00022003F0070322FA03F3DA071CD409F149
:10B00C000409BBF1000F14D0D8F870104FF00040B9
:10B01C00FFF73AFDD8F87C1006A8FFF717FD0028BB
:10B02C00DAD125F000450124002D76D109B0BDE818
:10B03C00F08F4FF0010BD5E7474B5B440293D9F8E7
:10B04C0000100029DBD091FAA1F1B1FA81F1029B39
:10B05C001C7841EA44142046FFF78AFC083038F883
:10B06C001070C808BB080393012319F8002001F0E5
:10B07C00070103FA01F122EA010209F8002005A8F0
:10B08C000594FFF763FC059A039B803250F822204D
:10B09C00C7F382065B073746C2F3014222D520462E
:10B0AC003946D6B2FFF76EFC05A80594FFF74EFCA7
:10B0BC00059B803350F82330C3F301439E4207D1E4
:10B0CC000021204601F072FC3146204601F06EFC56
:10B0DC0005A80594FFF73AFC0122059B02FA03F33D
:10B0EC000362ACE7022A0CD10321204601F05EFC7E
:10B0FC0006F00503012BEBD139462046FFF742FC45
:10B10C00E6E702212046039201F050FC032EF3D017
:10B11C00039A032ADCD1022EEDE795FAA5F3B3FAD4
:10B12C0083F304FA03F29B0003F1824303F52043FB
:10B13C00D3F81005D3F81015C0F30520C1F3014165
:10B14C0025EA0205FFF71EFC6EE700BF00A00041D8
:10B15C0008000021DACF0001DACF000138B5034630
:10B16C004FF02002EFF3118582F31288BFF36F8F3B
:10B17C0001F054FD064A1458184601F0AEFB85F355
:10B18C001188BFF36F8F2046BDE83840FEF76CBBCB
:10B19C0008000000104B70B553F82040013053F8F4
:10B1AC002060A64200D870BDD4E9003595B153B1EA
:10B1BC002846984738B10028B8BF4042FF28A8BF9E
:10B1CC00FF20EB681870EA68537843F00103537062
:10B1DC000834E6E79847FBE7CCCE0001012208B51E
:10B1EC00094B03201A70FFF7D5FF00F005FE042071
:10B1FC00FFF7D0FF00F002F901F04AF8034A137B85
:10B20C0023F00103137308BDDA0200214001002171
:10B21C0008B50348034A0021121A01F0DEFB08BDF1
:10B22C00A0000021DC0200210023012270B586B0B1
:10B23C00CDE904230F220193CDE9023214230446F5
:10B24C00124D134E03FB0055124906EBC016124B60
:10B25C0001EB00214FF480723046009500F090F81D
:10B26C00737B2C7423F0040373730C4B013403EBCA
:10B27C00C4236B600A4BEE60D3E8EF1F0131C3E8C7
:10B28C00E21F002AF8D106B070BD00BFA402002155
:10B29C00C0000021E00A0021FBC90001E0020021EE
:10B2AC00A002002180B50020A6B0FFF773FF2D4B44
:10B2BC0003F5006282F3088883F30A880024E023F4
:10B2CC00294D2A4E85F82230EC772C766C76AC76AC
:10B2DC0085F820406B6A264F43F4E0236B6285F8B7
:10B2EC002340FEF725FAFDF795FF4FF0FF33AB62D5
:10B2FC00EB62FEF727FCFEF7CDFA40F20113ADF836
:10B30C00243006ABB360CDE91E44219401F037FC28
:10B31C000120FFF73FFF0220164DFFF73BFF00F027
:10B32C0007FB154B75610593012314494FF480629B
:10B33C00CDE9034328463B46CDE90144009400F097
:10B34C001FF806466A7B284622F004026A7301F055
:10B35C0094FB2046FFF768FF3A4631462846FEF735
:10B36C005FF800BFE002002100ED00E0A402002124
:10B37C00E9B1000140010021E8CF0001E00B002100
:10B38C002DE9F043984685B000F15803C0E9163317
:10B39C00109B002603730423073222F00705437326
:10B3AC000F9B01EB05090F4683734946C0E90666FE
:10B3BC008660C6730446FEF761F80E9B073020F0DA
:10B3CC000700A066C4E9187502930D9BA9EB000950
:10B3DC0001930C9B4A460093394643462046FEF7A0
:10B3EC0003F8054B66659B6803B1DB6E4846E36664
:10B3FC0005B0BDE8F08300BFA40200212DE9F043A5
:10B40C00294C2A4D87B02646AE4204F12C040FD3AA
:10B41C0000F05EFA4FF4004640F2E737224CDFF8BA
:10B42C009090AC4220D307B0BDE8F04300F064BA72
:10B43C0054F8043C059354F80C3C049354F8103C19
:10B44C00039354F8143C029354F8183C019354F8A9
:10B45C001C3C009354E9092354E90B01FFF790FFBE
:10B46C0054F82C3C5E65CEE7636A5A1C0DD0002163
:10B47C00384623EAE373C3FB060151EAC333D4F81D
:10B48C00008004D1404600F0D3F92C34C9E74FF4C6
:10B49C007A720023FDF7CCFA02460B4608F118002D
:10B4AC00494600F0AFFBF0E7A8CD0001A8CD0001A4
:10B4BC00EBCA000138B504464FF02003EFF31185B9
:10B4CC0083F31288BFF36F8F01F00DFB48B100229C
:10B4DC00826701F0D2FA2946BDE83840064800F0F0
:10B4EC0095B9D4E902329A4218BF0133A36085F3AF
:10B4FC001188BFF36F8F38BDDB02002113B54FF0FD
:10B50C002004EFF3118184F31288BFF36F8F8468EA
:10B51C0044B1013C846081F31188BFF36F8F00202C
:10B52C0002B010BD52EA030406D181F31188BFF3B7
:10B53C006F8F6FF00F00F3E7CDE90023024602484E
:10B54C0000F046F9ECE700BFDB020021C3897F2B3A
:10B55C0012D80A4B1B6863B1094B90F90E201B687B
:10B56C009A4209DB437BDB0606D1064BC31A18BF94
:10B57C00012303F0010070470023FAE7CC020021FD
:10B58C00C8020021C00000210122044BC01A044B48
:10B59C00C0105843034B1A54704700BFC001002120
:10B5AC00ABAAAAAADB02002170B50E4B0E4C1E7C76
:10B5BC00182303FB06440546204601F0C6FA002278
:10B5CC000A4B28469A55FFF7C1FF48B1084B204655
:10B5DC00BDE870401A680749013AD31700F012BB56
:10B5EC0070BD00BFA4020021C0010021DB020021BC
:10B5FC00CC02002195B5000138B50D4D2B4653F802
:10B60C00184F9C4200D004B9EC68AB6838B95A7B2F
:10B61C00D20604D1A26912B9DA897F2A05D89C42D4
:10B62C0002D02046FFF7C0FF23466B6138BD00BF38
:10B63C00A402002170B590F90D200146002A437B2D
:10B64C0004DA03F07F03437301F0DDF9154A4B7BF9
:10B65C00104663F07F034B7350F8183FD469834254
:10B66C0008BF002323B9C1E900042160D1610CE0BB
:10B67C0091F90E5093F90E60B5420ED0AE420CDD2E
:10B68C005868C1E90030016059609068BDE87040AD
:10B69C00431A58425841FFF7AFBF9C42E3D01B6896
:10B6AC00E0E700BFA402002170B490F90D30427B9A
:10B6BC00002B29DBD30627D183692BBB134962F0FE
:10B6CC007F0242730A4652F8184F944218BF234621
:10B6DC00CC6923B9C0E900242060C8610CE090F962
:10B6EC000E5093F90E60B5420AD0AE4208DD5A688E
:10B6FC00C0E9003210605860002070BCFFF77CBFBE
:10B70C00A342E7D01B68E4E770BC7047A402002199
:10B71C0008B590F90D200146002A437B04DA03F0AA
:10B72C007F03437301F06FF9044B9868431A584236
:10B73C005841BDE80840FFF75FBF00BFA4020021DD
:10B74C0070B515461C46064601F06FF9B4F1FF3F83
:10B75C0008BFB5F1FF3F08D02A46234606F1180072
:10B76C000249BDE8704000F04DBA70BDEBCA000153
:10B77C0038B54FF02003EFF3118583F31288BFF334
:10B78C006F8F104B104A9C681068A04206D1FFF7CF
:10B79C000BFF85F31188BFF36F8F38BD00211B7C25
:10B7AC0011600A4AD35C002BF3D02046FFF7CEFE83
:10B7BC000028EED0637BDB0602D12046FFF73AFF70
:10B7CC002046E4E7A4020021C4020021DB02002190
:10B7DC0070B50C480C4D86680C462E601146DDE9A0
:10B7EC0004234FF02006EFF3118586F31288BFF384
:10B7FC006F8F8068FFF7A4FF2046BDE87040FDF70F
:10B80C0095BD00BFA4020021C402002149B9EFF389
:10B81C00058030B9054B5A699B689A4201D0FDF7F7
:10B82C0085BD81F31188BFF36F8F7047A40200218F
:10B83C0010B54FF02002EFF3118482F31288BFF39E
:10B84C006F8F427B510704D484F31188BFF36F8F41
:10B85C0010BD22F004024273FFF726FF2146BDE81B
:10B86C0010400148FFF7D2BFDC02002170B504463E
:10B87C00183001F06AF94FF02003EFF3118683F3CF
:10B88C001288BFF36F8F94F90D20637B002A05DAC1
:10B89C0003F07F032046637301F0B5F80B4D637B17
:10B8AC00A86843F010036373031B58425841FFF719
:10B8BC00A3FE86F31188BFF36F8FAB68A34203D14D
:10B8CC00BDE8704001F037B970BD00BFA402002183
:10B8DC004FF02003EFF3118183F31288BFF36F8FC6
:10B8EC00044B9A68D37B013BD37381F31188BFF36C
:10B8FC006F8F7047A402002110B54FF02003EFF3B7
:10B90C00118483F31288BFF36F8F084B00209A6861
:10B91C00D37B0133D373FFF76FFE84F31188BFF32E
:10B92C006F8FBDE8104001F006B900BFA4020021E2
:10B93C00024B03F11802C3E906227047A40200214E
:10B94C00F8B54FF02003EFF3118583F31288BFF3A2
:10B95C006F8F19498868437B03F07F03437301F0B1
:10B96C0052F808468B685A7B62F07F025A7350F883
:10B97C00182FCC69824208BF002222B9C3E9000407
:10B98C002360CB610CE093F90E6092F90E70BE420D
:10B99C000ED0B7420CDD5168C3E900210B60536037
:10B9AC000120FFF729FE2846BDE8F840FDF7BEBC94
:10B9BC00A242E3D01268E0E7A402002150EA01039E
:10B9CC002DE9F04105460E4603D1FFF7B9FF0020E3
:10B9DC002CE0831C71F1FF332ADB01F0CCF82C181E
:10B9EC004FF02003EFF3118883F31288BFF36F8FAE
:10B9FC00114F124BB8681860FFF78AFEB8681049EF
:10BA0C002A463346183000F0FDF8BA684046537B9E
:10BA1C0043F010035373FDF789FC01F0ACF8201AC6
:10BA2C0063EB0303012873F10003D0DBBDE8F08165
:10BA3C006FF00104241AD3E7A4020021C4020021F0
:10BA4C00EBCA0001B1F1FF3F08BFB0F1FF3F08B5F1
:10BA5C0006D1084B9868FFF709FF4FF0FF3008BD7F
:10BA6C00FFF7ACFF4FF47A7380FB0303C00B40EA83
:10BA7C004340F4E7A4020021014B9868704700BFD3
:10BA8C00A40200212DE9F04104464FF02003EFF30E
:10BA9C00118683F31288BFF36F8F037BD9070BD505
:10BAAC0086F31188BFF36F8F404080F311884FF0FD
:10BABC00040002DFBDE8F081437B1A0704D586F34E
:10BACC001188BFF36F8FF5E723F0200242F00801D5
:10BADC00D20920D14173A36813B1204600F09BFF1B
:10BAEC0004F1180001F031F84FF0000804F1580788
:10BAFC00A56DBD4200D0B5B90120FFF77DFD104BFF
:10BB0C009B68A342DBD1EFF30583002BD7D13046E2
:10BB1C00FDF70CFCD3E703F05F0343F0080343731A
:10BB2C0000F071FFD7E7284600F075FF05F118000B
:10BB3C0001F00BF82846C5F87880FFF7B5FDD7E77C
:10BB4C00A402002108B50648064A0749121A00F05B
:10BB5C0046FFBDE80840054A0549064800F03FBFCE
:10BB6C00000000219A00002134D0000100000000E8
:10BB7C0034D0000100000021034B1B680BB9FEF709
:10BB8C00D1BC0020704700BFD002002110B50E4B75
:10BB9C001C689C4204D1FFF7EFFF6FF0004010BD12
:10BBAC00FFF7EAFF002CF8D0D4E904321B1A62EB41
:10BBBC00E072B3F1004F72F10001EEDA002AACBF73
:10BBCC0018460020EBE700BF8C00002130B570B1A7
:10BBDC000B4B5B6898420AD0036843B1D3E904214C
:10BBEC00D0E90445121941EB0501C3E90421D0E960
:10BBFC00003213605A600023C0E9003330BD00BF2F
:10BC0C008C000021B3F1FF3F08BFB2F1FF3FF8B544
:10BC1C0004461D4616465CD081604FF02003EFF3BE
:10BC2C00118783F31288BFF36F8F013275F1FF33E5
:10BC3C0024DA6FF001032C49D1E900209B1A4FF054
:10BC4C00FF3262EB00009E1B60EB0500012E70F1D1
:10BC5C00000301DA01260020C4E90460234ED6F863
:10BC6C0000C07568B44508BF4FF0000CBCF1000F64
:10BC7C000DD1C4E900652C6074601CE0FFF77CFFFB
:10BC8C00013645F10005361845EBE070E4E7DCE9D8
:10BC9C000420D4E90431934271EB000E1ADAD21A63
:10BCAC00DCF8043060EB0100CCE90420C4E900C3EB
:10BCBC001C60CCF804403368B34206D09C4204D1DB
:10BCCC00FFF764FF0021FEF7FBFB87F31188BFF33E
:10BCDC006F8FF8BD9B1A61EB0001AC45C4E90431D0
:10BCEC00C7D0DCF800C0C1E7D80100218C000021CE
:10BCFC002DE9F84F4FF02003EFF3118C83F31288EA
:10BD0C00BFF36F8FDFF8B0A0DFF8B0900024C9F854
:10BD1C000000DAF800000025504508BF0020284F2D
:10BD2C00E046D7E90021D9F8003080B3D0E9046CA3
:10BD3C004FEAE37EB3427EEB0C0B05DAF61A6CEBA2
:10BD4C000E04C0E9046422E0B21841EBE671C0E9CC
:10BD5C000445C7E90021FFF739FF88F31188BFF3C9
:10BD6C006F8F836898474FF02003EFF3118883F3AC
:10BD7C001288BFF36F8FD9F80030DAF800009B1BE4
:10BD8C005045C446C9F80030CAD1D7E90021002477
:10BD9C009A1841EBE373C7E90023C9F80040FFF799
:10BDAC00F5FE2146FEF78CFB88F31188BFF36F8FED
:10BDBC00BDE8F84FFFF7DCBC8C000021D00200215D
:10BDCC00D801002110B54FF02003EFF3118483F359
:10BDDC001288BFF36F8FFFF7CFFE0346054AD2E9F7
:10BDEC000001181841EBE37184F31188BFF36F8FD6
:10BDFC0010BD00BFD8010021014800F04DBA00BFB2
:10BE0C00F0CF00012DE9F04F43688BB08246144609
:10BE1C00019383789F0740F10981002591F80080F8
:10BE2C00B8F1000F00F00481B8F1250F0BD04B1CBA
:10BE3C000293013551464046019B98470028C0F2B9
:10BE4C00F5800299EAE791F801808B1CB8F1250F77
:10BE5C000293EED0002399461F461F2F39D8A8F124
:10BE6C002002102A0AD8DFE802F02B09093109094F
:10BE7C00092109090929092E09091F00A8F1300215
:10BE8C00092A32D9B8F12A0F35D1780654F8042B87
:10BE9C0000F18180002AA7BF47F020079146C2F12C
:10BEAC00000947F0280701E047F00107029A12F851
:10BEBC00018B0292B8F1000FCFD132E047F00207AC
:10BECC0047F00407F2E747F00807EFE747F01007E1
:10BEDC00ECE77F2F18D8A8F13002092AD2D87E06B9
:10BEEC0003D50A2101FB0323E0E70A2147F02007D1
:10BEFC0001FB0929DAE7B8F12E0F05D1790600F11B
:10BF0C00978047F04007D1E7B8F16C0F32D02AD8B0
:10BF1C00B8F1680F35D0B8F16A0F39D0B8F14C0FC1
:10BF2C0036D0002B48F02002B8BF27F04007A2F112
:10BF3C006501BCBF0023BFB2022901D9612A2CD1F3
:10BF4C0007344FF007089A4E24F0070408343807DA
:10BF5C0063D506EB080B37465F4560D1AE1BA9EBEA
:10BF6C000809374454E1B8F1740F9FD0B8F17A0F37
:10BF7C009CD0D6E73A0648BF47F4007747F08007D5
:10BF8C0094E7FE0548BF47F4007747F480778DE7C8
:10BF9C0047F420778AE7134688E7A8F16301122952
:10BFAC0000F2CF80DFE811F013004800CD00CD0087
:10BFBC00CD00CD004800CD00CD00CD00CD00CD0092
:10BFCC00DF00C700CD00CD001B00CD00960054F85B
:10BFDC00043B4FF0010807AE8DF81C30B7E754F85E
:10BFEC00046B744A002E08BF164617F0400F3046FB
:10BFFC0014BF19464FF0FF3100F0D3FD8046A6E781
:10C00C0051462020019B984700280FDB013FB84583
:10C01C00F6D34D44B946ED1B9BE74F46F7E7514627
:10C02C0017F8010B019B9847002895DA4FF0FF3564
:10C03C0028460BB0BDE8F08F390637D5BA0549BF95
:10C04C00073454F8040B24F0070454F8080B27F0B9
:10C05C0010060028B6B232DA404246F4806607AFCA
:10C06C000A220393394600F0A8FD7206A0EB0707DD
:10C07C00039B4BD526F00101BB4289B240F38A8069
:10C08C00B8F1000F00F0828016F01002039240F01D
:10C09C0083809B460E4640F2064116EA010203924B
:10C0AC001EBF00220BF1010B039238E0FE0554F881
:10C0BC00040BCCD5B9054CBF40B200B2C7E7CED10A
:10C0CC007A06CCD5002BCAD127F01107BEB21F4679
:10C0DC009B46E0E727F010070A22BFB23E0646D582
:10C0EC00B80549BF073454F8040B24F0070454F87E
:10C0FC00080B002844D127F016067906B6B242D5B3
:10C10C00002B40D127F01707BEB21F4616F01002C5
:10C11C0003924AD0B8F1000F45D107F1010B31075A
:10C12C005CD4F20705D5D94575DDA9EB0B02CB46DE
:10C13C00D3195A464CE047F0100710224FF07808FC
:10C14C00CCE7782A06D1B8F1580F14BF10224FF45F
:10C15C000472C3E751462520019B98470028FFF63F
:10C16C0065AF023566E608224FF00008B6E7F90520
:10C17C0054F8040BBDD5BE054CBFC0B280B2B8E7B5
:10C18C0027F00607BEB207AF03936BE726F0110644
:10C19C00B6B29DE70E46B9E738460E461F4607F184
:10C1AC00020B0746BBE73846F9E7BB4673E700BF0F
:10C1BC0025D000011ED00001CDE9043251462020CB
:10C1CC00019B98470028FFF631AF059A049B01327A
:10C1DC009145F1DCA5EB0B0193468D18039A32B314
:10C1EC00039351463020019B98470028FFF61EAF61
:10C1FC00039BB8F1000F10D101355E19711B8F42F2
:10C20C0027DB3E460DF11C085EBB2F44A9EB0B0946
:10C21C003D46B94436E03B468BE702355146404635
:10C22C000393019B98470028039BE6DAFEE640F255
:10C23C0006410E42E1D016F0020F05F10105514600
:10C24C00039314BF2B20202016F4806F18BF2D20D1
:10C25C00E7E751463020019B013598470028CDDA9D
:10C26C00E4E6013E5146019B18F806009847002869
:10C27C00CADADBE651462020019B0135984700289D
:10C28C00FFF6D4AEA9EB0503002BF3DCD9E500BF18
:10C29C0000207047002070470FB407B504A951F86F
:10C2AC00040B0191FCF732FD03B05DF804EB04B014
:10C2BC007047836800EBC101B3F5004F2CBF51F8F8
:10C2CC00220031F81200704700EBC1018068B0F514
:10C2DC00004F2CBF41F8223021F812307047012258
:10C2EC0008B5FFF7E6FFD04008BD836800EBC1013D
:10C2FC00B3F5004F08D34B681AB143F001034B6000
:10C30C00704723F00103FAE74B881AB143F001039D
:10C31C004B80704723F00103FAE753000122FFF72B
:10C32C00D3BFB0F5004F34BF04230823481C083397
:10C33C00A0EBD300B0FA80F0C0F11F0070472DE9DC
:10C34C00F0410D4686680446FFF7C9FFB6F5004F6D
:10C35C00014601D3012832D03046FFF7E2FF04EB4F
:10C36C0080010E6996B90122E36882401343E360B1
:10C37C0002220D612B4629462046FFF7A5FF03221A
:10C38C0029462046BDE8F041FFF79EBF0222314608
:10C39C002046FFF78EFF0746034629462046FFF747
:10C3AC0093FF0322334629462046FFF78DFF39467B
:10C3BC002B462046FFF788FF02223146E1E7BDE815
:10C3CC00F081B2F5802F2CBF082304232DE9F04116
:10C3DC000026D21A8C18CD1D25F0070524F0070471
:10C3EC00641BE408056021462046AC60EE60FFF754
:10C3FC0098FF421D9200013002F107074FEAD70760
:10C40C003146A2F1100205F11000B8BF324600F01F
:10C41C00FDFB3A4631462846FFF77FFF334632464E
:10C42C0031462846FFF750FFA4EB07082846314653
:10C43C000122FFF75AFF42463946FFF76EFF3B4693
:10C44C00324639462846FFF73FFF21462846FFF77C
:10C45C0064FF4346324621462846FFF735FF214606
:10C46C0028460122FFF741FF3946BDE8F041FFF7AE
:10C47C0066BF038B13F0070305D10368002B0CBFB9
:10C48C00002003207047022B05D1408BB0FA80F0BE
:10C49C00400980007047012B05D10368002B0CBFAD
:10C4AC000020052070470020704710B50C4600B1E5
:10C4BC0011B96FF0150010BD081D00F095F800289B
:10C4CC00F9D1A368032BF6D9F3E72DE9F0410D461A
:10C4DC0007461946281D90461E4600F096F804465D
:10C4EC0038B13346424629463846A446BDE8F041A9
:10C4FC006047BDE8F08110B44FF02004EFF31182D7
:10C50C0084F31288BFF36F8F416110BC0121FCF7DB
:10C51C002FBC38B50C46054658B151B10B6843B128
:10C52C004B6833B11C22002100F070FB00202C6101
:10C53C0038BD6FF01500FBE770B505460E46FFF7EA
:10C54C00B4FF041E15DB4FF02003EFF3118283F3CD
:10C55C001288BFF36F8F4FF6FF716B8B2C8B8B4256
:10C56C0004F0070407D182F31188BFF36F8F6FF0CB
:10C57C000A04204670BD022C0CD101336B8382F36C
:10C58C001188BFF36F8F0023224631462846FFF7F0
:10C59C009CFFEEE7062C14D8DFE804F00413131309
:10C5AC00041A0400002333606B683BB9C5E90066CC
:10C5BC00ACB902212846FCF7DBFBDAE71E606E60A3
:10C5CC00F6E782F31188BFF36F8F6FF00404D0E7A6
:10C5DC0082F31188BFF36F8F6FF08504C9E782F384
:10C5EC001188BFF36F8FC4E7034658B1426802F05D
:10C5FC000302012A03D0032A04D1026812B10020DD
:10C60C00986070476FF0150070474268034602F05F
:10C61C000302032A4FF00002816014BF1046006829
:10C62C005A6070477047F0B5D0F80473064617F09F
:10C63C0002001CBFC2F1807018604FF0000518BFDB
:10C64C0001204FF0010C4FF4803E0CFA05F40C4223
:10C65C0014D00EFA05F43C4210D005F5A87456F827
:10C66C002440A41A34F07F4408BF4FF0807408B9FA
:10C67C001C6002E01868A042FAD801200135042D94
:10C68C00E3D1F0BDFCF782BCFEF768BD0146006843
:10C69C00FEF764BD00210120FFF7F6BF08B5FCF7DB
:10C6AC002BFEBDE80840FCF717BF036E83F30B8825
:10C6BC00704740E800F313F4803FD8B208BF6FF026
:10C6CC00150070477FB50A894E890B684D6802F0DA
:10C6DC001F0242EA461200938DF8082023F01F0334
:10C6EC006A1E134423F01F030728039304D86946DA
:10C6FC00FDF7ECF804B070BD6FF01500FAE70C22F2
:10C70C000369C9B201FB0233186C00F007007047D3
:10C71C004FF02003EFF3118283F31288BFF36F8F76
:10C72C00036803F0C00343F00203036082F3118833
:10C73C00BFF36F8F704770B5C9B203694FF0200417
:10C74C00EFF3118584F31288BFF36F8F0C2606FB71
:10C75C000134246C14F0C00408D0A24206D085F336
:10C76C001188BFF36F8F4FF0FF3070BD012206FBB5
:10C77C0001331A6485F31188BFF36F8F436803EBA1
:10C78C00C1035B6898470020EFE78022FFF7D3BF17
:10C79C00F8B5069F0469C9B24FF02005EFF3118676
:10C7AC0085F31288BFF36F8F0C2505FB0144256CB4
:10C7BC0005F0070CBCF1010F0CD1276486F311882E
:10C7CC00BFF36F8FC4E90E23436853F83130984799
:10C7DC000020F8BD05F0C005AF4286F31188BFF309
:10C7EC006F8F0CBF6FF077004FF0FF30F1E713B590
:10C7FC0080240094FFF7CCFF02B010BD10B41C24B1
:10C80C000069CBB203FB0400002110BC10470020D0
:10C81C00FEF708B8002000F07EB81046FEF74ABEBE
:10C82C00436800205B681B690B607047436802EA31
:10C83C0001005B6821EA020198600020D960704712
:10C84C00436800205B6899607047436800205B6810
:10C85C00D960704743685A68536821EA03000B405B
:10C86C0090600020D360704710B503695868F8B128
:10C87C00884219D19C680868A142586000D1986020
:10C88C00002008602AB15A680A609A68596002B997
:10C89C009960002010E0814206D1086820609868F9
:10C8AC008142EDD19C60EBE7044600680028F2D190
:10C8BC00002AE8D16FF0150010BD002200F15003E2
:10C8CC009B009BB203F1824303F5B0331A601B68E3
:10C8DC00704708B5FDF78EFC08BD002008B5FCF7C5
:10C8EC0079FF03465A6B00233C309A4200D17047C3
:10C8FC00C16801330844F8E7004700F06AB840F01B
:10C90C000040C1F88000704740F00040C1F8800042
:10C91C007047FEF715B8FDF707BFF7B51646DDE90A
:10C92C000847019001A81D46FEF710F8019BB6F1CF
:10C93C00000C18BF4FF0010C00EB83000B1E18BF4E
:10C94C000123002D43EA4C0314BF4FF00C0C4FF0A5
:10C95C00000C002C43EA0C0314BF4FF4706C4FF026
:10C96C00000C002F43EA0C0314BF4FF4403C4FF073
:10C97C00000CD0F8002243EA0C0322EA030301B1B5
:10C98C0009780EB13678760019430DB12D78AD00CB
:10C99C0031430CB12478240229430FB13F783F0472
:10C9AC000C433C43C0F8004203B0F0BD1FB50DF181
:10C9BC000F03019300238DF80F101A4619460093AC
:10C9CC00FFF7ABFF05B05DF804FBFEF7BFB8FEF751
:10C9DC0097B808B1FCF712BC704700F017B900F01B
:10C9EC0008B9EFF30580003818BF0120704708B56F
:10C9FC004FF02002EFF3118382F31288BFF36F8F95
:10CA0C00FCF70EFCF4E7D0E9003213605A60002307
:10CA1C00C0E90033704708B5FFF7F5FF437B23F0FF
:10CA2C00020343730023836008BD38B504460D46EA
:10CA3C00FEF76EFE637B43F002036373E5B1A56002
:10CA4C002B689D4209D16B68C4E900531C606C6073
:10CA5C0012E06A689342F6D01B68002BF3D094F96D
:10CA6C000E2093F90E108A42F3D09142F1DD5A68F0
:10CA7C00C4E9003214605C6038BD10B54FF020037F
:10CA8C00EFF3118483F31288BFF36F8FFEF70CFE64
:10CA9C0084F31188BFF36F8F10BD38B504464FF087
:10CAAC002003EFF3118583F31288BFF36F8F437B61
:10CABC0013F0280F0BD183680BB1FFF7ACFF637B2E
:10CACC0051B903F0FB0320466373FEF7EDFD85F3CC
:10CADC001188BFF36F8F38BD03F0EB03F3E701212F
:10CAEC001838FFF7DABF38B54FF02003EFF3118594
:10CAFC0083F31288BFF36F8F0468A0420DD034B15A
:10CB0C002046FFF788FF04F1180000F01EF885F3AB
:10CB1C001188BFF36F8F204638BD0024F7E703461A
:10CB2C0020B9EFF305820AB9FCF700BC83F3118836
:10CB3C00BFF36F8F70474FF02003EFF3118083F337
:10CB4C001288BFF36F8FFFF7EABF10B54FF02002CA
:10CB5C00EFF3118482F31288BFF36F8F03683BB13C
:10CB6C00FFF734F8002084F31188BFF36F8F10BDEA
:10CB7C006FF01500F7E708B5FFF724F908BD70470B
:10CB8C0070470139024410B5904201D1002005E0F4
:10CB9C00037811F8014FA34201D0181B10BD0130CE
:10CBAC00F2E70246014410B58A42134603D01C78C2
:10CBBC000132002CF8D1181A10BD930570B548BF7E
:10CBCC0022F40072044608464CBF07212721264652
:10CBDC00B4FBF2F502FB15432C46DBB2092B84BFE8
:10CBEC005B18DBB2B24203F1300300F8013BEED923
:10CBFC0070BD0A44431E914200D1704710B511F824
:10CC0C00014B914203F8014FF9D110BD0244034688
:10CC1C00934200D1704703F8011BF9E70148006803
:08CC2C0070470000F401002133
:08CC34003CBEFF7F010000007F
:10CC3C00BD8F000100000000359C00017CCC000180
:10CC4C00859F0001A4CC0001859F000190CC0001C0
:10CC5C0069A3000100000000CD8F0001000000005E
:10CC6C009D9B00010000000045A500010000000094
:10CC7C000CCF000158CE000168CE000194000021B9
:10CC8C002002002129CF000184CE0001A4CE000196
:10CC9C00960000217402002137CF000194CE0001D0
:0CCCAC00A4CE00019800002180020021AD
:10CCB80000000000A1C6000100000000A1C600019C
:10CCC80000000000A1C6000100000000A1C600018C
:10CCD80000000000A1C60001E9A8000105C9000183
:10CCE80000000000A1C6000100000000A1C600016C
:10CCF80000000000A1C6000100000000A1C600015C
:10CD0800B1AF000105C9000100000000A1C6000183
:10CD180000000000A1C6000100000000A1C600013B
:10CD280000000000A1C6000100000000A1C600012B
:10CD380000000000A1C6000100000000A1C600011B
:10CD480000000000A1C6000100000000A1C600010B
:10CD580000000000A1C6000100000000A1C60001FB
:10CD680000000000F9A3000100000000A1C60001B6
:10CD780000000000A1C6000100000000A1C60001DB
:10CD880000000000A1C6000100000000A1C60001CB
:10CD980000000000A1C6000100000000A1C60001BB
:10CDA800B5CF000100000000C0CF00010000000066
:10CDB800DCCF000100000000E4CE0001000000000C
:10CDC8001BCF00010000000045CF0001000000005B
:10CDD800F9CE000100000000EDCF000100000000C6
:08CDE800F5CE0001000000007F
:10CDF000DEE61E28EAAC45B802350000DEE61E2855
:10CE00004CBBCE8F02350000000000000000000087
:10CE10000338FDD87047000000000021000000002A
:10CE200006000100020000002CCE000100000001FD
:10CE3000FDCE000106000000E0FF0301000000211C
:10CE400005CF000121000000E0FF0021F19B00015F
:10CE5000C19B000100000000DD9C0001759D0001E8
:10CE60001BC8000121C80001419D000197C70001B6
:10CE7000FBC70001000000000BC70001000000001C
:10CE800000000000FFFF000000088C4100000000CF
:10CE900001000000FFFFFFFF00058C4100000000C3
:10CEA0000000000009A000012DC8000139C80001E0
:10CEB0004DC8000157C8000161C80001A19E0001D2
:10CEC00075C8000100000000F5FFFFFF3CCC000129
:10CED0003CCC00015CCC000164CC00017CCC0001A6
:10CEE0007CCC000163627072696E74665F7061630E
:10CEF0006B61676500736F63006D707500464C4130
:10CF000053485F30005352414D5F3000636C6F6394
:10CF10006B40343130303530303000636C6F636BD0
:10CF20005F636F6E74726F6C006770696F4034314D
:10CF3000386330383030006770696F40343138639F
:10CF40003035303000666174616C5F6572726F728B
:10CF5000004552524F523A2043616E6E6F74206604
:10CF6000756C66696C6C204558545F41504920725D
:10CF70006571756573742E0D0A005741524E494E06
:10CF8000473A204F7074696F6E616C204558545F4A
:10CF90004150492072657175657374206E6F7420FD
:10CFA00066756C66696C6C65642E0D0A0000000085
:10CFB00001010000004E5246585F434C4F434B0066
:10CFC0004E5246585F4450504900002030303030B7
:10CFD0003030303030303030303000014E52465832
:10CFE0005F4750494F5445006D61696E006F730093
:10CFF0002A2A2A20426F6F74696E67206E5246207B
:10D00000436F6E6E6563742053444B2076322E3529
:10D010002E39392D64657631202A2A2A0A00286E95
:10D02000756C6C29002A666C6F61742A0000000020
:04D030000088000173
:10D03400A1C20001FFFFFFFF00000000000000008C
:10D0440000000000000000000000000000000000DC
:10D0540000000000000000000000000000000000CC
:10D0640000000000000000000000000000000000BC
:10D0740000000000000000000000000000000000AC
:10D08400000000000000000000000000000000009C
:10D09400000000000000000000000000000000008C
:10D0A400000000000000000008000000FF00000075
:10D0B4000000000003000000000000008C000021BC
:04D0C4008C000021BB
:06D0C80000000000000062
:04D0CE0015E015E074
:0400000501009781DE
:00000001FF
